:020000040000FA
:1000000070670010E1000000E5000000E70000005C
:10001000E9000000EB000000ED000000000000001F
:10002000000000000000000000000000EF000000E1
:10003000F100000000000000F30000007504000063
:10004000F70000002123000047230000F700000014
:10005000F7000000C9260000F7000000F7000000CC
:10006000F7000000F7000000F7000000F7000000B4
:10007000F7000000F7000000F7000000F7000000A4
:10008000F7000000F7000000F7000000F700000094
:10009000F7000000F700000039040000F70000003E
:1000A000F7000000F7000000F7000000F700000074
:1000B00001280000F7000000F7000000F700000032
:1000C000F7000000F7000000F7000000DFF80CD098
:1000D00002F05CFE004800479505000070670010C4
:1000E00005480047FEE7FEE7FEE7FEE7FEE7FEE71E
:1000F000FEE7FEE7FEE7FEE7CD000000FEE70000BA
:100100000020044A20211154401CC0B2C828FAD350
:1001100070470000720000100146054A0020401C94
:10012000C0B2135C8B4201D0C828F8D370470000DE
:100130007200001010B50021064C0A22B0FBF2F349
:1001400002FB13006054491CC9B218460529F5D3B7
:1001500010BD00004D140010F0B50F4B01212027F9
:10016000197005210D4A002601E01C7844B154188D
:1001700014F8015C25B9814202D904F8017C05E03C
:10018000541814F8015D303525701E70491E11F0A9
:10019000FF01EAD1F0BD0000521400104D14001010
:1001A00070B50D4616461C46FFF7C4FF601CC0B272
:1001B000FFF7D2FF05EB850006EB8000C1B20C4AC9
:1001C0000C4B0020A04201D2155C5D5406D3155C97
:1001D000202D03D04CB15E1806F8015C491E401C6E
:1001E000C0B2C9B20528EDD370BD5D54F6E700007A
:1001F0004D1400107200001030B504460846154634
:10020000FFF78AFFFF2809D0054A2178002905D089
:100210004319641C401CD154C0B2F6E730BD000045
:100220007200001070B50D461446FFF783FF601C86
:10023000C0B2FFF791FF2846FFF76EFF0F4B104A41
:10024000002124B95D5C202D01D015540FE0A1429E
:1002500001D25D5CF9E704D14FF02E0515545D5CC9
:1002600002E05D5C202D02D0161806F8015C401EED
:10027000491CC9B2C0B20529E3D370BD4D140010AA
:1002800072000010F0B505460E461746FFF738FF1E
:10029000144C0020401C15F8011BC0B204F8011BCF
:1002A0001428F7D35FF00000401C16F8011BC0B201
:1002B00004F8011B1428F7D35FF00000401C17F866
:1002C000011BC0B204F8011B1428F7D35FF0000033
:1002D000401C13F8011BC0B204F8011B1428F7D30B
:1002E000F0BD00007200001000B50346C0B200F07F
:1002F0004BF8184600BD704770470000FFFFFFFF36
:1003000017B501EB810002EB8000C2B29DF800300E
:100310001B4803F00F0100EB1313445C19498C5484
:10032000521ED2B21B788B549DF80130521E03F03E
:100330000F04D2B2045D8C54521E00EB1313D2B2E0
:100340001B788B549DF80230521E03F00F04D2B27A
:10035000045D8C54521E00EB1313D2B21B788B54E5
:100360009DF80330521E03F00F04D2B2045D8C548A
:10037000521E00EB1310D2B2007888541EBD00004C
:10038000A03600007200001006490A7D9206FCD5D6
:100390000A2805D10D200870087D8006FCD50A20AA
:1003A0000870704700C0004010B51E4C606E02F02F
:1003B000A8FB6FF0DD01606E02F0CDFC0021606EE5
:1003C00002F0C9FC41F2871204F2C621606E02F00D
:1003D00090FC1549606E02F0BEFC1449606E02F09C
:1003E000BAFC1349606E02F0B6FC4FF02051606E0B
:1003F00002F0B1FC0F49606E02F0ADFC4FF02451E9
:10040000606E02F0A8FC00220121606E02F02BFB5E
:100410000021606E02F09FFC606EBDE8104002F0AB
:10042000B0BA0000000000100100000594000001B7
:100430001518100715300008FF48016821F0E06129
:1004400001607047FD48016841F050010160FC48BF
:10045000832101730C21017000210171017A41F0A7
:1004600007010172F22180F82810017B21F0800140
:10047000017370472DE9F041F24C0126F248E67114
:10048000A17C39B1016A41F080610162416B81F068
:1004900080614163618F491C09B26187022977DB62
:1004A00000256587A6714069C0F3C060E074217DB6
:1004B000884204D0B4F84610491CA4F846102075B0
:1004C000A08F401C00B2A087142801DBA5876672AC
:1004D000208E401C00B220860A2859DB2586267211
:1004E000B4F84800401C00B2A4F84800B0F5FA7F08
:1004F00007DB04F14404A580608820806580A4F1B6
:10050000440442F21077608E401C00B260860A28D4
:1005100009DB6586A672FFF7EEFEB4F91E00B8424D
:1005200001DA401CE083A08E401C00B2A086142893
:1005300006DBA586E672E07B08B1E57300E0E673B2
:10054000E08E401C00B2E086322806DBE58626738A
:10055000207C08B1257400E02674208F401C00B276
:100560002087642814DB25876673B4F92000B8421D
:1005700001DA401C2084607C08B1657400E0667478
:10058000E08F401C00B2E0873C2801DBE587A673C2
:10059000BDE8F0811CB501F019FEAA4C01204FF412
:1005A000FA61A074A9480068B0FBF1F14FF0E020B7
:1005B000491E416107210161A34D286820F00060B8
:1005C0002860286C40F080002864286C40F480701B
:1005D0002864FFF737FF9E4911200872286840F40D
:1005E00000602860A86940F40060A86101F0A2FCE6
:1005F00098486066286840F400102860E86940F474
:100600000010E861944E3046401EFDD1286840F449
:1006100000102860A86940F40010A8613046401E10
:10062000FDD101F097FD761EFDD1482001F0B0FD0F
:100630008A48401EFDD1422001F0AAFD052001F0AC
:10064000A7FD01F087FD682001F0A2FD844E304631
:1006500001F096FC7C28FAD1814840F252312C30CE
:1006600001F018FD7E482E21303001F013FD7C484A
:100670000021383001F00EFD794807213C3001F0AF
:1006800009FD774840F20D21403001F003FD744828
:100690001721443001F0FEFC714800214C3001F07C
:1006A000F9FC6F480721503001F0F4FC6C48002140
:1006B000643001F0C7FC6A4800216C3001F0C2FCD4
:1006C00067484FF44871343001F0E4FC64484FF45B
:1006D000F071483001F0DEFC6148FF21903001F0FC
:1006E000B1FC5F48FF21943001F0ACFC5D4F4FF44A
:1006F0004010394601F0FAFC5B495C4801F0F6FC19
:100700005A485B49001D01F0F1FC5848594908302E
:1007100001F0ECFC554858490C3001F0E7FC534817
:100720005649103001F0E2FC50484FF00456314673
:10073000143001F0DBFC4D485149183001F0D6FC73
:100740004A4850491C3001F0D1FC47494748491CF0
:10075000203001F0CBFC45484B49243001F0C6FC69
:1007600042483146283001F0C1FC00214FF03010E2
:1007700001F0BCFC3A480221543001F063FC3848D7
:100780000521703001F05EFCFFF70EFE102001F035
:1007900093FEDFF8F88045F2555608F1040909F197
:1007A000040A0AF1040BB04204D1122001F084FEC5
:1007B00000287BD0606E02F0A4F93549606E02F02B
:1007C000CAFA3946606E02F0C6FA6FF07B41606E7D
:1007D00002F0C1FA4FF47F01606E02F0FBF8FF21D6
:1007E000606E02F0C1F82BA14FF4C060CDE90001AA
:1007F00064221B231146606E02F056F80021606EE1
:1008000002F021F90021606E02F0A5FA606E02F09C
:10081000B8F8404601F0DCFB0146142001F00EFF61
:10082000484601F0D5FB0146182001F007FF50466D
:1008300001F0CEFB01463AE00040034000C0024018
:1008400000C000400000001000C00920601400102B
:100850000040024034FD072080A90300C0D40100FD
:1008600000203000070000260100001F04003000B7
:10087000C6EF869B16FF1604C4EFC6A1C9EF06B2E9
:100880001616FF044001000D00500898502130005A
:10089000C8C8C802506C6561736520546170206FD0
:1008A0006E2074686520646F740000004BE01C20AB
:1008B00001F0C4FE584601F08BFB0146202001F0F8
:1008C000BDFE484801F084FB0146242001F0B6FE3D
:1008D0004448001D01F07CFB0146282001F0AEFEDB
:1008E0003146102001F06CFE3F48002606703F485C
:1008F000401EFDD1A674607900B16671E07900B147
:10090000E671A07900B1A671207A00B12672607AF2
:1009100000B16672A07A10B1A67200F021F9E07AF7
:1009200000B1E672207B00B12673607B002854D0B2
:10093000B4F92C00B0F57A7F01DA401CA085A08DB7
:100940000A282CD02FE0142001F0F2FD0146404689
:1009500001F0CCFB182001F0EBFD0146484601F008
:10096000C5FB1C2001F0E4FD0146504601F0BEFB32
:10097000202001F0DDFD0146584601F0B7FB2420A0
:1009800001F0D6FD0146174801F0B0FB282001F028
:10099000CFFD01461348001D01F0A8FBA4E7144950
:1009A000122001F00DFEA08D0C2803D10021122091
:1009B00001F006FE6673286C40F480502864686D70
:1009C00080F480506865606D401C606509A000F08F
:1009D00017F8014608A002F019FAA07B002889D078
:1009E000A67387E7602130006800001080EE3600B3
:1009F000AAAAFFFF7373730061202573200D0A00FC
:100A00002DE9F0410024064642274FF04808534D97
:100A100098E0305D0146C03840286FD2DFE800F032
:100A20002025292B2F33373B3F8F43474B4F5256BF
:100A30005A5E62666A6F73777B7F8F8F8F83878B37
:100A40002227292D3135393D418F45494D4F545885
:100A50005C6064686C7175797D818F8F8F85898DFD
:100A6000412000E0612028556AE00120FBE70220D8
:100A7000F9E72F5564E00320F5E70420F3E70520AC
:100A8000F1E70620EFE74520EDE76520EBE70720DB
:100A9000E9E70820E7E70920E5E70A20E3E70B207C
:100AA000E1E70C20DFE74B20DDE76B20DBE70D20E3
:100AB000D9E70E20D7E74D20D5E70F20D3E705F87B
:100AC00004803DE04F20CEE76F20CCE71020CAE73E
:100AD0001120C8E75020C6E77020C4E74320C2E7D2
:100AE0006320C0E75420BEE71220BCE71320BAE71A
:100AF0007920B8E71420B6E71520B4E71FE05820A6
:100B0000B1E77820AFE71620ADE71720ABE7182054
:100B1000A9E71920A7E71A20A5E71B20A3E71C20B7
:100B2000A1E71D209FE71E209DE71F209BE77B205C
:100B300099E77D2097E77F2095E7602093E7295587
:100B4000641CE4B2304602F019F9A0423FF761AFED
:100B5000002028550148BDE8F0810000D0F80720AA
:100B60002DE9FF5FFF4801F033FAFF4C0026E085D6
:100B70002079401CC0B22071142807D32671E07878
:100B8000401CC0B2E070052800D3E670F648DFF8DC
:100B9000DCB368304FF4C06700784FF4877A0A28D6
:100BA0000AD0DFF8CC834FF47A654FF41669002839
:100BB00071D0BC2870D0FDE3DFF8AC8308F1680881
:100BC000404698F9011031B190F90420531A022BD4
:100BD00004DD891C04E088F8046003E0914201DD33
:100BE00088F80410E3A3E3A2E2A1E2A0FFF74AFB26
:100BF000B4F840000122232180B2FFF713FBB4F8C0
:100C000042000122242180B2FFF70CFBDF4D287A3D
:100C10004FF000024FF02501FFF704FB2879002276
:100C20005E21FFF7FFFA287800222621FFF7FAFA63
:100C3000287B00223C21FFF7F5FAA88B00227B21BC
:100C4000FFF7F0FA287ED249002201EB80003E2116
:100C5000FFF7D2FAC44D207C723580B13A20FFF7FD
:100C60005BFA4FF0200905F800903A20FFF754FA9C
:100C700005F800903A20FFF74FFA05F8009098F930
:100C80000400B0B198F9011099B1884205D1012052
:100C900085F83C000DE02FE39DE3401A012802D0C7
:100CA000022804D005E0012085F8280001E0012099
:100CB0002875B4F84E0000231322194680B2FFF7BE
:100CC0006FFA0023092219462078FFF769FA98F98C
:100CD0000100002380B201221946FFF761FAA14802
:100CE000303801F075F912220121FFF709FB9D4808
:100CF000343801F06DF912220221FFF701FB0023C5
:100D00000922012141F28710FFF74AFA9548B838C5
:100D100001F05EF980B200230E220121FFF740FAB4
:100D2000DFF84082404601F053F980B200230922E7
:100D30000221FFF735FA8B48083801F049F91322F0
:100D40000321FFF7DDFA934D284601F041F909220E
:100D50000321FFF7D5FA284601F03AF9C0B201287D
:100D600008D1284601F034F9000C4FF42571B0FB8E
:100D7000F1F06084E08C08B1401EE084404601F050
:100D800027F9022806D1E08C20B9A08C48B1A684AE
:100D90000A20E084284601F01BF9C0B2052804D0DF
:100DA00008E04FF6FF70A084F2E7284601F010F942
:100DB00000142085606E01F0A4FE7749606E01F09A
:100DC000CAFF5946606E01F0C6FF7449606E01F0BB
:100DD000C2FF7349606E01F0BEFF7249606E01F0A0
:100DE000BAFF7149606E01F0B6FF7049606E01F0A4
:100DF000B2FF4FF47F41606E01F0ECFD4FF0FF1940
:100E00004946606E01F0B0FD6949606E01F0A3FFD4
:100E1000618C6420CDE90210CDE900A655460A2375
:100E2000B422C821606E01F0B0FD4FF0010BCDE996
:100E3000005B0A23B422C821606E01F026FE5C49E3
:100E4000606E491C01F087FF4946606E01F08CFD21
:100E5000A08C1C22CDE9002656A1CDE902014FF459
:100E6000C87A322364225146606E01F059FD4FF07A
:100E70008061606E01F06FFF4FF4FE41606E01F023
:100E8000A9FD4B49606E891C01F065FF454640464F
:100E900001F09EF8032803D14849606E01F09AFDE5
:100EA0001922962346A1CDE90032CDE90261C8237B
:100EB000322240F22621606E01F0A0FD6FF07F41EA
:100EC000606E01F087FD0021606E01F04DFD384934
:100ED000606E0A3101F03FFF284601F079F80B28D7
:100EE0003FD06FF07B41606E01F035FF36A0CDE959
:100EF0000070608CC822414202EB410002B21E2306
:100F00006421606E01F0D0FC2949606E0B3101F064
:100F100022FF284601F05CF80C287DD06FF07B4161
:100F2000606E01F018FF2AA0CDE90070608CFA21F4
:100F3000424201EB420002B21E236421606E01F0C6
:100F4000B3FC1B49606E0C3101F005FF284601F02F
:100F50003FF80D287CD06FF07B41606E01F0FBFE06
:100F60003AE0B5E12C213000000000100700002617
:100F7000C8C8C80220202020202020202020202097
:100F800020202020202020200000000020400240BF
:100F90006C36000000903000C80000020000FF0422
:100FA000A000000D0200001FC012A04F00FFFF04B0
:100FB00001000003796573FF6E6F000000FFFF0002
:100FC00050726573730000004974656D3100000054
:100FD0004974656D32000000FFA0CDE90070608C9F
:100FE0004FF49678424208EB420002B21E2364217D
:100FF000606E01F059FCFA49606E01F0ACFEA94642
:10100000284600F0E5FF0E287CD06FF07B41606E33
:1010100001F0A1FEF3A000E05CE1CDE90070608C7E
:101020004FF4AF75404205EB400002B21E2364212D
:10103000606E01F039FCEA49606E491C01F08BFEDC
:10104000484600F0C5FF0F287CD06FF07B4100E0E0
:1010500042E1606E01F07FFEE4A0CDE90070608C9B
:101060001E2341420AEB410002B26421606E01F08E
:101070001BFCDB49606E891C01F06DFE484600F0E8
:10108000A7FF10287ED06FF07B41606E01F063FEF9
:10109000D8A0CDE90070608C4FF4E171404201EBC3
:1010A000400002B21E236421606E01F0FDFBCC49BA
:1010B000606EC91C01F04FFE484600F089FF112800
:1010C0007ED06FF07B41606E01F045FECBA0CDE994
:1010D0000070608C4FF4FA71404201EB400002B2A4
:1010E0001E236421606E01F0DFFBBD49606E091DA7
:1010F00001F031FE484600F06BFF12287ED06FF001
:101100007B4100E0EAE0606E01F025FEBDA0CDE984
:101110000070608C1E23414240F2262000EB41000B
:1011200002B26421606E01F0BFFBAD49606E491DE3
:1011300001F011FE484600F04BFF13287ED06FF0FF
:101140007B4100E0CCE0606E01F005FEAFA0CDE990
:101150000070608C4FF4167A41420AEB410002B2F3
:101160001E236421606E01F09FFB9D49606E891D06
:1011700001F0F1FD484600F02BFF14287ED06FF0FF
:101180007B4100E0AEE0606E01F0E5FDA1A0CDE99D
:101190000070608C1E23414240F28A2000EB410027
:1011A00002B26421606E01F07FFB9C49606E01F029
:1011B000D2FD9B49606E01F0CEFD4FF0804100E012
:1011C00092E0606E01F0C7FD9649606E01F0C3FDCC
:1011D0004FF00451606E01F0BEFD6FF07F41606E14
:1011E00001F0F8FB6FF07B41606E01F0B4FD8EA062
:1011F000CDE900701E239622642100E076E0606E47
:1012000001F052FB4FF47F41606E01F0E3FB4FF0C1
:10121000FF11606E01F0A8FB8549606E01F09BFD37
:10122000412140F60309CDE900911F2314229621A4
:10123000606E01F057FBC0211F2300E058E0CDE9AC
:10124000009114224146606E01F04CFB6449606ECF
:10125000093901F080FD208DA946CDE900602A46BC
:10126000322355465146606E01F02DFC0521CDE933
:1012700000B101234A462946606E00E03AE001F0E1
:1012800004FC6C49606E01F066FD6BA0CDE9007056
:1012900042461E231146606E01F006FB68A0CDE9B0
:1012A00000600123C2220821606E01F0FDFA6DA0EA
:1012B000CDE900600123E0220821606E01F0F4FA1C
:1012C0000021606E01F047FD606E01F05AFB72E490
:1012D000574908E6564923E655493EE6544996E6FD
:1012E0005349B4E65249D0E65149ECE6504908E783
:1012F0004F4926E74E4944E7606E01F002FC414643
:10130000606E01F028FD5946606E01F024FD4449ED
:10131000606E01F020FD5649606E01F01CFD4FF03B
:10132000806A5146606E01F016FD4FF4987190206E
:1013300061F3DF3040F08041606E01F00CFDA846A3
:1013400028464FF42075294660F3DF3141F0804193
:10135000606E01F000FD6FF07B41606E01F0FBFC00
:101360006910A02061F3DF3040F08041606E01F031
:10137000F2FC294668F3DF3141F08041606E01F0F4
:10138000EAFC5146606E01F0E6FC41F2300190202B
:1013900061F3DF3040F08041606E01F0DCFC43F22D
:1013A0006018294668F3DF3141F08041606E01F03A
:1013B000D2FC00E036E26FF07B41606E01F0CBFCC6
:1013C0004FF48251A02061F3DF3040F08041606E25
:1013D00001F0C1FC4EE026E24974656D3300000067
:1013E0000E0000034974656D340000004974656D9A
:1013F000350000004974656D360000004974656D64
:10140000370000004974656D380000004974656D4F
:10141000390000004974656D31300000C8000004D7
:101420000900001FA00A40464D61696E00000000DF
:1014300000FFFF0400FF00044D616D61000000002B
:10144000414243200102030405060708090A0B0C68
:101450000D0E0F101112131415161718191A1B1C44
:101460001D1E1F00414243207F607B7D0000000065
:101470001000000E68F3DF3545F08041606E01F02A
:101480006AFC5146606E01F066FCFEA0FFF7B8FAF8
:101490004FF48061CDE90010012319224FF48771C8
:1014A000606E01F001FAFF49606E01F054FCFE49E4
:1014B000606E01F050FCFD49606E01F04CFC51463D
:1014C000606E01F048FC4FF48C614FF4A06061F352
:1014D000DF3040F08041606E01F03DFC4FF43F6A28
:1014E0004FF417606AF3DF3040F08041606E01F026
:1014F00032FCDFF8BCB3606E594601F02CFC4FF4AF
:101500008C614FF4A06061F3DF3040F08041606E89
:1015100001F021FC4FF43E65484665F3DF3040F0B2
:101520008041606E01F017FCE249606E01F013FC2F
:101530004FF49A614FF4AE6061F3DF3040F08041C8
:101540004FF48C68606E01F006FC4FF437614FF485
:101550000F6061F3DF3040F08041606E01F0FBFB13
:101560005946606E01F0F7FB4FF4A4614FF4B86088
:1015700061F3DF3040F08041606E01F0ECFB4FF42E
:1015800032614FF40A6061F3DF3040F08041606EF9
:1015900001F0E1FBE08D012815D16FF07B41606E19
:1015A00001F0D9FB4FF4A06068F3DF3040F08041D8
:1015B000606E01F0D0FB484665F3DF3040F08041BB
:1015C000606E01F0C8FBBC49606E01F0C4FBBBA0BB
:1015D000FFF716FACDE90070012373228221606EB5
:1015E00001F062F9AF49606E01F0B5FBAE49606E83
:1015F00001F0B1FBAD49606E491C01F0ACFB4FF04E
:101600008061606E01F0A7FB4FF4486B584668F3A9
:10161000DF3040F08041606E01F09DFB41F2F0014F
:101620006AF3DF3141F08041606E01F094FBA04924
:10163000606E01F090FB4FF48C61584661F3DF302F
:1016400040F08041606E01F086FB4FF4875A5046AF
:1016500065F3DF3040F08041606E01F07CFB95491E
:10166000606E01F078FB4FF49A614FF44F6061F3C4
:10167000DF3040F08041606E01F06DFB4FF4376168
:1016800041F2700061F3DF3040F08041606E01F0A4
:1016900062FB8749606E01F05EFB4FF4A4604FF47B
:1016A000546160F3DF3141F08041606E01F053FB23
:1016B0004FF432604FF4815160F3DF3141F08041EB
:1016C000606E01F048FBE08D022814D16FF07B4181
:1016D000606E01F040FB584668F3DF3040F0804117
:1016E000606E01F038FB504665F3DF3040F080411A
:1016F000606E01F030FB7049606E01F02CFB71A050
:10170000FFF77EF9CDE90070EB2282210123606EA4
:1017100001F0CAF86349606E01F01DFB6249606E1A
:1017200001F019FB6149606E891C01F014FB4FF058
:101730008061606E01F00FFB4FF4A0654FF4AA5773
:10174000284667F3DF3040F08041606E01F003FB14
:1017500041F6D0414FF4176061F3DF3040F0804133
:10176000606E01F0F8FA5949606E01F0F4FA67F31F
:10177000DF3545F08041606E01F0EDFA4FF4E6513F
:10178000484661F3DF3040F08041606E01F0E3FADB
:101790004FF4F5504FF4206160F3DF3141F08041A8
:1017A000606E01F0D8FA4AA0FFF72AF9CDE900608F
:1017B00001234FF496721421606E01F075F8B4F9AC
:1017C0002C000A3802281DD85049606E01F0C3FA77
:1017D0004F49606E01F0BFFA3249606EC91F01F0D7
:1017E000BAFA3906606E01F0B6FA4FF0B241606E97
:1017F00001F0B1FA4749606E01F0ADFA4649606EFA
:1018000001F0A9FA0021606E01F0A5FA606E01F006
:10181000B8F8B4F92E00012801D0022802D13F48BF
:10182000BC21017050E3606E01F06BF94146606EBF
:1018300001F091FA5946606E01F08DFA3849606EF8
:1018400001F089FA37A0FFF7DBF8CDE9007001233A
:101850003222C821606E01F027F834A0FFF7D0F8DB
:101860004FF4C061CDE90010012332224FF4AF7173
:10187000606E01F019F80B49606E01F06CFA0A49CC
:10188000606E57E0D2E5F1F2EEE2E0FF20F1F2F017
:10189000EEEAE020F1EEEEE1F9E5EDE8E5202331B6
:1018A000000000000900001F1000000E01000003EE
:1018B000B4B4B40400DC000464000004C2C2CEC4AA
:1018C00020310000C2C2CEC4203200009696960499
:1018D000C0E0C1E1C2E2C3E3C4E4C5E5C6E6C7E7D0
:1018E000C8E8CAEACBEBCCECCDEDCEEECFEFD0F032
:1018F000D1F1D2F2D3F3D4F4D5F5D6F6D7F7D8F8A0
:10190000D9F9DDFDDEFEDFFF000000000000FF046E
:10191000A000000D001E0059001E004068000010CD
:101920000A0A0A04C2C2CEC431000000C2C2CEC438
:101930003200000001F00FFA4FF08061606E01F09C
:101940000AFA4FF4156A4FF4C6616AF3DF3141F0C9
:101950008041606E01F0FFF94FF40268404665F384
:10196000DF3040F08041606E01F0F5F96FF07B41AF
:10197000606E01F0F0F94FF4C86169F3DF3141F0B6
:101980008041606E01F0E7F9404665F3DF3040F0DA
:101990008041606E01F0DFF94FF08061606E01F010
:1019A000DAF941F2B02B4FF4C6616BF3DF3141F04D
:1019B0008041606E01F0CFF94FF4C857404667F39D
:1019C000DF3040F08041606E01F0C5F96FF07B417F
:1019D000606E01F0C0F94FF49650B91060F3DF313A
:1019E00041F08041606E01F0B6F9404667F3DF30A8
:1019F00040F08041606E01F0AEF94FF08061606EA2
:101A000001F0A9F94FF40B616AF3DF3141F0804135
:101A1000606E01F0A0F94FF42A68404665F3DF30AC
:101A200040F08041606E01F096F96FF07B41606E8E
:101A300001F091F94FF40C6169F3DF3141F080411D
:101A4000606E01F088F9404665F3DF3040F0804178
:101A5000606E01F080F94FF08061606E01F07BF9FB
:101A60004FF40B616BF3DF3141F08041606E01F0A8
:101A700072F9404667F3DF3040F08041606E01F05C
:101A80006AF96FF07B41606E01F065F94FF4965092
:101A90004FF40C6160F3DF3141F08041606E01F082
:101AA0005AF9404667F3DF3040F08041606E01F044
:101AB00052F94FF08061606E01F04DF94FF43361DF
:101AC0006AF3DF3141F08041606E01F044F94FF478
:101AD000526065F3DF3040F08041606E01F03BF909
:101AE0006FF07B41606E01F036F94FF4346169F3B9
:101AF000DF3141F08041606E01F02DF94FF452600A
:101B000065F3DF3040F08041606E01F024F94FF062
:101B10008061606E01F01FF94FF433616BF3DF31C8
:101B200041F08041606E01F016F94FF4526067F3A6
:101B3000DF3040F08041606E01F00DF96FF07B41C5
:101B4000606E01F008F94FF496574FF4346067F374
:101B5000DF3040F08041606E01F0FDF84FF4C8586E
:101B60004FF4526168F3DF3141F08041606E01F063
:101B7000F2F84FF08061606E01F0EDF850464FF4DE
:101B80005B6160F3DF3141F08041606E01F0E3F8AA
:101B9000284665F3DF3040F08041606E01F0DBF8ED
:101BA0006FF07B41606E01F0D6F84FF45C6169F331
:101BB000DF3141F08041606E01F0CDF8284665F3D9
:101BC000DF3040F08041606E01F0C5F84FF0806179
:101BD000606E01F0C0F8DA464FF45B616AF3DF3102
:101BE00041F08041606E01F0B6F8294668F3DF31BC
:101BF00041F08041606E01F0AEF86FF07B41606EA5
:101C000001F0A9F84FF45C6067F3DF3040F08041E9
:101C1000606E01F0A0F8294668F3DF3141F08041A1
:101C2000606E01F098F84FF08061606E01F093F8FB
:101C30004FF4156141F2300061F3DF3040F0804134
:101C4000606E01F088F84FF4915B584665F3DF3021
:101C500040F08041606E01F07EF86FF07B41606E75
:101C600001F079F84FF4825069F3DF3040F08041A1
:101C7000606E01F070F8584665F3DF3040F0804147
:101C8000606E01F068F84FF08061606E01F063F8FB
:101C900041F230016AF3DF3141F08041606E01F0C2
:101CA0005AF8584668F3DF3040F08041606E01F02A
:101CB00052F86FF07B41606E01F04DF84FF48250A6
:101CC00067F3DF3040F08041606E01F044F8584621
:101CD00068F3DF3040F08041606E01F03CF84FF077
:101CE0008061606E01F037F84FF41561504661F382
:101CF000DF3040F08041606E01F02DF84FF4A550C8
:101D000065F3DF3040F08041606E01F024F86FF041
:101D10007B41606E01F01FF8394669F3DF3141F015
:101D20008041606E01F017F84FF4A55065F3DF3085
:101D300040F08041606E01F00EF84FF08061606EFF
:101D400001F009F851466AF3DF3141F08041606EDD
:101D500001F001F84FF4A55168F3DF3141F0804103
:101D6000606E00F0F8FF6FF07B41606E00F0F3FFF3
:101D7000384667F3DF3040F08041606E00F0EBFFE3
:101D800047464FF4A55067F3DF3040F08041606E66
:101D900000F0E1FF4FF08061606E00F0DCFF41F287
:101DA000305A4FF41561504661F3DF3040F0804106
:101DB000606E00F0D0FF4FF4B9554FF47A602946B9
:101DC00060F3DF3141F08041606E00F0C4FF6FF0DE
:101DD0007B4B5946606E00F0BEFF4FF4AA58404658
:101DE00069F3DF3040F08041606E00F0B4FF4FF4E3
:101DF0007A60294660F3DF3141F08041606E00F087
:101E0000AAFF4FF08061606E00F0A5FF41F2B021A3
:101E1000504661F3DF3040F08041606E00F09BFF80
:101E2000284667F3DF3040F08041606E00F093FF9A
:101E30005946606E00F08FFF4FF49651404661F3B3
:101E4000DF3040F08041606E00F085FF67F3DF35E2
:101E500045F08041606E00F07EFF2B49606E00F01F
:101E60007AFF4FF08061606E00F075FF2749606E69
:101E700000F0B0FD2449606E891C00F06CFF24481E
:101E800000F0A6F8032803D12249606E00F0A2FDFD
:101E900021A0FEF7B5FD01213222CDE90021CDE9D7
:101EA00002606423D20040F28A21606E00F0A6FD39
:101EB0000021606E00F04FFF606E00F062FDE08D6B
:101EC000032801D116480670B4F92C000A380228FC
:101ED00016D8606E00F015FE1249606E00F03BFFF0
:101EE0001149606E00F037FF1049606E00F033FF5B
:101EF0000F49606E00F02FFF0021606E00F02BFF95
:101F0000E685BDE8FF9F00000100000364646400F3
:101F10002C21300000FFFF00C2EEE7E2F0E0F2000B
:101F2000680000100000FF04A000000D0200001F68
:101F3000C012A04F0B48016841F040410160416868
:101F400021F003014160416841F00C0141604168AA
:101F500041F03001416004480121C160202101604D
:101F60007047000000C00240000002400349886042
:101F700048680006FCD58868C0B27047000002407F
:101F8000124A00B50346106840F400201060D06982
:101F900040F40020D061C3F30540FFF7E7FFC3F32F
:101FA0000720FFF7E3FFD8B2FFF7E0FF5520FFF768
:101FB000DDFF5520FFF7DAFF116841F400211160C1
:101FC000916941F40021916100BD000000C0092029
:101FD0001B4A10B50346106840F400201060D06919
:101FE00040F40020D061C3F30540FFF7BFFFC3F307
:101FF0000720FFF7BBFFD8B2FFF7B8FF5520FFF768
:10200000B5FF5520FFF7B2FF60F307045520FFF737
:10201000ADFF60F30F245520FFF7A8FF60F31744CE
:102020005520FFF7A3FF60F31F641168204641F4B9
:1020300000211160916941F40021916110BD0000FF
:1020400000C00920124A10B5034610680C4640F43F
:1020500000201060D06940F40020D061C3F3054037
:1020600040F08000FFF782FFC3F30720FFF77EFFF9
:10207000D8B2FFF77BFF2046FFF778FF106840F4E7
:1020800000201060906940F40020906110BD0000B5
:1020900000C00920144A10B5034610680C4640F4ED
:1020A00000201060D06940F40020D061C3F30540E7
:1020B00040F08000FFF75AFFC3F30720FFF756FFF9
:1020C000D8B2FFF753FFE0B2FFF750FFC4F3072089
:1020D000FFF74CFF106840F400201060906940F456
:1020E00000209061284610BD00C0092010B5184A94
:1020F00004460B46106840F400201060D06940F49C
:102100000020D061C4F3054040F08000FFF72EFFAF
:10211000C4F30720FFF72AFFE0B2FFF727FFD8B28A
:10212000FFF724FFC3F30720FFF720FFC3F30740A7
:10213000FFF71CFF180EFFF719FF106840F400208E
:102140001060906940F400209061284610BD0000A6
:1021500000C009200D4A00B5106840F4002010604E
:10216000D06940F40020D0610020FFF7FFFE00207E
:10217000FFF7FCFE0020FFF7F9FE106840F4002096
:102180001060906940F40020906100BD00C00920FB
:102190000D4A00B5116841F400211160D16941F484
:1021A0000021D161FFF7E2FE0020FFF7DFFE0020F3
:1021B000FFF7DCFE106840F400201060906940F4E6
:1021C0000020906100BD000000C0092030B54E48DD
:1021D0002021C0F8A01100BFD0F8A0114906FBD5FE
:1021E00000F180000322C0F884204FF40031C0F8D1
:1021F00028114FF00001C0F82C114FF00103C0F876
:102200008C30424C446003604FF0AA03C3604FF02F
:102210005504C460A0F18000D0F888506D01FBD552
:1022200040F8802FC360C460C0F88810384A426408
:10223000C0F848118168A0F180006FEA11618A0737
:102240003449D0F80C2102F0030207D092B3012ADE
:1022500046D0022A4AD0032A51D13BE02AB1012AB2
:1022600011D0022A27D0032A49D150F8882FC2F36F
:102270000E02521C53000268C2F30742521CB3FB09
:10228000F2F2254B0CE050F8882FC2F30E02521CDC
:1022900053000268C2F30742521CB3FBF2F21F4B19
:1022A0005A43C36FA0F18800DBB203F10103B2FB14
:1022B000F3F223E00EE050F8882FC2F30E02521C16
:1022C00053000268C2F30742521CB3FBF2F24FF410
:1022D000FA43E5E7D0F804210F4BD2B2521C0BE0D1
:1022E000D0F804210D4BD2B2521C05E0D0F80421E5
:1022F0004FF4FA43D2B2521CB3FBF2F20A6043F23B
:102300003A01016030BD000000C00F404F000300E3
:102310004AF100416014001000093D0080969800C9
:102320004FF04021012008600B480168491C016002
:102330000A48016821F0FF01091D0160016841F0B0
:1023400080710160704706490120086002484168B9
:10235000491C4160704700006414001000400340B5
:102360000080004003498860C8684007FCD5886841
:10237000C0B27047000003401D48016821F440616D
:102380000160016821F4404141F4004101600168AD
:1023900021F4403141F400310160016821F4402111
:1023A00041F4002101601348016841F4806140F864
:1023B000E41B016841F4801101600F48016941F09C
:1023C000100101614FF0000101604160016841F0BE
:1023D000C0010160016841F007010160416841F0FE
:1023E000020141600548016841F020010160704729
:1023F00000C00240C4C00F400000034000C00920DC
:102400000B48016821F440610160016821F44041FA
:102410000160016821F440310160016821F440212C
:1024200001600448416821F00201416070470000EA
:1024300000C002400000034000B5FFF79DFF0C4ABA
:10244000106840F020001060D06940F02000D0619A
:102450000620FFF787FF106840F0200010609069A9
:1024600040F0200090615DF804EBFFF7C9BF000069
:1024700000C0092000B5FFF77FFF0E4A106840F04A
:1024800020001060D06940F02000D0610520FFF7E7
:1024900069FFFF20FFF766FF0346106840F0200049
:1024A0001060906940F020009061FFF7A9FF184686
:1024B00000BD000000C009202DE90140FFF7DAFF50
:1024C000C007FBD1FFF758FF184A106840F0200002
:1024D0001060D06940F02000D0610320FFF742FF78
:1024E0009DF80100FFF73EFF9DF80000FFF73AFF5F
:1024F000FF20FFF737FF0346FF20FFF733FF03EB13
:102500000023106840F020001060906940F0200027
:102510009061106840F020001060906940F0200049
:102520009061FFF76DFF184608BD000000C009204C
:102530002DE93140FFF79EFFC007FBD1FFF71CFFDD
:102540001E4A106840F020001060D06940F0200062
:10255000D0610320FFF706FF9DF80100FFF702FF9F
:102560009DF80000FFF7FEFEFF20FFF7FBFE03468D
:10257000FF20FFF7F7FE0446FF20FFF7F3FE0546B6
:10258000FF20FFF7EFFE05EB002004EB002003EB3C
:102590000023106840F020001060906940F0200097
:1025A0009061106840F020001060906940F02000B9
:1025B0009061FFF725FF184638BD000000C00920D4
:1025C0002DE90340FFF756FFC007FBD1FFF734FFAB
:1025D000FFF7D2FE184A106840F020001060D06962
:1025E00040F02000D0610220FFF7BCFE9DF8010002
:1025F000FFF7B8FE9DF80000FFF7B4FE9DF8040059
:10260000FFF7B0FE9DF805301846FFF7ABFE1068E7
:1026100040F020001060906940F020009061106848
:1026200040F020001060906940F020009061FFF7BA
:10263000E7FE18460CBD000000C009202DE903404C
:10264000FFF718FFC007FBD1FFF7F6FEFFF794FE78
:102650001C4A106840F020001060D06940F0200053
:10266000D0610220FFF77EFE9DF80100FFF77AFEA1
:102670009DF80000FFF776FE9DF80400FFF772FE5C
:102680009DF80500FFF76EFE9DF80600FFF76AFE55
:102690009DF807301846FFF765FE106840F02000EF
:1026A0001060906940F020009061106840F02000B8
:1026B0001060906940F020009061FFF7A1FE18467D
:1026C0000CBD000000C00920F0B54148DFF804E16E
:1026D000C178491CC170DEF808103F4EC1F34203B7
:1026E000012200214FF48065032B21D0022B3ED024
:1026F000062B65D0012B1AD1384C238803F1010336
:1027000023809EF814309B065FD50270C289002A90
:102710000DD0521EC281828906F580639B5C8EF8C3
:102720000030521C92B28281AA4200D18181F0BD58
:102730009EF8143013F09E0F03D003619EF8000042
:10274000F0BDDB07FCD09EF8003084883355641C54
:10275000A3B242708380AB4200D1818003895B1CAD
:102760009BB20381AB42EBD101818270F0BD1C4C66
:102770001C4F23885B1C23801DE000BF9EF80030A7
:1027800084883355641CA4B242708480AC4200D16A
:1027900081800489641CA4B20481AC4201D101810E
:1027A00082707E2B00D13980DFF83CC03C880CF869
:1027B0000430641C3C809EF81430DB07DED1F0BD91
:1027C000016941F480710161F0BD0170F0BD00004C
:1027D0006C14001000C00040F05600105814001097
:1027E00056140010541400108C54001023484FF05D
:1027F00080510160704722484FF08051016070475E
:1028000070B54FF0A04532E0C5F8E80F00072ED5AF
:10281000D5F8184127E01B4850F8340041001CD57A
:10282000C0F30A06F61E40F2EA518E4215D8164948
:10283000084212D146F0004000F07AFB68B1114A1C
:10284000011D203AF61C52F83420B30803D040CAC8
:102850005B1E40C1FBD100F0F1FB641C042C00D1D5
:102860000024C5F81841D5F81401A042D3D1D5F8F9
:10287000E00FD5F8E41F0840C6D170BD00E100E0CC
:1028800080E100E060FD07200000901B70B5054668
:102890000C46084600F072FA401C82B221462846D7
:1028A000BDE8704000F025BA2DE9F0470F46DDE99C
:1028B0000889054616461C466FF0F30100F04BFAF6
:1028C000394666F31F41284600F045FA214668F371
:1028D0001F41284600F03FFA49462846BDE8F04728
:1028E000FFF7D4BF2DE9F0470F46DDE9088905461B
:1028F00016461C466FF0D10100F02DFA394666F3FA
:102900001F41284600F027FA214668F31F41284658
:1029100000F021FA49462846BDE8F04700F01BBA0E
:102920002DE9F05F0D460AA98046B1E8800E1646F3
:102930001C466FF0ED0100F00EFA66F31F452946C4
:10294000404600F008FA67F31F442146404600F075
:1029500002FA49EA0A41404600F0FDF9594640466C
:10296000BDE8F05FFFF792BF70B50D4604466FF00B
:10297000F60100F0F0F929462046BDE8704000F06D
:10298000EAB96FF0FE0100F0E6B92DE9F05F0D46FF
:102990000AA98046B1E8800E16461C466FF0EF018A
:1029A00000F0D9F966F31F452946404600F0D3F9F7
:1029B00067F31F442146404600F0CDF949EA0A4139
:1029C000404600F0C8F959464046BDE8F05F00F0C7
:1029D000C2B9000070B50D460749044608200880BA
:1029E0006FF0F501204600F0B6F929462046BDE813
:1029F000704000F0B0B900004E0000102DE9F05F0B
:102A00000F460AA98246B1E8200B16461C466FF015
:102A1000F20100F0A0F9394666F31F41504600F07C
:102A20009AF9214665F31F41504600F094F941465A
:102A300069F31F41504600F08EF959465046BDE8F3
:102A4000F05FFFF723BF70B50D4604466FF0EA0153
:102A500000F081F92946204600F07DF92046BDE8C6
:102A6000704000F023B970B50E46144605466FF06D
:102A7000D40100F070F93146284600F06CF9214687
:102A80002846BDE8704000F066B92DE9F0470F46D2
:102A9000DDE90889054616461C466FF0D30100F0B3
:102AA0005AF9394666F31F41284600F054F9214689
:102AB00068F31F41284600F04EF949462846BDE814
:102AC000F04700F048B92DE9F0470F46DDE90889E5
:102AD000054616461C466FF0D20100F03CF9394617
:102AE00066F31F41284600F036F9214668F31F417E
:102AF000284600F030F949462846BDE8F04700F086
:102B00002AB96FF0FF0100F026B9000070B5154B2F
:102B10000029064619681446C2F30540C2F307258A
:102B200041F400211960D96941F40021D9610CD028
:102B300040F08000FFF71AFA2846FFF717FAE0B2D4
:102B4000FFF714FA0220B07170BDFFF70FFA2846A4
:102B5000FFF70CFAE0B2FFF709FA5520FFF706FA83
:102B60000120F0E700C00920428802F54212FFF779
:102B7000CDBF70B5807900250C4602280AD0002010
:102B8000FFF7F4F904460020FFF7F0F944EA0025C6
:102B9000284670BDE0B2FFF7E9F9200AFFF7E6F931
:102BA000F6E770B50646807900250C4602280CD061
:102BB00000213046FFF7DDFF044600213046FFF7D5
:102BC000D8FF44EA0045284670BDA1B23046FFF761
:102BD000D0FF210C3046FFF7CCFFF4E705490A6827
:102BE00042F400220A608A6942F400228A610021CC
:102BF0008171704700C0092010B50A4604460021C3
:102C0000FFF784FF00212046FFF7B3FF034620466D
:102C1000FFF7E4FF0549086840F400200860886970
:102C200040F400208861184610BD000000C0092053
:102C300070B514460A4605460121FFF767FF214695
:102C40002846FFF796FF2846BDE87040FFF7C6BF4D
:102C500070B514460A4605460121FFF757FF214685
:102C60002846FFF79EFF2846BDE87040FFF7B6BF35
:102C700042881144C1F30B02D21C40F6FC710A4099
:102C800042800149FFF7D4BFFC20300010B5044654
:102C90000549FFF7B1FF6188081AC0F30B00A0F6E1
:102CA000FC70404280B210BDF82030002DE9F041A8
:102CB0000A4E0446371D31462046FFF79DFF054664
:102CC00039462046FFF798FF8542F4D13946204621
:102CD000FFF792FF6080BDE8F0810000F82030002F
:102CE00070B505460C462846FFF7D0FFA042FAD340
:102CF00070BD2DE9F04180460F46164634464046E9
:102D0000FFF7C4FFA04203D24046FFF7BFFF0446CF
:102D1000A1B20D464046FFF7E3FF2A460121404697
:102D2000FFF722FF002504E03878FFF71FF97F1C2A
:102D30006D1C641EF8D24046FFF750FFA9B2404612
:102D4000FFF796FF4046FFF7B1FF701B0604360CF5
:102D5000D4D1BDE8F08170B50D4604460421FFF7DB
:102D6000BFFF61882A4601F542112046FFF770FF38
:102D70002046BDE870400421FFF77ABF01460020DD
:102D800000E0401C0A5C002AFBD17047064C074D4E
:102D900006E0E06840F0010394E80700984710342B
:102DA000AC42F6D3FDF796F9B4360000E4360000E5
:102DB00070B501EB020410F8015B15F0070301D1B7
:102DC00010F8013B2A1106D110F8012B03E010F88E
:102DD000016B01F8016B5B1EF9D12B0705D40023B1
:102DE000521E0FD401F8013BFAE710F8013B02F143
:102DF0000202A1EB030303E013F8015B01F8015B9E
:102E0000521EF9D5A142D6D3002070BD0FB4054B98
:102E100010B503A9044A029800F016F810BC5DF83A
:102E200014FB0000E90200005C14001002E008C876
:102E3000121F08C1002AFAD17047002001E001C129
:102E4000121F002AFBD170472DE9F84F0546924624
:102E500099468846002764E0252801D0514626E09F
:102E6000002215F8011F10462E2918D115F8011F50
:102E700004222A290DD06FF02F032978A1F1300404
:102E8000092C0CD800EB800003EB400008446D1CBB
:102E9000F3E708F10401D8F8000088466D1C2B7890
:102EA000B3B3632B08D0732B15D0514618464A464E
:102EB000904707F1010733E0D8F8003008F104012A
:102EC00088468DF800304FF000018DF801106E46F5
:102ED0004FF0010106E008F10401D8F800608846CF
:102EE0004FF0FF3152074FF0000401D409E0641C99
:102EF00084420BDA8C42FADB325D002AF7D105E01E
:102F0000641C8C42FCDB305D0028F9D1274405E0CD
:102F10000AE016F8010B51464A469047641EF8D263
:102F20006D1C2878002897D13846BDE8F88F00003E
:102F30002DE9F0470027DFF8909000280CDA2349AC
:102F4000D9F8002020F000400968024401EB41015B
:102F5000B2EB910F18D8012705460F3020F0030679
:102F60000FB9FFF748FC1A4CD4E90002011B891A7B
:102F7000B1420CD2044600680028F5D127B9FFF70A
:102F800035FC0020FDF7BAF80020BDE8F08772B1EB
:102F9000101921680160206000F10808C0F8046081
:102FA000D9F800103144C9F8001027B105E004F148
:102FB00008086660F4E7FFF719FCA8F80050002045
:102FC000A8F802004046E0E78814001068300000CE
:102FD0008C14001070B500282AD0A0F10806154CFA
:102FE0000025FFF708FC09E02546246820688007D3
:102FF00003D0FFF7FBFB022010E064B1B442F3D131
:103000000D4861680B4B0268511A01609C4209D15E
:103010000020606008E0FFF7E9FB0120BDE8704098
:10302000FDF76CB820682860BDE87040FFF7DEBB94
:1030300070BD00008C14001088140010084A30B4D1
:10304000D2E90034591C01F01F01A14205D0054C02
:1030500044F82300116030BC704730BCFFF7BABFA2
:1030600080140010F05E001000400000000000001E
:103070000000007F3E1C080000080C0E0C08000039
:103080000000000000000000000000000000000040
:103090000000000000000000000000000000000030
:1030A0000000000000000000000000000000000020
:1030B0000000000000000000000000000000000010
:1030C0000000000000000000000000000000000000
:1030D00000000000000000000000000000000000F0
:1030E00000000000000000000000000000000000E0
:1030F00000000000000000000000000000000000D0
:1031000000000000000000000000000000000000BF
:1031100000000000000000000000000000000000AF
:10312000000000000000000000000000000000009F
:1031300000000000005F000000000000000000141C
:103140003E143E1400242A7F2A12002313086462CE
:1031500000364955225000000000060000003E41A4
:103160000000000000413E000014083E0814000862
:10317000083E080800005030000000080808080851
:10318000000000606000004020100804003E51492B
:10319000453E0000427F4000004261514946002107
:1031A00041454B31001814127F1000274545453921
:1031B000003C4A494930000171090503003649497C
:1031C000493600064949291E000036360000000035
:1031D00056360000000008142200001414141414C1
:1031E000000022140800000201510906003249794A
:1031F000413E007E1111117E007F49494936003E53
:1032000041414122007F4141221C007F49494941FF
:10321000007F09090901003E41415172007F080801
:10322000087F0000417F4100002040413F01007FB6
:1032300008142241007F40404040007F020C027F82
:10324000007F0408107F003E4141413E007F090994
:103250000906003E4151215E007F091929460046BA
:10326000494949310001017F0101003F4040403F91
:10327000001F2040201F003F4038403F00631408DB
:1032800014630007087008070061514945430000B6
:103290007F410000000408102040000000417F0032
:1032A00000040201020400404040404000000000D1
:1032B0000000002054545478007F484444380038BB
:1032C0004444442000304848507E00385454541838
:1032D00000087E09010200085454543C007F100885
:1032E00008700000447D4000002040443D00007E06
:1032F000102844000000417F4000007C041804783E
:10330000007C08040478003844444438007C1414D9
:10331000140800081414147C007C080404080048F5
:103320005454542000043F444020003C4040207C42
:10333000001C2040201C003C4030403C0044281031
:103340002844000C5050503C004464544C4400004D
:10335000083641000000007F0000000041360800F0
:10336000000000000000000000000000000000005D
:10337000000000000000000000000000000000004D
:10338000000000000000000000000000000000003D
:103390000004060706040000000000000000000012
:1033A000000000000000000000000000000000001D
:1033B000000000000000000000000000000000000D
:1033C00000000000000000000000000000000000FD
:1033D00000000000000000000000000000000000ED
:1033E00000000000000000000000000000000000DD
:1033F00000000000000000000000000000000000CD
:10340000000000000000000000081C3E7F000000DB
:1034100000000000007F3E1C080008183818080053
:10342000000000000000000000000000000000009C
:10343000000000000000000000000000000000008C
:1034400000000000001C3E3E3E1C0000000000008A
:10345000000000000000000000000000007C555447
:103460004500000000000000000000000000000017
:10347000000000000000000000000000000000004C
:10348000000000000000000000000000000006092D
:1034900009060000242E24000000000000000000A7
:1034A000000000000000000000000000000000001C
:1034B000000000000000000000000000003855542B
:1034C0005518007C10207B0B00000000000000005D
:1034D00000000000000000000000000000000000EC
:1034E000000000000000203038302000007E111164
:1034F000117E007F49494931007F49494936007FA3
:103500000101010300603E21217F007F49494941BB
:103510000077087F0877004149494936007F20102D
:10352000087F007F2011087F007F0814224100409F
:103530007E01017F007F020C027F007F0808087F68
:10354000003E4141413E007F0101017F007F0909AA
:103550000906003E414141220001017F010100476F
:1035600028100807001C227F221C00631408146323
:10357000007F404040FF00070808087F007F407F31
:10358000407F007F407F40FF00017F484870007F00
:103590004438007F007F4848483000224149493E76
:1035A000007F083E413E00462919097F00205454FF
:1035B0005478003C4A4A4931007C54542800007C2D
:1035C0000404040C00603824247C0038545454183B
:1035D000006C107C106C004444545428007C201073
:1035E000087C007C2012087C007C102844000040ED
:1035F0003804047C007C0810087C007C1010107CCF
:10360000003844444438007C0404047C007C1414D6
:1036100014080038444444000004047C0404000CF2
:103620005050503C0018247E241800442810284490
:10363000007C404040FC00001C10107C007C407C62
:10364000407C007C407C40FC00047C505020007C8E
:103650005020007C007C50505020002844545438A6
:10366000007C1038443800085434147C202020009A
:10367000FFEDE200F4E5E200ECE0F000E0EFF00046
:10368000ECE0E900E8FEED00E8FEEB00E0E2E3003C
:10369000F1E5ED00EEEAF200EDEEFF00E4E5EA0010
:1036A0003031323334353637383941424344454678
:1036B00000000000E4360000000000108C14000040
:1036C000B02D0000544900008C140010E45200009A
:1036D0003A2E00005449000000C00720A4670000F3
:1036E0003A2E000011027014000CFF48656C6C6FDC
:1036F00020576F726C640123281509070A180F15EB
:10370000110608080F0D060D060E101111110428E0
:1037100024111106060C0E0D0F18131010101310A3
:10372000151113131310171213121011121317126D
:10373000160F171B0C00271A1712090E090E120874
:103740000E0F0D0F0E0B0F1006090E0717100F0F9F
:10375000100B0D0A100F140D100E0B060B0B32017F
:103760003204321C32242BEC0394091C010A201071
:10377000B4180A111112111113120611B419B81C40
:10378000141110BA0D2217121214AE299429875A57
:10379000189423484E101078DAED9D5D8C634795A0
:1037A00080CBFFFF6D7B10E08924A4ED24249112CF
:1037B000141B0D111289E2D66AC5A25D16F7033CEF
:1037C0002014DC6857E201841D7818102C363C2048
:1037D0008432B147E28904D99348EC039BB867234C
:1037E000962060EC1E181629516E87B04CE0616E71
:1037F00007F19F81DB76B7FBD7BE67CB3DB7CE39EC
:103800004EAE35D333EDDBEE21359A9E6F6ED72D5C
:10381000DFBA5575EA9C53A7CADE48281C88861370
:10382000B170301A967FA2E1607846FE8C849233A4
:10383000C99948D0EB0F46233351AFDF1F0CF90273
:10384000BE400893CF37FC198BC8140E47A2BE5058
:1038500044DE68FD2F1C0F8743FE805FFE0CC9020B
:1038600043FE50D8E70BFBE3E150381C0CF9C3C111
:103870005828184CF863E1885B0811957FDF2EFF0C
:10388000BE4DBC99F69DEA1070B060C74BC924E6E6
:1038900069B3FCED917B7FCACB99C77BDFA2AD50AA
:1038A000FE42C78E978E519ED16738EF54DD5D8FF3
:1038B0005E5C543C0BD0505CDD48601E6D81F2EBC9
:1038C000FFD14F239B806FC26864D614C35C74031E
:1038D000391BD9C43CF3B19EE2E6621EF3E701F066
:1038E000197CDA9F1D6BF7AA7CE7093B7E89DABD5C
:1038F000BACCF23BC8D3965A10FA695BAEB03C071B
:10390000C4934E1ED9D61D5BBEAD409CC82BF6821B
:1039100040F6310E98C4C10171748738B581EC2A24
:10392000AF250B56A78FC23055DEC85BC3F1368674
:103930007F3CEF7CBBC7017AB6DC99414E31CEADFE
:10394000121756889B35E40890ACDBAB7BC9E27557
:1039500099CD86F7DE5DE2FAABE287050FA4FD970D
:103960004574EB55C9B3BB7BBFC86C4BAE77AC4C51
:10397000C7E10EF574DA4FE05D7DEBEECC36D4BBDB
:103980004A50F6417B5509EBDF417E5BF5937F831F
:10399000BB21BBC7B1812C53BF3CA0AB6B92F3C31F
:1039A00016146E68480EEF8D9F282424BBA03D8519
:1039B000C33D64CA169BDDB2E47CAD59AB5BB22952
:1039C000B7D6FCA61AFD8141F3E94D1C2FBAA60417
:1039D0007A6CBBF92DF5DACAAF364F590DEC8685F6
:1039E00066AD78F91D46FBB2FCD8AE43E3FDEC258D
:1039F0001C390500FF009A9BFEFB01536579212DC0
:103A00004736A65BFA8865F82DE375CA7333E6BFBF
:103A10004D562DABBA40165918E7EE0536C76DB0B6
:103A2000E7999B5639FF6903D519977E91E47C523B
:103A3000CEDE8ADD8FD3EBF1C20E1BA594E7B32E49
:103A4000BD84E3CEA0723E6D3CEB9C5ED716D16D7B
:103A5000E22263833808C429C6CD1F21FF041E4417
:103A60007E619BCA840EE312B1C93EB737F20CC81F
:103A7000D396B452A44F5C606C109F3089AB7F2208
:103A8000864F120F02C4EB8C1789279D7C724E590A
:103A9000B3E5648E5864F6C3FE0171B04F1CDD457A
:103AA000761537902352A940EECF51FE694B724EE6
:103AB000DFB4E56ED496531DE2CC2A717505390248
:103AC00035E4E86E82F24C5D9F6F888C12E85A579D
:103AD000349177DC28E835B887B8D96A217F11722C
:103AE000C89FDB8D23976E632CE2EB0EDAB06B760A
:103AF000BC447D5E00FF00CA9FCC61F0D4B53BC0E2
:103B0000962D972207CE539662B26BD404E9DE1548
:103B1000B289B87D74303CE114D91DAAA64A0D497A
:103B200093DEA557A435A654B69519D4BB523D349F
:103B3000CB4468B7D960F620E963DA803EA1C0447F
:103B4000570E6F15EE16BA2B4493541BD1FCBD9340
:103B50004D4975E1EC7A14CCEF5BFCD0D0B87AC952
:103B6000AAD6EFF2DD8FEF587AF85CAEE30765DA9C
:103B7000E63A9ECB75E0CCF308ED9778EFE5322D71
:103B8000DBC7F504983FB77D9E4927D65E57C19E97
:103B900067A0BF407A38EA78C669E3FD56A771414D
:103BA000DAC85A7E2ED9858DACE58FD8BBAE5B378F
:103BB000EB678C7F52CD3D2C470D72B72C7FFE1AE0
:103BC0009FED1A74DA4391E1C379643D41F38BF2BE
:103BD0001472DE1B0363F8DBA543D1690F5EB6B335
:103BE000EA0E992481288EE183F05D08A324B4DADB
:103BF00035B27ECEAD10AEE4E45E7B290E83892C17
:103C00005C947F58B57DF25425C8663A57E4056246
:103C10009D5C80E2415367722C73153C711B56BE4C
:103C2000E7CB0E29477929A99D4A5ABCE7A07C23F6
:103C30004F9F0D9BE904760F9887B5B5E11BBCDD5E
:103C40003FC1DABAFF7A462BD89E7F7DC3B43B2CA6
:103C5000335E61C37F0CBBD207E0AB7C6DCECE5729
:103C6000699CBB47AD4FB97F9876015B0AD0179826
:103C70001158B263575239E35CC785508357EA78CD
:103C80006E5444F45FBC0B35F7DC88AFF2B5A9F590
:103C9000559E44AD6EA8C293C9753C804B79C2F362
:103CA00075340B4400FF00F86BA3EBFF1830593953
:103CB0009B76E5BF99269852CC291A6796739C99F2
:103CC0005F64C54923B6471C650E9608733884BBEC
:103CD0004C228D99AD23FF33E6731DB4DEF5FB77DF
:103CE000F7C537542A2FE7B0999A8B855514E815F4
:103CF0005C0A2F4AC96BDAB00F92A884F84D170EF0
:103D0000E6A1A4EED9F0ECE64D7D2514E2BD08F65F
:103D1000B8CC5A6C932CD878EFC0EB185EB5655FC1
:103D2000CB7C4AB07AA999037EF0F2F794590977CF
:103D30006340800B4E5070800EDB28931FE21AC93F
:103D4000C74C12708165A346DC5236CB0B1FB8A05E
:103D5000E685A16B1C9D1DEFD307952B3DF341A577
:103D6000E134F91B557733EB572FBD5F68C4AC5A6C
:103D7000BA37A3CB8505E217D5BD83E253383A0B9A
:103D8000837B3A0F5FB0FE93483D69EAEAB554EF92
:103D9000EC65D4ECB7EB5F4B59550BAC13CF2C7BD8
:103DA00076EAD6DBFA1027D0BCF8B253639EE90856
:103DB0006ECDC4768C6CCCA2948A6FA45092454D83
:103DC00003AFFBD8FC1590F3D487D530BA00FF00C1
:103DD000EF540A98315F7D4DADC819D928FA813565
:103DE000A93F2C935E81B3A54FEF7FC470689AD32F
:103DF000B3FBE3A39EDCCCFF712BEB5FC557999E11
:103E0000CF1C05CDDA64997F167F06FE6CEEC58364
:103E1000A9FBBDBCDDD93314D8BCCC1747667A9357
:103E200065FE59FC19F486FD331F9C2147F8B5C780
:103E3000E813A44D813D3DCC420C5A606629FF0336
:103E4000B6E5FC5DA462C38EDD40B60967912C9F88
:103E50004E5CE1DEBFBBC4C7DD38BEC8ACBB53534C
:103E60005C175AD11CE5643221DE4CB24D17AFCC41
:103E7000134F3E66A78499C116670658813D508B43
:103E8000CC71175B37F4B390A22893E129A68A96E8
:103E9000B9239AFAB0DBA4CB016656C626BD16ED4F
:103EA000D32E08E6B7A9D0FC525E258F437C0DAB1C
:103EB0009B9E59BF46E6E5C8F28BABEC73F1ADF8BB
:103EC000F40BCEB57B81DADA4F2259E44CE200FFE5
:103ED00000FC07898F4759DF98344F3879B557A8C8
:103EE0008E6C254C3B4D5AC67759DBC95ECCB48FDE
:103EF00026197501D207449E1C1F2E83E6AF285B4E
:103F00009AAE77B96CA4B85CCE934E7ED6C7CAACD5
:103F1000CFC329EAF3271271F6A464E28B285B432E
:103F200088015B1D2C766D3438CF5F9936075FA111
:103F30003C55F6CE03FA2BCEF5F9106B8C14EB6FD3
:103F4000E51562A3C4C605CD5331A66F173AEF45F8
:103F5000E9A535AA6AFC7A218D1C60AB0E9CE5DCD4
:103F6000573F4D25551D5B8E93BA6BD79699ED360D
:103F7000C24FFC9CDFBB486384DAF1D888864E1EB2
:103F8000BEEF6669EC4859D7B593757ECDC1768F83
:103F90006DF3C66395A4D7EF61312111369765069D
:103FA000FF4BE3973DBF512B7750CE27E224F3130D
:103FB0005477A352ECB0B156B31B8393366779C8DC
:103FC000C3088B548F98E6A3E430C28E26789A10EB
:103FD000FCA503A6FDFBE411637C338C41AE292FC5
:103FE0007BB7A1BE73CDCEE7F7329339C6E972171E
:103FF0006B98A53E6CD4A8AFE6D9520C67E314E6E3
:10400000F180886D10B3FD53B5C21A93758BD4EE51
:10401000AF3858F757B86ED3203BA2D865FA498F0E
:10402000DE03C96A6374CCB6B1CC1F31F9EF67FD0A
:10403000618639FD8B4CE1D3A90FF8E0E8E9FCC5B6
:104040008E3DBF774C5C0CBF3EEEDEA35EF771E9A0
:10405000836DFB2E3096A927A14FD4F9E43DC314FC
:1040600023ACE5DB0D135B526751629C791E7EAF7A
:104070002C73E98835F578FF0C33D4198FCD7F5434
:10408000D277B80DFE27924B0FC3364D54FF02D4A2
:104090005BDF47B1460FC34ED6EEDEEF1C560F1E58
:1040A000B56550C7689D41FD447C9ED99E230A900A
:1040B0008B969B44C4A4CA64985AF7A1311B5CEF49
:1040C0005AB8F2209F7472DD8EEDE53700FF00FED6
:1040D0004FD5F09CF0A83589E1BF056BF68344F01D
:1040E000F9F2B2E23A868740021E69294E42BAA826
:1040F000F81888BCDDF52C94547EADD1C472FE3521
:1041000071D3F3851587EACEC3D5E33CFE99295BCD
:104110002DB2EF5CD05A26BB8694B6C86E748B4C19
:10412000A2A04932DF83C66D8B82CE5D2CAA666861
:104130001EA97D0A5169E0CC38B54F8AEFB51FDD65
:10414000FBFF565D55B2DE1668D0D6DB6EAD4DF97D
:10415000CD346355C7FAB93B3476EFD8BDFFABEC2D
:10416000734BC4CE396E4E0E70DEB995D995D58D90
:10417000BBF13DE80D81D1EECC9C153C027024AA28
:1041800066C1D6FC1D29A7BA711766BB95C7949D59
:10419000646BD0136FF7C193BCDDB1ED96EE4405AF
:1041A00077B4DD29C05D32C62D0C63A4BBF6D7738E
:1041B0001DBB7296DE66B4ED3E17064F3957F7EB1E
:1041C0003AEF62CB96AFE65E9E67CC33DC00FF0031
:1041D000B075BF0A7660BC57C8E546B11FD5CDBBE8
:1041E00050FEE88B0285BB1CBFC7D276E37DA18A57
:1041F0000A0D67991F1D7C72BCA3053F1CEF151AA1
:10420000EF834319EFD7B3F761C27BEB1CA8FBD454
:10421000F2E4D368CF9D28331FD737315C578459D8
:104220004CA9FB99BE7387780CF58D2DD25BD079A4
:10423000546FC75041AFB7EBD80DEBE7A92E75838C
:104240009C2CDC575937ABE8CFA9AFCDECD267F93E
:10425000B1F2F273F5367B861E71CCBCD1FBFCEB60
:10426000E6B8391B9E78DDA5529DB35E7A5D5AD4BF
:104270004DC503D94315C35C90B81D4736D68A8611
:10428000E2E777F4B2E29F02282F6FBDAD6DC591D2
:104290000B1D62DF1CF130CEF28DEC40BBA3CB5D79
:1042A000D69DD84C10438DF11AF1C53EF179F81422
:1042B000725BBB449C01E2206361302EECD83CCFA2
:1042C000E4E7F77E45D8E8D5437DBEC4F4F0183F57
:1042D00036CDD73847CB918F2B57529F2766D7794A
:1042E0007E5E0E2FFFF0F479F359DB71B7F4162ED2
:1042F0008B8A4C9F2FACDAE51919B3ACCCA9D6EB5D
:1043000026D2EE556AF7609DDABD0E64C7E59310BC
:104310005293C4C9C163CC75E19B9FAE7667EC260E
:104320001B7F5456AF533BE67BC4B13EB18FCEFAF0
:104330001B9DEF8A4E2DC07B5FBC84167691B635EF
:104340000B78F2AE33E8534D33ED84DBE3E67FE2E6
:104350006F1E62F5757D546353345FB5A6A25EF897
:10436000870700FF0033B078837FD61DDB2B140452
:10437000B29D398B64B19B24FF15F31F3AC9134ECC
:104380005A8DFC0C93E28ECD78296CDD69A8B11FA3
:10439000012027EF97064E850E4677042E2A074CFC
:1043A00081FBE03C90A55541A314667A29ED1CCA17
:1043B0007768BB49BC470BCCE11D0DE5A78FC5E570
:1043C000BA800D8516F34816994F3BE358BBCBBA1C
:1043D00007B6ACB893A0393C42EDF2DAB917D27106
:1043E0004858CA19CCE761DEF2326A35A9E958D5D6
:1043F000ACB6756DC58A51C87721D7B5DE5C7C67D0
:1044000010DBB1DE5C14B683CA3A0FC2BA07F05CA7
:10441000BB55A146B94B4AFFA6EA1C5A49149D391F
:10442000B3521A172EF4CBE952EF526D9D5F4FA194
:104430001F26DAC7296BB8918FECB226F769335F74
:10444000B74EE2CD0FB47E31B3CDD6DC3B784A9D7A
:104450000B2A3E354784E59D9A43C7754606C3A39C
:10446000F354B5108EE6C8AFAE2DD26279BE4B2B99
:10447000ABB1AD91FE4C225CE77DB87B1464DD707E
:104480008D6087315620992CB341682CB299816692
:10449000BC0C6BEB2669245E1E7AC6BA46911C32B0
:1044A0002EE30CAE51FAD833709E786AC2A23D4F0B
:1044B000789FC8581EF33C13483C5E97C7F1F2F84A
:1044C0005EA1336D83C703F32DD97C7F68801F55B0
:1044D000C8CF296201C423FB0578C0310F44F64FD1
:1044E000B40B78D990E52CA5C0A1F0D8E79978CA8B
:1044F000B170101C8DC9EA016E6714A9F514B6706D
:10450000B311188837D3A453E0844C8F586A140031
:10451000FF00DF8DE15C7A10703BA30B2EA119E741
:10452000334561990C166429AF30BF9819607E51EC
:10453000E8521EAD81EC856C616A4FE3BEE7E2CFC5
:10454000482D65F18401164FEE7A0FC5605701972B
:1045500068860711AFD2BBAAAEE2BB322946E5336B
:10456000667DC5A9BA24B9182E5D053F4E67E78E52
:10457000C41EBF74DF26D947B4BF5B2B85766CAFF2
:104580002FCFF2339DB00B6BCF70DFFE74C5197A5D
:10459000353A5A25CFF602EBA7EFC7EB4CFB71F388
:1045A000298E5D177AE37EDB7278F90EA876ECE54A
:1045B000F2FD11F61CFAEB97D7D958A6BD30A7CA61
:1045C000142F9DC5B9C03D12474DD705940AEB6C19
:1045D000EC20BF039E5E9FD6F1CEE3B20A268BBFCE
:1045E0009DCFD07EA2AF9FE47174D8B7791FD02B36
:1045F000812C6B771CE33EEDB543D9751DA0E3A27A
:10460000459EB6C28B32F94EBDFA5FB264A2B1408C
:1046100000FF00932A533F0F8AA72DDD025FFA05A2
:10462000EBABF4FD1AA7EAD4EE59EC03B2CFA7EC3A
:10463000AE0BA854D7ECCAB9D92CB3A99BCE34F38E
:1046400093EB57D44D9287F71AD7FEB5245725DB45
:1046500047E4FCC05ECE9F7B88E47C29CCE5FC353A
:10466000F3C4FD75AC5E4F8F7186BF277D1DEFEAE9
:104670003A781AEA7E47E270EACE990ED1121F67A5
:104680003BF18A7F38A0BA5F1DCFB2FEA9D13EA907
:104690002F9059A3E95D6612D15E096D87EC23ADB9
:1046A00044FE10AD84CBEFC3732C4DA7341A7DFEAE
:1046B0009098BDCFFA80CBD2E995F3CF7CF1D2F1BF
:1046C000B3E751D6E16A86B6749F799BE5B3DD9373
:1046D00075D664B527BBAC4972BF3C8575B797F3F7
:1046E0004BF71D3939BFDFF4BA3DE3B41FF014C5F1
:1046F000DB437A643F60CFE6FA701F19E62FF23D84
:10470000E04EEE8B3CA8765F9E1D67C76DDB5EE7D3
:104710007600FF001F2FE7BF06F3D33A27DE028F94
:10472000BE6C678330DBE4EA6C994AD1D626BAF9CD
:104730006FD52BDA53A31CFD8A83ED9EA5F6C2F03C
:104740007939DE6F3F72BACD7ED34DC6AF698E36F2
:1047500051CB90E3FA181AC5F0DC27C80E6221632A
:10476000AEF7E3B603F1EF24CC7D6CEB803869FC47
:10477000EAD0EB586FD8B24FFF0B3675902DB18E43
:10478000CB3F96B9BD56A0EE2382C6F41E1C66CC64
:10479000877E45CCBF0F717FAC2D663659DF400E4A
:1047A000C10FA7F53B56A25B1456E01F886A9BE435
:1047B0001869DCCDAF92EE9ABF406B2B3326ADB9B2
:1047C00084D8163A0FF0C38CA6B6DD65DDAB0BE1DD
:1047D000CBD509F485BE684522B8C10D1D656D1B9A
:1047E0001F186C14ADB7523FB9BEABBEF42E6F2C80
:1047F000EA86D5BDE3B05055EB5E6148E4D4E4E70A
:10480000EB8BD8943AAD7C30C7FC6CCB74CADA6CB5
:104810009F4C00FF00101FFF3A35831F8542EB3E7F
:10482000995DF25C6A6DB4890290CE6D4C6FBB6786
:10483000589F2FD33A459A6627ED11AA57F13C8528
:104840004CA676692847499D117EF635813C90CB70
:10485000C5D6E3F829DC065BAEFC5BC5B1BABBD9B3
:10486000961A3770875D943D5C950E1FF4B2A8E8E8
:1048700059B65C4FB3DDDE1C374F3E40E7CE9E7F1E
:10488000AC41EB13F5B6F80CFC5171B07F7BAB6615
:10489000716A4D1DE9536FE757D541C5F573E5556D
:1048A0007596417DB8FE621D335B5F62D7DBF98E82
:1048B000885BF9DBB23FE7D72D9E8113C68AC554CA
:1048C000FDC716C583F04B67EA9EE91C0D9E8674F2
:1048D00076C1F7E2CF50FF2C0FD4F0D44A30A75660
:1048E000DBB4E740A89390A49D22D42E6AEDB39048
:1048F000502742C9FC4FA93015590E6A7667170236
:10490000C61FC5D14AAE771336E1B92794947AFC15
:104910001B30A000381419DB939EA667F69CA5C334
:104920004D72FC7B5E5E4EE2413652FAB4EC98E783
:10493000E1F77A18FB218DF963BB746FA1C7CA59DF
:1049400041F64085AEEF33FD3FE2481B9A93093DA7
:04495000021F010041
:04000005000000CD2A
:00000001FF
