:020000040000FA
:10000000A8670010E1000000E5000000E700000024
:10001000E9000000EB000000ED000000000000001F
:10002000000000000000000000000000EF000000E1
:10003000F100000000000000F30000009F2C000011
:10004000F7000000550200007B020000F7000000EE
:10005000F700000001380000F7000000F700000082
:10006000F7000000F7000000F7000000F7000000B4
:10007000F7000000F7000000F7000000F7000000A4
:10008000F7000000F7000000F7000000F700000094
:10009000F7000000F70000003D060000F700000038
:1000A000F7000000F7000000F7000000F700000074
:1000B00039390000F7000000F7000000F7000000E9
:1000C000F7000000F7000000F7000000DFF80CD098
:1000D00003F000FF00480047CD2D0000A867001086
:1000E00005480047FEE7FEE7FEE7FEE7FEE7FEE71E
:1000F000FEE7FEE7FEE7FEE7CD000000FEE70000BA
:1001000030B54E482021C0F8A01100BFD0F8A01192
:100110004906FBD500F180000322C0F884204FF48B
:100120000031C0F828114FF00001C0F82C114FF039
:100130000103C0F88C30424C446003604FF0AA03C6
:10014000C3604FF05504C460A0F18000D0F888501F
:100150006D01FBD540F8802FC360C460C0F88810E3
:10016000384A4264C0F848118168A0F180006FEA03
:1001700011618A073449D0F80C2102F0030207D03C
:1001800092B3012A46D0022A4AD0032A51D13BE039
:100190002AB1012A11D0022A27D0032A49D150F8C6
:1001A000882FC2F30E02521C53000268C2F30742AA
:1001B000521CB3FBF2F2254B0CE050F8882FC2F32F
:1001C0000E02521C53000268C2F30742521CB3FBDA
:1001D000F2F21F4B5A43C36FA0F18800DBB203F168
:1001E0000103B2FBF3F223E00EE050F8882FC2F3D4
:1001F0000E02521C53000268C2F30742521CB3FBAA
:10020000F2F24FF4FA43E5E7D0F804210F4BD2B2F3
:10021000521C0BE0D0F804210D4BD2B2521C05E069
:10022000D0F804214FF4FA43D2B2521CB3FBF2F2DD
:100230000A6043F23A01016030BD000000C00F4087
:100240004F0003004AF100416414001000093D0012
:10025000809698004FF04021012008600B4801680B
:10026000491C01600A48016821F0FF01091D016075
:10027000016841F080710160704706490120086003
:1002800002484168491C4160704700006814001032
:100290000040034000800040704740EA01039B0794
:1002A00003D009E008C9121F08C0042AFAD203E0EB
:1002B00011F8013B00F8013B521EF9D2704701468C
:1002C000002000E0401C0A5C002AFBD1704730B5DA
:1002D0000B46014600202022012409E021FA02F504
:1002E0009D4205D303FA02F5491B04FA02F528449E
:1002F000151EA2F10102F1DC30BD7047FFFFFFFFC8
:1003000000209E4A20211154401CC0B2C828FAD3B4
:1003100070470146994A0020401CC0B2135C8B42D2
:1003200001D0C828F8D3704710B50021944C0A2298
:10033000B0FBF2F302FB13006054491CC9B218462B
:100340000529F5D310BDF0B58E4B0121202719707A
:1003500005218B4A002601E01C7844B1541814F89A
:10036000015C25B9814202D904F8017C05E05418EA
:1003700014F8015D303525701E70491E11F0FF0123
:10038000EAD1F0BD70B50D4616461C46FFF7CCFF0E
:10039000601CC0B2FFF7D7FF05EB850006EB8000BD
:1003A000C1B2774A754B0020A04201D2155C5D5462
:1003B00006D3155C202D03D04CB15E1806F8015C05
:1003C000491E401CC0B2C9B20528EDD370BD5D54B2
:1003D000F6E730B5044608461546FFF79AFFFF28B2
:1003E00009D0664A2178002905D04319641C401CB5
:1003F000D154C0B2F6E730BD70B50D461446FFF7D4
:1004000093FF601CC0B2FFF79EFF2846FFF781FFF5
:100410005B4B5A4A002124B95D5C202D01D0155454
:100420000FE0A14201D25D5CF9E704D14FF02E0547
:1004300015545D5C02E05D5C202D02D0161806F8B4
:10044000015C401E491CC9B2C0B20529E3D370BD8E
:1004500017B501EB810002EB8000C2B29DF80030BD
:10046000494803F00F0100EB1313445C43498C54DB
:10047000521ED2B21B788B549DF80130521E03F0ED
:100480000F04D2B2045D8C54521E00EB1313D2B28F
:100490001B788B549DF80230521E03F00F04D2B229
:1004A000045D8C54521E00EB1313D2B21B788B5494
:1004B0009DF80330521E03F00F04D2B2045D8C5439
:1004C000521E00EB1310D2B2007888541EBD2F4B81
:1004D0001A88521E104400B218802D4A00EB80008A
:1004E00002442C4813680360127902714278114467
:1004F00041707047F0B5254D254FB5F9004004EB2C
:100500008406641C2C80234C3E4425683560257984
:100510003571207061702271A370F0BDF0B5054691
:100520000E461746FFF7ECFE144C0020401C15F851
:10053000011BC0B204F8011B1428F7D35FF00000C0
:10054000401C16F8011BC0B204F8011B1428F7D395
:100550005FF00000401C17F8011BC0B204F8011B3B
:100560001428F7D35FF00000401C13F8011BC0B241
:1005700004F8011B1428F7D3F0BD00007A00001026
:100580005514001000C00720C04800002A000010C9
:100590009054001070000010FF490A7D9206FCD5AF
:1005A0000A2805D10D200870087D8006FCD50A2098
:1005B0000870704700B50346C0B2FFF7EDFF18465C
:1005C00000BD10B5F54CE06E03F054FB6FF0DD019B
:1005D000E06E03F069FC0021E06E03F065FC41F27F
:1005E000871204F2CE21E06E03F02DFCEC49E06EA0
:1005F00003F05AFCEB49E06E03F056FCEA49E06E6A
:1006000003F052FC4FF02051E06E03F04DFCE7493F
:10061000E06E03F049FC4FF02451E06E03F044FC1F
:1006200000220121E06E03F0B3FA0021E06E03F036
:100630003BFCE06EBDE8104003F03DBADC480168C9
:1006400021F0E061016070472DE9F0410024064689
:1006500042274FF04808D74D98E0305D0146C0383A
:1006600040286FD2DFE800F02025292B2F33373BBD
:100670003F8F43474B4F52565A5E62666A6F73779D
:100680007B7F8F8F8F83878B2227292D3135393DB3
:10069000418F45494D4F54585C6064686C71757961
:1006A0007D818F8F8F85898D412000E061202855C5
:1006B0006AE00120FBE70220F9E72F5564E0032000
:1006C000F5E70420F3E70520F1E70620EFE74520F2
:1006D000EDE76520EBE70720E9E70820E7E70920D9
:1006E000E5E70A20E3E70B20E1E70C20DFE74B20FA
:1006F000DDE76B20DBE70D20D9E70E20D7E74D20A3
:10070000D5E70F20D3E705F804803DE04F20CEE782
:100710006F20CCE71020CAE71120C8E75020C6E7B9
:100720007020C4E74320C2E76320C0E75420BEE73F
:100730001220BCE71320BAE77920B8E71420B6E707
:100740001520B4E71FE05820B1E77820AFE7162066
:10075000ADE71720ABE71820A9E71920A7E71A2073
:10076000A5E71B20A3E71C20A1E71D209FE71E2073
:100770009DE71F209BE77B2099E77D2097E77F205F
:1007800095E7602093E72955641CE4B23046FFF7F3
:1007900096FDA0423FF761AF002028558548BDE88F
:1007A000F0812DE9F04F93B0834802F09FFDDFF810
:1007B000ECB14FF0000AABF82E009BF80400401C8F
:1007C000C0B28BF8040014280CD38BF804A09BF85B
:1007D00003205146521CD2B28BF80320052A01D3C4
:1007E0008BF803106D49754F7031012508784FF46F
:1007F000C0680A280BD002264FF02809002870D0C4
:10080000BC286FD00F2801F0C48202F006BA8946D6
:10081000084691F9011031B190F90420531A022BC6
:1008200004DD891C04E089F804A003E0914201DDA5
:1008300089F8041062A362A261A161A0FFF76EFEB5
:10084000BBF84400012223215C4680B2FFF7D4FDAF
:10085000B4F846000122242180B2FFF7CDFD07F154
:100860002007387A4FF000024FF02501FFF7C4FD52
:10087000387900225E21FFF7BFFD3878002226215B
:10088000FFF7BAFD387B00223C21FFF7B5FDB88B9E
:1008900000227B21FFF7B0FD387E4F49002201EB9B
:1008A00080003E21FFF795FD3C4F207C7A3760B1F8
:1008B0003A20FFF72EFD20263E543A20FFF729FD6F
:1008C0003E543A20FFF725FD3E5499F904004E4668
:1008D00098B196F9011081B1884204D187F83C5053
:1008E0000BE06FE3FEE3401A012802D0022803D098
:1008F00003E087F8285000E03D75B4F8520000236B
:100900001322194680B2FFF73DFD00230922194644
:100910002078FFF737FD96F90100002380B201220D
:100920001946FFF72FFD2448303802F0DFFC122271
:100930000121FFF78DFD2048343802F0D7FC122248
:100940000221FFF785FD00230922012141F28710D2
:10095000FFF718FD1848B83802F0C8FC80B2002331
:100960000E220121FFF70EFD134F384602F0BEFCA8
:1009700080B2002309220221FFF704FD0E48083847
:1009800002F0B4FC13220321FFF762FD134E304640
:1009900002F0ACFC092223E000C00040000000107F
:1009A000010000059400000115181007153000081B
:1009B00000400340D4F807202C21300000400240C2
:1009C0002020202020202020202020202020202027
:1009D000202020200000000024480000009030006B
:1009E0000321FFF735FD304602F080FCC0B201283C
:1009F00008D1304602F07AFC000C4FF42571B0FBB0
:100A0000F1F06084E08C08B1401EE084B9463846BD
:100A100002F06CFC022807D1E08C28B9A08C50B100
:100A2000A4F824A00A20E084304602F05FFCC0B2A3
:100A3000052804D008E04FF6FF70A084F2E73046A6
:100A400002F054FC00142085E06E03F013F9FF4916
:100A5000E06E03F029FAFE49E06E03F025FAFD4945
:100A6000E06E03F021FAFC49E06E03F01DFAFB4949
:100A7000E06E03F019FAFA49E06E03F015FAF9494D
:100A8000E06E03F011FA4FF47F41E06E03F03BF8A3
:100A90004FF0FF11E06E03F001F8F349E06E03F050
:100AA00003FA618C64204FF48777CDE90210CDE919
:100AB000007A56460A23B422C821E06E02F0FFFFF6
:100AC0000120CDE900700A23B422C821E06E03F0B2
:100AD00071F8E549E06E491C03F0E6F94FF0FF11AB
:100AE000E06E02F0DBFFA08C1C22CDE90026DFA126
:100AF000CDE90201642232239100E06E02F0ABFFE7
:100B00004FF08061E06E03F0CFF94FF4FE41E06EEC
:100B100002F0F9FFD449E06E891C03F0C5F94D4697
:100B2000484602F0E3FB032803D1D249E06E02F00D
:100B3000EAFF19229623D0A1CDE90032CDE9026166
:100B4000B146C823322240F22621E06E02F0ECFFCB
:100B50006FF07F41E06E02F0D6FF0021E06E02F000
:100B60009DFFC149E06E0A3103F09EF92E462846EA
:100B700002F0BCFB0B287ED06FF07B41E06E03F0EF
:100B800093F9BFA0CDE90080608CC821404201EB01
:100B9000400002B245461E236421E06E02F020FFB1
:100BA000B149E06E0B3103F07FF9304602F09EFB55
:100BB0000C287DD06FF07B41E06E03F075F9B2A098
:100BC000CDE90050608CFA21404201EB400002B2B6
:100BD0001E236421E06E02F003FFA349E06E0C3196
:100BE00003F062F9304602F081FB0D287DD06FF0F2
:100BF0007B41E06E03F058F9A5A0CDE90050608C70
:100C00004FF49677404207EB400002B21E23642166
:100C1000E06E02F0E5FE9449E06E0D3103F044F918
:100C2000B046304602F062FB0E287ED06FF07B416A
:100C3000E06E03F039F998A0CDE90050608C4FF4D4
:100C4000AF76404206EB400002B21E236421E06E04
:100C500002F0C6FE8449E06E0E3103F025F94046ED
:100C600002F044FB0F287ED06FF07B41E06E03F072
:100C70001BF98BA000E091E1CDE90050608C1E23B0
:100C800041424FF4C87000EB410002B26421E06EB3
:100C900002F0A6FE7449E06E0F3103F005F94046FC
:100CA00002F024FB10287ED06FF07B41E06E00E064
:100CB00076E103F0F9F87CA0CDE90050608C4FF4A8
:100CC000E171404201EB400002B21E236421E06E5C
:100CD00002F086FE6449E06E103103F0E5F840460C
:100CE00002F004FB11287DD000E05BE16FF07B4156
:100CF000E06E03F0D9F86EA0CDE90050608C4FF49F
:100D0000FA71404201EB400002B21E236421E06E02
:100D100002F066FE5449E06E113103F0C5F840461A
:100D200002F0E4FA12287DD000E03DE16FF07B4153
:100D3000E06E03F0B9F860A0CDE90050608C1E238E
:100D4000414240F2262000EB410002B26421E06EF5
:100D500002F046FE4449E06E123103F0A5F858480F
:100D600002F0C4FA00E021E113286DD06FF07B415E
:100D7000E06E03F099F853A0CDE90050608C4FF479
:100D80001678414208EB410002B21E236421E06E56
:100D900002F026FE3449E06E133103F085F848482E
:100DA00002F0A4FA00E003E114284ED06FF07B417A
:100DB000E06E03F079F845A0CDE90050608C40F278
:100DC0008A21404201EB400002B21E236421E06E02
:100DD00002F006FE3F49E06E03F066F81F49E06E40
:100DE000C91D00E0E6E003F05FF84FF08041E06EDF
:100DF00003F05AF83849E06E03F056F84FF004510A
:100E0000E06E03F051F86FF07F41E06E02F07BFE80
:100E10006FF07B41E06E03F047F81E2396222FA06F
:100E2000642100E0C8E0CDE90050E06E02F0D8FD9A
:100E30004FF47F41E06E02F066FE4FF0FF11E06E6E
:100E400002F02CFE07494DE0B8E0B9E0C80000020E
:100E5000070000260000FF04A000000D0200001F94
:100E6000C012A04F00FFFF0401000003796573FF6B
:100E70006E6F000000FFFF0050726573730000008A
:100E80004974656D310000004974656D32000000E1
:100E90004974656D330000004974656D34000000CD
:100EA0004974656D350000004974656D36000000B9
:100EB0004974656D370000004974656D38000000A5
:100EC0002C2130004974656D390000004974656D4E
:100ED00031300000C8000004A00A40464D61696E30
:100EE00000000000E06E02F0DFFF412140F6030049
:100EF000CDE900011F2314229621E06E02F08DFD42
:100F0000C02140F60300CDE900011F2314224FF455
:100F10009671E06E02F081FDFF49E06E02F0C4FFC1
:100F20004F46208DB146CDE9007032463223464609
:100F30004146E06E02F080FE01200521CDE900016E
:100F400003464A463146E06E02F034FEF349E06E55
:100F500002F0AAFFF2A0CDE900504FF496721E23D2
:100F60001146E06E02F03CFDEFA0CDE900700123D8
:100F7000C2220821E06E02F033FDF4A0CDE900703A
:100F80000123E0220821E06E02F02AFD0021E06E3C
:100F900002F08AFFE06E02F08EFD36E4EE49EDE5E8
:100FA000ED4909E6EC4924E6EB4941E6EA495DE60C
:100FB000E9497BE6E8499BE6E749B9E6E649D7E631
:100FC000E549F5E63422E54902A8FFF766F95C46F3
:100FD000DBF86C0002F04EFEE149E06E02F064FFC7
:100FE000E049E06E02F060FFDF49E06E02F05CFF76
:100FF000DE49E06E02F058FF4FF08061E06E02F0D3
:1010000053FF4FF49871902061F3DF3040F080413E
:10101000E06E02F049FF4FF420794FF47A614846C0
:1010200061F3DF3040F08041E06E02F03DFF6FF091
:101030007B41E06E02F038FFA0254FF4A0712846F6
:1010400061F3DF3040F08041E06E02F02DFF4FF49D
:101050007A61A80061F3DF3040F08041E06E02F079
:1010600023FF4FF08061E06E02F01EFF97F8200032
:101070000123CDE900601022D421E06E02F0CDFC06
:10108000607C40B1BAA0CDE9006001231022CD21DF
:10109000E06E02F0A5FC97F824000123CDE9006082
:1010A0001022BA21E06E02F0B8FC607C40B1B0A022
:1010B000CDE9006001231022B321E06E02F090FC24
:1010C00017F8280F0123CDE9006010222946E06EB1
:1010D00002F0A3FCB98A042001231022CDE900010B
:1010E0006A2100E0F8E2E06E02F097FCA1A0CDE9F1
:1010F0000060012310226221E06E02F071FC387C56
:1011000002A951F82000FFF79FFACDE90060012302
:1011100010224221E06E02F063FC96A0CDE900604F
:10112000012310223A21E06E02F05AFC38790123A3
:10113000CDE9006010222721E06E02F06EFC8A49A2
:10114000E06E02F0B1FE8949E06E02F0ADFE4FF0B4
:1011500080673946E06E02F0A7FE4FF4845190207C
:1011600061F3DF3040F08041E06E02F09DFE43F21B
:10117000B016484666F3DF3040F08041E06E02F082
:1011800093FE6FF07B41E06E02F08EFE41F2900024
:1011900060F3DF3545F08041E06E02F085FE4FF4EC
:1011A000207066F3DF3040F08041E06E02F07CFE9C
:1011B0003946E06E02F078FE6FA0FFF745FA391469
:1011C000CDE900100123192240F21311E06E02F064
:1011D00007FC6549E06E02F067FE6449E06E02F0CC
:1011E00063FE4D49E06E091F02F05EFE3946E06E77
:1011F00002F05AFE4FF48C614FF4A06061F3DF30CF
:1012000040F08041E06E02F04FFE4FF43F614FF43A
:10121000176061F3DF3040F08041E06E02F044FE81
:101220005D4FE06E394602F03FFE4FF48C614FF4A3
:10123000A06061F3DF3040F08041E06E02F034FEE8
:101240004FF416654FF43E66284666F3DF3040F0F3
:101250008041E06E02F028FE5049E06E02F024FE6C
:101260004FF49A614FF4AE6061F3DF3040F080419B
:101270004FF48C69E06E02F017FE4FF437614FF4C3
:101280000F6061F3DF3040F08041E06E02F00CFE51
:101290003946E06E02F008FE4FF4A4614FF4B860E6
:1012A00061F3DF3040F08041E06E02F0FDFD4FF46D
:1012B00032614FF40A6061F3DF3040F08041E06E4C
:1012C00002F0F2FDE08D012815D16FF07B41E06E58
:1012D00002F0EAFD4FF4A06069F3DF3040F0804196
:1012E000E06E02F0E1FD284666F3DF3040F0804119
:1012F000E06E02F0D9FD2A49E06E02F0D5FD29A08A
:10130000FFF7A2F9CDE90080012373228221E06E6C
:1013100002F066FB144949E00500000300FF0004E9
:101320004D616D6100000000414243200102030451
:1013300005060708090A0B0C0D0E0F1011121314E5
:1013400015161718191A1B1C1D1E1F004142432099
:101350007F607B7D0000000000FFFF045848000014
:10136000C8C8C802070000260900001F1000000EB0
:101370003A0000002D000000D2E5F1F2EEE2E0FFBD
:1013800020F1F2F0EEEAE020F1EEEEE1F9E5EDE831
:10139000E520233100000000B4B4B40400DC0004F4
:1013A00064000004C2C2CEC420310000E06E02F02E
:1013B0007BFDFF49E06E02F077FDFE49E06E02F032
:1013C00073FD4FF08061E06E02F06EFD4D464FF40C
:1013D0004869484665F3DF3040F08041E06E02F036
:1013E00063FD4FF43F6041F2F00160F3DF3141F003
:1013F0008041E06E02F058FDEF49E06E02F054FDCE
:101400004FF48C61484661F3DF3040F08041E06E7C
:1014100002F04AFD4FF48757384666F3DF3040F05C
:101420008041E06E02F040FDE449E06E02F03CFDD8
:101430004FF49A614FF44F6061F3DF3040F0804128
:10144000E06E02F031FD4FF4376141F2700061F35C
:10145000DF3040F08041B146E06E02F025FDD64914
:10146000E06E02F021FD4FF4A4614FF4546061F38B
:10147000DF3040F08041E06E02F016FD4FF4326044
:101480004FF4815160F3DF3141F08041E06E02F0B2
:101490000BFDE08D022814D16FF07B41E06E02F06D
:1014A00003FD4FF4486065F3DF3040F08041E06EAB
:1014B00002F0FAFC69F3DF3747F08041E06E02F09A
:1014C000F3FCBF49E06E02F0EFFCBEA0FFF7BCF8F2
:1014D000CDE900800123EB228221E06E02F080FA48
:1014E000BA49E06E02F0E0FCB149E06E02F0DCFCCB
:1014F000B049E06E491C02F0D7FC4FF08061E06E0D
:1015000002F0D2FC4FF4A0664FF4AA57304667F3BE
:10151000DF3040F08041E06E02F0C6FC41F6D04181
:101520004FF4176061F3DF3040F08041E06E02F06D
:10153000BBFCA749E06E02F0B7FC67F3DF3646F06C
:101540008041E06E02F0B0FC4FF4E6514FF41660BB
:1015500061F3DF3040F08041E06E02F0A5FC4FF413
:10156000F5514FF4206061F3DF3040F08041E06ED0
:1015700002F09AFC9549E06E02F096FC8C49E06E10
:1015800002F092FC8B49E06EC91C02F08DFC4FF01A
:101590008061E06E02F088FC4FF4B456304665F38B
:1015A000DF3040F08041E06E02F07EFC4FF43F609F
:1015B00041F6F02160F3DF3141F08041E06E02F04E
:1015C00073FC7D49E06E02F06FFC4FF48C6060F3B9
:1015D000DF3646F08041E06E02F066FC4FF4D756ED
:1015E0004F46304667F3DF3040F08041E06E02F056
:1015F0005BFCE08D052813D17649E06E02F054FCC7
:101600004FF4B45065F3DF3040F08041E06E02F0FB
:101610004BFC67F3DF3646F08041E06E02F044FC9D
:101620006749E06E02F040FC6BA0FFF70DF8CDE9D2
:10163000008040F28B1282210123E06E02F0D0F98B
:1016400067A0FFF701F8CDE900A001234FF49672DF
:101650001421E06E02F0C4F9B4F92C000A38022813
:101660001ED86E49E06E02F01FFC6D49E06E02F07C
:101670001BFC5649E06EC91F02F016FC4FF080417A
:10168000E06E02F011FC4FF0B241E06E02F00CFC93
:101690006449E06E02F008FC6349E06E02F004FC6D
:1016A0000021E06E02F000FCE06E02F004FAB4F9F2
:1016B0002E00012804D0022802D0052805D06CE4B1
:1016C00000231A461946BC2003E000231A46194697
:1016D0000F20FEF70FFF60E45C46DBF86C0002F0C1
:1016E000C9FA5249E06E02F0DFFB5149E06E02F0A8
:1016F000DBFB5049E06E02F0D7FB4FA0FEF7A4FFE2
:10170000CDE9008001233222C821E06E02F068F9A1
:101710004BA0FEF799FF4FF4C061CDE90010012303
:1017200032224FF4AF71E06E02F05AF92749E06EB1
:1017300002F0BAFB1E49E06E02F0B6FB4FF080618A
:10174000E06E02F0B1FB4FF415604FF4C66160F338
:10175000DF3141F08041E06E02F0A6FB4FF40268F9
:101760004FF47A66404666F3DF3040F08041E06E29
:1017700002F09AFB6FF07B41E06E02F095FB4FF4B4
:1017800016694FF4C86169F3DF3141F08041E06EC2
:1017900002F08AFB404666F3DF3040F08041E06EA5
:1017A00002F082FB4FF08061E06E02F07DFB4BE0C7
:1017B0001000000E02000003B4B4B40400DC000406
:1017C00064000004C2C2CEC4203200000900001F21
:1017D00096969604FFFF0004CCC5CDDE0000000005
:1017E000C0E0C1E1C2E2C3E3C4E4C5E5C6E6C7E7C1
:1017F000C8E8CAEACBEBCCECCDEDCEEECFEFD0F023
:10180000D1F1D2F2D3F3D4F4D5F5D6F6D7F7D8F890
:10181000D9F9DDFDDEFEDFFF000000000000FF045F
:10182000A000000D001E0059001E0040C8C8C802DC
:10183000070000260A0A0A04C2C2CEC43100000012
:10184000C2C2CEC43200000041F2B0204FF4C661E3
:1018500060F3DF3141F08041E06E02F025FB4FF490
:10186000C857404667F3DF3040F08041E06E02F039
:101870001BFB6FF07B41E06E02F016FB4FF49651BC
:10188000B81061F3DF3040F08041E06E02F00CFBF5
:10189000404667F3DF3040F08041E06E02F004FB29
:1018A0004FF08061E06E02F0FFFA4FF415614FF4E3
:1018B0000B6061F3DF3040F08041E06E02F0F4FA3B
:1018C0004FF42A68404666F3DF3040F08041E06E16
:1018D00002F0EAFA6FF07B41E06E02F0E5FA4FF4B5
:1018E0000C6169F3DF3141F08041E06E02F0DCFA17
:1018F000404666F3DF3040F08041E06E02F0D4FAFB
:101900004FF08061E06E02F0CFFA41F2B0204FF468
:101910000B6160F3DF3141F08041E06E02F0C4FA08
:10192000404667F3DF3040F08041E06E02F0BCFAE1
:101930006FF07B41E06E02F0B7FA4FF496504FF42F
:101940000C6160F3DF3141F08041E06E02F0ACFAEF
:10195000404667F3DF3040F08041E06E02F0A4FAC9
:101960004FF08061E06E02F09FFA4FF415604FF483
:10197000336160F3DF3141F08041E06E02F094FAB0
:101980004FF4526066F3DF3040F08041E06E02F0C9
:101990008BFA6FF07B41E06E02F086FA4FF434610F
:1019A00069F3DF3141F08041E06E02F07DFA4FF4DF
:1019B000526066F3DF3040F08041E06E02F074FA6E
:1019C0004FF08061E06E02F06FFA41F2B0204FF408
:1019D000336160F3DF3141F08041E06E02F064FA80
:1019E0004FF4526167F3DF3141F08041E06E02F065
:1019F0005BFA6FF07B41DBF86C0002F055FA4FF4B4
:101A000096574FF4346067F3DF3040F08041E06E6A
:101A100002F04AFA4FF4C8584FF4526168F3DF31CC
:101A200041F08041E06E02F03FFA4FF08061E06EDD
:101A300002F03AFA4FF415604FF45B6160F3DF3166
:101A400041F08041E06E02F02FFA304666F3DF305D
:101A500040F08041E06E02F027FA6FF07B41E06ECB
:101A600002F022FA78104FF45C6160F3DF3141F04C
:101A70008041E06E02F018FA304666F3DF3040F045
:101A80008041E06E02F010FA4FF08061E06E02F0EB
:101A90000BFA41F2B0294FF45B6169F3DF3141F099
:101AA0008041E06E02F000FA314668F3DF3141F028
:101AB0008041E06E02F0F8F96FF07B41E06E02F0D9
:101AC000F3F94FF45C6067F3DF3040F08041E06E83
:101AD00002F0EAF9314668F3DF3141F08041E06E0F
:101AE00002F0E2F94FF08061E06E02F0DDF94FF4B0
:101AF000156041F2300160F3DF3141F08041E06E6A
:101B000002F0D2F94FF4915066F3DF3040F080419B
:101B1000E06E02F0C9F96FF07B41E06E02F0C4F9AB
:101B200078104FF4825160F3DF3141F08041E06E74
:101B300002F0BAF94FF4915066F3DF3040F0804183
:101B4000E06E02F0B1F94FF08061E06E02F0ACF9A6
:101B500041F2300169F3DF3141F08041E06E02F083
:101B6000A3F94FF4915068F3DF3040F08041E06E0C
:101B700002F09AF96FF07B41E06E02F095F94FF4B4
:101B8000825067F3DF3040F08041E06E02F08CF964
:101B90004FF4915068F3DF3040F08041E06E02F086
:101BA00083F94FF08061E06E02F07EF94FF4156129
:101BB000484661F3DF3040F08041E06E02F074F996
:101BC0004FF4A55066F3DF3040F08041E06E02F044
:101BD0006BF96FF07B41E06E02F066F978103946E0
:101BE00060F3DF3141F08041E06E02F05DF94FF4C7
:101BF000A55066F3DF3040F08041E06E02F054F90A
:101C00004FF08061E06E02F04FF9494669F3DF3131
:101C100041F08041E06E02F047F94FF4A55168F3BE
:101C2000DF3141F08041E06E02F03EF96FF07B4120
:101C3000E06E02F039F9384667F3DF3040F080415A
:101C4000E06E02F031F947464FF4A55167F3DF31FA
:101C500041F08041DBF86C0002F026F94FF0806122
:101C6000E06E02F021F941F230594FF41561484617
:101C700061F3DF3040F08041E06E02F015F931464B
:101C80004FF4B956304661F3DF3040F08041E06EEA
:101C900002F00AF96FF07B41E06E02F005F94FF4B3
:101CA000AA584FF41661404661F3DF3040F080419E
:101CB000E06E02F0F9F84FF47A61304661F3DF30FC
:101CC00040F08041E06E02F0EFF84FF08061E06E8E
:101CD00002F0EAF841F2B021484661F3DF3040F00B
:101CE0008041E06E02F0E0F8314667F3DF3141F009
:101CF0008041E06E02F0D8F86FF07B41E06E02F0B8
:101D0000D3F84FF49651404661F3DF3040F0804104
:101D1000E06E02F0C9F867F3DF3646F08041E06E0E
:101D200002F0C2F8FF49E06E02F0BEF84FF08061A9
:101D3000E06E02F0B9F8FC49E06E01F0E4FEF9490A
:101D4000E06E891C02F0B0F8F84801F0CFFA0328E1
:101D500003D1F749E06E01F0D6FEF6A0FEF774FC61
:101D60003221564603908DE86200CA00642340F297
:101D70008A21E06E01F0D8FE0021E06E02F094F8B6
:101D8000E06E01F098FEE08D032870D1EB480670FC
:101D900095E43422EA4904A8FEF77FFA5C46DBF8B2
:101DA0006C0001F067FFE749E06E02F07DF8E6495C
:101DB000E06E02F079F8E549E06E02F075F8E4A013
:101DC000FEF742FCCDE90080012332224FF49671E8
:101DD000E06E01F005FE32201190D249E06E02F073
:101DE00063F8D6484078012842D0DC49E06E02F022
:101DF0005BF8DB49E06E02F057F8DA49E06E02F07A
:101E000053F8608C4FF4207164300001F03861F3B6
:101E1000DF3040F08041E06E02F046F8608C4FF415
:101E2000C3516430000100F50C7061F3DF3040F005
:101E30008041E06E02F038F8C048407801281AD09E
:101E40004FF08061E06E02F02FF8C7A0FEF7FCFBB8
:101E5000CDE900A0608C0123643002B21199E06EDC
:101E600001F0BEFDB5484078012807D025E1FEE32A
:101E70004FF08061BAE76FF07B41E3E7B849E06E6D
:101E800002F012F8B749E06E02F00EF8BA49E06EBF
:101E900002F00AF8B949E06E02F006F8B849E06EBF
:101EA00002F002F8B749E06E01F0FEFFB649E06EBD
:101EB00001F0FAFFB549E06E01F0F6FF9949E06ED6
:101EC000643101F0F1FF9D48807801287ED06FF0E9
:101ED0007B41E06E01F0E8FFAD49E06E01F0E4FF08
:101EE000AC49E06E01F0E0FF8E49E06E653101F033
:101EF000DBFF92488078022869D06FF07B41E06E6A
:101F000001F0D2FFA449E06E01F0CEFFA349E06EDC
:101F100001F0CAFF8349E06E663101F0C5FF8748D2
:101F2000807803287ED06FF07B41E06E01F0BCFF2B
:101F30009B49E06E01F0B8FF9A49E06E01F0B4FFF2
:101F40007849E06E673101F0AFFF7C488078042863
:101F500069D06FF07B41E06E01F0A6FF9249E06E20
:101F600001F0A2FF9149E06E01F09EFF6D49E06E25
:101F7000683101F099FF7148807805287DD06FF0B5
:101F80007B41E06E01F090FF8949E06E01F08CFF2B
:101F90008849E06E01F088FF6249E06E693101F026
:101FA00083FF66488078062868D06FF07B41E06E3A
:101FB00001F07AFF8049E06E01F076FF7F49E06E24
:101FC00001F072FF5D488078012801E070E171E165
:101FD0007ED04FF08061E06E01F066FF97F8280038
:101FE0000123CDE900606E2240F2AF11E06E01F0F6
:101FF00014FD5248807802286BD04FF08061E06E6B
:1020000001F052FF97F824000123CDE900606E2211
:1020100040F2E111E06E01F000FD484880780328AD
:102020007BD001E049E14AE14FF08061E06E01F0D0
:102030003BFF97F820000123CDE900606E2240F2BB
:102040001321E06E01F0E9FC3C488078042865D05B
:102050004FF08061E06E01F027FF97F82C0001231C
:10206000CDE900606E2240F26321E06E01F0D5FC04
:1020700032488078052852D001E022E123E14FF078
:102080008061E06E01F010FF97F8381004A850F856
:102090002100FEF7D9FACDE900A001236E2240F21B
:1020A0009121E06E01F09CFC24488078062837D00E
:1020B0004FF08061E06E01F0F7FE1A49E06E491CB6
:1020C00001F0F2FEDFF8749099F80100022801E0B7
:1020D000FBE04CE125D02149E06E01F0E5FE20490E
:1020E000E06E01F0E1FE1F49E06E01F0DDFE608C64
:1020F0004FF420716430000100F50C7061F3DF30A3
:1021000040F08041E06E01F0CFFE618C4FF4C3508F
:102110006431090101F5AA6152E07AE1CAE11AE2EB
:1021200073E3CCE301000003646464002C213000FD
:1021300000FFFF00C2EEE7E2F0E0F20070000010E6
:102140008C480000C8C8C802070000260A0A0A0412
:10215000D3D1D2C0CDCEC2CAC8000000C8C8C804FE
:102160000900001F1000000EC2F0E5ECFF20E8207F
:10217000E4E0F2E0000000000099FF040005804C5C
:1021800000196058DCDCDC045005A84CB018385845
:102190004006204DC008604E4006B04EC008F04FCB
:1021A00040064050C00880514006C052C00800544C
:1021B00040065054C008B85540060856C008C057DD
:1021C00060F3DF3141F08041E06E01F06DFEFF48C9
:1021D0004078022870D04FF08061E06E01F064FE1C
:1021E000FBA0FEF731FACDE900A0608CA146963045
:1021F00002B201231199E06E01F0F2FBF849E06EA2
:1022000001F052FEF1484078032875D04FF080610C
:10221000D9F86C0001F048FEF2A0FEF715FACDE9FE
:1022200000A0B9F822005446C83002B20123119927
:10223000D9F86C0001F0D4FBD9F8580008B3E8498C
:10224000D9F86C007A3101F02FFE4FF47F01D9F8F4
:102250006C0001F058FC6FF07B41D9F86C0001F084
:1022600023FEE4A0FEF7F0F9AA2203908DE82401F2
:102270004FF49673C8224FF4DC71D9F86C0001F06A
:1022800053FC4FF08061D9F86C0001F00DFEE0497D
:10229000D9F86C0001F037FCD149D9F86C006131F4
:1022A00001F002FEDB4801F021F803286FD013E3B0
:1022B000D9490EE6D84922E604E3D74935E6D6499E
:1022C00049E6D5495DE6D44971E66FF07B41E06EA1
:1022D00001F0EAFDB4F9320020B10128B4F9300070
:1022E00003D00AE097F8280007E0CDE90050012369
:1022F0006E224FF4DA7106E0E7E2CDE900600123D7
:102300006E2240F2AF11E06E01F087FBC3A2CDE96F
:1023100002A2CDE900954FF49673C8224FF4DC7108
:10232000E06E01F065FCBFA2CDE902A2CDE9009507
:102330004FF4967340F209124FF4DC71E06E01F035
:1023400057FCA749E06E6B3101F0AEFDB7A0FEF778
:102350007BF9CDE90280CDE900954FF496734FF4F7
:10236000A5724FF4DC71E06E01F0DEFB41E66FF028
:102370007B41E06E01F098FDB4F9320020B10128F4
:10238000B4F9300004D00AE097F8240007E09EE298
:10239000CDE9005001236E224FF4F37105E0CDE941
:1023A000006001236E2240F2E111E06E01F035FB86
:1023B0009AA2CDE902A2CDE900954FF49673C82206
:1023C0004FF4DC71E06E01F013FC96A2CDE902A29D
:1023D000CDE900954FF4967340F209124FF4DC7189
:1023E000E06E01F005FC7E49E06E6B3101F05CFDB2
:1023F0008EA0FEF729F9CDE90280CDE900954FF4D2
:1024000096734FF4A5724FF4DC71E06E01F08CFB13
:1024100003E66FF07B41E06E01F046FDB4F9320057
:1024200020B10128B4F9300003D009E097F820006A
:1024300006E0CDE9005001236E224FF4067105E05D
:10244000CDE9006001236E2240F21321E06E01F01D
:10245000E4FA72A2CDE902A2CDE900954FF4967399
:10246000C8224FF4DC71E06E01F0C2FB6DA2CDE931
:1024700002A2CDE900954FF4967340F209124FF491
:10248000DC71E06E01F0B4FB5549E06E6B3101F098
:102490000BFD66A0FEF7D8F8CDE90280CDE90095E6
:1024A0004FF496734FF4A5724FF4DC71E06E01F0B7
:1024B0003BFBC9E56FF07B41E06E01F0F5FCB4F940
:1024C000320020B10128B4F9300003D009E097F8B8
:1024D0002C0006E0CDE9005001236E224FF41A7162
:1024E00005E0CDE9006001236E2240F26321E06E39
:1024F00001F093FA49A2CDE902A2CDE900954FF48B
:102500009673C8224FF4DC71E06E01F071FB45A2B6
:10251000CDE902A2CDE900954FF4967340F209127D
:102520004FF4DC71E06E01F063FB2D49E06E6B311E
:1025300001F0BAFC3DA0FEF787F8CDE90280CDE9B5
:1025400000954FF496734FF4A5724FF4DC71E06E72
:1025500001F0EAFA8CE56FF07B41E06E01F0A4FC3B
:10256000B4F9320010B1012804D013E097F8381004
:1025700004A802E0B4F9301004A850F82100FEF7D6
:1025800063F8CDE900A001236E2240F29121E06EB4
:1025900001F026FA1249E06E6C3101F085FC25A0AD
:1025A000FEF752F8CDE90280CDE900953223C8222A
:1025B0004FF4DC71E06E01F0B7FA0949E06E6D315D
:1025C00001F072FC1CA0FEF73FF837E0700000102D
:1025D000C2F0E5ECFF20E820E4E0F2E0310000008A
:1025E00003000003C2F0E5ECFF20E820E4E0F2E0A5
:1025F00032000000CDE5EAEEF0F0E5EAF2EDEEE5BE
:1026000020E7EDE0F7E5EDE8E521212100000000FD
:10261000646464002C213000646464043132333417
:10262000350000003637383930000000C2E2EEE4F1
:1026300000000000FFEDE200F4E5E200CDE90280D9
:10264000CDE900953223C8224FF4F571E06E01F018
:102650006BFAFD49E06E01F027FCFCA0FDF7F4FFEA
:10266000CDE902803223C8224FF4077100E0EAE18D
:10267000CDE90095E06E01F057FAF349E06E491C90
:1026800001F012FCF2A0FDF7DFFFCDE90280CDE9F9
:1026900000953223C82240F24E21E06E01F044FA48
:1026A000E949E06E891C01F0FFFBEAA0FDF7CCFFD1
:1026B000CDE90280CDE900953223C8224FF4207184
:1026C000E06E01F031FAE049E06EC91C01F0ECFB6C
:1026D000E1A0FDF7B9FFCDE90280CDE900953223F5
:1026E000C82240F2B221E06E01F01EFAD649E06E37
:1026F000091D01F0D9FBD9A0FDF7A6FFCDE90280A5
:10270000CDE90095322340F209124FF4DC71E06EFE
:1027100001F00AFACC49E06E491D01F0C5FBD0A0DA
:10272000FDF792FFCDE90280CDE90095322340F21A
:1027300009124FF4F571E06E01F0F6F9C249E06E4E
:10274000891D01F0B1FBC7A0FDF77EFFCDE9028036
:10275000CDE90095322340F209124FF40771E06E83
:1027600001F0E2F9B849E06EC91D01F09DFBBEA081
:10277000FDF76AFFCDE90280CDE90095322340F2F2
:10278000091240F24E21E06E01F0CEF9AE49E06E42
:10279000083101F089FBB5A0FDF756FFCDE90280B5
:1027A000CDE90095322340F209124FF42071E06E1A
:1027B00001F0BAF9A449E06E093101F075FBACA053
:1027C000FDF742FFCDE90280CDE90095322340F2CA
:1027D000091240F2B221E06E01F0A6F99A49E06ECA
:1027E000C91E01F061FBAFF2BC10FDF72DFFCDE972
:1027F0000280CDE900954FF496734FF4A5724FF423
:10280000DC71E06E01F090F94EE46FF07B41E06E18
:1028100001F04AFBB4F9320040F2C221E8B30128CA
:1028200046D0022844D0032842D0B4F93000012316
:10283000CDE900606E22E06E01F0EFF8AFF22422E5
:10284000CDE902A2CDE900954FF49673C8224FF46A
:10285000DC71E06E01F0CCF9AFF23822CDE902A2D2
:10286000CDE900954FF4967340F209124FF4DC71F4
:10287000E06E01F0BDF97449E06EC91E01F014FB71
:10288000AFF25820FDF7E0FECDE902804FF49673D9
:102890004FF4A5724FF4DC7100E005E0CDE900953E
:1028A000E06E01F041F908E4B88F00F5FA60BEE788
:1028B000B4F930000123CDE900506E22BBE74FF0A0
:1028C000806109E46FF07B4187E46A49A0E46A49CA
:1028D000D9F86C0001F017F9AFF2A870FDF7B4FE5B
:1028E00041463223CDE90035CDE90210A8464FF428
:1028F000BE7340F29F124FF4C8714D46D9F86C0078
:1029000001F012F94FF08061E86E01F0CDFA97F80E
:1029100028000123CDE900600A224FF4C871E86E57
:1029200001F07BF8B5F930100320CDE90001012357
:102930000A224FF4D771E86E01F06FF8B5F9320052
:102940000123CDE900600A224FF4EB71E86E01F03B
:1029500064F8A86D0123CDE900600A224FF4FA71F2
:10296000E86E01F05AF8DFF8149101230A2299F970
:10297000010040F22621CDE90060E86E01F04DF83B
:1029800099F902000123CDE900600A224FF4167183
:10299000E86E01F042F80021E86E01F085FAE86E79
:1029A00001F089F8E88D642803D100210846FDF77D
:1029B0008EFDB5F92E00012801D189F80180022889
:1029C00001D189F801602A46032802D1032189F840
:1029D00001107D2800D1946599F801304946012BFA
:1029E00031D1652804D181F802801486548694651B
:1029F000662803D18E70148654869465672804D1A6
:102A000003238B70148654869465682804D10423AC
:102A10008B70148654869465692804D105238B70C5
:102A20001486548694656A282AD091F90230012BC5
:102A300047D0022B66D0032B7ED0042B7DD0052BF4
:102A40007CD0062B21D0E8E071000003ECE0F00020
:102A5000E0EFF000ECE0E800E8FEED00E8FEEB005F
:102A6000E0E2E300F1E5ED00EEEAF200EDEEFF005A
:102A7000E4E5EA0000FFFF0400FFFF007000001023
:102A800006238B70148654869465A0F13003092BBD
:102A900014D8158E00F00F0305EB850503EB4503F5
:102AA0001BB242F2107593FBF5F605FB1633138645
:102AB000B2F93230042B01DA5B1C53866E287ED0CB
:102AC000ABE0A0F13003092B13D8158E00F00F03F3
:102AD00005EB850503EB45031BB2642593FBF5F677
:102AE00005FB16331386B2F93230022B01DA5B1C78
:102AF00053866E2850D1B2F93000172848D887F88D
:102B0000280083E0A0F13003092B13D8158E00F0C4
:102B10000F0305EB850503EB45031BB2642593FB0F
:102B2000F5F605FB16331386B2F93230022B01DAC3
:102B30005B1C53866E2802E009E02EE051E06CD168
:102B4000B2F930003B2823D887F824005EE0A0F1DA
:102B50003003092B13D8158E00F00F0305EB850504
:102B600003EB45031BB2642593FBF5F605FB163317
:102B70001386B2F93230022B01DA5B1C53866E28C1
:102B80004BD1B2F930003B2802D887F820003DE055
:102B9000C2F85880148654863FE0A0F13003092B18
:102BA00015D8158E00F00F0305EB850503EB4503E3
:102BB0001BB2642593FBF5F605FB163300E04EE0EF
:102BC0001386B2F93230022B01DA5B1C53866E2871
:102BD00023D1B2F93000431E1E2BD9D887F82C0020
:102BE00014E0A0F16F030B2B07D85B1C1386B2F91E
:102BF0003230012B01DA5B1C53866E280DD1B2F9FD
:102C00003000431E0B2B04D887F8380089F80240A7
:102C100003E0C2F8588014866C86BBF92C005C4631
:102C20000A38022816D8E06E01F024F8FF49E06E59
:102C300001F03AF9FE49E06E01F036F9FD49E06E27
:102C400001F032F9FC49E06E01F02EF90021E06E4E
:102C500001F02AF9A4F82EA013B0BDE8F08FB2F964
:102C60003000A0F5FA60632892D8B887CEE7F34821
:102C7000016841F050010160F148832101730C218A
:102C8000017000210171017A41F007010172F22106
:102C900080F82810017B21F08001017370472DE935
:102CA000F041E84C0126E848E671A17C39B1016A9F
:102CB00041F080610162416B81F080614163E18F8D
:102CC000491C09B2E18702297EDB0025E587A67150
:102CD0004069C0F3C060E074217D884204D0B4F83C
:102CE0004A10491CA4F84A102075B4F84000401C52
:102CF00000B2A4F84000142802DBA4F84050667229
:102D0000A08E401C00B2A0860A285DDBA586267234
:102D1000B4F84C00401C00B2A4F84C00B0F5FA7FA7
:102D200007DB04F14804A580608820806580A4F159
:102D3000480442F21077E08E401C00B2E0860A2878
:102D400009DBE586A672FDF7A7FAB4F91E00B842C2
:102D500001DA401CE083208F401C00B22087142839
:102D600006DB2587E672E07B08B1E57300E0E673D9
:102D7000608F401C00B26087322806DB65872673AF
:102D8000207C08B1257400E02674A08F401C00B29E
:102D9000A087642818DBA5876673B4F92000B842C1
:102DA00001DA401C2084607C10B1657401E00BE006
:102DB0006674B4F84200401C00B2A4F842003C28FB
:102DC00002DBA4F84250A673BDE8F0811CB5FDF704
:102DD00097F99C4C01204FF4FA61A0749B4800685D
:102DE000B0FBF1F14FF0E020491E41610721016184
:102DF000954D286820F000602860286C40F0800025
:102E00002864286C40F480702864FFF730FF9049F4
:102E100011200872286840F400602860A86940F416
:102E20000060A86100F01EFA8A48E066286840F455
:102E300000102860E86940F40010E861864E3046D2
:102E4000401EFDD1286840F400102860A86940F4B5
:102E50000010A8613046401EFDD100F0FEFA761E3B
:102E6000FDD1482000F015FB7C48401EFDD14220DA
:102E700000F00FFB052000F00CFB00F0EEFA6820DC
:102E800000F007FB764E304600F00BFA7C28FAD1B2
:102E9000734840F252312C3000F084FA70482E21F1
:102EA000303000F07FFA6E480021383000F07AFAB6
:102EB0006B4807213C3000F075FA694840F20D215B
:102EC000403000F06FFA66481721443000F06AFA8B
:102ED000634800214C3000F065FA6148072150300A
:102EE00000F060FA5E480021643000F036FA5C4879
:102EF00000216C3000F031FA59484FF448713430F9
:102F000000F050FA56484FF4F071483000F04AFA99
:102F10005348FF21903000F020FA5148FF219430AF
:102F200000F01BFA4F4F4FF44010394600F064FA9E
:102F300040494D48491E00F05FFA4B484B49001D7F
:102F400000F05AFA48484A49083000F055FA464815
:102F500048490C3000F050FA43484749103000F01F
:102F60004BFA41484FF004563146143000F044FA11
:102F70003D484249183000F03FFA2D493A48A03107
:102F80001C3000F039FA38482A49203000F034FA71
:102F900035483B49243000F02FFA33483146283079
:102FA00000F02AFA00214FF0301000F025FA2C48EA
:102FB0000221543000F0D1F929480521703000F089
:102FC000CCF9FDF7FEFA102000F018FBDFF8B48012
:102FD00045F2555608F1040909F1040A0AF1040BF7
:102FE000B04204D1122000F009FB00287ED0E06E30
:102FF00000F040FE2449E06E00F056FF3946E06ED6
:1030000000F052FF6FF07B41E06E00F04DFF4FF497
:103010007F01E06E00F077FDFF21E06E00F03EFDE5
:103020001B231AA14FF4C06064223BE00000FF04A0
:10303000A000000D0200001FC012A04F00C00240FF
:1030400000C000400000001000C0092064140010FF
:103050000040024038FD072080A90300C0D40100D1
:10306000002030000700002604003000C6EF869BD9
:1030700016FF1604C4EFC6A1C9EF06B21616FF0468
:103080000050089850213000C8C8C802506C6561D3
:10309000736520546170206F6E2074686520646FC2
:1030A00074000000CDE900011146E06E00F098FCCC
:1030B0000021E06E00F05CFD0021E06E00F0F4FE07
:1030C000E06E00F0F8FC404600F010F901461420D4
:1030D00000F04BFB484600F009F90146182000F0CB
:1030E00044FB504600F002F9014600E04BE01C2092
:1030F00000F03BFB584600F0F9F80146202000F0B4
:1031000034FB4C4800F0F2F80146242000F02DFB7F
:103110004848001D00F0EAF80146282000F025FB91
:103120003146102000F0E7FA434800260670434875
:10313000401EFDD1A674607900B16671E07900B1DE
:10314000E671A07900B1A671207A00B12672607A8A
:1031500000B16672A07A10B1A672FDF722FBE07A88
:1031600000B1E672207B00B12673607B00285BD043
:10317000B4F92C00B0F57A7F01DA401CA085A08D4F
:1031800001282CD02FE0142000F071FA01464046AF
:1031900000F032F9182000F06AFA0146484600F0C3
:1031A0002BF91C2000F063FA0146504600F024F988
:1031B000202000F05CFA0146584600F01DF924205A
:1031C00000F055FA01461B4800F016F9282000F0DF
:1031D0004EFA01461748001D00F00EF9A4E7002141
:1031E000122000F088FAA08D0A2803D11449122079
:1031F00000F081FAA08D0C2803D10021122000F0EC
:103200007AFA6673286C40F480502864686D80F404
:1032100080506865E06D401CE065102000F0EEF91C
:10322000014608A000F096FEA07B002882D0A6737D
:1032300080E70000602130007000001080EE360052
:10324000AAAAFFFF43414C4942524154494F4E5FA5
:1032500049535F434F4D504C455445203D2025690F
:10326000200D0A009848016841F040410160416822
:1032700021F003014160416841F00C014160416867
:1032800041F03001416091480121C160202101607D
:1032900070478E49886048680006FCD58868C0B2CF
:1032A00070478B4A00B50346106840F40020106058
:1032B000D06940F40020D061C3F30540FFF7E9FF77
:1032C000C3F30720FFF7E5FFD8B2FFF7E2FF552071
:1032D000FFF7DFFF5520FFF7DCFF116841F4002105
:1032E0001160916941F40021916100BD784A10B5E7
:1032F0000346106840F400201060D06940F40020BC
:10330000D061C3F30540FFF7C4FFC3F30720FFF705
:10331000C0FFD8B2FFF7BDFF5520FFF7BAFF552019
:10332000FFF7B7FF60F307045520FFF7B2FF60F324
:103330000F245520FFF7ADFF60F317445520FFF72A
:10334000A8FF60F31F641168204641F4002111605A
:10335000916941F40021916110BD5D4A10B50346A9
:1033600010680C4640F400201060D06940F4002042
:10337000D061C3F3054040F08000FFF78AFFC3F33C
:103380000720FFF786FFD8B2FFF783FF2046FFF73D
:1033900080FF106840F400201060906940F4002025
:1033A000906110BD4A4A10B5034610680C4640F4BF
:1033B00000201060D06940F40020D061C3F30540C4
:1033C00040F08000FFF765FFC3F30720FFF761FFC0
:1033D000D8B2FFF75EFFE0B2FFF75BFFC4F3072050
:1033E000FFF757FF106840F400201060906940F428
:1033F00000209061284610BD10B5354A04460B46A2
:10340000106840F400201060D06940F40020D061C2
:10341000C4F3054040F08000FFF73BFFC4F30720F2
:10342000FFF737FFE0B2FFF734FFD8B2FFF731FF05
:10343000C3F30720FFF72DFFC3F30740FFF729FF72
:10344000180EFFF726FF106840F400201060906906
:1034500040F400209061284610BD1D4A00B5106858
:1034600040F400201060D06940F40020D0610020BA
:10347000FFF70FFF0020FFF70CFF0020FFF709FF09
:10348000106840F400201060906940F400209061C2
:1034900000BD0F4A00B5116841F400211160D169E7
:1034A00041F40021D161FFF7F4FE0020FFF7F1FEA7
:1034B0000020FFF7EEFE106840F4002010609069D5
:1034C00040F40020906100BD00C0024000000240B6
:1034D00000C00920C6498860C8684007FCD58868D4
:1034E000C0B27047C348016821F4406101600168BF
:1034F00021F4404141F400410160016821F4403170
:1035000041F400310160016821F4402141F40021BF
:103510000160B948016841F4806140F8E41B01682A
:1035200041F480110160B248016941F0100101616C
:103530004FF0000101604160016841F0C00101608D
:10354000016841F007010160416841F002014160FA
:10355000AA48016841F0200101607047A548016850
:1035600021F440610160016821F44041016001687B
:1035700021F440310160016821F4402101609C4840
:10358000416821F002014160704700B5FFF7AAFFD2
:103590009A4A106840F020001060D06940F0200086
:1035A000D0610620FFF796FF106840F02000106001
:1035B000906940F0200090615DF804EBCEE700B523
:1035C000FFF790FF8D4A106840F020001060D0692E
:1035D00040F02000D0610520FFF77CFFFF20FFF7BF
:1035E00079FF0346106840F020001060906940F0B9
:1035F00020009061FFF7B2FF184600BD2DE90140A1
:10360000FFF7DDFFC007FBD1FFF76CFF7B4A1068B7
:1036100040F020001060D06940F02000D06103200D
:10362000FFF758FF9DF80100FFF754FF9DF80000D9
:10363000FFF750FFFF20FFF74DFF0346FF20FFF786
:1036400049FF03EB0023106840F0200010609069F0
:1036500040F020009061106840F0200010609069F8
:1036600040F020009061FFF779FF184608BD31B5A2
:10367000FFF7A5FFC007FBD1FFF734FF5F4A1068D3
:1036800040F020001060D06940F02000D06103209D
:10369000FFF720FF9DF80100FFF71CFF9DF80000D9
:1036A000FFF718FFFF20FFF715FF0346FF20FFF786
:1036B00011FF0446FF20FFF70DFF0546FF20FFF72F
:1036C00009FF05EB002004EB002003EB002310684A
:1036D00040F020001060906940F020009061106878
:1036E00040F020001060906940F020009061FFF7EA
:1036F00035FF184638BD03B5FFF761FFC007FBD1A2
:10370000FFF743FFFFF7EEFE3C4A106840F0200051
:103710001060D06940F02000D0610220FFF7DAFE8F
:103720009DF80100FFF7D6FE9DF80000FFF7D2FEDE
:103730009DF80400FFF7CEFE9DF805301846FFF710
:10374000C9FE106840F020001060906940F0200031
:103750009061106840F020001060906940F02000F7
:103760009061FFF7FBFE18460CBD03B5FFF727FF7E
:10377000C007FBD1FFF709FFFFF7B4FE1F4A10682F
:1037800040F020001060D06940F02000D06102209D
:10379000FFF7A0FE9DF80100FFF79CFE9DF80000DA
:1037A000FFF798FE9DF80400FFF794FE9DF80500D2
:1037B000FFF790FE9DF80600FFF78CFE9DF807309E
:1037C0001846FFF787FE106840F0200010609069EF
:1037D00040F020009061106840F020001060906977
:1037E00040F020009061FFF7B9FE18460CBD0000C4
:1037F0000000034000C00240C4C00F4000C00920C8
:10380000F0B54148DFF804E1C178491CC170DEF829
:1038100008103F4EC1F34203012200214FF480659E
:10382000032B21D0022B3ED0062B65D0012B1AD1C1
:10383000384C238803F1010323809EF814309B0643
:103840005FD50270C289002A0DD0521EC2818289C2
:1038500006F580639B5C8EF80030521C92B2828128
:10386000AA4200D18181F0BD9EF8143013F09E0F62
:1038700003D003619EF80000F0BDDB07FCD09EF88A
:10388000003084883355641CA3B242708380AB42FD
:1038900000D1818003895B1C9BB20381AB42EBD1D9
:1038A00001818270F0BD1C4C1C4F23885B1C23805F
:1038B0001DE000BF9EF8003084883355641CA4B21C
:1038C00042708480AC4200D181800489641CA4B21F
:1038D0000481AC4201D1018182707E2B00D13980FC
:1038E000DFF83CC03C880CF80430641C3C809EF837
:1038F0001430DB07DED1F0BD016941F48071016154
:10390000F0BD0170F0BD00007014001000C0004058
:10391000265700105E1400105C1400105A1400109A
:10392000C254001023484FF0805101607047224874
:103930004FF080510160704770B54FF0A04532E004
:10394000C5F8E80F00072ED5D5F8184127E01B4829
:1039500050F8340041001CD5C0F30A06F61E40F2B0
:10396000EA518E4215D81649084212D146F000405D
:1039700000F0BAFB68B1114A011D203AF61C52F85A
:103980003420B30803D040CA5B1E40C1FBD100F015
:1039900031FC641C042C00D10024C5F81841D5F872
:1039A0001401A042D3D1D5F8E00FD5F8E41F0840A8
:1039B000C6D170BD00E100E080E100E068FD0720B5
:1039C0000000901B70B505460C460846FCF777FCD6
:1039D000401C82B221462846BDE8704000F033BA50
:1039E0002DE9F0470F46DDE90889054616461C46D5
:1039F0006FF0F30100F058FA394666F31F4128468C
:103A000000F052FA214668F31F41284600F04CFAB4
:103A100049462846BDE8F047D4E72DE9F0470F4670
:103A2000DDE90889054616461C466FF0D10100F015
:103A30003BFA394666F31F41284600F035FA214625
:103A400068F31F41284600F02FFA49462846BDE892
:103A5000F04700F029BA2DE9F05F0D460AA980462B
:103A6000B1E8800E16461C466FF0ED0100F01CFA1E
:103A700066F31F452946404600F016FA67F31F44D7
:103A80002146404600F010FA49EA0A41404600F05B
:103A90000BFA59464046BDE8F05F93E770B50D4616
:103AA00004466FF0F60100F0FFF929462046BDE814
:103AB000704000F0F9B96FF0FE0100F0F5B92DE9A2
:103AC000F05F0D460AA98046B1E8800E16461C46F6
:103AD0006FF0EF0100F0E8F966F31F452946404614
:103AE00000F0E2F967F31F442146404600F0DCF99C
:103AF00049EA0A41404600F0D7F959464046BDE838
:103B0000F05F00F0D1B970B50D465C49044608205D
:103B100008806FF0F501204600F0C6F929462046DE
:103B2000BDE8704000F0C0B92DE9F05F0F460AA96A
:103B30008246B1E8200B16461C466FF0F20100F0F9
:103B4000B3F9394666F31F41504600F0ADF92146FE
:103B500065F31F41504600F0A7F9414669F31F4144
:103B6000504600F0A1F959465046BDE8F05F29E7FC
:103B700070B50D4604466FF0EA0100F095F929464C
:103B8000204600F091F92046BDE8704000F03AB9B7
:103B900070B50E46144605466FF0D40100F084F966
:103BA0003146284600F080F921462846BDE870409D
:103BB00000F07AB92DE9F0470F46DDE9088905469E
:103BC00016461C466FF0D30100F06EF9394666F3D5
:103BD0001F41284600F068F9214668F31F41284636
:103BE00000F062F949462846BDE8F04700F05CB9AC
:103BF0002DE9F05F0F460AA98246B1E8200B164670
:103C00001C466FF0F10100F04FF9394666F31F4191
:103C1000504600F049F9214665F31F41504600F037
:103C200043F9414669F31F41504600F03DF95946BA
:103C30005046BDE8F05FC5E62DE9F0470F46DDE9E7
:103C40000889054616461C466FF0D20100F02CF993
:103C5000394666F31F41284600F026F9214668F3ED
:103C60001F41284600F020F949462846BDE8F047A4
:103C700000F01AB96FF0FF0100F016B95200001001
:103C800070B5924B0029064619681446C2F30540E8
:103C9000C2F3072541F400211960D96941F40021DC
:103CA000D9610CD040F08000FFF7F3FA2846FFF707
:103CB000F0FAE0B2FFF7EDFA0220B07170BDFFF745
:103CC000E8FA2846FFF7E5FAE0B2FFF7E2FA5520F6
:103CD000FFF7DFFA0120F0E7428802F54212CFE752
:103CE00070B5807900250C4602280AD00020FFF725
:103CF000D0FA04460020FFF7CCFA44EA0025284613
:103D000070BDE0B2FFF7C5FA200AFFF7C2FAF6E786
:103D100070B50646807900250C4602280CD000219B
:103D20003046FFF7DDFF044600213046FFF7D8FF9D
:103D300044EA0045284670BDA1B23046FFF7D0FFE7
:103D4000210C3046FFF7CCFFF4E760490A6842F4E3
:103D500000220A608A6942F400228A61002181718E
:103D6000704710B50A4604460021FFF789FF00217D
:103D70002046FFF7B5FF03462046FFF7E6FF53490D
:103D8000086840F400200860886940F400208861D9
:103D9000184610BD70B514460A4605460121FFF7C6
:103DA0006FFF21462846FFF79BFF2846BDE870407D
:103DB000CBE770B514460A4605460121FFF760FFC0
:103DC00021462846FFF7A4FF2846BDE87040BCE71F
:103DD00042881144C1F30B02D21C40F6FC710A4028
:103DE00042803B49D6E710B539490446091FFFF721
:103DF000B8FF6188081AC0F30B00A0F6FC704042BF
:103E000080B210BD2DE9F041314E0446361F371DFA
:103E100031462046FFF7A5FF054639462046FFF705
:103E2000A0FF8542F4D139462046FFF79AFF608013
:103E3000BDE8F08170B505460C462846FFF7D3FF74
:103E4000A042FAD370BD2DE9F04180460F461646D8
:103E500034464046FFF7C7FFA04203D24046FFF773
:103E6000C2FF0446A1B20D464046FFF7E3FF2A46D3
:103E700001214046FFF730FF002504E03878FFF7C6
:103E800008FA7F1C6D1C641EF8D24046FFF75DFFE8
:103E9000A9B24046FFF79CFF4046FFF7B3FF701BF7
:103EA0000604360CD4D1C3E770B50D460446042190
:103EB000FFF7C0FF61882A4601F542112046FFF74F
:103EC00078FF2046BDE87040042181E700C009204A
:103ED000FC203000064C074D06E0E06840F001038E
:103EE00094E8070098471034AC42F6D3FCF7F2F898
:103EF000044900004449000070B501EB020410F8C9
:103F0000015B15F0070301D110F8013B2A1106D11E
:103F100010F8012B03E010F8016B01F8016B5B1E38
:103F2000F9D12B0705D40023521E0FD401F8013B11
:103F3000FAE710F8013B02F10202A1EB030303E0F0
:103F400013F8015B01F8015B521EF9D5A142D6D3EB
:103F5000002070BD0FB4054B10B503A9044A0298A8
:103F600000F016F810BC5DF814FB0000B505000069
:103F70006014001002E008C8121F08C1002AFAD11C
:103F80007047002001E001C1121F002AFBD17047D9
:103F90002DE9FF4F89B004469B46002599E025286E
:103FA00033D10027641C4F4AB84601212378203BB7
:103FB00001FA03F0104202D00743641CF6E72078B0
:103FC0002E2819D114F8010F47F004072A280ED023
:103FD0006FF02F022078A0F1300109290CD808EBEE
:103FE000880102EB410108448046641CF2E70A980C
:103FF000641C02C80A908846207800286DD0642886
:1040000008D0692806D075281FD05A460B999047CA
:104010006D1C5DE00A990A20814601C90A910028B9
:1040200004DAC0F100004FF02D0102E0390504D59B
:104030002B218DF82010012104E0F90701D0202167
:10404000F7E700218A4608AE0CE00A990A2081466B
:1040500001C90A91F5E74946FCF739F901F1300148
:1040600006F8011D0028F6D1ADEB060000F1200096
:104070008146780701D401208046002041464A4607
:10408000C84500DD881A8046002706E008A85A4681
:10409000C05D0B9990476D1C7F1C5745F6DB04E013
:1040A00030205A460B9990476D1CB8F10001A8F1D9
:1040B00001008046F4DC05E016F8010B5A460B9926
:1040C00090476D1CB9F10001A9F101008146F3DCB4
:1040D000641C207800287FF462AF0DB02846BDE84C
:1040E000F08F0000092801002DE9F0470027DFF8D4
:1040F000909000280CDA2349D9F8002020F00040E5
:104100000968024401EB4101B2EB910F18D8012775
:1041100005460F3020F003060FB9FFF708FC1A4CD4
:10412000D4E90002011B891AB1420CD2044600688E
:104130000028F5D127B9FFF7F5FB0020FBF7DEFFDC
:104140000020BDE8F08772B110192168016020607D
:1041500000F10808C0F80460D9F800103144C9F82B
:10416000001027B105E004F108086660F4E7FFF7E6
:10417000D9FBA8F800500020A8F802004046E0E76C
:104180008C140010204200009014001070B500281C
:104190002AD0A0F10806154C0025FFF7C8FB09E05E
:1041A000254624682068800703D0FFF7BBFB022068
:1041B00010E064B1B442F3D10D4861680B4B026862
:1041C000511A01609C4209D10020606008E0FFF7AD
:1041D000A9FB0120BDE87040FBF790BF2068286074
:1041E000BDE87040FFF79EBB70BD0000901400104A
:1041F0008C140010084A30B4D2E90034591C01F084
:104200001F01A14205D0054C44F82300116030BCC9
:10421000704730BCFFF7BABF84140010285F00104D
:1042200000400000000000000000007F3E1C08006D
:1042300000080C0E0C080000000000000000000048
:10424000000000000000000000000000000000006E
:10425000000000000000000000000000000000005E
:10426000000000000000000000000000000000004E
:10427000000000000000000000000000000000003E
:10428000000000000000000000000000000000002E
:10429000000000000000000000000000000000001E
:1042A000000000000000000000000000000000000E
:1042B00000000000000000000000000000000000FE
:1042C00000000000000000000000000000000000EE
:1042D00000000000000000000000000000000000DE
:1042E000000000000000000000000000005F00006F
:1042F00000000000000000143E143E1400242A7F39
:104300002A12002313086462003649552250000027
:104310000000060000003E410000000000413E0099
:104320000014083E08140008083E08080000503039
:104330000000000808080808000000606000004055
:1043400020100804003E5149453E0000427F4000D5
:10435000004261514946002141454B310018141279
:104360007F10002745454539003C4A494930000146
:104370007109050300364949493600064949291E95
:104380000000363600000000563600000000081419
:104390002200001414141414000022140800000257
:1043A0000151090600324979413E007E1111117E0A
:1043B000007F49494936003E41414122007F414149
:1043C000221C007F49494941007F09090901003E3B
:1043D00041415172007F0808087F0000417F410081
:1043E000002040413F01007F08142241007F4040EF
:1043F0004040007F020C027F007F0408107F003ED7
:104400004141413E007F09090906003E4151215EBC
:10441000007F091929460046494949310001017FB9
:104420000101003F4040403F001F2040201F003F4F
:104430004038403F00631408146300070870080701
:1044400000615149454300007F410000000408100D
:104450002040000000417F000004020102040040EF
:1044600040404040000000000000002054545478B8
:10447000007F4844443800384444442000304848D1
:10448000507E00385454541800087E090102000878
:104490005454543C007F100808700000447D4000D4
:1044A000002040443D00007E102844000000417F71
:1044B0004000007C04180478007C0804047800386C
:1044C00044444438007C1414140800081414147C68
:1044D000007C0804040800485454542000043F445D
:1044E0004020003C4040207C001C2040201C003C20
:1044F0004030403C004428102844000C5050503CB0
:10450000004464544C440000083641000000007F21
:10451000000000004136080000000000000000001C
:10452000000000000000000000000000000000008B
:10453000000000000000000000000000000000007B
:104540000000000000000000000406070604000050
:10455000000000000000000000000000000000005B
:10456000000000000000000000000000000000004B
:10457000000000000000000000000000000000003B
:10458000000000000000000000000000000000002B
:10459000000000000000000000000000000000001B
:1045A000000000000000000000000000000000000B
:1045B00000000000000000000000000000000000FB
:1045C00000081C3E7F00000000000000007F3E1C31
:1045D000080008183818080000000000000000005B
:1045E00000000000000000000000000000000000CB
:1045F000000000000000000000000000001C3E3E23
:104600003E1C000000000000000000000000000050
:1046100000000000007C5554450000000000000030
:10462000000000000000000000000000000000008A
:10463000000000000000000000000000000000007A
:10464000000000000000060909060000242E2400D6
:10465000000000000000000000000000000000005A
:10466000000000000000000000000000000000004A
:1046700000000000003855545518007C10207B0BBA
:10468000000000000000000000000000000000002A
:1046900000000000000000000000000000002030CA
:1046A00038302000007E1111117E007F49494931C8
:1046B000007F49494936007F0101010300603E2126
:1046C000217F007F494949410077087F08770041F1
:1046D00049494936007F2010087F007F2011087F5C
:1046E000007F0814224100407E01017F007F020C00
:1046F000027F007F0808087F003E4141413E007F65
:104700000101017F007F09090906003E4141412264
:104710000001017F0101004728100807001C227FCB
:10472000221C006314081463007F404040FF000710
:104730000808087F007F407F407F007F407F40FF68
:1047400000017F484870007F4438007F007F484860
:10475000483000224149493E007F083E413E004624
:104760002919097F002054545478003C4A4A4931A1
:10477000007C54542800007C0404040C006038249D
:10478000247C003854545418006C107C106C004485
:1047900044545428007C2010087C007C2012087CA3
:1047A000007C1028440000403804047C007C081081
:1047B000087C007C1010107C003844444438007C95
:1047C0000404047C007C141414080038444444009D
:1047D0000004047C0404000C5050503C0018247E5B
:1047E0002418004428102844007C404040FC00006D
:1047F0001C10107C007C407C407C007C407C40FC99
:1048000000047C505020007C5020007C007C5050E4
:104810005020002844545438007C10384438000894
:104820005434147C20202000FFEDE200F4E5E20087
:10483000ECE0F000E0EFF000ECE0E900E8FEED0075
:10484000E8FEEB00E0E2E300F1E5ED00EEEAF20065
:10485000EDEEFF00E4E5EA00D5480000D548000091
:10486000D1480000F1480000F5480000DD48000094
:10487000ED480000E5480000D9480000E948000084
:10488000F9480000FD480000E1480000D54800005C
:10489000D5480000D1480000F1480000F54800006C
:1048A000DD480000ED480000E5480000D948000060
:1048B000E9480000F9480000FD480000E148000018
:1048C0003031323334353637383941424344454646
:1048D00000F4E5E200FFEDE200E0E2E300ECE0E8F6
:1048E00000E4E5EA00E8FEEB00F1E5ED00E8FEEDAE
:1048F00000ECE0F000E0EFF000EEEAF200EDEEFF99
:104900000000000044490000000000109014000066
:10491000F83E0000B45B000000C007200400000067
:10492000743F0000B45B00009014001018530000A6
:10493000823F0000B85B000004C00720A8670000A9
:10494000823F000011027814000CFF48656C6C6F08
:1049500020576F726C640123281509070A180F1578
:10496000110608080F0D060D060E1011111104286E
:1049700024111106060C0E0D0F1813101010131031
:1049800015111313131017121312101112131712FB
:10499000160F171B0C00271A1712090E090E120802
:1049A0000E0F0D0F0E0B0F1006090E0717100F0F2D
:1049B000100B0D0A100F140D100E0B060B0B32010D
:1049C0003204321C32242BEC0394091C010A2010FF
:1049D000B4180A111112111113120611B419B81CCE
:1049E000141110BA0D2217121214AE299429875AE5
:1049F000189423484E101078DAED9D5D8C6347952E
:104A000080CBFFFF6D7B10E08924A4ED242491125C
:104A1000141B0D111289E2D66AC5A25D16F7033C7C
:104A20002014DC6857E201841D7818102C363C20D5
:104A30008432B147E28904D99348EC039BB86723D9
:104A4000962060EC1E181629516E87B04CE0616EFE
:104A500007F19F81DB76B7FBD7BE67CB3DB7CE3979
:104A60004EAE35D333EDDBEE21359A9E6F6ED72DEA
:104A7000DFBA5575EA9C53A7CADE48281C888613FE
:104A8000B170301A967FA2E1607846FE8C84923332
:104A9000C99948D0EB0F46233351AFDF1F0CF90201
:104AA000BE400893CF37FC198BC8140E47A2BE50E6
:104AB00044DE68FD2F1C0F8743FE805FFE0CC90299
:104AC00043FE50D8E70BFBE3E150381C0CF9C3C19F
:104AD0005828184CF863E1885B0811957FDF2EFF9A
:104AE000BE4DBC99F69DEA1070B060C74BC924E674
:104AF00069B3FCED917B7FCACB99C77BDFA2AD5038
:104B0000FE42C78E978E519ED16738EF54DD5D8F80
:104B10005E5C543C0BD0505CDD48601E6D81F2EB56
:104B2000FFD14F239B806FC26864D614C35C7403AB
:104B3000391BD9C43CF3B19EE2E6621EF3E701F0F3
:104B4000197CDA9F1D6BF7AA7CE7093B7E89DABDE9
:104B5000BACCF23BC8D3965A10FA695BAEB03C07A8
:104B6000C4934E1ED9D61D5BBEAD409CC82BF682A9
:104B700040F6310E98C4C10171748738B581EC2AB2
:104B8000AF250B56A78FC23055DEC85BC3F1368602
:104B90007F3CEF7CBBC7017AB6DC99414E31CEAD8C
:104BA000121756889B35E40890ACDBAB7BC9E275E5
:104BB00099CD86F7DE5DE2FAABE287050FA4FD979B
:104BC0004574EB55C9B3BB7BBFC86C4BAE77AC4CDF
:104BD000C7E10EF574DA4FE05D7DEBEECC36D4BB69
:104BE0004A50F6417B5509EBDF417E5BF5937F83AD
:104BF000BB21BBC7B1812C53BF3CA0AB6B92F3C3AD
:104C000016146E68480EEF8D9F282424BBA03D85A6
:104C1000C33D64CA169BDDB2E47CAD59AB5BB229DF
:104C2000B7D6FCA61AFD8141F3E94D1C2FBAA604A4
:104C30007A6CBBF92DF5DACAAF364F590DEC868583
:104C400066AD78F91D46FBB2FCD8AE43E3FDEC251A
:104C50001C390500FF009A9BFEFB01536579212D4D
:104C60004736A65BFA8865F82DE375CA7333E6BF4D
:104C70004D562DABBA40165918E7EE0536C76DB044
:104C8000E7999B5639FF6903D519977E91E47C52C9
:104C9000CEDE8ADD8FD3EBF1C20E1BA594E7B32ED7
:104CA000BD84E3CEA0723E6D3CEB9C5ED716D16D09
:104CB000E22263833808C429C6CD1F21FF041E44A5
:104CC0007E619BCA840EE312B1C93EB737F20CC8AD
:104CD000D396B452A44F5C606C109F3089AB7F2296
:104CE000864F120F02C4EB8C1789279D7C724E5998
:104CF000B3E5648E5864F6C3FE0171B04F1CDD4508
:104D0000761537902352A940EECF51FE694B724E73
:104D1000DFB4E56ED496531DE2CC2A7175053902D5
:104D200035E4E86E82F24C5D9F6F888C12E85A572A
:104D3000349177DC28E835B887B8D96A217F1172B9
:104D4000C89FDB8D23976E632CE2EB0EDAB06B7697
:104D5000BC447D5E00FF00CA9FCC61F0D4B53BC06F
:104D6000962D972207CE539662B26BD404E9DE15D6
:104D7000B289B87D74303CE114D91DAAA64A0D4908
:104D800093DEA557A435A654B69519D4BB523D342D
:104D9000CB4468B7D960F620E963DA803EA1C0440D
:104DA000570E6F15EE16BA2B4493541BD1FCBD93CE
:104DB0004D4975E1EC7A14CCEF5BFCD0D0B87AC9E0
:104DC000AAD6EFF2DD8FEF587AF85CAEE30765DA2A
:104DD000E63A9ECB75E0CCF308ED9778EFE5322DFF
:104DE000DBC7F504983FB77D9E4927D65E57C19E25
:104DF00067A0BF407A38EA78C669E3FD56A77141DB
:104E0000DAC85A7E2ED9858DACE58FD8BBAE5B371C
:104E1000EB678C7F52CD3D2C470D72B72C7FFE1A6D
:104E20009FED1A74DA4391E1C379643D41F38BF24B
:104E30001472DE1B0363F8DBA543D1690F5EB6B3C2
:104E4000EA0E992481288EE183F05D08A324B4DA68
:104E500035B27ECEAD10AEE4E45E7B290E83892CA4
:104E60005C947F58B57DF25425C8663A57E40562D4
:104E70009D5C80E2415367722C73153C711B56BEDA
:104E8000E7CB0E29477929A99D4A5ABCE7A07C2384
:104E90004F9F0D9BE904760F9887B5B5E11BBCDDEC
:104EA0003FC1DABAFF7A462BD89E7F7DC3B43B2C34
:104EB000335E61C37F0CBBD207E0AB7C6DCECE57B7
:104EC000699CBB47AD4FB97F9876015B0AD01798B4
:104ED0001158B263575239E35CC785508357EA785B
:104EE0006E5444F45FBC0B35F7DC88AFF2B5A9F51E
:104EF000559E44AD6EA8C293C9753C804B79C2F3F0
:104F000075340B4400FF00F86BA3EBFF18305939E0
:104F10009B76E5BF99269852CC291A6796739C997F
:104F20005F64C54923B6471C650E9608733884BB79
:104F30004C228D99AD23FF33E6731DB4DEF5FB776C
:104F4000F7C537542A2FE7B0999A8B855514E81581
:104F50005C0A2F4AC96BDAB00F92A884F84D170E7D
:104F6000E6A1A4EED9F0ECE64D7D2514E2BD08F6ED
:104F7000B8CC5A6C932CD878EFC0EB185EB5655F4F
:104F8000CB7C4AB07AA999037EF0F2F7945909775D
:104F90006340800B4E5070800EDB28931FE21AC9CD
:104FA000C74C12708165A346DC5236CB0B1FB8A0EC
:104FB000E685A16B1C9D1DEFD307952B3DF341A505
:104FC000E134F91B557733EB572FBD5F68C4AC5AFA
:104FD000BA37A3CB8505E217D5BD83E253383A0B28
:104FE000837B3A0F5FB0FE93483D69EAEAB554EF20
:104FF000EC65D4ECB7EB5F4B59550BAC13CF2C7B66
:1050000076EAD6DBFA1027D0BCF8B253639EE908E3
:105010006ECDC4768C6CCCA2948A6FA45092454D10
:1050200003AFFBD8FC1590F3D487D530BA00FF004E
:10503000EF540A98315F7D4DADC819D928FA8135F2
:10504000A93F2C935E81B3A54FEF7FC470689AD3BC
:10505000B3FBE3A39EDCCCFF712BEB5FC557999E9E
:10506000CF1C05CDDA64997F167F06FE6CEEC583F2
:10507000A9FBBDBCDDD93314D8BCCC1747667A93E5
:1050800065FE59FC19F486FD331F9C2147F8B5C70E
:10509000E813A44D813D3DCC420C5A606629FF03C4
:1050A000B6E5FC5DA462C38EDD40B60967912C9F16
:1050B0004E5CE1DEBFBBC4C7DD38BEC8ACBB5353DA
:1050C0005C175AD11CE5643221DE4CB24D17AFCCCF
:1050D000134F3E66A78499C116670658813D508BD1
:1050E000CC71175B37F4B390A22893E129A68A9676
:1050F000B9239AFAB0DBA4CB016656C626BD16EDDD
:10510000D32E08E6B7A9D0FC525E258F437C0DABA9
:105110009B9E59BF46E6E5C8F28BABEC73F1ADF848
:10512000F40BCEB57B81DADA4F2259E44CE200FF72
:1051300000FC07898F4759DF98344F3879B557A855
:105140008E6C254C3B4D5AC67759DBC95ECCB48F6B
:1051500026197501D207449E1C1F2E83E6AF285BDB
:105160009AAE77B96CA4B85CCE934E7ED6C7CAAC63
:10517000CFC329EAF3271271F6A464E28B285B43BC
:1051800088015B1D2C766D3438CF5F9936075FA19F
:105190003C55F6CE03FA2BCEF5F9106B8C14EB6F61
:1051A000E51562A3C4C605CD5331A66F173AEF4586
:1051B000E9A535AA6AFC7A218D1C60AB0E9CE5DC62
:1051C000573F4D25551D5B8E93BA6BD79699ED369B
:1051D000C24FFC9CDFBB486384DAF1D888864E1E40
:1051E000BEEF6669EC4859D7B593757ECDC1768F11
:1051F0006DF3C66395A4D7EF61312111369765062B
:10520000FF4BE3973DBF512B7750CE27E224F3139A
:105210005477A352ECB0B156B31B8393366779C869
:10522000C3088B548F98E6A3E430C28E26789A1078
:10523000FCA503A6FDFBE411637C338C41AE292F52
:105240007BB7A1BE73CDCEE7F7329339C6E97217AB
:105250006B98A53E6CD4A8AFE6D9520C67E314E670
:10526000F180886D10B3FD53B5C21A93758BD4EEDF
:10527000AF3858F757B86ED3203BA2D865FA498F9C
:10528000DE03C96A6374CCB6B1CC1F31F9EF67FD98
:10529000618639FD8B4CE1D3A90FF8E0E8E9FCC544
:1052A0008E3DBF774C5C0CBF3EEEDEA35EF771E92E
:1052B000836DFB2E3096A927A14FD4F9E43DC3148A
:1052C00023ACE5DB0D135B526751629C791E7EAF08
:1052D0002C73E98835F578FF0C33D4198FCD7F54C2
:1052E000D277B80DFE27924B0FC3364D54FF02D430
:1052F0005BDF47B1460FC34ED6EEDEEF1C560F1EE6
:10530000B56550C7689D41FD447C9ED99E230A9097
:105310008B969B44C4A4CA64985AF7A1311B5CEFD6
:105320005AB8F2209F7472DD8EEDE53700FF00FE63
:105330004FD5F09CF0A83589E1BF056BF68344F0AA
:10534000F9F2B2E23A868740021E69294E42BAA8B3
:10535000F81888BCDDF52C94547EADD1C472FE35AE
:1053600071D3F3851587EACEC3D5E33CFE99295B5B
:105370002DB2EF5CD05A26BB8694B6C86E748B4CA7
:10538000A2A04932DF83C66D8B82CE5D2CAA6668EF
:105390001EA97D0A5169E0CC38B54F8AEFB51FDDF3
:1053A000FBFF565D55B2DE1668D0D6DB6EAD4DF90B
:1053B000CD346355C7FAB93B3476EFD8BDFFABECBB
:1053C000734BC4CE396E4E0E70DEB995D995D58D1E
:1053D000BBF13DE80D81D1EECC9C153C027024AAB6
:1053E00066C1D6FC1D29A7BA711766BB95C7949DE7
:1053F000646BD0136FF7C193BCDDB1ED96EE44053D
:1054000077B4DD29C05D32C62D0C63A4BBF6D7731B
:105410001DBB7296DE66B4ED3E17064F3957F7EBAB
:105420003AEF62CB96AFE65E9E67CC33DC00FF00BE
:10543000B075BF0A7660BC57C8E546B11FD5CDBB75
:1054400050FEE88B0285BB1CBFC7D276E37DA18AE4
:105450000A0D67991F1D7C72BCA3053F1CEF151A2E
:10546000EF834319EFD7B3F761C27BEB1CA8FBD4E2
:10547000F2E4D368CF9D28331FD737315C57845966
:105480004CA9FB99BE7387780CF58D2DD25BD07932
:10549000546FC75041AFB7EBD80DEBE7A92E75831A
:1054A0009C2CDC575937ABE8CFA9AFCDECD267F9CC
:1054B000B1F2F273F5367B861E71CCBCD1FBFCEBEE
:1054C000E6B8391B9E78DDA5529DB35E7A5D5AD44D
:1054D0004DC503D94315C35C90B81D4736D68A869F
:1054E000E2E777F4B2E29F02282F6FBDAD6DC59160
:1054F0000B1D62DF1CF130CEF28DEC40BBA3CB5D07
:10550000D69DD84C10438DF11AF1C53EF179F814AF
:10551000725BBB449C01E2206361302EECD83CCF2F
:10552000E4E7F77E45D8E8D5437DBEC4F4F0183FE4
:1055300036CDD73847CB918F2B57529F2766D779D7
:105540007E5E0E2FFFF0F479F359DB71B7F4162E5F
:105550008B8A4C9F2FACDAE51919B3ACCCA9D6EBEA
:1055600026D2EE556AF7609DDABD0E64C7E593104A
:105570005293C4C9C163CC75E19B9FAE7667EC269C
:105580001B7F5456AF533BE67BC4B13EB18FCEFA7E
:105590001B9DEF8A4E2DC07B5FBC84167691B6357D
:1055A0000B78F2AE33E8534D33ED84DBE3E67FE274
:1055B0006F1E62F5757D546353345FB5A6A25EF825
:1055C000870700FF0033B078837FD61DDB2B1404E0
:1055D000B29D398B64B19B24FF15F31F3AC9134E5A
:1055E0005A8DFC0C93E28ECD78296CDD69A8B11F31
:1055F000012027EF97064E850E4677042E2A074C8A
:1056000081FBE03C90A55541A314667A29ED1CCAA4
:105610007768BB49BC470BCCE11D0DE5A78FC5E5FD
:10562000BA800D8516F34816994F3BE358BBCBBAA9
:1056300007B6ACB893A0393C42EDF2DAB917D27193
:105640004858CA19CCE761DEF2326A35A9E958D563
:10565000ACB6756DC58A51C87721D7B5DE5C7C675D
:1056600010DBB1DE5C14B683CA3A0FC2BA07F05C35
:10567000BB55A146B94B4AFFA6EA1C5A49149D39AD
:10568000B3521A172EF4CBE952EF526D9D5F4FA122
:105690001F26DAC7296BB8918FECB226F769335F02
:1056A000B74EE2CD0FB47E31B3CDD6DC3B784A9D08
:1056B0000B2A3E354784E59D9A43C7754606C3A32A
:1056C000F354B5108EE6C8AFAE2DD26279BE4B2B27
:1056D000ABB1AD91FE4C225CE77DB87B1464DD700C
:1056E0008D6087315620992CB341682CB299816620
:1056F000BC0C6BEB2669245E1E7AC6BA46911C323E
:105700002EE30CAE51FAD833709E786AC2A23D4F98
:10571000789FC8581EF33C13483C5E97C7F1F2F8D7
:105720005EA1336D83C703F32DD97C7F68801F553D
:10573000C8CF296201C423FB0578C0310F44F64F5E
:10574000B40B78D990E52CA5C0A1F0D8E79978CA18
:10575000B170101C8DC9EA016E6714A9F514B670FA
:10576000B311188837D3A453E0844C8F586A1400BF
:10577000FF00DF8DE15C7A10703BA30B2EA119E7CF
:10578000334561990C166429AF30BF9819607E517A
:10579000E8521EAD81EC856C616A4FE3BEE7E2CF53
:1057A000482D65F18401164FEE7A0FC560570197B9
:1057B00068860711AFD2BBAAAEE2BB322946E533F9
:1057C000667DC5A9BA24B9182E5D053F4E67E78EE0
:1057D000C41EBF74DF26D947B4BF5B2B85766CAF80
:1057E0002FCFF2339DB00B6BCF70DFFE74C5197AEB
:1057F000353A5A25CFF602EBA7EFC7EB4CFB71F316
:10580000298E5D177AE37EDB7278F90EA876ECE5D7
:10581000F2FD11F61CFAEB97D7D958A6BD30A7CAEE
:10582000142F9DC5B9C03D12474DD705940AEB6CA6
:10583000EC20BF039E5E9FD6F1CEE3B20A268BBF5B
:105840009DCFD07EA2AF9FE47174D8B7791FD02BC3
:10585000812C6B771CE33EEDB543D9751DA0E3A207
:10586000459EB6C28B32F94EBDFA5FB264A2B1401A
:1058700000FF00932A533F0F8AA72DDD025FFA0530
:10588000EBABF4FD1AA7EAD4EE59EC03B2CFA7ECC8
:10589000AE0BA854D7ECCAB9D92CB3A99BCE34F31C
:1058A00093EB57D44D9287F71AD7FEB5245725DBD3
:1058B00047E4FCC05ECE9F7B88E47C29CCE5FC35C8
:1058C000F3C4FD75AC5E4F8F7186BF277D1DEFEA77
:1058D0003A781AEA7E47E270EACE990ED1121F6733
:1058E0003BF18A7F38A0BA5F1DCFB2FEA9D13EA995
:1058F0002F9059A3E95D6612D15E096D87EC23AD47
:1059000044FE10AD84CBEFC3732C4DA7341A7DFE3B
:105910009098BDCFFA80CBD2E995F3CF7CF1D2F14C
:10592000B3E751D6E16A86B6749F799BE5B3DD9300
:1059300075D664B527BBAC4972BF3C8575B797F384
:105940004BF71D3939BFDFF4BA3DE3B41FF014C57E
:10595000DB437A643F60CFE6FA701F19E62FF23D11
:10596000E04EEE8B3CA8765F9E1D67C76DDB5EE761
:105970007600FF001F2FE7BF06F3D33A27DE028F22
:10598000BE6C678330DBE4EA6C994AD1D626BAF95B
:105990006FD52BDA53A31CFD8A83ED9EA5F6C2F0CA
:1059A0007939DE6F3F72BACD7ED34DC6AF698E3680
:1059B00051CB90E3FA181AC5F0DC27C80E622163B8
:1059C000AEF7E3B603F1EF24CC7D6CEB803869FCD5
:1059D000EAD0EB586FD8B24FFF0B3675902DB18ED1
:1059E000CB3F96B9BD56A0EE2382C6F41E1C66CCF2
:1059F000877E45CCBF0F717FAC2D663659DF400ED8
:105A0000C10FA7F53B56A25B1456E01F886A9BE4C2
:105A10001869DCCDAF92EE9ABF406B2B3326ADB93F
:105A200084D8163A0FF0C38CA6B6DD65DDAB0BE16A
:105A3000CBD509F485BE684522B8C10D1D656D1B27
:105A40001F186C14ADB7523FB9BEABBEF42E6F2C0D
:105A5000EA86D5BDE3B05055EB5E6148E4D4E4E797
:105A6000EB8BD8943AAD7C30C7FC6CCB74CADA6C43
:105A70009F4C00FF00101FFF3A35831F8542EB3E0D
:105A8000995DF25C6A6DB4890290CE6D4C6FBB6714
:105A9000589F2FD33A459A6627ED11AA57F13C85B6
:105AA0004CA676692847499D117EF635813C90CBFE
:105AB000C5D6E3F829DC065BAEFC5BC5B1BABBD941
:105AC000961A3770875D943D5C950E1FF4B2A8E876
:105AD00059B65C4FB3DDDE1C374F3E40E7CE9E7FAC
