:020000040000FA
:10000000B8480010E1000000E5000000E700000033
:10001000E9000000EB000000ED000000000000001F
:10002000000000000000000000000000EF000000E1
:10003000F100000000000000F30000006703000072
:10004000F7000000550200007B020000F7000000EE
:10005000F7000000B1070000F7000000F700000003
:10006000F7000000F7000000F7000000F7000000B4
:10007000F7000000F7000000F7000000F7000000A4
:10008000F7000000F7000000F7000000F700000094
:10009000F7000000F70000002B030000F70000004D
:1000A000F7000000F7000000F7000000F700000074
:1000B000E9080000F7000000F7000000F70000006A
:1000C000F7000000F7000000F7000000DFF80CD098
:1000D00000F0FAF80048004787040000B848001014
:1000E00005480047FEE7FEE7FEE7FEE7FEE7FEE71E
:1000F000FEE7FEE7FEE7FEE7CD000000FEE70000BA
:1001000030B54E482021C0F8A01100BFD0F8A01192
:100110004906FBD500F180000322C0F884204FF48B
:100120000031C0F828114FF00001C0F82C114FF039
:100130000103C0F88C30424C446003604FF0AA03C6
:10014000C3604FF05504C460A0F18000D0F888501F
:100150006D01FBD540F8802FC360C460C0F88810E3
:10016000384A4264C0F848118168A0F180006FEA03
:1001700011618A073449D0F80C2102F0030207D03C
:1001800092B3012A46D0022A4AD0032A51D13BE039
:100190002AB1012A11D0022A27D0032A49D150F8C6
:1001A000882FC2F30E02521C53000268C2F30742AA
:1001B000521CB3FBF2F2254B0CE050F8882FC2F32F
:1001C0000E02521C53000268C2F30742521CB3FBDA
:1001D000F2F21F4B5A43C36FA0F18800DBB203F168
:1001E0000103B2FBF3F223E00EE050F8882FC2F3D4
:1001F0000E02521C53000268C2F30742521CB3FBAA
:10020000F2F24FF4FA43E5E7D0F804210F4BD2B2F3
:10021000521C0BE0D0F804210D4BD2B2521C05E069
:10022000D0F804214FF4FA43D2B2521CB3FBF2F2DD
:100230000A6043F23A01016030BD000000C00F4087
:100240004F0003004AF100410C00001000093D007E
:10025000809698004FF04021012008600B4801680B
:10026000491C01600A48016821F0FF01091D016075
:10027000016841F080710160704706490120086003
:1002800002484168491C416070470000100000109E
:100290000040034000800040704730B50B460146E7
:1002A00000202022012409E021FA02F59D4205D315
:1002B00003FA02F5491B04FA02F52844151EA2F1BF
:1002C0000102F1DC30BD0000064C074D06E0E0689D
:1002D00040F0010394E8070098471034AC42F6D38D
:1002E000FFF7F8FE980C0000D80C000002E008C8E8
:1002F000121F08C1002AFAD170477047FFFFFFFFA5
:1003000092490A7D9206FCD50A2805D10D20087075
:10031000087D8006FCD50A200870704700B50346AA
:10032000C0B2FFF7EDFF184600BD8948016821F013
:10033000E061016070478748016841F05001016049
:100340008248832101730C21017000210171017A1F
:1003500041F007010172F22180F82810017B21F0A1
:100360008001017370472DE9F0417B4C01267B48E9
:10037000E671A17C39B1016A41F080610162416B93
:1003800081F080614163218F491C09B221870229D4
:1003900077DB00252587A6714069C0F3C060E07453
:1003A000217D884204D0B4F84410491CA4F84410BC
:1003B0002075608F401C00B26087142801DB6587C0
:1003C0006672E08D401C00B2E0850A2859DBE585A5
:1003D0002672B4F84600401C00B2A4F84600B0F5FE
:1003E000FA7F07DB04F14204A580608820806580E5
:1003F000A4F1420442F21077208E401C00B2208605
:100400000A2809DB2586A672FFF746FFB4F91E000D
:10041000B84201DA401CE083608E401C00B2608666
:10042000142806DB6586E672E07B08B1E57300E020
:10043000E673A08E401C00B2A086322806DBA5869B
:100440002673207C08B1257400E02674E08E401CE1
:1004500000B2E086642814DBE5866673B4F92000F8
:10046000B84201DA401C2084607C08B1657400E069
:100470006674A08F401C00B2A0873C2801DBA587D2
:10048000A673BDE8F081FFF73BFE334C01204FF42B
:10049000FA61A07432480068B0FBF1F14FF0E0203F
:1004A000491E4161072101612C4E306820F0006037
:1004B0003060306C40F080003064306C40F480700C
:1004C0003064FFF738FF274911200872306840F484
:1004D00000603060B06940F40060B06104F1680011
:1004E000002505702048401EFDD1A574607900B13B
:1004F0006571E07900B1E571A07900B1A571207A4C
:1005000000B12572607A00B16572A07A00B1A5725F
:10051000E07A00B1E572207B00B12573607B80B189
:100520006573306C40F480503064706D80F480509E
:1005300070650A2000F0C2F8014660650BA000F06B
:1005400049FAA07B0028D0D0A573CEE700C00040B8
:100550000040034000C0024000C0072000C0092046
:100560000C0000100040024080EE3600456E7465BD
:100570007220616E20496E746567657220626574D1
:100580007765656E203020616E642025693A0D0A1A
:100590000000000082498860C8684007FCD5886870
:1005A000C0B270477F48016821F440610160016872
:1005B00021F4404141F400410160016821F44031DF
:1005C00041F400310160016821F4402141F400212F
:1005D00001607548016841F4806140F8E41B0168DE
:1005E00041F4801101606E48016941F01001016120
:1005F0004FF0000101604160016841F0C0010160FD
:10060000016841F007010160416841F00201416069
:100610006648016841F02001016070476148016847
:1006200021F040410160416821F0030141604168CF
:1006300021F00C014160416821F0300141605848CF
:10064000416821F002014160704700B5FFF7AAFF41
:10065000564A106840F020001060D06940F0200039
:10066000D0610620FFF796FF106840F02000106070
:10067000906940F0200090615DF804EBCEE700B592
:10068000FFF790FF494A106840F020001060D069E1
:1006900040F02000D0610520FFF77CFFFF20FFF72E
:1006A00079FF0346106840F020001060906940F028
:1006B00020009061FFF7B2FF184600BD2DE9014010
:1006C000FFF7DDFFC007FBD1FFF76CFF374A10686B
:1006D00040F020001060D06940F02000D061106828
:1006E00040F020001060D06940F02000D06103206D
:1006F000FFF750FF9DF80100FFF74CFF9DF8000049
:10070000FFF748FFFF20FFF745FF0346106840F062
:1007100020001060906940F020009061106840F067
:1007200020001060906940F020009061FFF776FF94
:10073000184608BD13B50C46FFF7A1FFC007FBD153
:10074000FFF783FFFFF72EFF184A106840F02000E4
:100750001060D06940F02000D0610220FFF71AFF3E
:100760009DF80100FFF716FF9DF80000FFF712FF4C
:100770002046FFF70FFF0346106840F0200010608E
:10078000906940F020009061106840F020001060F7
:10079000906940F020009061FFF740FF18461CBDB3
:1007A0000000034000C00240C4C00F4000C0092048
:1007B000F0B54148DFF804E1C178491CC170DEF8AA
:1007C00008103F4EC1F34203012200214FF480651F
:1007D000032B21D0022B3ED0062B65D0012B1AD142
:1007E000384C238803F1010323809EF814309B06C4
:1007F0005FD50270C289002A0DD0521EC281828943
:1008000006F580639B5C8EF80030521C92B28281A8
:10081000AA4200D18181F0BD9EF8143013F09E0FE2
:1008200003D003619EF80000F0BDDB07FCD09EF80A
:10083000003084883355641CA3B242708380AB427D
:1008400000D1818003895B1C9BB20381AB42EBD159
:1008500001818270F0BD1C4C1C4F23885B1C2380DF
:100860001DE000BF9EF8003084883355641CA4B29C
:1008700042708480AC4200D181800489641CA4B29F
:100880000481AC4201D1018182707E2B00D139807C
:10089000DFF83CC03C880CF80430641C3C809EF8B7
:1008A0001430DB07DED1F0BD016941F480710161D4
:1008B000F0BD0170F0BD00001800001000C0004045
:1008C000B4D6072004000010020000100000001041
:1008D00050D4072023484FF08051016070472248D0
:1008E0004FF080510160704770B54FF0A04532E085
:1008F000C5F8E80F00072ED5D5F8184127E01B48AA
:1009000050F8340041001CD5C0F30A06F61E40F230
:10091000EA518E4215D81649084212D146F00040DD
:1009200000F01CF968B1114A011D203AF61C52F87A
:100930003420B30803D040CA5B1E40C1FBD100F095
:1009400093F9641C042C00D10024C5F81841D5F893
:100950001401A042D3D1D5F8E00FD5F8E41F084028
:10096000C6D170BD00E100E080E100E0D8DE0720E4
:100970000000901B70B58C1810F8015B15F0030295
:1009800001D110F8012B2B1106D110F8013B03E027
:1009900010F8016B01F8016B521EF9D1B3B110F8D8
:1009A000012B05F00C058A1A0C2D04D0A2EB851240
:1009B00003F1020308E010F8015BA2EB0522F7E760
:1009C00012F8015B01F8015B5B1EF9D5A142D3D39C
:1009D000002070BD0FB4054B10B503A9044A02985E
:1009E00000F010F810BC5DF814FB00001D030000BF
:1009F00008000010002001E001C1121F002AFBD1F5
:100A0000704700002DE9FF4F89B004469B46002542
:100A100099E0252833D10027641C4F4AB8460121AC
:100A20002378203B01FA03F0104202D00743641CF4
:100A3000F6E720782E2819D114F8010F47F00407A3
:100A40002A280ED06FF02F022078A0F1300109295A
:100A50000CD808EB880102EB410108448046641C75
:100A6000F2E70A98641C02C80A9088462078002899
:100A70006DD0642808D0692806D075281FD05A4642
:100A80000B9990476D1C5DE00A990A20814601C9C7
:100A90000A91002804DAC0F100004FF02D0102E0B5
:100AA000390504D52B218DF82010012104E0F90728
:100AB00001D02021F7E700218A4608AE0CE00A9910
:100AC0000A20814601C90A91F5E74946FFF7E5FB8F
:100AD00001F1300106F8011D0028F6D1ADEB06004A
:100AE00000F120008146780701D4012080460020D3
:100AF00041464A46C84500DD881A8046002706E080
:100B000008A85A46C05D0B9990476D1C7F1C57453D
:100B1000F6DB04E030205A460B9990476D1CB8F183
:100B20000001A8F101008046F4DC05E016F8010B95
:100B30005A460B9990476D1CB9F10001A9F10100CB
:100B40008146F3DC641C207800287FF462AF0DB08E
:100B50002846BDE8F08F0000092801002DE9F04784
:100B60000027DFF8909000280CDA2349D9F80020FC
:100B700020F000400968024401EB4101B2EB910F03
:100B800018D8012705460F3020F003060FB9FFF7EC
:100B9000A6FE1A4CD4E90002011B891AB1420CD2FC
:100BA000044600680028F5D127B9FFF793FE00201E
:100BB000FFF7A4FA0020BDE8F08772B11019216890
:100BC0000160206000F10808C0F80460D9F8001046
:100BD0003144C9F8001027B105E004F10808666047
:100BE000F4E7FFF777FEA8F800500020A8F802000D
:100BF0004046E0E734000010940C0000380000107C
:100C000070B500282AD0A0F10806154C0025FFF782
:100C100066FE09E0254624682068800703D0FFF7B8
:100C200059FE022010E064B1B442F3D10D4861686E
:100C30000B4B0268511A01609C4209D10020606090
:100C400008E0FFF747FE0120BDE87040FFF756BA05
:100C500020682860BDE87040FFF73CBE70BD000012
:100C60003800001034000010084A30B4D2E90034D3
:100C7000591C01F01F01A14205D0054C44F8230086
:100C8000116030BC704730BCFFF7BABF2C000010B9
:100C90003840001000400000D80C00000000001098
:100CA00038000000EC020000100D000000C007201A
:100CB0005014000074090000100D000038000010EE
:100CC00080480000F40900008C1F000050D4072069
:100CD000CC340000F4090000000000000000000017
:100CE0000000000000093D000000000000000000BE
:100CF00001000000000000000000000000000000F3
:100D000000000000000000000000000000000000E3
:100D100000046D00140001000DFF48656C6C6F202D
:100D2000576F726C640001051E2D201509070A1803
:100D30000F15110608080F0D060D060E10111111E2
:100D4000042024111106060C0E0D0F18131010109C
:100D5000131015111313131017121312101112136D
:100D60001712160F171B0C0027181712090E090E61
:100D700012080E0F0D0F0E0B0F1006090E0717109D
:100D80000F0F100B0D0A100F140D100E0B060B0B8E
:100D90007F1201831604B4161CB81624BC23EC037E
:100DA00094011C01022010B4100A11111211111328
:100DB000120611B411B81004141110BA000522174C
:100DC000121214AE2194218752189400FF00484E4D
:100DD000000078DAED9D5D8C63479580CBFFFF6D59
:100DE0007B008924A4ED24249112141B0D11128977
:100DF000E2D66AC5A25D16F7033C2014DC6857E210
:100E000001841D7818102C363C208432B147E289C9
:100E100004D99348EC039BB86723962060EC1E1816
:100E20001629516E87B04CE0616E07F19F81DB7629
:100E3000B7FBD7BE67CB3DB7CE394EAE35D333ED1A
:100E4000DBEE21359A9E6F6ED72DDFBA5575EA9C81
:100E500053A7CADE48281C888613B170301A967FC3
:100E6000A2E1607846FE8C849233C99948D0EB0F9A
:100E700046233351AFDF1F0CF902BE400893CF3732
:100E8000FC198BC8140E47A2BE5044DE68FD2F1C0F
:100E90000F8743FE805FFE0CC90243FE50D8E70B6C
:100EA000FBE3E150381C0CF9C3C15828184CF86317
:100EB000E1885B0811957FDF2EFFBE4DBC99F69D42
:100EC000EA00B060C74BC924E669B3FC00FF00ED3F
:100ED000917B7FCACB99C77BDFA2AD50FE42C78E04
:100EE000978E519ED16738EF54DD5D8F5E5C543C28
:100EF0000BD0505CDD48601E6D81F2EBFFD14F23BB
:100F00009B806FC26864D614C35C7403391BD9C458
:100F10003CF3B19EE2E6621EF3E701F0197CDA9F32
:100F20001D6BF7AA7CE7093B7E89DABDBACCF23BA0
:100F3000C8D3965A00695BAEB03C07C4934E1ED925
:100F4000D61D5BBEAD409CC82BF68240F6310E9894
:100F5000C4C10171748738B581EC2AAF250B56A73F
:100F60008FC23055DEC85BC3F136867F3CEF7CBB59
:100F7000C7017AB6DC99414E31CEAD121756889B27
:100F800035E40890ACDBAB7BC9E27599CD86F7DE22
:100F90005DE2FAABE287050FA4FD974574EB55C9F6
:100FA000B3BB7BBFC86C4BAE77AC4CC7E10EF574DE
:100FB000DA4FE05D7DEBEECC36D4BB4A50F6417B98
:100FC0005509EBDF417E5BF5937F83BB2114DCBBCE
:100FD000C7B1812C53BF3CA0AB6B92F3C316146E08
:100FE00068480EEF8D9F282424BBA03D85C33D6437
:100FF000CA169BDDB2E47CAD59AB5BB229B7D6FC17
:10100000A61AFD8141F3E94D1C2FBAA6047A6CBBE8
:10101000F92DF5DACAAF364F590DEC868566AD78F5
:10102000F91D46FBB2FCD8AE43E3FDEC251C3905A7
:10103000009A9BFEFB01536579212D4736A65BFA8A
:101040008865F82DE375CA7333E6BF4D562DABBAEC
:1010500040165918E7EE0536C76DB0E7999B56392B
:10106000FF6903D519977E91E47C52CEDE8ADD8F2D
:10107000D3EBF1C20E1BA594E7B32EBD84E3CEA043
:10108000723E6D3CEB9C5ED716D16DE222638338D5
:1010900008C429C6CD1F21FF041E447E619BCA845B
:1010A0000EE312B1C93EB737F20C7800FF00B4521C
:1010B000A44F5C606C109F3089AB7F22864F120F6B
:1010C00002C4EB8C1789279D7C724E59B3E5648E60
:1010D0005864F6C3FE0171B04F1CDD45761537909C
:1010E0002352A940EECF51FE694B724EDFB4E56E3C
:1010F000D496531DE2CC2A717505390235E4E86EA9
:1011000082F24C5D9F6F888C12E85A57349177DCDD
:1011100028E835B887B8D96A217F1172C89FDB8D5E
:1011200023976E632CE2EB0EDAB06B76BC447D5EE7
:10113000CA9FCC61F0D4B53BC0962D972207CE5301
:101140009662B26BD404E9DE15B289B87D74303C86
:10115000E114D91DAAA64A0D4993DEA557A435A6C8
:1011600054B69519D4BB523D34CB4468B7D960F618
:1011700020E963DA803EA1C044570E6F15EE16BA1F
:101180002B4493541BD1FCBD934D4975E1EC7A146B
:10119000CCEF5BFCD0D0B87AC9AAD6EFF2DD8FEFE6
:1011A000587AF85CAEE30765DAE63A9E00FF00CBBA
:1011B00075E0CCF308ED9778EFE5322DDBC7F50449
:1011C000983FB77D9E4927D65E57C19E67A0BF4016
:1011D0007A38EA78C669E3FD56A77141DAC85A7EC3
:1011E0002ED9858DACE58FD8BBAE5B37EB678C7F96
:1011F00052CD3D2C470D72B72C7FFE1A9FED1A740D
:10120000DA4391E1C379643D41F38BF21472DE1B42
:101210000363F8DBA543D1690F5EB6B3EA0E9924E8
:1012200081288EE183F05D08A324B4DA35B27ECE46
:10123000ADE4E45E7B290E83892C5C947F58B57DF8
:10124000F25425C8663A57E405629D5C80E241533A
:1012500067722C73153C711B56BEE7CB0E2947797C
:1012600029A99D4A5ABCE7A07C234F9F0D9BE90406
:10127000760F9887B5B5E11BBCDD3FC1DABAFF7ABE
:10128000462BD89E7F7DC3B43B2C335E61C37F0C5D
:10129000BBD207E0AB7C6DCECE57699CBB47AD4F50
:1012A000B97F9876015B0AD017981158B200FF00F9
:1012B00063575239E35CC785508357EA786E5444CC
:1012C000F45FBC0B35F7DC88AFF2B5A9F5559E4449
:1012D000AD6EA8C293C9753C804B79C2F375340BCF
:1012E0004400F86BA3EBFF183059399B76E5BF99A2
:1012F000269852CC291A6796739C995F64C5492336
:10130000B6471C650E9608733884BB4C228D99AD88
:1013100023FF33E6731DB4DEF5FB77F7C537542A98
:101320002FE7B0999A8B855514E8155C0A2F4AC9A6
:101330006BDAB00F92A884F84D170EE6A1A4EED98F
:10134000F0ECE64D7D2514E2BD08F6B8CC5A6C935E
:101350002CD878EFC0EB185EB5655FCB7C4AB07ACD
:10136000A999037EF0F2F7945909776340800B4EF8
:101370005070800EDB28931FE21AC9C74C1270818F
:1013800065A346DC5236CB0B1FB8A0E685A16B1CCB
:101390009D1DEFD307952B3DF341A5E134F91B5576
:1013A0007733EB572FBD5F68C4AC5ABA37A300FF41
:1013B00000CB8505E217D5BD83E253383A0B837B1A
:1013C0003A0F5FB0FE93483D69EAEAB554EFEC6529
:1013D000D4ECB7EB5F4B59550BAC13CF2C7B76EAB3
:1013E000D6DBFAD0BCF8B253639EE9086ECDC47662
:1013F0008C6CCCA2948A6FA45092454D03AFFBD85D
:10140000FC1590F3D487D530BA00EF540A98315FB9
:101410007D4DADC819D928FA8135A93F2C935E813D
:10142000B3A54FEF7FC470689AD3B3FBE3A39EDCF0
:10143000CCFF712BEB5FC557999ECF1C05CDDA64AD
:10144000997F167F06FE6CEEC583A9FBBDBCDDD976
:101450003314D8BCCC1747667A9365FE59FC19F44F
:1014600086FD331F9C2147F8B5C7E813A44D813D85
:101470003DCC420C5A606629FF03B6E5FC5DA462D0
:10148000C38EDD40B60967912C9F4E5CE1DEBFBB89
:10149000C4C7DD38BEC8ACBB53535C175AD11CE57A
:1014A000643221DE4CB24D17AFCC134F3E66A7001D
:1014B000FF008499C116670658813D508BCC711787
:1014C0005B37F4B390A22893E129A68A96B9239AB0
:1014D000FAB0DBA4CB016656C626BD16EDD32E08A6
:1014E000E6B7A9D0FC525E258F437C0DAB9B9E597D
:1014F000BF46E6E5C8F28BABEC73F1ADF8F40BCE6A
:10150000B57B81DADA4F2259E44CE2FC07898F4738
:1015100059DF98344F3879B557A88E6C254C3B4D20
:101520005AC67759DBC95ECCB48F26197501D2072C
:10153000449E1C1F2E83E6AF285B9AAE77B96CA43D
:10154000B85CCE934E7ED6C7CAACCFC329EAF32788
:101550001271F6A464E28B285B4388015B1D2C7634
:101560006D3438CF5F9936075FA13C55F6CE03FA4C
:101570002BCEF5F9106B8C14EB6FE51562A3C4C686
:1015800005CD5331A66F173AEF45E9A535AA6AFC98
:101590007A218D1C60AB0E9CE5DC573F4D25551D17
:1015A0005B8E93BA6BD79699ED36C24FFC9CDFBB2E
:1015B00000FF00486384DAF1D888864E1EBEEF66CD
:1015C00069EC4859D7B593757ECDC1768F6DF3C65A
:1015D0006395A4D7EF6131211136976506FF4BE380
:1015E000973DBF512B7750CE27E224F3135477A3B6
:1015F00052ECB0B156B31B8393366779C8C3088BDE
:10160000548F98E6A3E430C28E26789AA503A6FDEF
:10161000FBE411637C338C41AE292F7BB7A1BE73F1
:10162000CDCEE7F7329339C6E972176B98A53E6CB9
:10163000D4A8AFE6D9520C67E314E6F180886D10A8
:10164000B3FD53B5C21A93758BD4EEAF3858F75724
:10165000B86ED3203BA2D865FA498FDE03C96A630E
:1016600074CCB6B1CC1F31F9EF67FD618639FD8BC3
:101670004CE1D3A90FF8E0E8E9FCC58E3DBF774CFB
:101680005C0CBF3EEEDEA35EF771E9836DFB2E308E
:1016900096A927A14FD4F9E43DC31423ACE5DB0D93
:1016A000135B526751629C791E7EAF2C73E98835BB
:1016B000F518E778FF0C33D4198FCD7F54D277B863
:1016C0000DFE27924B0FC3364D54FF02D45BDF470C
:1016D000B1460FC34ED6EEDEEF1C560F1EB5655059
:1016E000C7689D41FD447C9ED99E230A908B969BA2
:1016F00044C4A4CA64985AF7A1311B5CEF5AB8F2EB
:10170000209F7472DD8EEDE53700FE4FD5F09CF022
:10171000A83589E1BF056BF68344F0F9F2B2E23AED
:10172000868740021E69294E42BAA8F81888BCDD97
:10173000F52C94547EADD1C472FE3571D3F385156A
:1017400087EACEC3D5E33CFE99295B2DB2EF5CD08E
:101750005A26BB8694B6C86E748B4CA2A04932DF61
:1017600083C66D8B82CE5D2CAA66681EA97D0A5148
:1017700069E0CC38B54F8AEFB51FDDFBFF565D55EC
:10178000B2DE1668D0D6DB6EAD4DF9CD346355C7E9
:10179000FAB93B3476EFD8BDFF9D00FF004BC4CEB5
:1017A000396E4E0E70DEB995D995D58DBBF13DE8F9
:1017B0000D81D1EECC9C153C027024AA66C1D6FCEA
:1017C0001D29A7BA711766BB95C7949D646BD0138A
:1017D0006FF7C193BCDDB1ED96EE440577B4DD291A
:1017E000C05D32C62D0C63A4BBF6D7731DBB7296C9
:1017F000DE66B4ED3E17064F3957F7EB3AEF62CB92
:1018000096AFE65E9E67CC33DCB075BF0A7660BCEF
:1018100057C8E546B11FD5CDBB50FEE88B0285BB4E
:101820001CBFC7D276E37DA18A0A0D67991F1D7C74
:1018300072BCA3053F1CEF151AEF834319EFD7B312
:10184000F761C27BEB1CA8FBD4F2E4D368CF9D28E0
:10185000331FD737315C5784594CA9FB99BE738726
:10186000780CF58D2DD25BD079546FC75041AFB74E
:10187000EBD80DEBE7A92E75839C2CDC575937ABC1
:10188000E8CFA9AFCDECD267F9B1F2F273F5367BB0
:10189000861E71CCBCD1FBFCEBE6B810AB391B9EAD
:1018A00078DDA5529DB35E7A5D5AD44DC503D94308
:1018B00015C35C90B81D4736D68A86E2E777F4B246
:1018C000E29F02282F6FBDAD6DC5910B1D62DF1C1D
:1018D000F130CEF28DEC40BBA3CB5DD69DD84C1041
:1018E000438DF11AF1C53EF179F814725BBB449C4B
:1018F00001E2206361302EECD83CCFE4E7F77E456F
:10190000D8E8D5437DBEC4F4F036CDD73847CB9167
:101910008F2B57529F2766D7797E5E0E2FFFF0F4EC
:1019200079F359DB71B7F4162E8B8A4C9F2FACDA02
:10193000E51919B3ACCCA9D6EB26D2EE556AF760FF
:101940009DDABD0E64C7E59300FF0093C4C9C1636F
:10195000CC75E19B9FAE7667EC261B7F5456AF5348
:101960003BE67BC4B13EB18FCEFA1B9DEF8A4E2D74
:10197000C07B5FBC84167691B6350B78F2AE33E847
:10198000534D33ED84DBE3E67FE26F1E62F5757D38
:10199000546353345FB5A6A25EF887070033B0786E
:1019A000837FD61DDB2B1404B29D398B64B19B243D
:1019B000FF15F31F3AC9134E5A8DFC0C93E28ECDDE
:1019C00078296CDD69A8B11F012027EF97064E85A5
:1019D0000E4677042E2A074C81FBE03C90A555412A
:1019E000A314667A29ED1CCA7768BB49BC470BCCA7
:1019F000E11D0DE5A78FC5E5BA800D8516F34816E4
:101A0000994F3BE358BBCBBA07B6ACB893A0393C6F
:101A100042EDF2DAB917D2714858CA19CCE761DE43
:101A2000F2326A35A9E958D5ACB6756DC58A51C888
:101A30007721D7B5DE5C7C6710DBB1DE5C14B68342
:101A4000CA3A0FC2BA07F05CBB00FF0055A146B905
:101A50004B4AFFA6EA1C5A49149D39B3521A172E55
:101A6000F4CBE952EF526D9D5F4FA11F26DAC729D3
:101A70006BB8918FECB226F769335FB74EE2CD0FAA
:101A8000B47E31B3CDD6DC3B784A9D0B2A3E354738
:101A900084E59D9A43C7754606C3A3F354B5E6C8CB
:101AA000AFAE2DD26279BE4B2BABB1AD91FE4C22C5
:101AB0005CE77DB87B1464DD708D608731562099BA
:101AC0002CB341682CB2998166BC0C6BEB2669245F
:101AD0005E1E7AC6BA46911C322EE30CAE51FAD87D
:101AE00033709E786AC2A23D4F789FC8581EF33C5F
:101AF00013483C5E97C7F1F2F85EA1336D83C703CC
:101B0000F32DD97C7F68801F55C8CF296201C4237B
:101B1000FB0578C0310F44F64FB40B78D990E52C13
:101B2000A5C0A1F0D8E79978CAB170008DC9EA01C3
:101B30006E6714A9F514B670B311188837D3A4537F
:101B4000E0844C8F586A1400DF8D00FF00E15C7A5E
:101B500010703BA30B2EA119E7334561990C166455
:101B600029AF30BF9819607E51E8521EAD81EC85D7
:101B70006C616A4FE3BEE7E2CF482D65F184011640
:101B80004FEE7A0FC56057019768860711AFD2BB39
:101B9000AAAEE2BB322946E533667DC5A9BA24B9AF
:101BA000182E5D053F4E67E78EC41EBF74DF26D931
:101BB00047B4BF5B2B85766CAF2FCFF2339DB00B54
:101BC0006BCF70DFFE74C5197A353A5A25CFF6020D
:101BD000EBA7EFC7EB4CFB71F3298E5D177AE37E21
:101BE000DB7278F90EA876ECE5F2FD11F61CFAEB43
:101BF00097D7D958A6BD30A7CA142F9DC5B9C03DE7
:101C000012474DD705940AEB6CEC20BF039E5E9FF4
:101C1000D6F1CEE3B20A268BBF9DCFD07EA2AF9F76
:101C2000E47174D8B7791FD02B812C6B771CE33EFD
:101C3000EDB543D9751DA0E3A2459EB6C28B32F91E
:101C40004EBDFA5FB264A2B140932A00FF00533F39
:101C50000F8AA72DDD025FFA05EBABF4FD1AA7EAA8
:101C6000D4EE59EC03B2CFA7ECAE0BA854D7ECCA14
:101C7000B9D92CB3A99BCE34F393EB57D44D9287AB
:101C8000F71AD7FEB5245725DB47E4FCC05ECE9F8C
:101C90007B88E47C29CCE5FC35F3C4FD75AC5E4F54
:101CA0008F7186BF277D1DEFEA3A781AEA7E47E2F8
:101CB00070EACE990ED1121F673BF18A7F38A0BA25
:101CC0005F1DCFB2FEA9D13EA92F9059A3E95D6651
:101CD00012D15E096D87EC23AD44FE10AD84CBEFCD
:101CE000C3732C4DA7341A7DFE9098BDCFFA80CBDC
:101CF000D2E995F3CF7CF1D2F1B3E751D6E16A8610
:101D0000B6749F799BE5B3DD9375D664B527BBACFC
:101D10004972BF3C8575B797F34BF71D3939BFDF63
:101D2000F4BA3DE3B41FF014C5DB437A643F60CFDF
:101D3000E6FA701F19E62FF23DE04EEE8B3CA876D6
:101D40005F9E1D67C76DDB5EE7761F2F00FF00E714
:101D5000BF06F3D33A27DE028FBE6C678330DBE425
:101D6000EA6C994AD1D626BAF96FD52BDA53A31C5F
:101D7000FD8A83ED9EA5F6C2F07939DE6F3F72BA17
:101D8000CD7ED34DC6AF698E3651CB90E3FA181A8B
:101D9000C5F0DC27C80E622163AEF7E3B603F1EFAE
:101DA00024CC7D6CEB803869FCEAD0EB586FD8B25C
:101DB0004FFF0B3675902DB18ECB3F96B9BD56A017
:101DC000EE2382C6F41E1C66CC877E45CCBF0F7105
:101DD0007FAC2D663659DF400EC10FA7F53B56A2EA
:101DE0005B1456E01F886A9BE41869DCCDAF92EE65
:101DF0009ABF406B2B3326ADB984D8163A0FF0C387
:101E00008CA6B6DD65DDAB0BE1CBD509F485BE68EC
:101E10004522B8C10D1D656D1B1F186C14ADB7525E
:101E20003FB9BEABBEF42E6F2CEA86D5BDE3B050F1
:101E300055EB5E6148E4D4E4E7EB8BD8943AAD7C93
:101E400030C7FC6CCB74CADA6C9F4C101F00FF00CB
:101E5000FF3A35831F8542EB3E995DF25C6A6DB4B3
:101E6000890290CE6D4C6FBB67589F2FD33A459A2D
:101E70006627ED11AA57F13C854CA676692847499B
:101E80009D117EF635813C90CBC5D6E3F829DC0662
:101E90005BAEFC5BC5B1BABBD9961A3770875D944F
:101EA0003D5C950E1FF4B2A8E859B65C4FB3DDDE79
:101EB0001C374F3E40E7CE9E7FAC41EB13F5B6F8A2
:101EC0000CFC5171B07F7BAB66716A4D1DE9536F9D
:101ED000E757D541C5F573E5557596417DB8FE6266
:101EE0001D335B5F62D7DBF98E885BF9DBB23FE7BE
:101EF000D72D9E8113C68AC554FDC716C583F04BE6
:101F000067EA9EE91C0D9E867476C1F7E2CF50FF0A
:101F10002C0FD4F0D44A30A756DBB4E740A89390F6
:101F2000A49D22D42E6AEDB390502742C9FC4FA93C
:101F30003015590E6A76671702C61FC5D14AAE77AB
:101F40001336E1B92794947AFC1B30A019DB0039D1
:101F500000939EA667F69CA5C34D72FC7B5E5E4E09
:101F6000E2413652FAB4EC98E7E1F77A18FB218D9A
:101F7000F963BB746FA1C7CA5941F64085AEEF3310
:0C1F8000FD3FE2481B9A0000000000003A
:04000005000000CD2A
:00000001FF
