:020000040000FA
:10000000206D0010E1000000E5000000E7000000A6
:10001000E9000000EB000000ED000000000000001F
:10002000000000000000000000000000EF000000E1
:10003000F100000000000000F30000009F2C000011
:10004000F70000004D02000073020000F7000000FE
:10005000F700000051380000F7000000613A00008E
:10006000F7000000F7000000F7000000F7000000B4
:10007000F7000000F7000000F7000000F7000000A4
:10008000F7000000F7000000F7000000F700000094
:10009000F7000000F70000003D060000F700000038
:1000A000F7000000F7000000F7000000F700000074
:1000B000413B0000F7000000F7000000F7000000DF
:1000C000F7000000F7000000F7000000DFF80CD098
:1000D00004F022F800480047CD2D0000206D0010EC
:1000E00005480047FEE7FEE7FEE7FEE7FEE7FEE71E
:1000F000FEE7FEE7FEE7FEE7CD000000FEE70000BA
:1001000030B54C482021C0F8A01100BFD0F8A01194
:100110004906FBD500F180000324C0F884404FF469
:100120000031C0F828114FF00001C0F82C114FF039
:100130000102C0F88C20404B436002604FF0AA02DD
:10014000C2604FF05503C360A0F18000D0F8885022
:100150006D01FBD540F8804FC260C360C0F88810C5
:10016000364A4264C0F848118268A0F180006FEA04
:10017000126292073249D0F80C2102F0030207D034
:1001800092B3012A44D0022A46D0032A4DD13BE043
:100190002AB1012A11D0022A27D0032A45D150F8CA
:1001A000882FC2F30E02521C53000268C2F30742AA
:1001B000521CB3FBF2F2234B0CE050F8882FC2F331
:1001C0000E02521C53000268C2F30742521CB3FBDA
:1001D000F2F21D4B5A43C36FA0F18800DBB203F16A
:1001E0000103B2FBF3F21FE00EE050F8882FC2F3D8
:1001F0000E02521C53000268C2F30742521CB3FBAA
:10020000F2F24FF4FA43E5E7D0F804210D4B07E092
:10021000D0F804210C4B03E0D0F804214FF4FA434A
:10022000D2B2521CB3FBF2F20A6043F23A0101600F
:1002300030BD000000C00F404F0003004AF10041F4
:1002400010C0072000093D00809698004FF0402123
:10025000012008600B490A680B48521C0A600168BB
:1002600021F0FF01091D0160016841F0807101600A
:10027000704706490120086002484168491C4160F6
:100280007047000014C00720004003400080004079
:10029000704770B504464FF6FF7000224AF2010520
:1002A0000DE0A35C58400823C6074FEA500000D079
:1002B00068405B1E1BB2002BF6D1521C12B28A4260
:1002C000EFDB70BD40EA01039B0703D009E008C9DA
:1002D000121F08C0042AFAD203E011F8013B00F80B
:1002E000013B521EF9D270470146002000E0401C3D
:1002F0000A5C002AFBD1704770470000FFFFFFFF38
:1003000000209E4A20211154401CC0B2C828FAD3B4
:1003100070470146994A0020401CC0B2135C8B42D2
:1003200001D0C828F8D3704710B50021944C0A2298
:10033000B0FBF2F302FB13006054491CC9B218462B
:100340000529F5D310BDF0B58E4B0121202719707A
:1003500005218B4A002601E01C7844B1541814F89A
:10036000015C25B9814202D904F8017C05E05418EA
:1003700014F8015D303525701E70491E11F0FF0123
:10038000EAD1F0BD70B50D4616461C46FFF7CCFF0E
:10039000601CC0B2FFF7D7FF05EB850006EB8000BD
:1003A000C1B2774A754B0020A04201D2155C5D5462
:1003B00006D3155C202D03D04CB15E1806F8015C05
:1003C000491E401CC0B2C9B20528EDD370BD5D54B2
:1003D000F6E730B5044608461546FFF79AFFFF28B2
:1003E00009D0664A2178002905D04319641C401CB5
:1003F000D154C0B2F6E730BD70B50D461446FFF7D4
:1004000093FF601CC0B2FFF79EFF2846FFF781FFF5
:100410005B4B5A4A002124B95D5C202D01D0155454
:100420000FE0A14201D25D5CF9E704D14FF02E0547
:1004300015545D5C02E05D5C202D02D0161806F8B4
:10044000015C401E491CC9B2C0B20529E3D370BD8E
:1004500017B501EB810002EB8000C2B29DF80030BD
:10046000494803F00F0100EB1313445C43498C54DB
:10047000521ED2B21C78531E8C54DAB29DF8013051
:1004800003F00F0400EB1313045D8C54521ED2B220
:100490001C78531E8C54DAB29DF8023003F00F041E
:1004A00000EB1313045D8C54521ED2B21C78531E01
:1004B0008C54DAB29DF8033003F00F04045D8C54C1
:1004C000521E00EB1310D2B2007888541EBD2F4B81
:1004D0001A88521E104400B218802D4A00EB80008A
:1004E00002442C4813680360127902714278114467
:1004F00041707047F0B5254E254DB6F9004004EB2C
:100500008407641C3480234C3D4426682E60267981
:100510002E71207061702271A370F0BDF0B5054698
:100520000E461746FFF7ECFE144C002015F8011B91
:10053000621C401C2170C0B214461428F6D300205F
:1005400016F8011B621C401C2170C0B2144614280E
:10055000F6D3002017F8011B621C401C2170C0B2AA
:1005600014461428F6D3002013F8011B621C401C0B
:100570002170C0B214461428F6D3F0BD7A000010E2
:1005800000C0072005C00720FC4A00002A00001018
:1005900090FD072070000010FF490A7D9206FCD5EF
:1005A0000A2805D10D200870087D8006FCD50A2098
:1005B0000870704700B50346C0B2FFF7EDFF18465C
:1005C00000BD10B5F54CE06E03F05EFC6FF0DD0190
:1005D000E06E03F073FD0021E06E03F06FFD41F269
:1005E000871204F2CE21E06E03F037FDEC49E06E95
:1005F00003F064FDEB49E06E03F060FDEA49E06E54
:1006000003F05CFD4FF02051E06E03F057FDE74929
:10061000E06E03F053FD4FF02451E06E03F04EFD09
:1006200000220121E06E03F0BDFB0021E06E03F02B
:1006300045FDE06EBDE8104003F047BBDC480168B3
:1006400021F0E061016070472DE9F0410024064689
:1006500042274FF04808D74D98E0305D0146C0383A
:1006600040286FD2DFE800F02025292B2F33373BBD
:100670003F8F43474B4F52565A5E62666A6F73779D
:100680007B7F8F8F8F83878B2227292D3135393DB3
:10069000418F45494D4F54585C6064686C71757961
:1006A0007D818F8F8F85898D412000E061202855C5
:1006B0006AE00120FBE70220F9E72F5564E0032000
:1006C000F5E70420F3E70520F1E70620EFE74520F2
:1006D000EDE76520EBE70720E9E70820E7E70920D9
:1006E000E5E70A20E3E70B20E1E70C20DFE74B20FA
:1006F000DDE76B20DBE70D20D9E70E20D7E74D20A3
:10070000D5E70F20D3E705F804803DE04F20CEE782
:100710006F20CCE71020CAE71120C8E75020C6E7B9
:100720007020C4E74320C2E76320C0E75420BEE73F
:100730001220BCE71320BAE77920B8E71420B6E707
:100740001520B4E71FE05820B1E77820AFE7162066
:10075000ADE71720ABE71820A9E71920A7E71A2073
:10076000A5E71B20A3E71C20A1E71D209FE71E2073
:100770009DE71F209BE77B2099E77D2097E77F205F
:1007800095E7602093E72955641CE4B23046FFF7F3
:10079000ABFDA0423FF761AF002028558548BDE87A
:1007A000F0812DE9F04F93B0834802F0C7FD7B4CF8
:1007B0000025E0852079401CC0B22071142807D3A1
:1007C0002571E078401CC0B2E070052800D3E570C8
:1007D00072487A4E7030012700784FF00A0B4FF0C4
:1007E00080690A280FD0DFF8D8814FF4166BF0B378
:1007F000DFF8D0A1BC2877D0DFF8A0B10F280BF12B
:10080000700B72D0C8E3DFF8948108F1700840469D
:1008100098F9011031B190F90420531A022B04DD2C
:10082000891C04E088F8045003E0914201DD88F857
:10083000041065A364A264A163A0FFF76FFEB4F87F
:1008400044000122232180B2FFF7D6FDB4F8460010
:100850000122242180B2FFF7CFFD06F12006307A75
:100860004FF000024FF02501FFF7C6FD00E0A8E3BE
:10087000307900225E21FFF7BFFD3078002226216B
:10088000FFF7BAFD307B00223C21FFF7B5FDB08BAE
:1008900000227B21FFF7B0FD307E5149002201EBA1
:1008A00080003E21FFF795FD3C4E207C7A3680B1DA
:1008B0003A20FFF72EFD4FF0200A06F800A03A205C
:1008C000FFF727FD06F800A03A20FFF722FD06F803
:1008D00000A098F9040098B198F9011081B18842FC
:1008E00004D186F83C700BE0FEE3FEE3401A0128D9
:1008F00002D0022803D003E086F8287000E03775A4
:10090000B4F8520000231322194680B2FFF73AFDD3
:100910000023092219462078FFF734FD98F90100D9
:10092000002380B201221946FFF72CFD22483038FF
:1009300002F004FD12220121FFF78AFD1E4834381F
:1009400002F0FCFC12220221FFF782FD00230922A3
:10095000012141F28710FFF715FD1748B83802F062
:10096000EDFC80B200230E220121FFF70BFD124E99
:10097000304602F0E3FC80B2002309220221FFF797
:1009800001FD0D48083802F0D9FC13220321FFF7BE
:100990005FFD144F384627E000C000400000001003
:1009A000010000059400000115181007153000081B
:1009B0000040034020F907202C2130000040024075
:1009C0001000000E0A0A0A042020202020202020E7
:1009D0002020202020202020202020200000000097
:1009E000604A00000090300002F0A8FC09220321B8
:1009F000FFF72EFD384602F0A1FCC0B2012808D155
:100A0000384602F09BFC000C4FF42571B0FBF1F06E
:100A10006084E08C08B1401EE084B046304602F0AD
:100A20008DFC022806D1E08C20B9A08C48B1A584A9
:100A3000A4F826B0384602F081FCC0B2052804D0E4
:100A400008E04FF6FF70A084F2E7384602F076FC2B
:100A500000142085E06E03F017FAFF49E06E03F002
:100A60002DFBFE49E06E03F029FBFD49E06E03F02B
:100A700025FBFC49E06E03F021FBFB49E06E03F02F
:100A80001DFBFA49E06E03F019FBF949E06E03F033
:100A900015FB4FF47F41E06E03F03FF94FF0FF1775
:100AA0003946E06E03F004F9F249E06E03F006FB0C
:100AB000628C4FF4877601A86423002100960EC053
:100AC0000A23B422C821E06E03F003F90123CDE923
:100AD00000630A23B422C821E06E03F075F9E549EA
:100AE000E06E491C03F0EAFA3946E06E03F0E0F8E4
:100AF000E1A3A28C00211C208DE80F004FF4C87ADE
:100B0000322364225146E06E03F0AFF84946E06EAE
:100B100003F0D4FA4FF4FE41E06E03F0FEF8D5493D
:100B2000E06E891C03F0CAFA4646404602F006FC15
:100B3000032803D1D249E06E03F0EFF8D1A30022DD
:100B4000192196208DE80F0040F2262BC82332226F
:100B50005946E06E03F0F2F86FF07F41E06E03F06B
:100B6000DCF80021E06E03F0A3F8C249E06E0A3120
:100B700003F0A4FA304602F0E1FB0B287ED06FF0C0
:100B80007B41E06E03F09AFAC0A34FF4C067CDE951
:100B90000073608CC821404201EB400002B21E236A
:100BA0006421E06E03F026F8B249E06E0B3103F0E9
:100BB00085FA304602F0C2FB0C287ED06FF07B41F4
:100BC000E06E03F07BFAB3A3CDE90073608CFA21E9
:100BD000404201EB400002B21E236421E06E03F0AC
:100BE00009F8A449E06E0C3103F068FA304602F0CF
:100BF000A5FB0D287ED06FF07B41E06E03F05EFA1E
:100C0000A6A3CDE90073608C4FF49678414208EBBF
:100C1000410002B21E236421E06E02F0EBFF954911
:100C2000E06E0D3103F04AFA304602F087FB0E28E1
:100C30007ED06FF07B41E06E03F040FA99A3CDE9DE
:100C40000073608CB94640424FF4AF7707EB400029
:100C500002B21E236421E06E02F0CCFF8549E06EF3
:100C60000E3103F02BFA304602F068FB0F287ED0DD
:100C70006FF07B41E06E03F021FA00E08DE18BA381
:100C8000CDE90093608C1E2341420AEB410002B281
:100C90006421E06E02F0AEFF7649E06E0F3103F0A2
:100CA0000DFA304602F04AFB10287ED06FF07B41EF
:100CB000E06E03F003FA7FA300E070E1CDE900935A
:100CC000608C4FF4E171404201EB400002B21E2300
:100CD0006421E06E02F08EFF6649E06E103103F091
:100CE000EDF9304602F02AFB11287ED06FF07B41EF
:100CF000E06E00E055E103F0E1F970A3CDE9009367
:100D0000608C4FF4FA71404201EB400002B2CA46D7
:100D10001E236421E06E02F06DFF5649E06E113132
:100D200003F0CCF9B146304602F008FB122800E08F
:100D300039E17ED06FF07B41E06E03F0BFF961A333
:100D4000CDE900A3608C564641420BEB410002B254
:100D50001E236421E06E02F04DFF4649E06E123121
:100D600003F0ACF9CA46484602F0E8FA00E01CE19C
:100D700013286FD06FF07B41E06E03F09FF953A30F
:100D8000CDE90063608CB14640424FF4167606EB25
:100D9000400002B21E236421E06E02F02BFF3549B1
:100DA000E06E133103F08AF900E000E1504602F0F2
:100DB000C5FA14284FD06FF07B41E06E03F07EF946
:100DC00044A3CDE90093608C40F28A21404201EBBC
:100DD000400002B21E236421E06E02F00BFF3F4987
:100DE000E06E03F06BF9204900E0E2E0C91DE06E1F
:100DF00003F064F94FF08041E06E03F05FF9384989
:100E0000E06E03F05BF94FF00451E06E03F056F929
:100E10006FF07F41E06E02F080FF6FF07B41E06E8B
:100E200003F04CF92FA3CDE900931E2396226421F1
:100E300000E0C0E0E06E02F0DDFE4FF47F41E06EC6
:100E400002F06BFF4FF0FF11E06E02F031FF084936
:100E5000E06E4BE0B1E0B2E0C800000207000026FF
:100E60000000FF04A000000D0200001FC012A04FF0
:100E700000FFFF0401000003796573FF6E6F00003F
:100E800000FFFF0050726573730000004974656DC8
:100E9000310000004974656D320000004974656DD1
:100EA000330000004974656D340000004974656DBD
:100EB000350000004974656D360000004974656DA9
:100EC000370000004974656D380000004974656D95
:100ED000390000004974656D31300000C80000041D
:100EE000A00A40464D61696E0000000003F0E6F87C
:100EF000412340F6030ACDE900A31F2314229621C3
:100F0000E06E02F094FEC023CDE900A31F2314225B
:100F10004146E06E02F08BFEFF49E06E03F0CEF832
:100F2000238D0022CDE9002332233A463146E06E7C
:100F300002F08CFF05230122CDE9002313463A4637
:100F40003146E06E02F040FFF449E06E03F0B6F87F
:100F5000F3A3CDE900931E2342464146E06E02F022
:100F600049FEF1A30022CDE900230123C22208217A
:100F7000E06E02F03FFEF5A30022CDE9002301233D
:100F8000E0220821E06E02F035FE0021E06E03F061
:100F900095F8E06E02F099FE9CE3EF49F1E5EE4929
:100FA0000EE6ED4929E6EC4945E6EB4962E6EA49F9
:100FB0007EE6E9499CE6E849BEE6E749DCE6E64923
:100FC000FBE63422E54902A8FFF77CF9E06E02F067
:100FD0005BFFE349E06E03F071F8E249E06E03F075
:100FE0006DF8E149E06E03F069F8E049E06E03F066
:100FF00065F84946E06E03F061F84FF4987190206F
:1010000061F3DF3040F08041E06E03F057F84FF4B9
:1010100020784FF47A60414660F3DF31474641F073
:101020008041E06E03F04AF86FF07B41E06E03F020
:1010300045F84FF0A00A4FF4A071504661F3DF303D
:1010400040F08041E06E03F039F84FF47A6060F3CD
:10105000DF3747F08041E06E03F030F84946E06E3C
:1010600003F02CF896F820300222CDE9002301236A
:101070001022D421E06E02F0DAFD607C48B1BCA3FE
:101080000222CDE9002301231022CD21E06E02F0DF
:10109000B1FD96F824300222CDE90023012310226D
:1010A000BA21E06E02F0C3FD607C48B1B0A3022219
:1010B000CDE9002301231022B321E06E02F09AFD56
:1010C00016F8283F0222CDE90023012310225746BB
:1010D0005146E06E02F0ABFDB38A0422CDE9002355
:1010E000012310226A2101E001E3FEE3E06E02F039
:1010F0009EFDA0A30222CDE900230123102262213C
:10110000E06E02F077FD307C02A951F82000FFF775
:101110009BFA0222CDE90020012310224221E06E39
:1011200002F068FD93A30222CDE9002301231022DF
:101130003A21E06E02F05EFD33790222CDE9002310
:10114000012310222721E06E02F071FD8649E06E36
:1011500002F0B4FF8549E06E02F0B0FF4946E06E50
:1011600002F0ACFF4FF48451902061F3DF3040F087
:101170008041E06E02F0A2FF43F2B016404666F3F3
:10118000DF3040F08041E06E02F098FF6FF07B416D
:10119000E06E02F093FF41F2900060F3DF3747F01A
:1011A0008041E06E02F08AFF4FF4207066F3DF307A
:1011B00040F08041E06E02F081FF4946E06E02F0AF
:1011C0007DFF6DA0FFF740FA4FF48062CDE900206B
:1011D0000123192240F21311E06E02F00BFD624967
:1011E000E06E02F06BFF6149E06E02F067FF4A4972
:1011F000E06E091F02F062FF4946E06E02F05EFFFA
:101200004FF48C614FF4A06061F3DF3040F0804117
:10121000E06E02F053FF4FF43F614FF4176061F34B
:10122000DF3040F08041E06E02F048FF5A49E06E46
:1012300002F044FF4FF48C614FF4A06061F3DF30A3
:1012400040F08041E06E02F039FF4FF43E675846AF
:1012500067F3DF3040F08041E06E02F02FFF4F492E
:10126000E06E02F02BFF4FF49A614FF4AE6061F331
:10127000DF3040F080414FF48C68E06E02F01EFFDA
:101280004FF437614FF40F6061F3DF3040F080417D
:10129000E06E02F013FF4049E06E02F00FFF4FF4E2
:1012A000A4614FF4B86061F3DF3040F08041E06E3C
:1012B00002F004FF4FF432614FF40A6061F3DF3053
:1012C00040F08041E06E02F0F9FEE08D012816D179
:1012D0006FF07B41E06E02F0F1FE4FF4A06068F326
:1012E000DF3040F08041E06E02F0E8FE4FF416601F
:1012F00067F3DF3040F08041E06E02F0DFFE284906
:10130000E06E02F0DBFE27A0FFF79EF94FF4C0620B
:10131000CDE90020012349E00500000300FF00049F
:101320004D616D6100000000414243200102030451
:1013300005060708090A0B0C0D0E0F1011121314E5
:1013400015161718191A1B1C1D1E1F004142432099
:101350007F607B7D0000000000FFFF04944A0000D6
:10136000C8C8C802070000260900001F1000000EB0
:101370003A0000002D000000D2E5F1F2EEE2E0FFBD
:1013800020F1F2F0EEEAE020F1EEEEE1F9E5EDE831
:10139000E520233100000000B4B4B40400DC0004F4
:1013A00064000004C2C2CEC4203100007322822136
:1013B000E06E02F01FFCFF49E06E02F07FFEFE4986
:1013C000E06E02F07BFEFD49E06E02F077FE4946DA
:1013D000E06E02F073FE4FF4486068F3DF3040F0D7
:1013E00080414646E06E02F069FE4FF43F6B41F2E9
:1013F000F0016BF3DF3141F08041E06E02F05EFE00
:10140000EF49E06E02F05AFE4FF48C614FF44860F1
:1014100061F3DF3040F08041E06E02F04FFE4FF4A8
:101420008758404667F3DF3040F08041E06E02F0BD
:1014300045FEE449E06E02F041FE4FF49A614FF43C
:101440004F6061F3DF3040F08041E06E02F036FE25
:101450004FF4376141F2700061F3DF3040F08041BA
:10146000BA46E06E02F02AFED549E06E02F026FE92
:101470004FF4A4614FF4546061F3DF3040F08041D9
:10148000E06E02F01BFE4FF432604FF4815160F3C6
:10149000DF3141F08041E06E02F010FEE08D022865
:1014A00015D16FF07B41E06E02F008FE4FF448600A
:1014B00066F3DF3040F08041E06E02F0FFFD404611
:1014C0006AF3DF3040F08041E06E02F0F7FDBE4984
:1014D000E06E02F0F3FDBDA0FFF7B6F84FF4C06276
:1014E000CDE900200123EB228221E06E02F082FB95
:1014F000B049E06E02F0E2FDAF49E06E02F0DEFDC1
:10150000AE49E06E491C02F0D9FD4946E06E02F09A
:10151000D5FD4FF4A0684FF4AA57404667F3DF307B
:1015200040F08041E06E02F0C9FD41F6D0414FF439
:10153000176061F3DF3040F08041E06E02F0BEFDE5
:10154000A449E06E02F0BAFD404667F3DF3040F098
:101550008041E06E02F0B2FD4FF4E6514FF41660A8
:1015600061F3DF3040F08041E06E02F0A7FD4FF400
:10157000F5514FF4206061F3DF3040F08041E06EC0
:1015800002F09CFD8B49E06E02F098FD8A49E06E06
:1015900002F094FD8949E06EC91C02F08FFD4FF006
:1015A0008061E06E02F08AFD4FF4B457384666F36E
:1015B000DF3040F08041E06E02F080FD41F6F02126
:1015C0006BF3DF3141F08041E06E02F077FD7C4942
:1015D000E06E02F073FD4FF48C61384661F3DF304A
:1015E00040F08041E06E02F069FD4FF4D75840466C
:1015F0006AF3DF3040F080415746E06E02F05EFD56
:10160000E08D052814D17449E06E02F057FD4FF4C7
:10161000B45066F3DF3040F08041E06E02F04EFDE2
:10162000404667F3DF3040F08041E06E02F046FD57
:101630006549E06E02F042FD68A0FFF705F84FF43F
:10164000C062CDE9002040F28B1282210123E06EBE
:1016500002F0D0FA63A0FEF7F7FF0022CDE90020E8
:1016600001234FF496721421E06E02F0C3FAB4F92C
:101670002C000A3802281ED86949E06E02F01EFDCF
:101680006849E06E02F01AFD4A49E06EC91F02F097
:1016900015FD4FF08041E06E02F010FD4FF0B241B9
:1016A000E06E02F00BFD6049E06E02F007FD5F495D
:1016B000E06E02F003FD0021E06E02F0FFFCE06E40
:1016C00002F003FBB4F92E00012804D0022802D056
:1016D000052805D04FE300231A461946BC2003E035
:1016E00000231A4619460F20FEF704FF43E3E06E7D
:1016F00002F0CAFB4E49E06E02F0E0FC4D49E06E9C
:1017000002F0DCFC5146E06E02F0D8FC4AA0FEF785
:101710009BFF4FF4C062CDE9002001233222C82193
:10172000E06E02F067FA46A0FEF78EFF4FF4C0624B
:10173000CDE90020012332224FF4AF71E06E02F0B8
:1017400059FA1C49E06E02F0B9FC4146E06E02F025
:10175000B5FC4946E06E02F0B1FC4FF4156A4FF457
:10176000C6606AF3DF3040F08041E06E02F0A6FC14
:101770004FF402684FF47A66404666F3DF3040F07B
:101780008041E06E02F09AFC6FF07B41E06E02F067
:1017900095FC4FF4C8616BF3DF3141F08041E06E9E
:1017A00002F08CFC404666F3DF3040F08041E06E92
:1017B0004AE000000900001F1000000E02000003B4
:1017C000B4B4B40400DC000464000004C2C2CEC49B
:1017D0002032000096969604FFFF0004CCC5CDDEB3
:1017E00000000000C0E0C1E1C2E2C3E3C4E4C5E51B
:1017F000C6E6C7E7C8E8CAEACBEBCCECCDEDCEEE47
:10180000CFEFD0F0D1F1D2F2D3F3D4F4D5F5D6F6B0
:10181000D7F7D8F8D9F9DDFDDEFEDFFF00000000C4
:101820000000FF04A000000D001E0059001E004033
:10183000C8C8C80207000026C2C2CEC431000000DA
:10184000C2C2CEC43200000002F038FC4946E06E4D
:1018500002F034FC41F2B0204FF4C66160F3DF3196
:1018600041F08041E06E02F029FC4FF4C857404639
:1018700067F3DF3040F08041E06E02F01FFC6FF054
:101880007B41E06E02F01AFC4FF49650B91060F301
:10189000DF3141F08041E06E02F010FC404667F31A
:1018A000DF3040F08041E06E02F008FC4946E06E17
:1018B00002F004FC4FF40B616AF3DF3141F0804128
:1018C000E06E02F0FBFB4FF42A68404666F3DF301F
:1018D00040F08041E06E02F0F1FB6FF07B41E06E82
:1018E00002F0ECFB4FF40C6100E045E26BF3DF31FA
:1018F00041F08041E06E02F0E1FB404666F3DF30EC
:1019000040F08041E06E02F0D9FB4946E06E02F003
:10191000D5FB41F2B0204FF40B6160F3DF3141F0B1
:101920008041E06E02F0CAFB404667F3DF3040F0D2
:101930008041E06E02F0C2FB6FF07B41E06E02F08E
:10194000BDFB4FF496504FF40C6160F3DF3141F072
:101950008041E06E02F0B2FB404667F3DF3040F0BA
:101960008041E06E02F0AAFB4946E06E02F0A6FB61
:101970004FF433616AF3DF3141F08041E06E02F0F1
:101980009DFB4FF4526066F3DF3040F08041E06E23
:1019900002F094FB6FF07B41E06E02F08FFB4FF49E
:1019A00034616BF3DF3141F08041E06E02F086FB81
:1019B0004FF4526066F3DF3040F08041E06E02F099
:1019C0007DFB4946E06E02F079FB41F2B0204FF416
:1019D000336160F3DF3141F08041E06E02F06EFB75
:1019E0004FF4526067F3DF3040F08041E06E02F068
:1019F00065FB6FF07B41E06E02F060FB4FF49657A1
:101A00004FF4346067F3DF3040F08041E06E02F065
:101A100055FB4FF4C8584FF4526168F3DF3141F081
:101A20008041E06E02F04AFB4946E06E02F046FB60
:101A300050464FF45B6160F3DF3141F08041E06E6E
:101A400002F03CFB304666F3DF3040F08041E06E50
:101A500002F034FB6FF07B41E06E02F02FFB4FF49D
:101A60005C616BF3DF3141F08041E06E02F026FBF8
:101A7000304666F3DF3040F08041E06E02F01EFB3E
:101A80004946E06E02F01AFB41F2B02A4FF45B6166
:101A90006AF3DF3141F08041E06E02F00FFB314626
:101AA00068F3DF3141F08041E06E02F007FB6FF038
:101AB0007B41E06E02F002FB4FF45C6067F3DF30C5
:101AC00040F08041E06E02F0F9FA314668F3DF3110
:101AD00041F08041E06E02F0F1FA4946E06E02F01A
:101AE000EDFA4FF4156041F2300160F3DF3141F05F
:101AF0008041E06E02F0E2FA4FF4915066F3DF307D
:101B000040F08041E06E02F0D9FA6FF07B41E06E68
:101B100002F0D4FA4FF482516BF3DF3141F080418F
:101B2000E06E02F0CBFA4FF4915066F3DF3040F0F4
:101B30008041E06E02F0C2FA4946E06E02F0BEFA61
:101B400041F230016AF3DF3141F08041E06E02F092
:101B5000B5FA4FF4915068F3DF3040F08041E06E09
:101B600002F0ACFA6FF07B41E06E02F0A7FA4FF49E
:101B7000825067F3DF3040F08041E06E02F09EFA61
:101B80004FF4915068F3DF3040F08041E06E02F096
:101B900095FA4946E06E02F091FA4FF4156150460D
:101BA00061F3DF3040F08041E06E02F087FA4FF4DD
:101BB000A55066F3DF3040F08041E06E02F07EFA1F
:101BC0006FF07B41E06E02F079FA39466BF3DF315A
:101BD00041F08041E06E02F071FA4FF4A55066F3D7
:101BE000DF3040F08041E06E02F068FA4946E06E76
:101BF00002F064FA51466AF3DF3141F08041E06E51
:101C000002F05CFA4FF4A55068F3DF3040F08041F9
:101C1000E06E02F053FA6FF07B41E06E02F04EFA94
:101C2000384667F3DF3040F08041E06E02F046FA5C
:101C300047464FF4A55067F3DF3040F08041E06E37
:101C400002F03CFA4FF08061E06E02F037FA41F2A8
:101C500030594FF41561484661F3DF3040F0804160
:101C6000E06E02F02BFA30464FF4B956314660F37D
:101C7000DF3141F08041E06E02F020FA6FF07B4AE4
:101C80005146E06E02F01AFA4FF4AA5840466BF340
:101C9000DF3040F08041E06E02F010FA4FF47A60DD
:101CA000314660F3DF3141F08041E06E02F006FA28
:101CB0004FF08061E06E02F001FA41F2B021484637
:101CC00061F3DF3040F08041E06E02F0F7F930461A
:101CD00067F3DF3040F08041E06E02F0EFF95146EB
:101CE000E06E02F0EBF94FF49651404661F3DF30BD
:101CF00040F08041E06E02F0E1F967F3DF3646F034
:101D00008041E06E02F0DAF9FF49E06E02F0D6F9A8
:101D10004FF08061E06E02F0D1F9FC49E06E01F015
:101D2000FCFFF949E06E891C02F0C8F9F84801F09F
:101D300005FB032803D1F749E06E01F0EEFFF6A0A2
:101D4000FEF782FC03460022012132208DE80F00BD
:101D5000C200642340F28A21E06E01F0EFFF00210F
:101D6000E06E02F0ABF9E06E01F0AFFFE08D03280A
:101D700001D1EB480570FEE33422EA4904A8FEF7DE
:101D8000A1FAE06E02F080F8E749E06E02F096F901
:101D9000E649E06E02F092F95146E06E02F08EF9EB
:101DA000E3A0FEF751FC4FF4C062CDE900204FF4F0
:101DB000967A012332225146E06E01F01BFF322059
:101DC0001190D149E06E02F079F99BF801000128E9
:101DD00043D0DA49E06E02F071F9D949E06E02F0C1
:101DE0006DF9D849E06E02F069F9608C4FF420710A
:101DF00064300001F03861F3DF3040F08041E06E84
:101E000002F05CF9618C4FF4C3506431090101F5B3
:101E10000C7160F3DF3141F08041E06E02F04EF969
:101E20009BF8010001281AD04946E06E02F046F9FD
:101E3000C5A0FEF709FC0022CDE90020608C01233B
:101E4000643002B21199E06E01F0D4FE9BF80100FB
:101E50004FF4DC78012805D024E14946BAE76FF059
:101E60007B41E2E7B649E06E02F028F9B549E06E41
:101E700002F024F9B849E06E02F020F9B749E06EAB
:101E800002F01CF9B649E06E02F018F9B549E06EAF
:101E900002F014F9B449E06E02F010F9B349E06EB3
:101EA00002F00CF99849E06E643102F007F99BF8F2
:101EB000020001287ED06FF07B41E06E02F0FEF858
:101EC000AB49E06E02F0FAF8AA49E06E02F0F6F8CB
:101ED0008D49E06E653102F0F1F89BF802000228AE
:101EE00069D06FF07B41E06E02F0E8F8A249E06E45
:101EF00002F0E4F8A149E06E02F0E0F88249E06EF9
:101F0000663102F0DBF89BF8020003287ED06FF008
:101F10007B41E06E02F0D2F89949E06E02F0CEF813
:101F20009849E06E02F0CAF87749E06E673102F036
:101F3000C5F89BF80200042869D06FF07B41E06E81
:101F400002F0BCF89049E06E02F0B8F88F49E06EFC
:101F500002F0B4F86C49E06E683102F0AFF89BF81B
:101F6000020005287ED06FF07B41E06E02F0A6F8FB
:101F70008749E06E02F0A2F88649E06E02F09EF812
:101F80006149E06E693102F099F89BF80200062879
:101F900069D06FF07B41E06E02F090F87E49E06E10
:101FA00002F08CF87D49E06E02F088F89BF80200A0
:101FB000012801E060E161E17ED04946E06E02F077
:101FC0007DF896F828300222CDE9002301236E2205
:101FD00040F2AF11E06E01F02AFE00BF9BF8020054
:101FE00002286AD04946E06E02F068F896F824307C
:101FF0000222CDE9002301236E2240F2E111E06EBE
:1020000001F015FE9BF80200032801E038E139E1F8
:1020100076D04946E06E02F051F896F82030022260
:10202000CDE9002301236E2240F21321E06E01F07E
:10203000FEFD00BF9BF80200042862D04946E06E16
:1020400002F03CF896F82C300222CDE9002301235F
:102050006E2240F26321E06E01F0E9FD9BF8020080
:10206000052801E010E111E14CD04946E06E02F094
:1020700025F896F8381004A850F82100FEF7E4FA85
:102080000022CDE9002001236E2240F29121E06E72
:1020900001F0B0FD9BF80200062834D04946E06EFE
:1020A00002F00CF81849E06E491C02F007F89BF8A2
:1020B0000100022874D001E0EAE03EE11F49E06E31
:1020C00001F0FCFF1E49E06E01F0F8FF1D49E06ED3
:1020D00001F0F4FF618C4FF420706431090101F5C7
:1020E0000C7160F3DF3141F08041E06E01F0E6FFFA
:1020F000608C4FF4C3516430000100F5AA6050E0D9
:102100006EE1BFE110E289E3010000036464640052
:102110002C21300000FFFF00C2EEE7E2F0E0F20009
:1021200070000010C84A0000C8C8C8020700002696
:10213000D3D1D2C0CDCEC2CAC8000000C8C8C8041E
:102140000900001F1000000EC2F0E5ECFF20E8209F
:10215000E4E0F2E0000000000099FF040005804C7C
:1021600000196058DCDCDC045005A84CB018385865
:102170004006204DC008604E4006B04EC008F04FEB
:1021800040064050C00880514006C052C00800546C
:1021900040065054C008B85540060856C008C057FD
:1021A00095E361F3DF3040F08041E06E01F086FF9F
:1021B0009BF80100022878D04946E06E01F07EFFCE
:1021C000FFA0FEF741FA0022CDE90020608C012338
:1021D000963002B21199E06E01F00CFDFC49E06E00
:1021E00001F06CFF9BF8010003287ED04946E06EA9
:1021F00001F064FFF7A0FEF727FA0022CDE90020E6
:10220000608C0123C83002B21199E06E01F0F2FC3B
:10221000A06DF0B1EE49E06E7A3101F04FFF4FF45E
:102220007F01E06E01F079FD6FF07B41E06E01F01F
:1022300045FFECA0FEF708FA03464FF4C062012107
:10224000AA208DE80F005346C8224146E06E01F0F7
:1022500075FD4946E06E01F031FFE949E06E01F09D
:102260005CFDDB49E06E613101F028FFE54801F0DB
:1022700065F8032871D036E3E3491EE6E24932E609
:10228000E14946E6E0495AE6DF496EE6DE4982E684
:102290006FF07B41E06E01F011FFB4F9320028B11C
:1022A000B4F93030012804D00BE013E396F828305D
:1022B00007E00122CDE9002313466E224FF4DA71C4
:1022C00006E00222CDE9002301236E2240F2AF1185
:1022D000E06E01F0ACFCCDA30022012128208DE8A6
:1022E0000F005346C822414600E0F6E2E06E01F0DE
:1022F00089FDC8A30022012128208DE80F00534644
:1023000040F209124146E06E01F07CFDB049E06EFA
:102310006B3101F0D3FEC1A0FEF796F903464FF4EE
:10232000C062012128208DE80F0053464FF4A572AA
:102330004146E06E01F002FD50E66FF07B41E06E39
:1023400001F0BCFEB4F9320020B1B4F930300128FC
:1023500004D00BE096F8243008E0C0E20122CDE979
:10236000002313466E224FF4F37106E00222CDE9FA
:10237000002301236E2240F2E111E06E01F057FCD0
:10238000A2A30022012128208DE80F005346C82275
:102390004146E06E01F036FD9EA300220121282077
:1023A0008DE80F00534640F209124146E06E01F0FD
:1023B00029FD8749E06E6B3101F080FE97A0FEF7A2
:1023C00043F903464FF4C062012128208DE80F0035
:1023D00053464FF4A5724146E06E01F0AFFC11E6A2
:1023E0006FF07B41E06E01F069FEB4F9320020B17C
:1023F000B4F93030012803D00AE096F8203007E025
:102400000122CDE9002313466E224FF4067106E047
:102410000222CDE9002301236E2240F21321E06E57
:1024200001F005FC79A30022012128208DE80F008E
:102430005346C8224146E06E01F0E4FC75A3002239
:10244000012128208DE80F00534640F20912414631
:10245000E06E01F0D7FC5E49E06E6B3101F02EFEBC
:102460006EA0FEF7F1F803464FF4C0620121282068
:102470008DE80F0053464FF4A5724146E06E01F01F
:102480005DFCD7E56FF07B41E06E01F017FEB4F91B
:10249000320020B1B4F93030012803D00AE096F8B8
:1024A0002C3007E00122CDE9002313466E224FF4C1
:1024B0001A7106E00222CDE9002301236E2240F2C8
:1024C0006321E06E01F0B3FB50A30022012128201C
:1024D0008DE80F005346C8224146E06E01F092FCA1
:1024E0004CA30022012128208DE80F00534640F222
:1024F00009124146E06E01F085FC3549E06E6B3112
:1025000001F0DCFD45A0FEF79FF803464FF4C062E2
:10251000012128208DE80F0053464FF4A572414653
:10252000E06E01F00BFC99E56FF07B41E06E01F08D
:10253000C5FDB4F9320010B1012804D014E096F8BA
:10254000381004A802E0B4F9301004A850F82100B3
:10255000FEF77AF80022CDE9002001236E2240F236
:102560009121E06E01F046FB1949E06E6C3101F0FB
:10257000A5FD2CA000E089E2FEF766F803464FF4C3
:10258000C062012128208DE80F003223C822414675
:10259000E06E01F0D3FB0E49E06E6D3101F08EFD6F
:1025A00021A0FEF751F803464FF4C0620121282014
:1025B0008DE80F003223C8224FF4F571E06E35E04C
:1025C000C2F0E5ECFF20E820E4E0F2E0310000009A
:1025D00003000003C2F0E5ECFF20E820E4E0F2E0B5
:1025E00032000000CDE5EAEEF0F0E5EAF2EDEEE5CE
:1025F00020E7EDE0F7E5EDE8E5212121000000000E
:10260000646464002C213000646464043132333427
:10261000350000003637383930000000C2E2EEE401
:1026200000000000FFEDE200F4E5E20001F086FBAF
:10263000FF49E06E01F042FDFEA0FEF705F80346FB
:102640004FF4C062012128208DE80F003223C822F8
:102650004FF40771E06E01F071FBF549E06E491C23
:1026600001F02CFDF4A0FDF7EFFF03464FF4C0622C
:10267000012128208DE80F003223C82240F24E218C
:10268000E06E01F05BFBEA49E06E891C01F016FD8B
:10269000EAA0FDF7D9FF03464FF4C06201212820CC
:1026A0008DE80F0001013223C822E06E01F046FBE5
:1026B000DF49E06EC91C01F001FDE1A0FDF7C4FF98
:1026C00003464FF4C062012128208DE80F00322319
:1026D000C82240F2B221E06E01F030FBD449E06E36
:1026E000091D01F0EBFCD7A0FDF7AEFF03464FF448
:1026F000C062012128208DE80F00322340F2091228
:102700004146E06E01F01AFBC949E06E491D01F037
:10271000D5FCCDA0FDF798FF03464FF4C062012120
:1027200028208DE80F00322340F209124FF4F57192
:10273000E06E01F003FBBE49E06E891D01F0BEFCB6
:10274000C2A0FDF781FF03464FF4C062012128209B
:102750008DE80F00322340F209124FF40771E06E4A
:1027600001F0ECFAB249E06EC91D01F0A7FCB8A077
:10277000FDF76AFF03464FF4C062012128208DE86F
:102780000F00322340F2091240F24E21E06E01F0B8
:10279000D5FAA749E06E083101F090FCADA0FDF735
:1027A00053FF03464FF4C062012128208DE80F003B
:1027B0000101322340F20912E06E01F0BFFA9C4998
:1027C000E06E093101F07AFCA3A0FDF73DFF03465E
:1027D0004FF4C062012128208DE80F00322340F21F
:1027E000091240F2B221E06E01F0A8FA9049E06EC1
:1027F000C91E01F063FCAFF2DC10FDF725FF0346B4
:102800004FF4C062012128208DE80F0053464FF499
:10281000A5724146E06E01F091FA3BE46FF07B4116
:10282000E06E01F04BFCB4F9320040F2C221E8B393
:10283000012848D0022846D0032844D0B4F93030CB
:102840005FF00202CDE9002301236E22E06E01F069
:10285000EEF9AFF248230022012128208DE80F0075
:102860005346C8224146E06E01F0CCFAAFF25C2339
:102870000022012128208DE80F00534640F2091262
:102880004146E06E01F0BEFA6949E06EC91E01F0F2
:1028900015FCAFF27820FDF7D7FE034601214FF477
:1028A000C06228208DE80F00534600E007E04FF497
:1028B000A5724146E06E01F041FAFFF7F3BBB38F1A
:1028C00003F5FA63BCE7B4F930300122BAE74946B0
:1028D000FFF7F5BB6FF07B416FE4604987E4604927
:1028E000E06E01F01AFAAFF2D070FDF7ADFE0346CC
:1028F0004FF4C062012132208DE80F004FF4C878F8
:102900004FF4BE7340F29F124146E06E01F016FA9A
:102910004946E06E01F0D2FB96F828300222CDE95C
:10292000002301230A224146E06E01F080F9B4F948
:1029300030300322CDE9002301230A224FF4D7715E
:10294000E06E01F074F9B4F932300222CDE90023CF
:1029500001230A224FF4EB71E06E01F068F9A36DD8
:102960000222CDE9002301230A224FF4FA71E06E1E
:1029700001F05DF99BF901300222CDE90023D84630
:1029800001230A2240F22621E06E01F050F998F965
:1029900002300222CDE9002301230A224FF41671EE
:1029A000E06E01F044F90021E06E01F087FBE06E7B
:1029B00001F08BF9E08D642803D100210846FDF772
:1029C00086FDB4F92E00012801D188F80170022299
:1029D000022801D188F801204FF0030C032801D10F
:1029E00088F801C07D2800D1A56598F801304146DE
:1029F000012B4BD1652803D18F7025866586A5658F
:102A0000662803D18A7025866586A565672804D166
:102A100081F802C025866586A565682804D1042250
:102A20008A7025866586A56569281FD1052219E06B
:102A300071000003ECE0F000E0EFF000ECE0E800F3
:102A4000E8FEED00E8FEEB00E0E2E300F1E5ED007A
:102A5000EEEAF200EDEEFF00E4E5EA0000FFFF041D
:102A600000FFFF008A7025866586A5656A280ED05E
:102A700091F90220012A2BD0022A4AD0032A69D0D8
:102A8000042A7ED0052A7DD0062A05D0C7E006227A
:102A90008A7025866586A565A0F13002092A14D8BA
:102AA000238E00F00F0203EB830302EB430212B20A
:102AB00042F2107392FBF3FC03FB1C222286B4F952
:102AC0003220042A01DA521C62866E287ED0A6E0EB
:102AD000A0F13002092A13D8238E00F00F0203EB75
:102AE000830302EB430212B2642392FBF3FC03FB69
:102AF0001C222286B4F93220022A01DA521C628694
:102B00006E286FD1B4F9300017286CD886F82800E9
:102B10007FE0A0F13002092A13D8238E00F00F02C3
:102B200003EB830302EB430212B2642392FBF3FC38
:102B300003FB1C222286B4F93220022A01DA521C3D
:102B400062866E286BD1B4F930003B2864D886F8D1
:102B500024005EE0A0F13002092A16D8238E00F08E
:102B60000F0203EB830302EB430212B2642392FBD6
:102B7000F3FC03FB1C222286B4F93220022A04DA79
:102B800001E00BE030E0521C62866E2847D1B4F9B8
:102B900030003B2840D886F820003AE0A0F130020F
:102BA000092A15D8238E00F00F0203EB830302EBF2
:102BB000430212B2642392FBF3FC03FB1C22228625
:102BC000B4F93220022A03DA521C00E047E06286A0
:102BD0006E2824D1B4F93000421E1E2A1CD886F873
:102BE0002C0016E017E017E0A0F16F020B2A07D8BF
:102BF000521C2286B4F93220012A01DA521C628664
:102C00006E280CD1B4F93000421E0B2A04D886F885
:102C1000380088F8025002E0A76525866586B4F979
:102C20002C000A38022816D8E06E01F02DF9FF4971
:102C3000E06E01F043FAFE49E06E01F03FFAFD4913
:102C4000E06E01F03BFAFC49E06E01F037FA00213A
:102C5000E06E01F033FAE58513B0BDE8F08FB4F90A
:102C60003000A0F5FA606328D6D8B087D1E7F348E2
:102C70000268832142F050020260F14801730C2186
:102C8000017000210171027AF22142F00702027202
:102C900080F82810017B21F08001017370472DE935
:102CA000F041E84C0126E848E671A17C39B1016A9F
:102CB00041F080610162416B81F080614163E18F8D
:102CC000491C09B2E18702297EDB0025E587A67150
:102CD0004069C0F3C060E074217D884204D0B4F83C
:102CE0004A10491CA4F84A102075B4F84000401C52
:102CF00000B2A4F84000142802DBA4F84050667229
:102D0000A08E401C00B2A0860A285DDBA586267234
:102D1000B4F84C00401C00B2A4F84C00B0F5FA7FA7
:102D200007DB04F14804A580608820806580A4F159
:102D3000480442F21077E08E401C00B2E0860A2878
:102D400009DBE586A672FDF7A3FAB4F91E00B842C6
:102D500001DA401CE083208F401C00B22087142839
:102D600006DB2587E672E07B08B1E57300E0E673D9
:102D7000608F401C00B26087322806DB65872673AF
:102D8000207C08B1257400E02674A08F401C00B29E
:102D9000A087642818DBA5876673B4F92000B842C1
:102DA00001DA401C2084607C10B1657401E00BE006
:102DB0006674B4F84200401C00B2A4F842003C28FB
:102DC00002DBA4F84250A673BDE8F0811FB5FDF701
:102DD00097F99C4C9D484FF0010984F812900068C7
:102DE0004FF4FA61B0FBF1F14FF0E020491E416170
:102DF00007210161944D286820F000602860286C4C
:102E000040F080002864286C40F480702864FFF74C
:102E10002EFF4FF4165000F0DFFD8D49112008728F
:102E2000286840F400602860A86940F40060A86148
:102E300000F040FA8748E066286840F400102860F7
:102E4000E86940F40010E861834E3046401EFDD131
:102E50002968A84641F400112960A96941F40011CC
:102E6000A9613046401EFDD100F01FFB761EFDD14A
:102E7000482000F036FB7948401EFDD1422000F08A
:102E800030FB052000F02DFB00F00FFB682000F068
:102E900028FB734D284600F02CFA7C28FAD17048A4
:102EA00040F252312C3000F0A5FA6D482E2130301E
:102EB00000F0A0FA6A480021383000F09BFA684818
:102EC00007213C3000F096FA654840F20D21403071
:102ED00000F090FA62481721443000F08BFA604805
:102EE00000214C3000F086FA5D480721503000F098
:102EF00081FA5B480021643000F057FA58480021FD
:102F00006C3000F052FA56484FF44871343000F0FB
:102F100071FA53484FF4F071483000F06BFA5048A2
:102F2000FF21903000F041FA4D48FF21943000F02D
:102F30003CFA4C4E4FF44010314600F085FA3D49C2
:102F40004948491E00F080FA47484849001D00F0F2
:102F50007BFA45484649083000F076FA4248454930
:102F60000C3000F071FA40484349103000F06CFA20
:102F70003D484FF004552946143000F065FA3A48B0
:102F80003E49183000F060FA29493748A0311C301A
:102F900000F05AFA34482749203000F055FA3248F8
:102FA0003749243000F050FA2F482946283000F0E5
:102FB0004BFA00214FF0301000F046FA2848022169
:102FC000543000F0F2F926480521703000F0EDF998
:102FD000FDF7F7FA102000F03AFB2A4F45F255555D
:102FE00007F1040A0AF1040BA84203D1122000F0F1
:102FF0002EFBD0B1E06E00F047FF2349E06E01F0F8
:103000005DF83146E06E01F059F86FF07B41E06EFB
:1030100001F054F84FF47F01E06E00F07EFEFF21D6
:10302000E06E00F045FE19A33CE0AEE00000FF04B6
:10303000A000000D0200001FC012A04F00C00240FF
:1030400000C000400000001000C0092010C0072090
:103050000040024084FD072080A90300C0D4010085
:10306000002030000700002604003000C6EF869BD9
:1030700016FF1604C4EFC6A1C9EF06B21616FF0468
:103080000050089850213000C8C8C802506C6561D3
:10309000736520546170206F6E2074686520646FC2
:1030A000740000004FF4C062CDE9002364221B23AA
:1030B0001146E06E00F09EFD0021E06E00F062FE21
:1030C0000021E06E00F0FAFFE06E00F0FEFD3846F1
:1030D00000F034F90146142000F06FFB504600F078
:1030E0002DF90146182000F068FB584600F026F93B
:1030F00001461C2000F061FB624800F01FF9014608
:10310000202000F05AFB5F48001D00F017F901462F
:10311000242000F052FB5B48083000F00FF9014614
:10312000282000F04AFB2946102000F00CFB5648EE
:10313000002505705548401EFDD1A574607900B189
:103140006571E07900B1E571A07900B1A571207ACF
:1031500000B12572607A00B16572A07A10B1A572D3
:10316000FDF71FFBE07A00B1E572207B00B125730B
:10317000607BB8B3B4F92C00B0F57A7F01DA401C5B
:10318000A085A08D01282ED031E0142000F097FA00
:103190000146384600F058F9182000F090FA014630
:1031A000504600F051F91C2000F089FA01465846BB
:1031B00000F04AF9202000F082FA0146314800F080
:1031C00043F9242000F07BFA01462E48001D00F050
:1031D0003BF9282000F073FA01462A48083000F035
:1031E00033F9A4E747E00021122000F0ACFAA08DEB
:1031F0000A2803D12649122000F0A5FAA08D0C2838
:1032000003D10021122000F09EFA6573D8F8401017
:1032100041F48051C8F84010D8F8541081F480511E
:10322000C8F85410E06D401CE065102000F00FFA63
:10323000014618A000F0B0FF8DF8009004218DF831
:1032400001108DF802508DF804508DF803908DF820
:10325000059006216846FDF71CF8010A8DF8061056
:103260008DF8070000266F46B85D00F089FB761CDC
:10327000F6B2082EF8D3A07B00283FF45EAFA5730A
:103280005BE700005C2130007000001080EE36002B
:10329000AAAAFFFF43414C4942524154494F4E5F55
:1032A00049535F434F4D504C455445203D202569BF
:1032B000200D0A009848016841F0404101604168D2
:1032C00021F003014160416841F00C014160426816
:1032D000012142F0300242609048C160202101602B
:1032E00070478E49886048680006FCD58868C0B27F
:1032F00070478B4A00B50346106840F40020106008
:10330000D06940F40020D061C3F30540FFF7E9FF26
:10331000C3F30720FFF7E5FFD8B2FFF7E2FF552020
:10332000FFF7DFFF5520FFF7DCFF116841F40021B4
:103330001160916941F40021916100BD784A10B596
:103340000346106840F400201060D06940F400206B
:10335000D061C3F30540FFF7C4FFC3F30720FFF7B5
:10336000C0FFD8B2FFF7BDFF5520FFF7BAFF5520C9
:10337000FFF7B7FF60F307045520FFF7B2FF60F3D4
:103380000F245520FFF7ADFF60F317445520FFF7DA
:10339000A8FF60F31F641168204641F4002111600A
:1033A000916941F40021916110BD5D4A10B5034659
:1033B00010680C4640F400201060D06940F40020F2
:1033C000D061C3F3054040F08000FFF78AFFC3F3EC
:1033D0000720FFF786FFD8B2FFF783FF2046FFF7ED
:1033E00080FF106840F400201060906940F40020D5
:1033F000906110BD4A4A10B5034610680C4640F46F
:1034000000201060D06940F40020D061C3F3054073
:1034100040F08000FFF765FFC3F30720FFF761FF6F
:10342000D8B2FFF75EFFE0B2FFF75BFFC4F30720FF
:10343000FFF757FF106840F400201060906940F4D7
:1034400000209061284610BD10B5354A04460B4651
:10345000106840F400201060D06940F40020D06172
:10346000C4F3054040F08000FFF73BFFC4F30720A2
:10347000FFF737FFE0B2FFF734FFD8B2FFF731FFB5
:10348000C3F30720FFF72DFFC3F30740FFF729FF22
:10349000180EFFF726FF106840F4002010609069B6
:1034A00040F400209061284610BD1D4A00B5106808
:1034B00040F400201060D06940F40020D06100206A
:1034C000FFF70FFF0020FFF70CFF0020FFF709FFB9
:1034D000106840F400201060906940F40020906172
:1034E00000BD0F4A00B5116841F400211160D16997
:1034F00041F40021D161FFF7F4FE0020FFF7F1FE57
:103500000020FFF7EEFE106840F400201060906984
:1035100040F40020906100BD00C002400000024065
:1035200000C00920C6498860C8684007FCD5886883
:10353000C0B27047C348016821F44061016001686E
:1035400021F4404141F400410160016821F440311F
:1035500041F400310160016821F4402141F400216F
:103560000160B949086840F480600860D1F8E4203F
:10357000B34842F48012C1F8E42002694FF0000120
:1035800042F01002026101604160016841F0C00137
:103590000160016841F0070101604268AB4942F0F7
:1035A00002024260086840F0200008607047A548A9
:1035B000016821F440610160016821F4404101602B
:1035C000016821F44031016002689D4922F44022E3
:1035D0000260486820F002004860704700B5FFF7BD
:1035E000A9FF9A4A106840F020001060D06940F0AE
:1035F0002000D0610620FFF795FF106840F0200002
:103600001060906940F0200090615DF804EBCEE717
:1036100000B5FFF78FFF8D4A106840F02000106062
:10362000D06940F02000D0610520FFF77BFFFF202C
:10363000FFF778FF0346106840F0200010609069A3
:1036400040F020009061FFF7B2FF184600BD01B5C1
:10365000FFF7DEFFC007FBD1FFF76CFF7B4A106866
:1036600040F020001060D06940F02000D0610320BD
:10367000FFF758FF9DF80100FFF754FF9DF8000089
:10368000FFF750FFFF20FFF74DFF0346FF20FFF736
:1036900049FF03EB0023106840F0200010609069A0
:1036A00040F020009061106840F0200010609069A8
:1036B00040F020009061FFF77AFF184608BD31B551
:1036C000FFF7A6FFC007FBD1FFF734FF5F4A106882
:1036D00040F020001060D06940F02000D06103204D
:1036E000FFF720FF9DF80100FFF71CFF9DF8000089
:1036F000FFF718FFFF20FFF715FF0346FF20FFF736
:1037000011FF0446FF20FFF70DFF0546FF20FFF7DE
:1037100009FF05EB002004EB002003EB00231068F9
:1037200040F020001060906940F020009061106827
:1037300040F020001060906940F020009061FFF799
:1037400036FF184638BD03B5FFF762FFC007FBD14F
:10375000FFF744FFFFF7EEFE3C4A106840F0200000
:103760001060D06940F02000D0610220FFF7DAFE3F
:103770009DF80100FFF7D6FE9DF80000FFF7D2FE8E
:103780009DF80400FFF7CEFE9DF805301846FFF7C0
:10379000C9FE106840F020001060906940F02000E1
:1037A0009061106840F020001060906940F02000A7
:1037B0009061FFF7FCFE18460CBD03B5FFF728FF2C
:1037C000C007FBD1FFF70AFFFFF7B4FE1F4A1068DE
:1037D00040F020001060D06940F02000D06102204D
:1037E000FFF7A0FE9DF80100FFF79CFE9DF800008A
:1037F000FFF798FE9DF80400FFF794FE9DF8050082
:10380000FFF790FE9DF80600FFF78CFE9DF807304D
:103810001846FFF787FE106840F02000106090699E
:1038200040F020009061106840F020001060906926
:1038300040F020009061FFF7BAFE18460CBD000072
:103840000000034000C00240C4C00F4000C0092077
:103850002DE9F0434348DFF810C1C178491CC1701D
:10386000DCF80810DFF80491C1F3420301220021C3
:103870004FF48066032B22D0022B40D0062B69D058
:10388000012B1AD13A4C238803F1010323809CF8C1
:1038900014309B0663D50270C289002A0DD0521ED7
:1038A000C281828909F580639B5C8CF80030521CD0
:1038B00092B28281B24200D18181BDE8F0839CF84E
:1038C000143013F09E0F03D003619CF80000F4E75E
:1038D000DB07F2D09CF80030858809F805306D1CB4
:1038E000ABB242708380B34200D1818003895B1CFC
:1038F0009BB20381B342E0D101818270DDE71D4CB0
:10390000DFF8748023885B1C23801EE09CF8003065
:10391000848809F80430641CA4B242708480B442E4
:1039200000D181800489641CA4B20481B44201D115
:10393000018182707E2B01D1A8F800100F4FB8F8DA
:1039400000506C1C7B55A8F800409CF81430DB0735
:10395000DCD1B2E7016941F480710161ADE701702A
:10396000ABE700001CC0072000C00040BC540010A2
:103970000AC0072008C0072006C00720C2FD072094
:1039800070B562494FF48064CA89A242FDD0B2B9D1
:103990005F4B1D7D15F0600F11D05E490A6922F45E
:1039A00040420A610C695C4A0C61116C41F0800173
:1039B0001164516D41F080015165187070BD4B89E3
:1039C000564D5E1CB6B2E8544E81A64201D100208D
:1039D0004881521CCA8170BD4E4A116821F47001A1
:1039E0001160116841F4A0011160D3684A4923F0C5
:1039F0007063D3600A6842F480620A600A6A42F027
:103A000040520A624A6B22F000524A634A6B42F00B
:103A100080524A63424B1A684249C2F30142012A6A
:103A2000096808D0022A03D0032A03D0890802E0DB
:103A3000490800E0C908364A832313730909B1FB1A
:103A4000F0F0010A1171107003201073072010723A
:103A50004FF0E0218023C1F8003150600120704711
:103A60002DE9F0432A4988682F4FC0F342062748C2
:103A70004FF0010C4FF4806982881346521C94B2B7
:103A80000289521C95B20022032E1BD0022E30D088
:103A9000062E34D0012E13D10B7D9B0634D580F831
:103AA00000C0C389002B0BD05B1EC3811B4C8389D4
:103AB000E45C0C705B1C99B28181494500D1828124
:103AC000BDE8F0830E7D16F09E0F02D006610878E7
:103AD000F6E7F607F4D00978F95480F801C084803D
:103AE0004C450AD005814D45EAD1028180F802C0DB
:103AF000E6E7C678761CC670EDE78280F2E70169DA
:103B000041F480710161DBE70270D9E730C0072022
:103B10000080094000C0024000C009202061001060
:103B2000ACC10F4010C00720205D001026484FF0A8
:103B300080510160704725484FF080510160704707
:103B40002DE9F0414FF0A04535E000BFC5F8E80F82
:103B5000000730D5D5F8184129E01D4850F8340049
:103B600041001ED5C0F30A06F61E40F2EA518E420D
:103B700017D81849084214D146F0004000F0D4FB91
:103B800078B1134A011D203AF61C52F83430B208BD
:103B900005D040CB0F1D0E603946521EF9D100F002
:103BA00047FC641C042C00D10024C5F81841D5F84A
:103BB0001401A042D1D1D5F8E00FD5F8E41F084098
:103BC000C4D1BDE8F081000000E100E080E100E048
:103BD000E8FF07200000901B70B505460C4608461C
:103BE000FCF782FB401C82B221462846BDE87040AB
:103BF00000F033BA2DE9F0470F46DDE908890546A4
:103C000016461C466FF0F30100F058FA394666F389
:103C10001F41284600F052FA214668F31F4128460A
:103C200000F04CFA49462846BDE8F047D4E72DE9B4
:103C3000F0470F46DDE90889054616461C466FF039
:103C4000D10100F03BFA394666F31F41284600F0E7
:103C500035FA214668F31F41284600F02FFA4946FD
:103C60002846BDE8F04700F029BA2DE9F05F0D467F
:103C70000AA98046B1E8800E16461C466FF0ED0199
:103C800000F01CFA66F31F452946404600F016FA7C
:103C900067F31F442146404600F010FA49EA0A4102
:103CA000404600F00BFA59464046BDE8F05F93E706
:103CB00070B50D4604466FF0F60100F0FFF9294695
:103CC0002046BDE8704000F0F9B96FF0FE0100F049
:103CD000F5B92DE9F05F0D460AA98046B1E8800EDE
:103CE00016461C466FF0EF0100F0E8F966F31F4539
:103CF0002946404600F0E2F967F31F44214640465A
:103D000000F0DCF949EA0A41404600F0D7F959468B
:103D10004046BDE8F05F00F0D1B970B50D465C4992
:103D20000446082008806FF0F501204600F0C6F92F
:103D300029462046BDE8704000F0C0B92DE9F05F8B
:103D40000F460AA98246B1E8200B16461C466FF0C2
:103D5000F20100F0B3F9394666F31F41504600F016
:103D6000ADF9214665F31F41504600F0A7F94146E1
:103D700069F31F41504600F0A1F959465046BDE88D
:103D8000F05F29E770B50D4604466FF0EA0100F0D8
:103D900095F92946204600F091F92046BDE870408B
:103DA00000F03AB970B50E46144605466FF0D401DE
:103DB00000F084F93146284600F080F92146284673
:103DC000BDE8704000F07AB92DE9F0470F46DDE913
:103DD0000889054616461C466FF0D30100F06EF9BF
:103DE000394666F31F41284600F068F9214668F31A
:103DF0001F41284600F062F949462846BDE8F047D1
:103E000000F05CB92DE9F05F0F460AA98246B1E8DF
:103E1000200B16461C466FF0F10100F04FF93946B1
:103E200066F31F41504600F049F9214665F31F41F2
:103E3000504600F043F9414669F31F41504600F0F7
:103E40003DF959465046BDE8F05FC5E62DE9F0471B
:103E50000F46DDE90889054616461C466FF0D2017B
:103E600000F02CF9394666F31F41284600F026F988
:103E7000214668F31F41284600F020F949462846AC
:103E8000BDE8F04700F01AB96FF0FF0100F016B975
:103E90005200001070B5934B00290646196814466D
:103EA000C2F30540C2F3072541F400211960D96926
:103EB00041F40021D9610CD040F08000FFF711FAE5
:103EC0002846FFF70EFAE0B2FFF70BFA0220B071B6
:103ED00070BDFFF706FA2846FFF703FAE0B2FFF7D6
:103EE00000FA5520FFF7FDF90120F0E7428802F5BE
:103EF0004212CFE770B5807900250C4602280AD01F
:103F00000020FFF7EEF904460020FFF7EAF944EA43
:103F10000025284670BDE0B2FFF7E3F9200AFFF75D
:103F2000E0F9F6E770B50646807900250C460228D0
:103F30000CD000213046FFF7DDFF0446002130465B
:103F4000FFF7D8FF44EA0045284670BDA1B23046CD
:103F5000FFF7D0FF210C3046FFF7CCFFF4E76149B3
:103F60000A6842F400220A608B69002243F40023AD
:103F70008B618271704770B50A4605460021FFF7D4
:103F800089FF00212846FFF7B5FF04462846FFF7C2
:103F9000E6FF5449086840F400200860886940F44E
:103FA00000208861204670BD70B514460A4605465B
:103FB0000121FFF76FFF21462846FFF79BFF2846A8
:103FC000BDE87040CBE770B514460A4605460121AE
:103FD000FFF760FF21462846FFF7A4FF2846BDE80B
:103FE0007040BCE742881144C1F30B02D21C40F67A
:103FF000FC710A4042803C49D6E710B53A49044674
:10400000091FFFF7B8FF6188081AC0F30B00A0F67C
:10401000FC70404280B210BD2DE9F041324E0446A2
:10402000361F371D31462046FFF7A5FF05463946A6
:104030002046FFF7A0FF8542F4D139462046FFF71E
:104040009AFF6080BDE8F08170B505460C462846B1
:10405000FFF7D3FFA042FAD370BD2DE9F0418046AF
:104060000F46164634464046FFF7C7FFA04203D22C
:104070004046FFF7C2FF0446A1B20D464046FFF797
:10408000E3FF2A4601214046FFF730FF002504E008
:104090003878FFF726F97F1C6D1C641EF8D2404665
:1040A000FFF75DFFA9B24046FFF79CFF4046FFF7D0
:1040B000B3FF701B0604360CD4D1C3E770B50446B9
:1040C0000D462046FFF799FF0428FAD361882A4657
:1040D00001F542112046FFF776FF2046BDE870400B
:1040E00004217FE700C00920FC20300030B50B46DA
:1040F000014600202022012409E021FA02F59D4218
:1041000005D303FA02F5491B04FA02F52844151EEB
:10411000A2F10102F1DC30BD064C074D06E0E0687B
:1041200040F0010394E8070098471034AC42F6D3FE
:10413000FBF7D0FF404B0000804B000070B501EB57
:10414000020410F8015B15F0070301D110F8013BE0
:104150002A1106D110F8012B03E010F8016B01F8C9
:10416000016B5B1EF9D12B0705D40023521E0FD41F
:1041700001F8013BFAE710F8013B02F10202A1EB62
:10418000030303E013F8015B01F8015B521EF9D54C
:10419000A142D6D3002070BD0FB4054B10B503A9C2
:1041A000044A029800F016F810BC5DF814FB0000F9
:1041B000B50500000CC0072002E008C8121F08C1A6
:1041C000002AFAD17047002001E001C1121F002A25
:1041D000FBD170472DE9FF4F89B004469B4600256F
:1041E00097E0252832D10027641C4E4AB8460121A9
:1041F0002378203B01FA03F0104202D00743641CED
:10420000F6E720782E2819D114F8010F47F004079B
:104210002A280ED06FF02F022078A0F13001092952
:104220000CD808EB880102EB410100EB0108641C8B
:10423000F2E70A98641C50F8048B0A902078F0B3D7
:10424000642808D0692806D075281FD05A460B99D3
:1042500090476D1C5CE00A994FF00A0901C90A9168
:10426000002804DAC0F100004FF02D0102E039050A
:1042700004D52B218DF82010012104E0F90701D08D
:104280002021F7E700218A4608AE0CE00A994FF09A
:104290000A0901C90A91F5E74946FFF727FF01F12D
:1042A000300106F8011D0028F6D1ADEB060000F143
:1042B0002009780701D44FF00108002000E02CE02D
:1042C00041464A46C84500DD881A8046002706E078
:1042D00008A85A46C05D0B9990476D1C7F1C574536
:1042E000F6DB04E030205A460B9990476D1CB8F17C
:1042F0000001A8F10108F5DC05E016F8010B5A46AB
:104300000B9990476D1CB9F10001A9F10109F4DC8A
:10431000641C207800287FF464AF0DB02846BDE807
:10432000F08F0000092801002DE9F0470026DFF892
:104330008C9000280CDA2249D9F80020096820F076
:104340000040024401EB4101B2EB910F18D8012665
:1043500007460F3020F003050EB9FFF7ECFB194CB0
:10436000D4E90002011B891AA9420CD20446006854
:104370000028F5D126B9FFF7D9FB0020FBF7BEFED8
:104380000020BDE8F087100002D16560083407E026
:10439000204421680160206000F10808444645601F
:1043A000D9F800102944C9F800100EB9FFF7BEFB78
:1043B0002780002060802046E3E700004CC00720F3
:1043C0005C4400005814001070B500282AD0A0F1F9
:1043D0000806154C0025FFF7AEFB10E025462468C3
:1043E0002068800703D0FFF7A1FB022003E034B967
:1043F000FFF79CFB0120BDE87040FBF77FBEB44295
:10440000ECD10A4861680268074B511A01609C426E
:1044100002D10020606001E020682860BDE87040A3
:10442000FFF784BB70BD0000581400104CC007207B
:1044300030B4084CD4E90023511C01F01F0199420B
:1044400005D0054B43F82200216030BC704730BCDA
:10445000FFF7BABF44C007202C2A08200040000004
:10446000000000000000007F3E1C080000080C0E49
:104470000C08000000000000000000000000000028
:10448000000000000000000000000000000000002C
:10449000000000000000000000000000000000001C
:1044A000000000000000000000000000000000000C
:1044B00000000000000000000000000000000000FC
:1044C00000000000000000000000000000000000EC
:1044D00000000000000000000000000000000000DC
:1044E00000000000000000000000000000000000CC
:1044F00000000000000000000000000000000000BC
:1045000000000000000000000000000000000000AB
:10451000000000000000000000000000000000009B
:104520000000000000000000005F0000000000002C
:10453000000000143E143E1400242A7F2A12002397
:10454000130864620036495522500000000006003E
:1045500000003E410000000000413E000014083E03
:1045600008140008083E0808000050300000000849
:1045700008080808000000606000004020100804DF
:10458000003E5149453E0000427F400000426151DB
:104590004946002141454B31001814127F10002775
:1045A00045454539003C4A49493000017109050338
:1045B00000364949493600064949291E0000363669
:1045C000000000005636000000000814220000140D
:1045D00014141414000022140800000201510906EA
:1045E00000324979413E007E1111117E007F494918
:1045F0004936003E41414122007F4141221C007F5B
:1046000049494941007F09090901003E4141517270
:10461000007F0808087F0000417F410000204041E2
:104620003F01007F08142241007F40404040007F4E
:10463000020C027F007F0408107F003E4141413E92
:10464000007F09090906003E4151215E007F0919DA
:1046500029460046494949310001017F0101003FD7
:104660004040403F001F2040201F003F4038403F57
:1046700000631408146300070870080700615149BB
:10468000454300007F410000000408102040000066
:1046900000417F000004020102040040404040400D
:1046A000000000000000002054545478007F48446B
:1046B000443800384444442000304848507E003894
:1046C0005454541800087E09010200085454543C04
:1046D000007F100808700000447D40000020404426
:1046E0003D00007E102844000000417F4000007C17
:1046F00004180478007C08040478003844444438E2
:10470000007C1414140800081414147C007C0804A1
:10471000040800485454542000043F444020003C06
:104720004040207C001C2040201C003C4030403C8D
:10473000004428102844000C5050503C004464545D
:104740004C440000083641000000007F00000000DB
:1047500041360800000000000000000000000000DA
:104760000000000000000000000000000000000049
:104770000000000000000000000000000000000039
:10478000000000000004060706040000000000000E
:104790000000000000000000000000000000000019
:1047A0000000000000000000000000000000000009
:1047B00000000000000000000000000000000000F9
:1047C00000000000000000000000000000000000E9
:1047D00000000000000000000000000000000000D9
:1047E00000000000000000000000000000000000C9
:1047F00000000000000000000000000000081C3E57
:104800007F00000000000000007F3E1C0800081828
:104810003818080000000000000000000000000040
:104820000000000000000000000000000000000088
:104830000000000000000000001C3E3E3E1C000086
:104840000000000000000000000000000000000068
:10485000007C5554450000000000000000000000EE
:104860000000000000000000000000000000000048
:104870000000000000000000000000000000000038
:104880000000060909060000242E24000000000094
:104890000000000000000000000000000000000018
:1048A0000000000000000000000000000000000008
:1048B000003855545518007C10207B0B0000000078
:1048C00000000000000000000000000000000000E8
:1048D0000000000000000000000020303830200000
:1048E000007E1111117E007F49494931007F4949FD
:1048F0004936007F0101010300603E21217F007FD6
:10490000494949410077087F0877004149494936BC
:10491000007F2010087F007F2011087F007F08148F
:10492000224100407E01017F007F020C027F007F58
:104930000808087F003E4141413E007F0101017FA0
:10494000007F09090906003E414141220001017F23
:104950000101004728100807001C227F221C006369
:1049600014081463007F404040FF00070808087FD8
:10497000007F407F407F007F407F40FF00017F48F5
:104980004870007F4438007F007F4848483000224C
:104990004149493E007F083E413E00462919097FB2
:1049A000002054545478003C4A4A4931007C545405
:1049B0002800007C0404040C00603824247C0038A7
:1049C00054545418006C107C106C00444454542807
:1049D000007C2010087C007C2012087C007C1028C1
:1049E000440000403804047C007C0810087C007CF3
:1049F0001010107C003844444438007C0404047CCB
:104A0000007C141414080038444444000004047C5E
:104A10000404000C5050503C0018247E241800441C
:104A200028102844007C404040FC00001C10107CF2
:104A3000007C407C407C007C407C40FC00047C503E
:104A40005020007C5020007C007C505050200028DA
:104A500044545438007C1038443800085434147CD2
:104A600020202000FFEDE200F4E5E200ECE0F000A1
:104A7000E0EFF000ECE0E900E8FEED00E8FEEB001E
:104A8000E0E2E300F1E5ED00EEEAF200EDEEFF001A
:104A9000E4E5EA00114B0000114B00000D4B000053
:104AA0002D4B0000314B0000194B0000294B00003A
:104AB000214B0000154B0000254B0000354B00003A
:104AC000394B00001D4B0000114B0000114B000042
:104AD0000D4B00002D4B0000314B0000194B000026
:104AE000294B0000214B0000154B0000254B000016
:104AF000354B0000394B00001D4B00003031323384
:104B000034353637383941424344454600F4E5E20E
:104B100000FFEDE200E0E2E300ECE0E800E4E5EABB
:104B200000E8FEEB00F1E5ED00E8FEED00ECE0F062
:104B300000E0EFF000EEEAF200EDEEFF0000000012
:104B4000804B000000000010581400003C410000A1
:104B5000E85D000000C0072050000000B8410000E0
:104B6000E85D000058140010C8580000C64100005D
:104B7000385E000050C007205C6A0000C64100009B
:104B800011027814000CFF48656C6C6F20576F722F
:104B90006C640123281509070A180F151106080867
:104BA0000F0D060D060E1011111104282411110607
:104BB000060C0E0D0F1813101010131015111313EF
:104BC000131017121312101112131712160F171BAE
:104BD0000C00271A1712090E090E12080E0F0D0FDE
:104BE0000E0B0F1006090E0717100F0F100B0D0AF2
:104BF000100F140D100E0B060B0B32013204321C79
:104C000032242BEC0394091C010A2010B4180A1159
:104C10001112111113120611B419B81C141110BA83
:104C20000D2217121214AE299429875A189423487A
:104C30004E101078DAED9D5D8C63479580CBFFFFB9
:104C40006D7B10E08924A4ED24249112141B0D1116
:104C50001289E2D66AC5A25D16F7033C2014DC680F
:104C600057E201841D7818102C363C208432B1475D
:104C7000E28904D99348EC039BB86723962060EC43
:104C80001E181629516E87B04CE0616E07F19F81A6
:104C9000DB76B7FBD7BE67CB3DB7CE394EAE35D34B
:104CA00033EDDBEE21359A9E6F6ED72DDFBA557549
:104CB000EA9C53A7CADE48281C888613B170301AB4
:104CC000967FA2E1607846FE8C849233C99948D0E1
:104CD000EB0F46233351AFDF1F0CF902BE400893A0
:104CE000CF37FC198BC8140E47A2BE5044DE68FDB6
:104CF0002F1C0F8743FE805FFE0CC90243FE50D875
:104D0000E70BFBE3E150381C0CF9C3C15828184CE1
:104D1000F863E1885B0811957FDF2EFFBE4DBC99DB
:104D2000F69DEA1070B060C74BC924E669B3FCED8C
:104D3000917B7FCACB99C77BDFA2AD50FE42C78E65
:104D4000978E519ED16738EF54DD5D8F5E5C543C89
:104D50000BD0505CDD48601E6D81F2EBFFD14F231C
:104D60009B806FC26864D614C35C7403391BD9C4BA
:104D70003CF3B19EE2E6621EF3E701F0197CDA9F94
:104D80001D6BF7AA7CE7093B7E89DABDBACCF23B02
:104D9000C8D3965A10FA695BAEB03C07C4934E1E56
:104DA000D9D61D5BBEAD409CC82BF68240F6310EB5
:104DB00098C4C10171748738B581EC2AAF250B56B0
:104DC000A78FC23055DEC85BC3F136867F3CEF7CCF
:104DD000BBC7017AB6DC99414E31CEAD1217568869
:104DE0009B35E40890ACDBAB7BC9E27599CD86F7C7
:104DF000DE5DE2FAABE287050FA4FD974574EB5543
:104E0000C9B3BB7BBFC86C4BAE77AC4CC7E10EF5EA
:104E100074DA4FE05D7DEBEECC36D4BB4A50F64100
:104E20007B5509EBDF417E5BF5937F83BB21BBC7DD
:104E3000B1812C53BF3CA0AB6B92F3C316146E68C8
:104E4000480EEF8D9F282424BBA03D85C33D64CA36
:104E5000169BDDB2E47CAD59AB5BB229B7D6FCA69C
:104E60001AFD8141F3E94D1C2FBAA6047A6CBBF9F7
:104E70002DF5DACAAF364F590DEC868566AD78F957
:104E80001D46FBB2FCD8AE43E3FDEC251C39050002
:104E9000FF009A9BFEFB01536579212D4736A65BE7
:104EA000FA8865F82DE375CA7333E6BF4D562DAB0E
:104EB000BA40165918E7EE0536C76DB0E7999B560C
:104EC00039FF6903D519977E91E47C52CEDE8ADDE5
:104ED0008FD3EBF1C20E1BA594E7B32EBD84E3CEB6
:104EE000A0723E6D3CEB9C5ED716D16DE2226383CF
:104EF0003808C429C6CD1F21FF041E447E619BCA09
:104F0000840EE312B1C93EB737F20CC8D396B4523F
:104F1000A44F5C606C109F3089AB7F22864F120FCC
:104F200002C4EB8C1789279D7C724E59B3E5648EC1
:104F30005864F6C3FE0171B04F1CDD4576153790FD
:104F40002352A940EECF51FE694B724EDFB4E56E9D
:104F5000D496531DE2CC2A717505390235E4E86E0A
:104F600082F24C5D9F6F888C12E85A57349177DC3F
:104F700028E835B887B8D96A217F1172C89FDB8DC0
:104F800023976E632CE2EB0EDAB06B76BC447D5E49
:104F900000FF00CA9FCC61F0D4B53BC0962D97228C
:104FA00007CE539662B26BD404E9DE15B289B87DA0
:104FB00074303CE114D91DAAA64A0D4993DEA557C9
:104FC000A435A654B69519D4BB523D34CB4468B72A
:104FD000D960F620E963DA803EA1C044570E6F1510
:104FE000EE16BA2B4493541BD1FCBD934D4975E189
:104FF000EC7A14CCEF5BFCD0D0B87AC9AAD6EFF229
:10500000DD8FEF587AF85CAEE30765DAE63A9ECBBF
:1050100075E0CCF308ED9778EFE5322DDBC7F504AA
:10502000983FB77D9E4927D65E57C19E67A0BF4077
:105030007A38EA78C669E3FD56A77141DAC85A7E24
:105040002ED9858DACE58FD8BBAE5B37EB678C7FF7
:1050500052CD3D2C470D72B72C7FFE1A9FED1A746E
:10506000DA4391E1C379643D41F38BF21472DE1BA4
:105070000363F8DBA543D1690F5EB6B3EA0E99244A
:1050800081288EE183F05D08A324B4DA35B27ECEA8
:10509000AD10AEE4E45E7B290E83892C5C947F58CE
:1050A000B57DF25425C8663A57E405629D5C80E2FE
:1050B000415367722C73153C711B56BEE7CB0E290A
:1050C000477929A99D4A5ABCE7A07C234F9F0D9B95
:1050D000E904760F9887B5B5E11BBCDD3FC1DABAAC
:1050E000FF7A462BD89E7F7DC3B43B2C335E61C3D1
:1050F0007F0CBBD207E0AB7C6DCECE57699CBB4723
:10510000AD4FB97F9876015B0AD017981158B263FA
:10511000575239E35CC785508357EA786E5444F49C
:105120005FBC0B35F7DC88AFF2B5A9F5559E44ADF1
:105130006EA8C293C9753C804B79C2F375340B4499
:1051400000FF00F86BA3EBFF183059399B76E5BFE1
:1051500099269852CC291A6796739C995F64C54921
:1051600023B6471C650E9608733884BB4C228D9974
:10517000AD23FF33E6731DB4DEF5FB77F7C5375477
:105180002A2FE7B0999A8B855514E8155C0A2F4AA7
:10519000C96BDAB00F92A884F84D170EE6A1A4EE01
:1051A000D9F0ECE64D7D2514E2BD08F6B8CC5A6C7A
:1051B000932CD878EFC0EB185EB5655FCB7C4AB016
:1051C0007AA999037EF0F2F7945909776340800B2E
:1051D0004E5070800EDB28931FE21AC9C74C127024
:1051E0008165A346DC5236CB0B1FB8A0E685A16BC8
:1051F0001C9D1DEFD307952B3DF341A5E134F91B11
:10520000557733EB572FBD5F68C4AC5ABA37A3CB81
:105210008505E217D5BD83E253383A0B837B3A0FFD
:105220005FB0FE93483D69EAEAB554EFEC65D4EC13
:10523000B7EB5F4B59550BAC13CF2C7B76EAD6DB23
:10524000FA1027D0BCF8B253639EE9086ECDC4763D
:105250008C6CCCA2948A6FA45092454D03AFFBD8BE
:10526000FC1590F3D487D530BA00FF00EF540A98AC
:10527000315F7D4DADC819D928FA8135A93F2C93EE
:105280005E81B3A54FEF7FC470689AD3B3FBE3A3ED
:105290009EDCCCFF712BEB5FC557999ECF1C05CDD3
:1052A000DA64997F167F06FE6CEEC583A9FBBDBC50
:1052B000DDD93314D8BCCC1747667A9365FE59FC08
:1052C00019F486FD331F9C2147F8B5C7E813A44D98
:1052D000813D3DCC420C5A606629FF03B6E5FC5D7A
:1052E000A462C38EDD40B60967912C9F4E5CE1DE5F
:1052F000BFBBC4C7DD38BEC8ACBB53535C175AD163
:105300001CE5643221DE4CB24D17AFCC134F3E6624
:10531000A78499C116670658813D508BCC71175BE5
:1053200037F4B390A22893E129A68A96B9239AFA72
:10533000B0DBA4CB016656C626BD16EDD32E08E61B
:10534000B7A9D0FC525E258F437C0DAB9B9E59BF05
:1053500046E6E5C8F28BABEC73F1ADF8F40BCEB5D5
:105360007B81DADA4F2259E44CE200FF00FC078926
:105370008F4759DF98344F3879B557A88E6C254C34
:105380003B4D5AC67759DBC95ECCB48F26197501DF
:10539000D207449E1C1F2E83E6AF285B9AAE77B9D6
:1053A0006CA4B85CCE934E7ED6C7CAACCFC329EAF4
:1053B000F3271271F6A464E28B285B4388015B1D1E
:1053C0002C766D3438CF5F9936075FA13C55F6CE09
:1053D00003FA2BCEF5F9106B8C14EB6FE51562A375
:1053E000C4C605CD5331A66F173AEF45E9A535AAD6
:1053F0006AFC7A218D1C60AB0E9CE5DC573F4D2585
:10540000551D5B8E93BA6BD79699ED36C24FFC9CB7
:10541000DFBB486384DAF1D888864E1EBEEF66692A
:10542000EC4859D7B593757ECDC1768F6DF3C663C1
:1054300095A4D7EF6131211136976506FF4BE397AD
:105440003DBF512B7750CE27E224F3135477A3525C
:10545000ECB0B156B31B8393366779C8C3088B543D
:105460008F98E6A3E430C28E26789A10FCA503A696
:10547000FDFBE411637C338C41AE292F7BB7A1BEC9
:1054800073CDCEE7F7329339C6E972176B98A53E14
:105490006CD4A8AFE6D9520C67E314E6F180886DAE
:1054A00010B3FD53B5C21A93758BD4EEAF3858F7CD
:1054B00057B86ED3203BA2D865FA498FDE03C96A7C
:1054C0006374CCB6B1CC1F31F9EF67FD618639FD4D
:1054D0008B4CE1D3A90FF8E0E8E9FCC58E3DBF771E
:1054E0004C5C0CBF3EEEDEA35EF771E9836DFB2ED4
:1054F0003096A927A14FD4F9E43DC31423ACE5DBD2
:105500000D135B526751629C791E7EAF2C73E98844
:1055100035F578FF0C33D4198FCD7F54D277B80D81
:10552000FE27924B0FC3364D54FF02D45BDF47B1C9
:10553000460FC34ED6EEDEEF1C560F1EB56550C7A4
:10554000689D41FD447C9ED99E230A908B969B4486
:10555000C4A4CA64985AF7A1311B5CEF5AB8F22070
:105560009F7472DD8EEDE53700FF00FE4FD5F09C95
:10557000F0A83589E1BF056BF68344F0F9F2B2E299
:105580003A868740021E69294E42BAA8F81888BC9C
:10559000DDF52C94547EADD1C472FE3571D3F38504
:1055A0001587EACEC3D5E33CFE99295B2DB2EF5CAB
:1055B000D05A26BB8694B6C86E748B4CA2A04932D2
:1055C000DF83C66D8B82CE5D2CAA66681EA97D0A1C
:1055D0005169E0CC38B54F8AEFB51FDDFBFF565D52
:1055E00055B2DE1668D0D6DB6EAD4DF9CD346355BD
:1055F000C7FAB93B3476EFD8BDFFABEC734BC4CEE2
:10560000396E4E0E70DEB995D995D58DBBF13DE85A
:105610000D81D1EECC9C153C027024AA66C1D6FC4B
:105620001D29A7BA711766BB95C7949D646BD013EB
:105630006FF7C193BCDDB1ED96EE440577B4DD297B
:10564000C05D32C62D0C63A4BBF6D7731DBB72962A
:10565000DE66B4ED3E17064F3957F7EB3AEF62CBF3
:1056600096AFE65E9E67CC33DC00FF00B075BF0AE4
:105670007660BC57C8E546B11FD5CDBB50FEE88B60
:105680000285BB1CBFC7D276E37DA18A0A0D67994C
:105690001F1D7C72BCA3053F1CEF151AEF83431935
:1056A000EFD7B3F761C27BEB1CA8FBD4F2E4D3685D
:1056B000CF9D28331FD737315C5784594CA9FB99AC
:1056C000BE7387780CF58D2DD25BD079546FC7509F
:1056D00041AFB7EBD80DEBE7A92E75839C2CDC57B7
:1056E0005937ABE8CFA9AFCDECD267F9B1F2F2737D
:1056F000F5367B861E71CCBCD1FBFCEBE6B8391BC2
:105700009E78DDA5529DB35E7A5D5AD44DC503D90E
:105710004315C35C90B81D4736D68A86E2E777F416
:10572000B2E29F02282F6FBDAD6DC5910B1D62DFE8
:105730001CF130CEF28DEC40BBA3CB5DD69DD84C96
:1057400010438DF11AF1C53EF179F814725BBB4438
:105750009C01E2206361302EECD83CCFE4E7F77E79
:1057600045D8E8D5437DBEC4F4F0183F36CDD738D0
:1057700047CB918F2B57529F2766D7797E5E0E2F8E
:10578000FFF0F479F359DB71B7F4162E8B8A4C9F36
:105790002FACDAE51919B3ACCCA9D6EB26D2EE556D
:1057A0006AF7609DDABD0E64C7E593105293C4C9D1
:1057B000C163CC75E19B9FAE7667EC261B7F545688
:1057C000AF533BE67BC4B13EB18FCEFA1B9DEF8A4F
:1057D0004E2DC07B5FBC84167691B6350B78F2AE49
:1057E00033E8534D33ED84DBE3E67FE26F1E62F571
:1057F000757D546353345FB5A6A25EF8870700FF3A
:105800000033B078837FD61DDB2B1404B29D398B17
:1058100064B19B24FF15F31F3AC9134E5A8DFC0C3B
:1058200093E28ECD78296CDD69A8B11F012027EFA6
:1058300097064E850E4677042E2A074C81FBE03CE6
:1058400090A55541A314667A29ED1CCA7768BB4917
:10585000BC470BCCE11D0DE5A78FC5E5BA800D85D2
:1058600016F34816994F3BE358BBCBBA07B6ACB812
:1058700093A0393C42EDF2DAB917D2714858CA19EF
:10588000CCE761DEF2326A35A9E958D5ACB6756D60
:10589000C58A51C87721D7B5DE5C7C6710DBB1DEE5
:1058A0005C14B683CA3A0FC2BA07F05CBB55A14676
:1058B000B94B4AFFA6EA1C5A49149D39B3521A172C
:1058C0002EF4CBE952EF526D9D5F4FA11F26DAC730
:1058D000296BB8918FECB226F769335FB74EE2CDF2
:1058E0000FB47E31B3CDD6DC3B784A9D0B2A3E35D2
:1058F0004784E59D9A43C7754606C3A3F354B51084
:105900008EE6C8AFAE2DD26279BE4B2BABB1AD9156
:10591000FE4C225CE77DB87B1464DD708D608731BE
:105920005620992CB341682CB2998166BC0C6BEB64
:105930002669245E1E7AC6BA46911C322EE30CAE4E
:1059400051FAD833709E786AC2A23D4F789FC858EA
:105950001EF33C13483C5E97C7F1F2F85EA1336D2D
:1059600083C703F32DD97C7F68801F55C8CF296278
:1059700001C423FB0578C0310F44F64FB40B78D92E
:1059800090E52CA5C0A1F0D8E79978CAB170101C99
:105990008DC9EA016E6714A9F514B670B3111888A1
:1059A00037D3A453E0844C8F586A1400FF00DF8D76
:1059B000E15C7A10703BA30B2EA119E73345619986
:1059C0000C166429AF30BF9819607E51E8521EADA5
:1059D00081EC856C616A4FE3BEE7E2CF482D65F14B
:1059E0008401164FEE7A0FC560570197688607113C
:1059F000AFD2BBAAAEE2BB322946E533667DC5A96C
:105A0000BA24B9182E5D053F4E67E78EC41EBF74D9
:105A1000DF26D947B4BF5B2B85766CAF2FCFF2332F
:105A20009DB00B6BCF70DFFE74C5197A353A5A25DD
:105A3000CFF602EBA7EFC7EB4CFB71F3298E5D1796
:105A40007AE37EDB7278F90EA876ECE5F2FD11F6CA
:105A50001CFAEB97D7D958A6BD30A7CA142F9DC5FD
:105A6000B9C03D12474DD705940AEB6CEC20BF033B
:105A70009E5E9FD6F1CEE3B20A268BBF9DCFD07E2D
:105A8000A2AF9FE47174D8B7791FD02B812C6B77AC
:105A90001CE33EEDB543D9751DA0E3A2459EB6C2F9
:105AA0008B32F94EBDFA5FB264A2B14000FF0093A1
:105AB0002A533F0F8AA72DDD025FFA05EBABF4FDF9
:105AC0001AA7EAD4EE59EC03B2CFA7ECAE0BA85458
:105AD000D7ECCAB9D92CB3A99BCE34F393EB57D4E6
