:020000040000FA
:10000000407F0010E1000000E5000000E700000074
:10001000E9000000EB000000ED000000000000001F
:10002000000000000000000000000000EF000000E1
:10003000F100000000000000F3000000D7470200BC
:10004000F7000000A9740200D5740200F700000058
:10005000F7000000B5A30200F7000000F700000061
:10006000F7000000F7000000F7000000F7000000B4
:10007000F7000000F7000000F7000000F7000000A4
:10008000F7000000F7000000F7000000F700000094
:10009000F7000000F70000003D610000F7000000DD
:1000A000F70000008FA10200F7000000F700000039
:1000B00079BF0200F7000000F7000000F700000021
:1000C000F7000000F7000000F7000000DFF80CD098
:1000D0002BF0DAFF0048004767490200407F00101C
:1000E00005480047FEE7FEE7FEE7FEE7FEE7FEE71E
:1000F000FEE7FEE7FEE7FEE7CD000000FEE710B5F5
:100100002CF09EFC2CF0FAFC2CF0ECFCAFF3008001
:10011000BDE810402CF0B8BC10B52DF079FA2DF0E8
:100120002DFEBDE810402DF0CBBA2DF0DFB92CF03C
:10013000A7BF09B1002070472CF0AABB0020704770
:1001400070B5374A0020A2F11401064601F10A03F6
:100150000C5C54B11D5CAC4207D1145C2CB1641E24
:1001600014F0FF04145400D10E540C5C1C54401CB9
:10017000C0B20A28ECD370BD70B5294D0024143DDF
:10018000641CE4B22E5D1EB1864201D00A2CF7D366
:10019000285523480C3040F82410283040F82420FB
:1001A0003438035570BD1E4A0021143A491CC9B2A7
:1001B000535C834201D00A29F8D3DBB2834210D1C9
:1001C00017480C3050F8213016480360144B343374
:1001D00053F82130436000205054114A50540120FC
:1001E0007047002070470E4A0021143A491CC9B2DA
:1001F000535C834201D00A29F8D3DAB282420CD18F
:1002000007480C3050F8212006480260044A343276
:1002100052F8211041600120704700207047000013
:100220001868001014C007200C4BDA601870597061
:1002300070470A4A116190707047084908817047F9
:100240000648B0F90810002907D0491E09B20181FB
:10025000002902D1084601F06AB87047AC000010CE
:1002600090F900308B4200DA027090F9003093422E
:1002700000DD0170704790F900308B4200DA0170A8
:1002800090F90010914200DD02707047B0F9003023
:100290008B4200DA0180B0F90010914200DD02804B
:1002A0007047B0F900308B4200DA0280B0F90030BC
:1002B000934200DD01807047FE21C0B22BF0D0BE1A
:1002C0008021C0B22BF0CCBE1C21C0B22BF0C8BE26
:1002D0007021C0B22BF0C4BE40EA01039B0703D0DB
:1002E00009E008C9121F08C0042AFAD203E011F875
:1002F000013B00F8013B521EF9D27047FFFFFFFFA0
:10030000002801DA404200B270470020FF4A202155
:100310001154401CC0B2C828FAD370470146FB4AAA
:100320000020401CC0B2135C8B4201D0C828F8D317
:10033000704710B50021F64C0A2200BFB0FBF2F363
:1003400002FB13006054491CC9B218460529F5D3B5
:1003500010BDF0B5EF4B0121202719700521EC4AA3
:10036000002601E01C7844B1541814F8015C25B94A
:10037000814202D904F8017C05E0541814F8015DAB
:10038000303525701E70491E11F0FF01EAD1F0BD15
:10039000FEB52B23002802DA404200B22D230025AF
:1003A0000A266C4690FBF6F706FB170060556D1C9D
:1003B0006DB238B20A2DF5DB012600250920202771
:1003C00000E046B114F800C0BCF1000F03D1904228
:1003D00001DD275405E0265C3036265400266D1CCE
:1003E000EDB2401E40B20028EBDA2D2B02D163554E
:1003F0006D1CEDB26AB168B205E0231813F8013C38
:100400002354401E40B29042F7DC2E206D1CA054B5
:10041000EDB20846FFF782FF0021BC4A04E0635CAE
:10042000461A491C935549B2A942F8DBFEBDFEB5F8
:100430002B23002801DA40422D2300250A266C4692
:10044000074690FBF6F006FB107767556D1C6DB202
:100450000A2DF5DB012600250920202700E046B102
:1004600014F800C0BCF1000F03D1904201DD275405
:1004700005E0265C3036265400266D1CEDB2401E89
:1004800040B20028EBDA2D2B02D163556D1CEDB282
:100490006AB168B205E0231813F8013C2354401EEA
:1004A00040B29042F7DC2E206D1CA054EDB20846FD
:1004B000FFF734FF0021954A04E0635C461A491CAB
:1004C000935549B2A942F8DBFEBDFEB52B260028A4
:1004D00001DA40422D2600240A276D46844690FB0F
:1004E000F7F007FB10CC05F804C0641C64B20A2CBA
:1004F000F4DB0127002009244FF0200C00E04FB16D
:1005000015F804E0BEF1000F04D19C4202DD05F8AD
:1005100004C005E02F5D30372F550027401CC0B2C6
:10052000641E64B2002CEADA2D2E02D12E54401C37
:10053000C0B26BB144B205E02E1916F8016C2E550D
:10054000641E64B29C42F7DC2E24401CEC54C0B202
:1005500001EB810102EB8101CAB200216B4B04E087
:100560006C5C561A491C9C5549B28142F8DBFEBDB1
:1005700070B50D4616461C46FFF7DBFE601CC0B288
:10058000FFF7E7FE05EB850006EB8000C1B2604A8D
:100590005E4B0020A04201D2155C5D5406D3155C71
:1005A000202D03D04CB15E1806F8015C491E401C9A
:1005B000C0B2C9B20528EDD370BD5D54F6E730B5C1
:1005C000044608461546FFF7A9FEFF2809D04F4A02
:1005D0002178002905D04319641C401CD154C0B2B5
:1005E000F6E730BD70B50D461446FFF7A2FE601C5D
:1005F000C0B2FFF7AEFE2846FFF790FE444B434AD9
:10060000002124B95D5C202D01D015540FE0A142DA
:1006100001D25D5CF9E704D14FF02E0515545D5C05
:1006200002E05D5C202D02D0161806F8015C401E29
:10063000491CC9B2C0B20529E3D370BD801801D5E9
:10064000084402E0884200DB401AC0B270472DE93E
:10065000FE4F04460D464FF4606027F003FC6242F3
:100660004021FFF7EBFF400100F58060044602A93E
:1006700027F075FC694604F1080027F070FC01A919
:1006800004F10C0027F06BFC2846FFF747FE0646F6
:100690009DF8080040273025DFF870B020244FF087
:1006A000210C4FF0230A552838D04FF0CF084FF0D7
:1006B000D10950287ED0E22351287CD042287BD01B
:1006C00053287AD0492879D1C0210BF80610761C1E
:1006D000F1B2C2220BF80120491CC9B22E220BF83C
:1006E0000120491CC9B2C8220BF80120491C5846F8
:1006F000C9B2ED224254491CC9B24354491C9DF869
:100700000920C9B2092A7DD2313205E09AC20720F8
:10071000F8C30720F80000104254FDE39DF80A00DA
:1007200052280ED1C2210BF80610761CF1B2EA2233
:100730000BF80120491CC9B2EB220BF80120491C1F
:10074000CEB258460BF80640761CF1B20BF80140C9
:100750005BE04554491CC9B23A2200F801C0491C6B
:10076000C9B24254491CC9B24554491CC9B2475484
:10077000491CC9B24254491CC9B24554491CC9B2AA
:100780000BF801A0F2E34454491CC9B24554491C7A
:10079000C9B200F801C0491CC9B24754491CC9B2CA
:1007A0004454491CC9B24454491CC9B24554491C5B
:1007B000C9B204E011E031E067E0B3E30BE00BF80D
:1007C00001A0FEE39DF80110FF48002200EB81002C
:1007D0004021FFF7F4FEBDE8FE8FC0210BF80610A4
:1007E000761CF1B2C2220BF80120491CC9B22E229C
:1007F0000BF80120491CC9B258460BF80180491C6E
:10080000C9B200E0FBE30BF80190491CC9B24454A3
:10081000491CC9B24454491CC9B26AE3C0210BF84F
:100820000610761CF1B2C2220BF80120491CC9B295
:100830002E220BF80120491CC9B255220BF80120C9
:10084000491CC9B258460BF80130491CC9B2FB22F9
:100850004254491CC9B2F5224254491CC9B2DB4E6C
:100860004454491C9DF80020B38FC9B29A428AD1E2
:100870009DF8012096F838309A4284D19DF80220E4
:1008800096F82C309A42F2D163E79DF80A004FF0B7
:10089000E00943287ED1C0210BF80610761CF1B286
:1008A000C2220BF80120491CC9B22E220BF80120EC
:1008B000491CC9B2C1220BF80120491CC9B2F2225D
:1008C0000BF80190491CC9B20BF80120491C9DF896
:1008D0000900C9B2092809D231300BF80100491CBE
:1008E000C8B20BF80040401CC0B214E0A0F10902ED
:1008F0005A2A15D2401C0A23B0FBF3F2904630323C
:100900000BF80120491C03FB1800C9B230300BF86A
:100910000100491CC8B20BF80040401CC1B20BE0FA
:100920000BF80140491CC9B20BF80140491CC9B27F
:100930000BF80140491CC9B2A4489DF80020838FE0
:100940009A4240D19DF8012090F838309A423AD12D
:100950009DF8022090F82C00824234D10BF801500F
:10096000491CC9B23A220BF801C0491CC9B2584609
:100970000BF80120491CC9B20BF80150491CC9B23F
:100980000BF80170491CC9B24254491CC9B2455404
:10099000491C00E054E0C9B200220BF801A0491C38
:1009A000CEB29DF804002121FFF71CFE9DF8050042
:1009B00000224021FFF716FE9DF8060000222321A9
:1009C000FFF710FE3CE00BF80140491CC9B2584645
:1009D0000BF80150491CC9B200220BF801C0491C98
:1009E000C9B20BF80170491CC9B20BF80140491C8F
:1009F000C9B20BF80140491CC9B24554491CC9B2DF
:100A00000BF801A0491CCEB29DF802002121FFF78E
:100A1000E9FD9DF8000000222321FFF7E3FD9DF88A
:100A20000100401E0C2802D301208DF801009DF822
:100A300001106548002200EB81004021FFF7BFFD57
:100A40009DF80A0053287AD1C0220BF80620761CA4
:100A5000F1B2C2230BF80130491CC9B22E230BF8A6
:100A60000130491CC9B2C1230BF80130491CC9B27D
:100A700058460BF80190491CC9B2F2234354491C53
:100A80009DF809304326C9B2092B08D231334354AB
:100A9000491CC9B24254491CC9B246540EE0093B34
:100AA0005A2B04D24254491CC9B2465403E0445460
:100AB000491CC9B24454491CC9B24454434E491C50
:100AC0009DF80020B38FC9B29A4239D19DF8012018
:100AD00096F838309A4233D19DF8022096F82C309F
:100AE0009A422DD14554491CC9B23A2200F801C09E
:100AF000491CC9B24254491CC9B24554491CC9B227
:100B00004754491CC9B24254491CC9B20022455439
:100B1000491CC9B20BF801A0491CCEB29DF80400D3
:100B20002121FFF75FFD9DF8050000224021FFF71E
:100B300059FD9DF8060000222321FFF753FD36E002
:100B40004454491CC9B200224554491CC9B200F89A
:100B500001C0491CC9B24754491CC9B24454491C7C
:100B6000C9B24454491CC9B24554491CC9B20BF816
:100B700001A0491CCEB29DF802002121FFF732FDF1
:100B80009DF8000000222321FFF72CFD9DF80100B5
:100B9000401E0C2802D301208DF801009DF80110A1
:100BA0000948002200EB81004021FFF708FD9DF875
:100BB0000A005A2861D1C2210BF80610761C58464B
:100BC000F1B2C72204E00000F4EA02000040024053
:100BD0000BF80120491CC9B20BF80140491CC9B2ED
:100BE0000BF80140491CC9B20BF80140491CC9B2BD
:100BF0004454491CC9B24454491C9DF80020C9B250
:100C0000FF4EB38F9A4239D19DF8012096F83830C3
:100C10009A4233D19DF8022096F82C309A422DD179
:100C20004554491CC9B23A2200F801C0491CC9B256
:100C30004254491CC9B24554491CC9B24754491CC5
:100C4000C9B24254491CC9B200224554491CC9B218
:100C50000BF801A0491CCEB29DF804002121FFF73A
:100C6000C1FC9DF8050000224021FFF7BBFC9DF868
:100C7000060000222321FFF7B5FC36E04454491C4E
:100C8000C9B200224554491CC9B200F801C0491C30
:100C9000C9B24754491CC9B24454491CC9B244544E
:100CA000491CC9B24554491CC9B20BF801A0491CE2
:100CB000CEB29DF802002121FFF794FC9DF80000C0
:100CC00000222321FFF78EFC9DF80100401E0C2816
:100CD00002D301208DF801009DF80110C9480022BF
:100CE00000EB81004021FFF76AFC9DF80A005728BD
:100CF0007CD1C1210BF80610761CF1B2F2220BF860
:100D00000190491CC9B258460BF80120491CCEB2CB
:100D10009DF809104FF0F00E092906D231318155A6
:100D2000761CF1B200F801E019E0A1F109025A2A9B
:100D300011D2491C0A23B1FBF3F29046303282559E
:100D4000761C03FB1811F6B230318155761CF1B2D6
:100D500000F801E006E08455761CF1B24454491CC9
:100D6000C9B24454491CC9B2A54E4454491C9DF80B
:100D70000020B38FC9B29A4239D19DF8012096F86C
:100D800038309A4233D19DF8022096F82C309A429E
:100D90002DD14554491CC9B23A2200F801C0491C62
:100DA000C9B24254491CC9B24554491CC9B247543E
:100DB000491CC9B24254491CC9B200224554491CBD
:100DC000C9B20BF801A0491CCEB29DF80400212144
:100DD000FFF708FC9DF8050000224021FFF702FC08
:100DE0009DF8060000222321FFF7FCFB36E0445467
:100DF000491CC9B200224554491CC9B200F801C0BF
:100E0000491CC9B24754491CC9B24454491CC9B20F
:100E10004454491CC9B24554491CC9B20BF801A03D
:100E2000491CCEB29DF802002121FFF7DBFB9DF8A3
:100E3000000000222321FFF7D5FB9DF80100401E92
:100E40000C2802D301208DF801009DF801106D4897
:100E5000002200EB81004021FFF7B1FB9DF80A0062
:100E60004B287FF4B8ACC1210BF80610761CF1B208
:100E7000F2220BF80190491CC9B20BF80120491C61
:100E80009DF80900C9B209280BD231300BF80100D6
:100E9000491CC8B2EA210BF80010401CC0B2E52181
:100EA00015E0A0F109025A2A16D2401C0A23B0FB11
:100EB000F3F2904630320BF80120491C03FB180076
:100EC000C9B230300BF80100491CC8B2EA210BF856
:100ED0000010401CC1B20BE00BF80140491CC9B224
:100EE0000BF80140491CC9B20BF80140491CC9B2BA
:100EF0005846434A4454491C9DF80030968FC9B265
:100F0000B3427FF440AC9DF8013092F83860B342B0
:100F1000F7D19DF8023000E0CFE092F82C20934208
:100F2000EFD116E4C0210BF80610761CF1B2C222F4
:100F30000BF80120491CC9B22E220BF80120491CD4
:100F4000C9B2C1220BF80120491CC9B25B460BF89B
:100F50000180491CC9B20BF80190491C9DF8096039
:100F6000C8B2092E03D231361E5414E04FE0A6F168
:100F700009015A290ED2761C4FF00A08B6FBF8F187
:100F800001F130021A54401C08FB1161C0B230312B
:100F9000195403E01C54401CC0B21C54401CC1B284
:100FA000174A5C541846491C9DF80030968FC9B208
:100FB000B34240D19DF8013092F83860B3423AD143
:100FC00000E050E09DF8023092F82C20934232D19C
:100FD0004554491CC9B23A2200F801C0491CC9B2A3
:100FE0004254491CC9B24554491CC9B24754491C12
:100FF000C9B24254491CC9B24554491C04E049E0F5
:1010000000400240F4EA0200C9B200F801A09DF8D5
:10101000040000222121FFF7E5FA9DF805000022D7
:101020004021FFF7DFFA9DF8060000222321FFF799
:10103000D9FABDE8FE8F4454491CC9B24554491C35
:10104000C9B200F801C0491CC9B24754491CC9B211
:101050004454491CC9B24454491CC9B24554491CA2
:10106000C9B200F801A09DF8020000222121FFF77B
:10107000B9FA9DF8000000222321FFF7B3FA9DF88A
:101080000100401E0C28FFF49DAB01208DF80100EB
:10109000FFF798BBA2F109035A2B0DD2521C0A2567
:1010A000B2FBF5F303F130064654491C05FB13224D
:1010B000C9B23032425403E04454491CC9B24454CA
:1010C000491CC9B20BF80140B3E770B504460846A5
:1010D00015461E46FFF722F9FF4B0146FF2804D1B3
:1010E00006E01A54641C401CC0B22278002AF8D1D1
:1010F000FA480078002804D0002E02D029445F204E
:10110000585470BD2DE9FF4F8146DDE90D048A4634
:101110009346FFF703F92022DFF8C083EE490A2344
:101120004FF0640C012C09D198F8005035B10D181E
:10113000A5F10E05AA706A702A7020E099FBF3F6FB
:1011400003FB16970D183037A5F10E05022CAF7072
:1011500096FBF3F703FB176606F130066E7099FBFA
:10116000FCF606F1300605F80E6B08D198F8006021
:101170002EB1A5F10A05AA706A702A7021E09AFBC7
:10118000F3F603FB16A70D183037A5F10A05032C5B
:10119000AF7096FBF3F703FB176606F130066E702F
:1011A0009AFBFCF606F13006674605F80A6B08D193
:1011B00098F800602EB1A5F10605AA706A702A7031
:1011C00022E09BFBF3F603FB16B70D183037A5F1B1
:1011D0000605042CAF7096FBF3F703FB176606F1C8
:1011E00030066E709BFBFCF606F13006674605F88C
:1011F000066B09D198F8004034B1A5F102050A54F4
:101200006A702A70BDE8FF8F039C94FBF3F203FB26
:10121000124430340C5492FBF3F403FB14220844C0
:10122000A0F1020030324270039991FBF7F101F115
:1012300030010170E6E717B501EB810002EB800099
:10124000C2B29DF80030A64803F00F0100EB131363
:10125000445CA1498C54521ED2B21B788B549DF829
:101260000130521E03F00F04D2B2045D8C54521EA2
:1012700000EB1313D2B21B788B549DF80230521E30
:1012800003F00F04D2B2045D8C54521E00EB131312
:10129000D2B21B788B549DF80330521E03F00F041A
:1012A000D2B2045D8C54521E00EB1310D2B20078FF
:1012B00088541EBD30B58B490123874D91F901201B
:1012C00091F9041000EB80048A4202D105F8243021
:1012D00030BD814D4C1C00EB800005EB8000A2422C
:1012E00001D1037530BD8C1CA24202D180F8283098
:1012F00030BDCC1CA24202D180F83C3030BD0C1D68
:10130000A24202D180F8503030BD4C1DA24202D121
:1013100080F8643030BD8C1DA24202D180F8783054
:1013200030BDC91D8A42FBD180F88C3030BD6E4B78
:101330001A88521E104400B218806C4A00EB8000DC
:1013400002446848136803601279027142781144BC
:1013500041707047F0B5644D644FB5F9004004EB3F
:101360008406641C2C805F4C3E44256835602579DA
:101370003571207061702271A370F0BDF0B5054623
:101380000E461746FEF7C1FF534C0020401C15F8CF
:10139000011BC0B204F8011B1428F7D35FF0000052
:1013A000401C16F8011BC0B204F8011B1428F7D327
:1013B0005FF00000401C17F8011BC0B204F8011BCD
:1013C0001428F7D35FF00000401C13F8011BC0B2D3
:1013D00004F8011B1428F7D3F0BD10B5029CFFF7E9
:1013E000CDFF4048C37882784178A020FFF7B2FF54
:1013F000642094FBF0F0BDE81040C0B2FEF71DBFC2
:101400002DE9FE4340010D4600F58060044602A927
:1014100026F0A5FD694604F1080026F0A0FD01A90B
:1014200004F10C0026F09BFD2846FEF777FF2A4CBE
:10143000202530262554401CC0B24FF021082654E8
:10144000401CC0B24FF0400C04F80080401CC0B2F9
:10145000232104F800C0401CC0B200222554401CC7
:10146000C0B22554401CC0B22654401CC0B2215406
:10147000401CC7B29DF802002121FFF7B3F89DF888
:10148000000000222321FFF7ADF89DF80100401E67
:101490000C2802D301208DF801009DF801001449A9
:1014A000002201EB80004021FFF789F8E5557F1C01
:1014B000F8B23A212654401CC0B204F80080401C07
:1014C000C0B22154401CC0B22654401CC0B204F823
:1014D00000C0401CC6B20DE09AC2072059C00720C8
:1014E0008AEB020020C207207EC00720B00F082030
:1014F000F4EA02009DF8040000222121FFF772F8AF
:101500009DF8050000224021FFF76CF8A555BDE8C5
:10151000FE8300002DE9FF41FB4C0027054627779D
:10152000207E0121022805D0F84A525D552A04D0B8
:1015300065200EE02177BDE8FF8105EB450202EB57
:101540000513F34A02EB830696F83D20D30702D039
:1015500066202077EFE796F83F309B0701D567209C
:10156000F7E7920701D56820F3E7EA4AB6F90830B1
:10157000B2F90020934201DD6920EAE7524293422A
:1015800001DA6A20E5E7012804D1607E00287ED0D8
:1015900001287DD0642020772176A4F85C104FF4D8
:1015A000F87026F053FD65762946A4F85E504FF496
:1015B000FA7026F04BFDD848B761002130F91500CC
:1015C00026F044FDA776A4F8607039464FF4FB700E
:1015D00026F03CFDD148D24D0088401C00F00700A9
:1015E00006EB4000008CADF80000A88B8DF80400DD
:1015F0004FF063024FF0010101A8FEF73CFEC24C20
:101600009DF804009C342070287E8DF804000C2284
:10161000012101A8FEF72FFE9DF804006070287BD1
:101620008DF804001F22012101A8FEF724FE9DF879
:101630000400A0709DF80000E0704FF4FC70216879
:1016400026F03FFD287A8DF804001722002101A81A
:10165000FEF711FE9DF80400207128798DF8040032
:101660003B22002101A8FEF706FE9DF804006071F0
:1016700028788DF804003B22002101A8FEF7FBFD2D
:101680009DF80400A0719DF80100E07101E006E002
:1016900007E04FF4FE70616826F013FD4BE76B2006
:1016A00057E76C2055E72DE9F047974C207E01283D
:1016B0007ED120460127407EA17EC0F1010207FABB
:1016C00002F0954E924D02B211B1012933D037E0AC
:1016D0001423CA21C820FEF74FFD14234FF0FF3218
:1016E000CE21CD20FEF748FD607E00EB400101EBEE
:1016F000001005EB8000B0F90800FEF701FE617EE6
:1017000001EB410202EB011205EB820293691844DE
:1017100048F6A0439061984212DBC01A906136F8F7
:10172000110026F09FFB401C01B2607E36F91000CC
:1017300026F08CFC04E01423CA21C820FEF71CFD0F
:10174000607EA84600EB400101EB001205EB820130
:10175000744AB1F902100025B2F900204FF4F8796B
:1017600002EB8202B1EB420F42DAB4F85810491C86
:1017700009B2A4F858101E293CDB217E012921D191
:10178000A17EF9B936F8100026F06CFB01B266486C
:10179000627E30F9120026F059FC607E36F81000A7
:1017A00026F060FB81B2607E04F0D0FA5F4800E072
:1017B00041E0617E30F91100002126F047FC322023
:1017C00020846084607E5149C0F10100085C552886
:1017D00007D02576A4F85C500021484626F036FC58
:1017E00008E0A776A4F8607001214FF4FB70F5E7DC
:1017F000A4F85850617E01EB410000EB0112C1F1E9
:10180000010101EB410303EB011108EB820208EB3C
:101810008100B2F90220B0F9020082420BDBA07E07
:10182000012808D12576A4F85C504846BDE8F04769
:10183000002126F00BBCBDE8F08770B5324C0546A0
:101840000026207EF8B904F11E04022104F8061CCB
:10185000E1874FF4F87026F0F9FBC5EB0510810025
:10186000E5860D46A1874FF4F97026F0EFFB294677
:101870004FF4FF7026F0EAFB0020208760860126E7
:10188000304604F025FB304670BD10B51E4C207E5E
:10189000022812D104F11804A08F04F019FB0020D3
:1018A0002087A087E0872070A4F844000146BDE8A7
:1018B00010404FF4F87026F0C9BB10BD70B5184C3D
:1018C000203C94F838001A4D297808440C2803D994
:1018D000A08F401C01B201E0B4F93C10B82026F002
:1018E000B5FB94F83810287801440C2994F8381086
:1018F00000D90C380144B62026F0A8FB94F82C003F
:101900001C2817D91C2117E00800001004C107206B
:1019100008F70720A2C0072066E40200F4000010C8
:10192000204002409CC0072082E4020062E40200E2
:1019300062C0072094F82C10B42026F087FB04F135
:101940002004217A4FF0AE0026F080FB2179B020F0
:1019500026F07CFB2178BDE87040B22026F076BBF3
:1019600010B5FA48FA4C007830B3FA48818FFA4A39
:101970001288914220D190F83810F84A128891428A
:101980001AD190F82C10F64A1288914214D190F88E
:101990002810F44A128891420ED190F82410F24A8D
:1019A0001288914208D190F82000F04909888842B5
:1019B00002D10120E07602E0E07E00280BD0EC4866
:1019C0000088C0B2FFF739FF002804D00020E0767D
:1019D000BDE8104072E710BD70B5DD4C207E0228D6
:1019E0003FD1B4F852004FF461610025884212D211
:1019F000401C80B2A4F8520088420CD3A4F8525084
:101A0000B4F8540038B1401E24F8540F6088401CCC
:101A10006080A4F15404B4F850003C2821D2401C4A
:101A200080B2A4F850003C281BD324F8505F608992
:101A3000401E01B261814FF4F97026F007FB608906
:101A4000A4F1500400280CD125760146A4F85C507E
:101A50004FF4F87026F0FAFABDE87040002004F068
:101A600037BA70BDC3486FF03B010088C0EB00106F
:101A700001EB8000B649A1F8440070472DE9F05F02
:101A8000DFF8CC92BB480026B9F84410BA4F491C85
:101A900009B2A9F84410B0F90000B84DC0EB00122B
:101AA0004FF0010B09F14A044FF00A08B1EB820F25
:101AB00054DBF0B3B2480088D8BBA9F84460267064
:101AC000DFF8C0A2667089F812609AF80000552805
:101AD00011D1B5F9020050280DDDB5F90800FEF767
:101AE0000FFCB7F90010884203DB95F83D00C007F2
:101AF00001D084F800B09AF80100552811D1B5F949
:101B00004E0050280DDDB5F95400FEF7F9FBB7F98A
:101B10000010884203DB95F88900C00701D084F8E3
:101B200001B09948007848B999F81310484629B18E
:101B300000E013E0017E31B1022904D02670667006
:101B400089F8126008E0217801291DD06178012907
:101B50001AD0817C012917D0A9F846604846B9F906
:101B60004610DFF8EC91DFF824A209F16809F1B31F
:101B700083460246491E08B2A2F84600052806DD43
:101B80000F231E22642107E0A9F84680E6E700281B
:101B90001BDD0F231E226921E120FEF7EDFABBF8C1
:101BA0004600052811D1B5F90800FEF7A9FBA9F8F0
:101BB0000000B5F95400FEF7A3FBA9F80200BAF93A
:101BC0000000FEF79DFBABF826006148B0F8460028
:101BD000002841D1AB46B5F90800FEF791FB5C4DFA
:101BE0006C352880BBF95400FEF78AFB00E038E032
:101BF0006880BAF90000FEF783FBDFF854A1AAF869
:101C00002800AAF84860B9F90000B5F900100844A6
:101C1000B7F90010884202DA2078012817D0BBF902
:101C20000200C82804DD00212670084603F06AFD82
:101C3000B9F90200B5F902100844B7F9001088425A
:101C400002DA6078012805D0BBF94E007AE0AAF8E4
:101C50004880EDE7AAF84880BDE8F09F6670002153
:101C600008E1B0F94810E9B380460246491E08B2BF
:101C7000A2F84800052803DD0F23C822642104E0F0
:101C800000281BDD0F23C8226921E120FEF774FA2A
:101C9000B8F84800052811D1B5F90800FEF730FB67
:101CA000A9F80000B5F95400FEF72AFBA9F80200D4
:101CB000BAF90000FEF724FBA8F826002448B0F883
:101CC00048000028C8D1DFF8B480B8F90800FEF752
:101CD00017FB1F4D6C352880B8F95400FEF710FB38
:101CE000688000E05AE0BAF90000FEF709FBDFF86F
:101CF0006080A8F8280088F81160B9F90000B5F9EB
:101D000000100844B7F90010884202DA2078012850
:101D10003ED01A48B0F90200C82804DD0021267020
:101D2000084603F0EFFCB9F90200B5F902100844C7
:101D3000B7F90010884202DA607801282BD00F48EA
:101D4000B0F94E00C82889DC86E7000062C0072091
:101D5000080000100040024012C1072010C10720F7
:101D60000EC1072008C107200AC107200CC10720A7
:101D700014C10720B2C00720A2C0072008F707201F
:101D8000E0C0072004C1072069C007207AC10720EE
:101D900088F811B0C7E788F811B05DE78146407C4C
:101DA0000028D1D00F2300226E21E120FEF7E4F9B4
:101DB000B5F90800FEF7A4FAB7F90010884207DD6C
:101DC0002078012804D100212670084603F09AFCEF
:101DD000B5F95400FEF794FAB7F90010884206DD11
:101DE0006078012803D16670002103F08BFC207815
:101DF00030B9607820B999F8121009B989F81160E2
:101E0000E620FEF7D0F918B1FF480068E7280AD0AD
:101E1000FE48FF49B0F90000B1F9001000EB800066
:101E2000B1EB400F90DA89F811602078F94E012863
:101E30000FD1B7F90000410091FBF8F0B6F900109E
:101E4000884206DA95F83D00C00702D1012103F06F
:101E500059FC60780128A0D1B7F90000410091FB3E
:101E6000F8F0B6F90010884297DA95F88900C007B3
:101E700093D10121BDE8F05F012003F043BC2DE9BF
:101E8000F047E54CB4F84200401C00B2A4F8420010
:101E9000B0F5E16F03DB0020A4F84200CBE4B0F51D
:101EA000DF6F11D90F2301226421D220FEF764F9DC
:101EB0000F230022D821D720FEF75EF90F2300223E
:101EC000D821DC20FEF758F9B4F94200A0F5E06112
:101ED0000739E3D1D14FD24CD24D388821880A2618
:101EE000DFF84483DFF84493884210D0B5F9080046
:101EF00090FBF6F000B2FEF703FAB8F90010884242
:101F000005DAB4F90010B9F9000026F09FF87888D6
:101F100061888842C2D0B5F9080090FBF6F000B2A3
:101F2000FEF7EEF9B8F900108842B7DAB4F90210FA
:101F3000B9F90200BDE8F04726F088B810B5BC4CEE
:101F4000082200212088401C20802046FEF7A9F9A5
:101F5000B448B4F9001000EB410142880A84B0F89B
:101F60004E00A1F86C0010BD70B5B348B14DB0F98A
:101F70000030B248B5F9002090F900109A421BDAFF
:101F8000AF4C0A290EDAAF4BB3F900300F2B0BDD43
:101F9000491C49B201700A2906DB2280012002F0A7
:101FA000EFFE01E00A210170B5F90000B4F900105C
:101FB000884200DA208070BDFDDD0029FBD0491E7B
:101FC00049B201700029F6DCBDE87040002002F043
:101FD000D7BE2DE9F05F90489B499F4C808DB1F9A9
:101FE00000109C4F484399498E4D90FBF1F0914968
:101FF0004FF4FA6608809648B4F90020B7F900104B
:10200000B0F908305A434FF42F7392FBF3F2AA80D1
:10201000B0F91820B7F90270574397FBF6F2A5F80C
:102020004E20B0F90270B4F902207A4392FBF3F229
:10203000A5F85020B0F90400414391FBF6F0688008
:10204000DC20FEF7D0F8F0BB754BDFF8D0A1DFF84D
:102050000CB21888BAF8001045F6386E401ABBF971
:10206000001045F6926441437D484FF4967745F25F
:102070001362008845F2116C4FF47A79704501D0F3
:10208000A04202D191FBF7F10DE0A0F5A848B8F508
:10209000FD7803D0904201D0604502D191FBF6F16A
:1020A00001E091FBF9F101EBD1714910494229811D
:1020B0005988BAF80230CB1ABBF90210594370455F
:1020C00003D0A04200E012E002D191FBF7F00CE057
:1020D000A0F5AA43FA3B03D0904201D0604502D15B
:1020E00091FBF6F001E091FBF9F0A5F85400584A95
:1020F00040F6B73B0124B2F90C004FF0000801464E
:10210000A0F221308146584502D285F80C8000E0CB
:102110002C73544892461346B0F9002044F6206CC4
:102120004A4392FBFCF2A2F211126A81B3F90E202B
:10213000A2F221339E465B4502D285F8588001E029
:1021400085F85840B0F90200364B504390FBFCF044
:10215000A0F21110A3F85600434BBAF904005746F9
:10216000B3F90030584390FBF6F0294B1880BAF9C8
:102170000A303E48A3F221355D4502D2C0F8008006
:1021800000E004603A4D40F6B736B5F90050AB4672
:102190005D4395FBFCF3374DA3F211132B80B7F988
:1021A00014301D46A3F22133B34202D2C0F804809A
:1021B00000E04460DFF8B8A02E4EBAF902305D436B
:1021C00095FBFCF5A5F211157580B7F9065040F6A0
:1021D000B7362F46A5F22135B54202D2C0F80880A5
:1021E00000E08460BAF904507D4395FBFCF5A5F24C
:1021F0001115204F2DB2AA46BD8040F6B735AE4529
:102200003AD2C0F8008038E014C007209CC00720F4
:102210007CC107207EC1072008000010CAC3072028
:102220006AF5072008F70720AAC007208EE40200FD
:10223000F400001088C107209EC00720FDC30720BE
:10224000FA0000107CC00720D2C30720B0AD010007
:10225000C4670010C4000010C8000010CC000010BB
:1022600006C10720CEC30720D60000102C0F08207F
:10227000D4C307205AC2072004600BFB02F696FB6A
:10228000FCF6A6F211163E80A94502D2C0F80480E1
:1022900000E044604B4393FBFCF1A1F2111109B241
:1022A000F84BF94D79808C461A88B5F900104FF437
:1022B0007A67514391FBF7F1F44A89B2F44E1180E9
:1022C000642901D3F349098831805B88B5F902108C
:1022D0004FF00A09594391FBF7F15180EE49EF4B5A
:1022E000EF4FB1F90020B3F90050554341F270723D
:1022F00095FBF2F53D80B1F90260B3F902507543E8
:1023000095FBF2F57D80B1F90450B3F904306B43CD
:1023100093FBF2F3BB80E34BB1F90660E24FB3F9F4
:102320000050754395FBF2F53D80B1F90860B3F9B3
:102330000250754395FBF2F57D80B1F90A50B3F96F
:1023400004104346694391FBF2F1B980D7490CF27E
:102350001112DFF864C30A800AF211124A8042683F
:102360000A7280684872D248D249A0F83C80B1F91C
:102370000020002A06DDBCF90A5095FBF9F19942CC
:1023800000DD8187012A0BDDBCF8621041B9BCF980
:10239000483093FBF9F1B0F93C30994200DD818778
:1023A000022A0BDDBCF8A01041B9BCF9863093FBC2
:1023B000F9F1B0F93C30994200DD8187BF48002136
:1023C000DFF8FCE2B0F900301D469B1C34E000BF92
:1023D000C1EBC10000EB40060EEB8600C678192E5B
:1023E0001CD28679C77906EB07264662067A477AB9
:1023F00006EB07260662867AC77A06EB0726C661D1
:10240000067B8662467B80F85260867B80F842605D
:10241000067C477C06EB0726C6640BE0C0F81C80F0
:10242000C0F82480C0F82080C0F8288080F842805E
:10243000C0F84C80491CC9B29942C9DBA1480021AF
:10244000E246A0F80080CB460DE000BFC1EB41168C
:102450000AEB4603B3F90A6096FBFBF30688F31A0E
:10246000491C0380C9B29142F0DB974900227346B0
:10247000A1F800800FE000BFC2EBC20606EB4606E3
:1024800003EB8606F778052F03D2766A0F883E4461
:102490000E80521CD2B2AA42EEDB02880988114497
:1024A00009B20180002901DAA0F800808748B0F95C
:1024B0000050F5B30022DFF818C264E0C2EBC2009E
:1024C00000EB400003EB800090F8931619293AD2F4
:1024D00000F296600178467801EB062602EB420195
:1024E0000CEB4111CE618678C77806EB0726CE62E9
:1024F0000679477906EB07268E6186790E62C679E2
:1025000081F84660067A477A06EB07268E62867A5D
:10251000C77A06EB07264E6281F80280067B81F8B7
:102520005960467B81F85A60867B81F85860C67B8B
:1025300000E02AE081F85B60067C81F85C60407C0A
:1025400081F85D001DE002EB42000CEB4010192603
:10255000C0F81C80C0F82C80C0F81880C0F820801B
:1025600080F84680C0F82480C0F82880867080F803
:10257000598080F85A8080F8588080F85B8080F815
:102580005C80521CD2B2AA4298DB5249DFF84891D3
:10259000088801285AD1514E002500BFC5EBC5005F
:1025A00000EB400206EB4201887B4B7B00EB0327EC
:1025B000C5EB45130AEB4300C7814F7816F812208C
:1025C00007EB02222AF81320CA788B7802EB032249
:1025D00042800A7982804A79C280CA798B7902EB7B
:1025E000032202814A7A0B7A02EB03224281CA7AE1
:1025F0008B7A02EB032282810A7B4282CA7BC282EF
:102600004A7C0B7C02EB032282828A7C028291F854
:102610002220428391F82320828391F824100183A1
:10262000303032220021FDF731FE6D1C15F0FF0520
:10263000B4D096F82900642801D018B104E089F8D4
:10264000154001E089F81580A9F81600022189F8E3
:102650000D1020494846098801295FD1BAF9083090
:102660005A4693FBF2F30380BAF90A3051461BB184
:1026700093FBF2F3438036E08B899BB3184BB3F99D
:102680000830F5E70A010010D000001060C20720F2
:10269000A2C1072088C10720E20F08200AC4072032
:1026A00066C20720100100106CC20720860F0820A8
:1026B00008000010E8C0072048F80720EAC00720FB
:1026C0001CF907207EC1072002010010ECC0072082
:1026D0009C030820E0C0072002F90720746800105E
:1026E00008F70720FFE7B1F90E30642493FBF4F3F9
:1026F00043814B8A03720B8AC371B1F9143093FB87
:10270000FBF2C2818A888280BAF816100174417D7A
:1027100011B9017D002901D089F80D80BDE8F09F35
:10272000F84AF9481178052901D0012905D15178D5
:1027300019B9F6490978552902D0F549098803E005
:102740000178002901D0491E01707047F1484168A5
:1027500021F4402141F480214160416821F440315D
:1027600041F480314160416821F4404141F48041AD
:102770004160416C21F4402141F400214164416CED
:1027800021F4403141F400314164416C21F4404175
:1027900041F400414164E048016821F0E0610160DA
:1027A000016841F400110160016821F48031016089
:1027B000016821F47F4141F4807101608115C1609D
:1027C000D6488903016070472DE9F041D44C6088F8
:1027D0002188401A00B203F06DFCA51D2880A08856
:1027E0006188401A00B203F065FC6880A0882188E7
:1027F000401A00B203F05EFC4FF49672A880A4F178
:102800009001904201DAA0880AE0B5F902009042F6
:1028100001DA608804E0B5F90000904201DA20880E
:10282000C88591F802C00023BCF1000F22D0BD483A
:10283000B1F92E20046814440460446814444460D0
:10284000846814448460C4682244C260CA8E521CE6
:1028500012B2CA86B2F5805F00DBCB86B1F93620B2
:1028600094052FD1921250F8224024128C8540F802
:10287000223027E0AC4FC8780C7907EB8015B1F90E
:102880002E2045F82420A20710D100252A4607EB68
:10289000801600BF56F82270521CD2B23D44102A56
:1028A000F8D32A119F4D203D25F81020401CC0B2BE
:1028B000C870102806D3641CE0B2CB7008711028D1
:1028C00000D30B710CF1010C4B701CF00100924A0B
:1028D000887005D0106820F0FF00001D106034E003
:1028E000C97808070028106820F0FF0002DB00F11B
:1028F000010001E000F1020010608C48036843F021
:1029000080530360036A43F080430362036E43F025
:1029100080630366CB07436908D043F0805343616B
:102920008B07436B05D423F0804304E023F08053EE
:10293000F5E743F0804343634907416F02D421F038
:10294000806101E041F080614167106840F0807073
:102950001060BDE8F081F0B571489038B0F92410EE
:1029600019B1A1F1010181848BE00022714C027444
:1029700013466F49B4F9004011E000BFC3EBC30533
:1029800005EB450501EB8505AE78012E05D1ED7807
:10299000142D02D2057C6D1C05745B1CDBB2A342B6
:1029A000ECDB067C022E6CD341F28833C0E91C2399
:1029B0000023826717E000BFC3EBC30505EB4505A5
:1029C00001EB8505AF78012F0BD16D6A076FBD4212
:1029D00000DD0567476FBD4200DA4567876F3D44FC
:1029E00085675B1CDBB2A342E6DB836F012593FBAB
:1029F000F6F6C667436F03B94567036F64277B43E9
:102A0000476FDFF81CC193FBF7F3ACF1100CA02B60
:102A1000CCF8003000DDC573782B01DAC27330E0EA
:102A2000C07B01282DD100226FF0310327E000BFC9
:102A3000C2EBC20000EB400001EB80008578012D65
:102A40001BD1456AB54205DDB0F85050A5F101052E
:102A5000A0F8505005DAB0F8505005F10105A0F883
:102A60005050B0F950509D4202DAA0F8503004E0C6
:102A7000322D02DD3225A0F85050521CD2B2A242B3
:102A8000D6DB00BFF0BD70B5224801682A4A11406C
:102A90000160264C216841F47C712160C16921F4F8
:102AA0004021C161216E41F000712166416821F031
:102AB00040614160206840F00050206020481F4B7A
:102AC000214902781F4893F83C50B1F90010007872
:102AD000154307D030B1052904DDA56945F480759B
:102AE000A56103E0E56945F48075E56193F88830F8
:102AF00013432CD050B3052929DDA06940F04000D4
:102B0000A06128E020C207203AC0072063C0072048
:102B100016C1072000C002400040034000E100E071
:102B200098000010E4670010C463001000C0092082
:102B30001CF90720EAC00720FF00F0FF08F7072074
:102B4000C6C307203FC007207CC00720FFE7E0691D
:102B500040F04000E061D220FDF745FBFF4D60B141
:102B60002868642809D16868012801D028B108E0E4
:102B7000A06940F00050A06103E0E06940F000501F
:102B8000E061D220FDF72FFBF54E10B128686628D2
:102B900024D03068C00718B3E06F40F02000E06731
:102BA000D220FDF720FB10B1286866281DD03068C0
:102BB000C007E0B1A06940F02000A061D220FDF77D
:102BC00012FB10B12868682816D0E6480078012862
:102BD00017D0A06940F40070A06116E06868DAE7D9
:102BE000A06F40F02000A067DAE76868E1E7E069DD
:102BF00040F02000E061E1E768680028E9D00128A2
:102C000003D1E06940F40070E061D220FDF7EBFAF7
:102C100010B128686F2803D0D348007828B109E0A4
:102C2000686810B1012805D008E0E06940F01000A4
:102C3000E06103E0A06940F01000A061D220FDF740
:102C4000D2FA10B128686B2803D0C848007828B1A0
:102C500009E0686810B1012805D008E0A06940F0DB
:102C60008000A06103E0E06940F08000E061D220D4
:102C7000FDF7B9FA10B12868702803D0BC48007875
:102C800020B908E0686830B1012803D1E06940F05C
:102C90004000E06170BDA06940F04000A06170BDDF
:102CA0002DE9F05FB34C00254FF00108A07D0A2804
:102CB00007D2401CC0B2A0750A2802D3A57584F8BB
:102CC0001780A4F84C50A4F84E50CD20FDF78BFA95
:102CD000DFF8A492DFF8A4A2A0B3A0484FF6FF72D9
:102CE0000168CE2908D0CF2909D0D12909D0D2290D
:102CF0000BD0D0290CD011E0A4F84E200EE0406893
:102D00000AE04068A4F84C0008E0A4F84C2005E074
:102D10004068A4F84C00C043A4F84E00002631E0FF
:102D200008FA06F0B4F84E1083460842C6EBC60017
:102D300000EB400107D009EB810131F8400F401C46
:102D4000088004E023E009EB8100A0F84050C6EBC6
:102D5000C60000EB400109EB8100074640303222FB
:102D60000021FDF793FAB7F94000142801DD87F838
:102D70002C80B4F84C101BEA010F01D087F82C50BE
:102D8000761CF6B2BAF900008642C9DD64E0E07D47
:102D9000F0B300221146CC46BAF900000AE000BFA9
:102DA000C1EBC10303EB43030CEB8303491C83F822
:102DB0002C80C9B28142F3DD00211EE0C3B2202B7A
:102DC00000D92023A67F864200DB00260E44F6B2FF
:102DD000B6FBF3F703FB1763C3EBC30303EB430338
:102DE0000CEB8306B378022B01D0012B03D1521CCC
:102DF00086F82C50D2B2491CC9B2814204DA604B29
:102E0000B3F900309A42D9DB5E49B1F9001000E015
:102E100022E03C290EDA00210AE000BFC1EBC1022A
:102E200002EB42020CEB8202491C82F82C50C9B220
:102E30008142F3DD5449098871B100210AE000BFE5
:102E4000C1EBC10202EB42020CEB8202491C82F888
:102E50002C80C9B28142F3DD002163274846BAF9CC
:102E600000200DE0C1EBC10303EB430300EB830340
:102E7000DE6B1EB183F82C70761EDE63491CC9B26E
:102E80009142EFDB80F8D45080F82851E57500219D
:102E9000E5740B4612E000BFC3EBC30505EB450527
:102EA00000EB8505AE78012E06D1E67C761CE67433
:102EB000ED698D4200DDA9B25B1CDBB29342EBDB16
:102EC000A4F840102AE470B530480A21304D036858
:102ED00000242868B3FBF1F2B0FBF1F62D48B242B2
:102EE0000AD102780F2A01D2521C0270D0B20A28ED
:102EF00003D32948036000E004702B602748284B67
:102F0000B0F90020B3F90000B2FBF1F5B0FBF1F12C
:102F100024488D420AD101780F2901D2491C017041
:102F2000C8B20A2803D32048028000E004701A8047
:102F300070BD2DE9F0410746C0EBC7000E4900EB1C
:102F4000400011F82020032A76D101EB800494F888
:102F50004250A807B4F9460039D527E014C007202D
:102F600020C00720E1C10720C3000010C2000010EC
:102F7000C7C30720080000101CF90720EAC007207B
:102F800004C407207CC0072020C4072010C40720E9
:102F90001801001016C4072018C2072014C4072007
:102FA0001C0100101E010010A8C107204FF49661FB
:102FB00088421ADA401C00B2A4F84600884214DBAA
:102FC000A4F846106078C0070FD1012209E060B173
:102FD000401E00B2A4F8460038B96078C00704D09B
:102FE00000220021384602F034F92807B4F94800DD
:102FF0004FF00A064FF000010ED50A2820DA401CD7
:1030000000B2A4F848000A281ADBA4F848606078E7
:10301000800715D4012209E000280EDDA0F101008F
:1030200000B2A4F8480058B94FF000024FF0010177
:10303000384602F00EF903E04EE001DAA4F8481039
:10304000E806B4F94A000ED50A2817DA401C00B287
:10305000A4F84A000A2811DBA4F84A606078400707
:103060000CD4012206E048B1401E00B2A4F84A0088
:1030700020B900220221384602F0EBF86078000700
:1030800001D0042011E0F948007820B1E07814283C
:1030900001D9052009E094F84200800601D50220FC
:1030A00003E0E078142801D20120A070E0780A281B
:1030B00094F82C0002D340F0800001E000F07F0083
:1030C000EB4984F82C00B4F95000B1F92010084401
:1030D00020634FF47A7060633BE470B5E5490020EB
:1030E000E54DB1F90C200121034600BF01FA00F4BF
:1030F000224201D0295400E02B54401CC0B20C28BD
:10310000F4D3DE4C2878DE4E217881420CD0B6F91B
:103110000010012908DB01287ED0002301220B21A9
:10312000D8A000BF23F050F96178687881420BD0B5
:10313000B6F90010022907DB01286ED00023022215
:103140000B21D5A023F040F9A178A87881420BD0BB
:10315000B6F90010032907DB01287CD000230322E5
:103160000B21D2A023F030F9E178E87881420BD02E
:10317000B6F90010042907DB012872D000230422CD
:103180000B21CFA023F020F92179287981420BD09F
:10319000B6F90010052907DB012867D000230522B6
:1031A0000B21CCA023F010F96179687981420BD012
:1031B000B6F90010062907DB01285CD0002306229F
:1031C0000B21C9A023F000F9A179A87981420BD085
:1031D000B6F90010072907DB012851D00023072288
:1031E0000B21C6A023F0F0F8E179E87981420BD0F9
:1031F000B6F90010082907DB012846D00023082271
:103200000B21C3A023F0E0F8217A287A81420FD065
:10321000B6F90010092901E013E017E008DB0128E6
:1032200038D0002309220B21BEA000BF23F0CCF828
:103230000020295C2154401CC0B20C28F9D370BD79
:1032400009E001231A460B21BBA06BE701230222F0
:103250000B21BEA076E7012303220B21C0A081E74A
:10326000FFE7012304220B21C2A08BE701230522E3
:103270000B21C5A096E7012306220B21C7A0A1E7D9
:10328000012307220B21CAA0ACE7012308220B214E
:10329000CCA0B7E7012309220B21CFA0C6E770B568
:1032A000C820FCF7A0FFD1490022A0B3D04C0123D5
:1032B0002068C92803D0CA28104611D02CE000206D
:1032C00000EB400404EB001411F82450322D02D21C
:1032D0006D1C01F82450401CC0B20228F0D325E038
:1032E000D4F8045003FA00F4254200EB400409D05E
:1032F00004EB001611F82640322C07D2641C01F8AA
:10330000264003E004EB001401F82420401CC0B266
:103310000228E7D30AE01FE000EB400404EB0014AE
:10332000401CC0B201F824200228F5D35FF0000051
:1033300000EB400404EB001411F8245001EB84046A
:10334000142D02D984F83C3001E084F83C20401C64
:10335000C0B20228ECD372E700EB400303EB00138A
:10336000401C01F8232001EB8303C0B283F83C200A
:103370000228F1D363E72DE9F8439E4A9E4E0021CF
:10338000B2F90020B6F900309C4C084691464FF047
:10339000010C02270D46984205DBC0EB401204EBFE
:1033A0004202958416E0B9F1000F05D0C0EB40123F
:1033B00004EB4202A2F824C0C0EB401204EB42022C
:1033C000B2F81E80B8F1000F01D0978402E0491CCA
:1033D0009584C9B2401CC0B20328DCD388485FF092
:1033E00000070180B6F90000B84206DDC7EB4710C0
:1033F00004EB40008046808C10B3C7EB471004EB11
:103400004000C5867F1CFFB2032FEBD3B6F9002026
:103410000020904205DCC0EB401104EB4101898C97
:1034200041B1C0EB401104EB41014D810D818D8014
:103430004D820D82401CC0B20328EAD3BDE8F88358
:10344000B8F8120064214843B8F9101000B290FB9C
:10345000F1F0ADF80000642200216846FCF716FF89
:10346000BDF80010A8F83610CCE7000069C00720AE
:1034700008000010E20F0820A40F0820BC6800100C
:10348000F4C007204176746F6D6174202331206988
:1034900073204F46460000004176746F6D617420C2
:1034A0002332206973204F46460000004176746F36
:1034B0006D6174202333206973204F46460000005D
:1034C0004176746F6D6174202334206973204F46F8
:1034D000460000004176746F6D61742023352069C9
:1034E00073204F46460000004176746F6D61742072
:1034F0002336206973204F46460000004176746FE2
:103500006D6174202337206973204F464600000008
:103510004176746F6D6174202338206973204F46A3
:10352000460000004176746F6D6174202339206974
:1035300073204F46460000004176746F6D61742021
:103540002331206973204F4E200000004176746FB4
:103550006D6174202332206973204F4E20000000DB
:103560004176746F6D6174202333206973204F4E50
:10357000200000004176746F6D617420233420694F
:1035800073204F4E200000004176746F6D617420EF
:103590002335206973204F4E200000004176746F60
:1035A0006D6174202336206973204F4E2000000087
:1035B0004176746F6D6174202337206973204F4EFC
:1035C000200000004176746F6D61742023382069FB
:1035D00073204F4E200000004176746F6D6174209F
:1035E0002339206973204F4E2000000008F7072080
:1035F00014C00720F6C30720E8C0072048F80720BA
:10360000F60000102DE9F041FA48FB491424B0F906
:103610000070FA48B1F90220B1F90050D0E9006316
:10362000F748214617B1012F03D005E0028013B9F6
:1036300002E0058006B10180F24FDFF8CC83B7F9D4
:10364000007017B1012F04D008E0A8F800201BB9C2
:1036500004E0A8F800500EB1A8F80010EB49EC4BBC
:1036600009881980EB490988C1B9EB49EB4DB1F9DB
:103670000020EB49002AB1F9001003DDB5F93660EE
:103680008E420BDB012A03DDB5F974608E4205DB47
:10369000022A05DDB5F9B2208A4201DA0A21198031
:1036A000E04DB0F90010B3F90020B5F900009142E7
:1036B00001DA401C05E0DC4AB2F90020914201DD4C
:1036C000401E28800A220021D648FCF7DFFDB5F90C
:1036D0000010D64801250026092901DD057002E009
:1036E000012900DA0670D249B8F90000D14FB1F9CA
:1036F0000010884202DD3888401C06E0CE49B1F94E
:103700000010884202DA3888401E38800A220021E0
:10371000C848FCF7BBFDB7F90000C849092801DD1E
:103720000D7002E0012800DA0E70C64A0020C4497C
:10373000B2F900200FE000BFC0EBC00303EB43036E
:1037400001EB8307BB6AA34203DDFF780A2F00D297
:10375000DCB2401CC0B29042EEDBBB48BB4FB0F9BC
:103760000000844202DD3888401C06E0B848B0F909
:103770000000844202DA3888401E38800A22002184
:10378000B248FCF783FDB7F90000B249092801DD12
:103790000D70A1E40128FCDA0E709DE42DE9FC5FB8
:1037A0000546AD4830F9151011B1491E20F8151025
:1037B000A94A121D32F9151011B1491E22F815102F
:1037C00005EB450101EB0513A44901EB8304A44B70
:1037D000B4F90810B3F90030994202DD642320F8EF
:1037E0001530002902DA642122F815109A4930F8C0
:1037F0001530843900264BB132F8153033B1B1F8A9
:103800006430B3B140F6B830A1F86200A1F862604C
:1038100094F83E00401CC0B284F83E000A2801D350
:1038200084F83E608F4FDFF840823888322809D014
:1038300017E04FF41673A1F8643020F8156022F8F1
:103840001560E3E794F83C00F8B9B4F90200502899
:103850001BDA94F83D00C00717D10121284601F07A
:1038600051FFB7F90000C8280FDDB4F90800FCF7D4
:1038700047FDB8F90010884207DD94F83D00C00705
:1038800003D00021284601F03DFF7748B4F9081025
:10389000B0F900004042814212DD607B0A280CD260
:1038A000401CC0B260730A2875D3A07B002872D078
:1038B000A673284601F09BFE6DE00A2060736AE063
:1038C00069DA607BF0B3401E10F0FF00607362D1D4
:1038D000A07BB8BB0120A0736448654F0088401CE2
:1038E00000F0070004EB4000008CADF80400B88B3A
:1038F0008DF800004FF063024FF001016846FCF7BD
:10390000BAFC04F11C049DF800002076387E8DF886
:1039100000004FF00C024FF001016846FCF7ABFCD1
:103920009DF800006076387B8DF800001F22012191
:103930006846FCF7A0FC9DF80000A0769DF8040006
:10394000E07600E027E0387A8DF8000017220021A9
:103950006846FCF790FC9DF80000207738798DF8D8
:1039600000003B2200216846FCF785FC9DF8000022
:10397000607738788DF800003B2200216846FCF71C
:103980007AFC9DF80000A0779DF80500E07726807E
:103990006680A4F11C0448F6A04894F83E0040BBA1
:1039A000B4F908106069DFF8CCA00844DFF8C890CB
:1039B00045F2555B606140456BDB39F915205A458E
:1039C00003D12E4830F8157001E039F815703AF837
:1039D000150024F047FA80B2B84251D2616900F173
:1039E0000100A1F50041A1F54A6161613AF9152094
:1039F00071E09EE0B0C107205AC207202C0F0820BA
:103A000098C10720B2C107209AC10720B4C107207E
:103A100022010010F4C30720E8C0072048F807205F
:103A2000B8C1072020010010B6C10720C300001054
:103A3000BAC1072018C40720BCC10720C20000106B
:103A40001CF90720EAC00720BEC107201AC40720BE
:103A5000C0C10720C7C307208C00001008F707204B
:103A6000AAC007207AC00720A2C00720F4000010D7
:103A70002040024062E4020000C20720F8C1072093
:103A800030D93AF9150039B224F0E0FAC4F81480BC
:103A900028E0FF49884225DC39F915205A4503D131
:103AA000FC4830F8157001E039F815703AF8150047
:103AB00024F0D8F980B2B84205D93AF9150039B2E4
:103AC00024F0C4FA384658B16269401E02EB08017E
:103AD00061613AF9152001B2104624F0B7FA01E00D
:103AE000EB4860613AF8150024F0BCF9014639F959
:103AF0001500584502D1E74830F915004FF47A72A5
:103B0000514308B1B1FBF0F00A21B0FBF1F0208283
:103B1000E1480088012806D1E049C5EB451001EBDA
:103B20004000408A208204F1100064220021FCF74A
:103B3000ADFBA07B012813D1A08B4746B8420ED223
:103B4000B4F90800FCF7DCFBA18B084480B2A08329
:103B5000B84205D3A683E08B401CE08300E0A68337
:103B6000CF48B4F90A10B0F90000814201DD207B92
:103B7000E8B3B4F84000401EA4F840004FF41679B2
:103B800004F140004A460021FCF780FBB4F94000F4
:103B900040F24E27B84205DB94F83F1041F0010196
:103BA00084F83F100A2805DC94F83F0020F001005B
:103BB00084F83F00BB48B4F90A10B0F90000814214
:103BC00001DD207B90B3B4F84200401EA4F842000F
:103BD00004F142004A460021FCF758FBB4F94200C8
:103BE000B84207DB94F83F1041F0020100E01EE00C
:103BF00084F83F100A2805DC94F83F0020F002000A
:103C000084F83F00606C404519DA401C6064404510
:103C100016DBA54F666437F8150024F023F9401C25
:103C200001B237F9150024F011FA09E003E0B4F805
:103C30004000401CA0E7B4F84200401CC6E76664A0
:103C40009A4F3888002854D09948B0F90000484568
:103C5000B4F9020004DAC11700EB9170801003E0A0
:103C6000052190FBF1F000B2A188C1EB400000B249
:103C7000FCF746FB00EB8000400000B20C2190FBFB
:103C8000F1F000B2E080B7F90010884233DDB4F9FA
:103C90000800FCF735FB8749B1F9001001EB810101
:103CA000884228DA84487321B0F90000484364212F
:103CB00090FBF1F0B4F9021000B288421BDA94F8DC
:103CC0003D00800717D4B4F84800401C00B2A0F5AE
:103CD0003061A4F84800B83903D10121284601F029
:103CE00001FFB4F9481040F6BD30814201DBA4F871
:103CF0004800BDE8FC9FA4F84860FAE770B56F4C37
:103D00000026A0790A2807D2401CC0B2A0710A2858
:103D100002D3A67101202072E079052805D2401C4B
:103D2000C0B2E071052800D1E671BE20FCF75BFA55
:103D3000634D30B163480168BF2948D1406828808D
:103D400045E0207AF0B32672594E30882880207ED4
:103D5000022802D15C48008828801E2201215B488D
:103D6000FCF794FA5A485B4A008838B110885749E2
:103D7000401E00B2494BB1F900100CE03088288099
:103D80000BE000BFC0EB401403EB4404401E248949
:103D900000B20C442C800028F4DA11884E4809B98E
:103DA00001882980B0F9002000214548FCF76EFA0F
:103DB0004A480021B0F900204148FCF767FA4FF467
:103DC000077200E003E000213D48FCF75FFAB5F917
:103DD000000062214143642291FBF2F1404B1980C3
:103DE0006621484390FBF2F03E49088070BD2DE902
:103DF000F041324CB4F92A0008B1401E60853A48BF
:103E00003A4D3B4E00882880B6F908000A27002862
:103E100006DAFCF775FA90FBF7F029880844288049
:103E2000B6F95400002806DAFCF76AFA90FBF7F0BE
:103E30002988084428802F49B5F900002E4AB1F995
:103E400000103C2390FBF1F1491CC9B22175B2F975
:103E5000002090FBF2F0401CC2B228486275B0F915
:103E60000050A94201DD018004E0AA4203DA618D1D
:103E700009B90280638522490A8822490AB10A8861
:103E80000280B1F90020BDE8F04101211B483BE070
:103E90006073FFFFF8C10720E0C0072048F8072043
:103EA000BCC00720BAC007207EE40200BEC00720C5
:103EB000ACC00720A2C007209CC00720080000104B
:103EC0009CC1072014C00720A4C00720E2C007201F
:103ED000F6000010E8C0072092C0072094C0072019
:103EE0000001001002C407200201001006C40720D0
:103EF00008F70720A6C00720A8C0072004C4072091
:103F0000B8C00720EAC00720FCF7C0B92DE9F04788
:103F1000F748F84C0088E087F748008810B1F74868
:103F20000088E087B4F9620010B1401EA4F8620076
:103F3000B4F9640010B1401EA4F86400607A002552
:103F40004FF001080A2812D2401CC0B260720A2841
:103F50000DD3657284F80A80617B40461E2906D223
:103F6000491CC9B261731E2901D36573A073E12096
:103F7000FCF739F9E249DFF88CC340F2F239D0B3EB
:103F8000E1480268642A08D0692A0AD06E2A0CD057
:103F9000E52A1ED0E62A1ED0D0E04068618C084495
:103FA000CBE04068618C081AC7E0208C401E00B24C
:103FB00020841E2806DDB1F90000D449B1F90010B3
:103FC000884205DA0A230022E721E620FCF7D4F82C
:103FD000B4E04068B1E0B1F90000BCF900108842DB
:103FE00013DDA0EB01000A2806DDB4F9200000284B
:103FF00002DD401FA1E01DE0B4F9200000284AD0F6
:10400000A17A002947D0401E97E044DA081A0A280E
:1040100007DDB4F9200040F2F731884201DA401D93
:104020008BE0B4F92000B0F57F7F34DAA17A91B348
:10403000401C82E0A07A70B3B548008858BBB4F940
:10404000220060870B226277B24A12888AB1B24A94
:10405000128872B128226277B4F93C20E38F9A4229
:1040600063D0B2EB430F1FDDB4F86210D1B1401E34
:104070005AE021226277B1F90020BCF900108A428F
:104080000ADAA1EB02010A2901DD0A3000E0401C36
:104090006087232004E051E047DD401E6087242034
:1040A000607742E0401F3FE005DA9A4203DDA17BE2
:1040B000D9B3A573DBE79F000526B7FBF6F696425A
:1040C0000BDA9A4209DAB1F90010BCF900209142EA
:1040D000EDDAA17B49B3A57325E0904B964216DD3E
:1040E000BCF90020B3F90030B4F84060D31AB342F1
:1040F00001DD0A3018E0B1F900109142A17B02DA2B
:1041000099B1A573F5E781B1A5730A380CE0B1F94F
:104110000010BCF90020914218DAB3F90030A2EB8C
:104120000302A2F10502401C608772484A460A2138
:104130003A30FCF7ABF8608F6084208479482573AF
:10414000E572774B4246B0F900100DE08FDCECE7EA
:10415000C0EBC00606EB460603EB8606F6781E2E7D
:1041600000D22273401CE072E07A8842F0DB207BB0
:1041700020B94FF416702084608460875D484A46F9
:104180000A212030FCF782F8A572BDE8F0872DE9FE
:10419000F05F674E00206449DFF890814FF00A0B12
:1041A0008246B6F9003024E0624A634C125C34F96E
:1041B0001220B2F5FA6F0A560DDA0A2A08DA521CF2
:1041C00052B20A540A2A12DB012208F800200EE03B
:1041D00001F800B00BE0002A07DD521E52B20A546B
:1041E000002A04DC08F800A001E001F800A0401C4F
:1041F000C0B29842D8DB0024DFF84091504D514FB7
:1042000070E0514830F81400002818F8040001D07C
:1042100078B101E001280CD019F90400002818DB5E
:10422000401E40B209F80400002814DC05F804A080
:1042300011E019F904100A2908DA491C49B209F8F1
:1042400004100A2907DB0120285504E009F804B00E
:1042500001E009F804A0395D285D81423ED0254A7D
:10426000118F491C1187012807D014B3012C25D0C8
:10427000022C28D0032C2BD030E034B1012C09D0F3
:10428000022C0CD0032C0FD028E001231A460F215A
:104290002EA021E0012302220F212FA01CE00123E8
:1042A00003220F212FA017E0012304220F2130A0A9
:1042B00012E0002301220F2130A00DE00023022292
:1042C0000F2133A008E0002303220F2135A003E0D3
:1042D000002304220F2138A022F076F8285D3855FB
:1042E000641CE4B2B6F9000084428ADBBDE8F09FAA
:1042F000AAC0072008000010CCC10720C2C10720B7
:104300007CC107209CC1072014C007209CC0072047
:10431000AEC10720E8C00720F6000010E2C0072069
:104320001CF90720EAC0072008C20720DDC10720CA
:10433000F0C007205EE40200C4670010FEC307203F
:10434000E1C10720FC00001072C20720534B20235C
:104350003120416C61726D00534B20233220416C3F
:1043600061726D00534B20233320416C61726D00EC
:10437000534B20233420416C61726D00534B20233A
:104380003120416C61726D206973206F6666000098
:10439000534B20233220416C61726D206973206F72
:1043A00066660000534B20233320416C61726D2000
:1043B0006973206F66660000534B20233420416CE4
:1043C00061726D206973206F66660000FD49FE4AC8
:1043D0000120087010704870507070472DE9F05F30
:1043E000FB48DFF8F0E3DFF8E4C3B0F90070BEF992
:1043F0000000F94CC0EB0011BCF902506FF01D0A2F
:104400006FF0950B0026DFF8BC83B4F944000AEB8B
:1044100081020BEB8103BD4204DCF04FB7F9007061
:10442000BD4205DA824203DD834201DA88F800608A
:10443000EB4DE146BCF908C0B5F90050E24FBCEBCA
:10444000450F03DC6D42BCEB450F04DA824202DD0E
:10445000834200DA3E706FF0090202EB810175467B
:10446000814220D1207EF0B998F8000001281AD1AD
:104470003878012817D14FF4D67023F0F3FCD949CE
:10448000B1F9001088420ED0D748008858B199F889
:104490003D00C00707D14FF4D67023F0D7FDD348B5
:1044A0000178491C0170CA49B9F902204846B1F99E
:1044B00000108A4206DCC949B0F94E20B1F900105B
:1044C0008A420FDAB5F90010B4F94420C1EB0111AA
:1044D0000AEB8103934205DD0BEB8101914201DA86
:1044E00088F80160BE49B9F95400B1F90010B0EB89
:1044F000410F03DC4942B0EB410F0EDAB5F9000081
:10450000B4F94410C0EB00100AEB80028A4204DDCB
:104510000BEB8000884200DA7E70B5F90000C0EB3A
:1045200000116FF0090000EB8100B4F944108842DB
:1045300022D1207E00BB98F8010001281CD1787898
:10454000012819D14FF4E576304623F08BFC024662
:10455000A448B0F902108A420ED0A348008802286D
:104560000AD199F88900C00706D1304623F06EFDC4
:104570009E480178491C0170B5F900006FF00101F7
:10458000C0EB001001EB8000B4F94410884202D166
:10459000BDE8F05F1AE7A9E62DE9F0039448954AD3
:1045A000DFF854C200784FF000084FF00109F0B373
:1045B00092486146B0F900609148B1F90010B0F935
:1045C00000709048BE42B0F900308F48B0F900400A
:1045D0008E48B0F900508E48B0F9000013DA8342DB
:1045E00003DB844201DB85420DDA8A48B0F9000022
:1045F000814219DA491C09B2ACF80010814213D18A
:1046000082F8008015E0844FB7F90070BE420BDDE0
:10461000834209DD844207DD854205DD21B1491E63
:1046200008B2ACF8000060B11078002800E00DE09E
:1046300009D1BDE8F0030F2301226E21D220FBF740
:104640009BBD82F80090BDE8F0037047ACF8008095
:10465000F7E7724808B5028800210AB1018008BD59
:104660006F4A12884AB14FF4FA6000906DA373A2AA
:1046700078A17EA0FCF7B1FE08BD0122028081482E
:10468000016008BD2DE9F041534C7F4D0026A6770F
:10469000B5F90000002802DDB0F5FA7F02DD2E80BA
:1046A000BDE8F081E07F401CC0B2E0773C2818D321
:1046B0004FF49477E677384623F0D4FB401C00B2E1
:1046C000724AA4F86600B5F90010B2F9002051430F
:1046D000814201DCA4F86660B4F96610384623F024
:1046E000B5FCB4F96600B5F9001090FBF1F0A077C5
:1046F000D6E710B500214FF4947023F0A7FC36499B
:104700000020C87710BD70B561483C4C0025B0F959
:1047100000606048B4F900305F4AB0F90010B3425D
:1047200004DC5E4EB6F90060B3420CDA15805C4AD8
:10473000B2F90020914217DA491C09B20180914276
:1047400012D101200EE079B1B2F9001005290BDA7F
:10475000491C09B21180052906DB05805148007803
:1047600010B1002000F05AFC4F48B4F90010B0F925
:10477000000000EB8000B1EB400F0BDA4B48006803
:10478000002807D1BDE87040142301227221D220F5
:10479000FBF7F2BC70BD2DE9F04F4548DFF83880DB
:1047A00045490378434898F90020B1F90010B0F961
:1047B000000088B023B1022B03D0012B7ED07CE116
:1047C0007DE0AEE00401001008C4072008F70720D0
:1047D00002C40720B2C0072008000010000100102A
:1047E000A2C0072000C20720E6C007200601001073
:1047F0005EC00720C8C307201CC407207CC1072057
:10480000D6C007208AC107208CC107208EC107208F
:104810009EC00720D4C00720D8C00720CCC10720E5
:10482000D2C107202020202020202020202020204E
:1048300020202020202020200000000020202020F8
:10484000E7E0E1EBEEEAE8F0EEE2E0ED2120202007
:104850000000000020202020202020E7E0F0FFE4DE
:1048600020202020202020200000000020202020C8
:1048700020D3F1EAEEF0E5EDEDFBE9202020202049
:10488000000000001CC20720E4C00720EAC0072087
:10489000FAC00720D8C107202C010010FCC0072057
:1048A000FEC0072079C007209CC007200CC207204B
:1048B0005DC00720D0C00720D2C00720DBE08B4EB0
:1048C0008B4B347896F801C0B3F90A501F7BB3F9CB
:1048D000566093F8583022B1012A0FD1552C14D1CB
:1048E0000FE0552C03D185427EDC002F7CD1BCF13A
:1048F000550F03D1864277DC002B75D108B0BDE897
:10490000F08F8D42FADA002FF8D1BCF1550F6DD13E
:104910008E42F3DA002B69D0F0E700BF88F8000080
:10492000ECE7754C734B94F803C0B3F90030A76AF9
:10493000E56F009594F857500195D4F8D050029542
:1049400094F8AB500395D4F82451049594F8FF5093
:104950000595D4F87851069594F85351AE46D4F89D
:10496000CC51079594F8A751D4F87462AB46D4F8AB
:104970002052B146AA4694F8FB5194F84F42A3B393
:10498000874231DCBCF11E0F2ED2012B05DD009ECB
:10499000864229DC019E1E2E26D2022B05DD029EB8
:1049A000864221DC039E1E2E1ED2032B05DD049EB3
:1049B000864219DC059E1E2E7FD2042B05DD069E45
:1049C00086427ADCBEF11E0F77D2052B05DD079EED
:1049D000864272DCBBF11E0F6FD2062B03DD8245CF
:1049E0006BDC1E2D69D202E067E006E042E0072B97
:1049F00003DD814561DC1E2C5FD2012A8CD1CBB353
:104A00008F4289DABCF10A0F86D2022B2BDB009889
:104A1000884285DA01980A28F6D2032B23DB029814
:104A20008842EEDA03980A28EED2042B1BDB0498A6
:104A30008842E6DA05980A28E6D2052B13DB0698A9
:104A40008842DEDABEF10A0FDED2062B0BDB0798B6
:104A50008842D6DABBF10A0FD6D2072B03DB8A4590
:104A6000CFDA0A2DD0D2082B3EDB8945C9DA0A2CD1
:104A70003AD343E738E0224C204BB4F90050B4F964
:104A80000260AA461F4DB3F90030B4F90440D5E9DD
:104A900000C7AD68B94693B182450EDCBCF1000F8A
:104AA0000BD1012B04DD864207DCB9F1000F04D1E4
:104AB000022B04DD844200DC0DB101202EE7012A27
:104AC000D7D18BB18A45D4DABCF1000FD1D1022BFA
:104AD00004DB8E42CDDAB9F1000FCAD1032B03DB20
:104AE0008C42C6DA002DC4D1002017E704C107208C
:104AF00008F70720EAC007201CF90720EEC00720AE
:104B00005AC207202C0F082070B5FF48FF4B0178D0
:104B1000186811B140F0010001E020F001001860B8
:104B20000020FB4C5FF0010200EB400101EB0011A3
:104B300004EB810191F83D10C90707D0451C02FA2A
:104B400005F11D688D430D431D6005E0411C02FA0F
:104B500001F51968A9431960401CC0B20228E3D3CB
:104B6000EC4C0020C0EBC00101EB410104EB8101E2
:104B7000497831B1C51C02FA05F11D688D430D431A
:104B800004E0C11C1D6802FA01F18D43401CC0B253
:104B90001D600C28E6D32846DC4D002114356C5CE2
:104BA00034B101F10F0602FA06F4A043204304E0F9
:104BB00001F10F0402FA04F4A043491CC9B206290A
:104BC000EDD3D54D002118606C5C012C0FD001F1A4
:104BD000180402FA04F4A043491CC9B20429F3D30F
:104BE000CE491860097849B140F0805008E001F1E1
:104BF000180602FA06F4A0432043EDE720F08050A7
:104C000018609A6820EA0201D9605C680C43C449C4
:104C10005C600D8815B124F080745C604C881CB118
:104C20005C6824F000745C608C881CB15C6824F0C3
:104C300080645C60C98819B1596821F000615960CD
:104C40008243D143B74A1961128812B9B64A114357
:104C500019611A6959681140C3E9011070BDF8B5AE
:104C60004FF46065284623F0FDF8401C04463F28B9
:104C700000D9002421B2284623F0E8F940F6026664
:104C8000304623F0EFF83F2800D0204601B23046EE
:104C900023F0DCF9284623F0E5F84FF4806101EBBE
:104CA0004010054655208DF8000000268DF8016063
:104CB00052208DF802008DF803606946284623F0E3
:104CC0004AFA6946281D009623F045FA974CA08BB6
:104CD0008DF80000207E8DF80100207B8DF8020009
:104CE0008DF80360694605F1080023F034FA207A54
:104CF0008DF8000020798DF8010020788DF80200F1
:104D00008B48D0F880018DF80300694605F10C004E
:104D100023F021FA41248DF800408DF801408DF8F0
:104D200002408DF80340694605F1100023F013FAA4
:104D30008DF800408DF801408DF802408DF8034059
:104D4000694605F1140023F006FA8DF800408DF84D
:104D500001408DF802408DF80340694605F11800C6
:104D600023F0F9F98DF800408DF801408DF80240EC
:104D70008DF80340694605F11C0023F0ECF9F8BDFD
:104D80002DE9F843694D604A203D00262F154FF468
:104D90006061012802D000287DD03CE10120107024
:104DA0008846084623F05EF8401C04463F2800D998
:104DB000002421B2404623F049F940F602694846F2
:104DC00023F050F83F2800D0204601B2484623F097
:104DD0003DF9404623F046F807EB401750208DF888
:104DE00000008DF8016041248DF802408DF80360C9
:104DF0006946384623F0AFF96946381D009623F01E
:104E0000AAF905F12005A88B8DF80000287E8DF801
:104E10000100287B8DF802008DF80360694607F1D8
:104E2000080023F098F9287A8DF8000028798DF889
:104E3000010028788DF802008DF80360694607F1BB
:104E40000C0023F088F98DF800408DF801408DF8B2
:104E500002408DF80340694607F1100023F07BF90A
:104E60008DF800408DF801408DF802408DF8034028
:104E7000694607F1140023F06EF98DF800408DF8B3
:104E800001408DF802408DF80340694607F1180093
:104E900023F061F900E011E08DF800408DF8014049
:104EA0008DF802408DF80340694607F11C0023F09D
:104EB00052F90023012202211EA0AAE01348167015
:104EC000B046026822F001020260164A12881AB146
:104ED000426822F001024260084622F0C3FF064603
:104EE0003446B94609EB44176946384623F037F88B
:104EF0009DF80000502844D19DF80100F0BB9DF8BA
:104F0000020041283DD125E069C007201CC00720D0
:104F100008F707201CF90720E1C1072079C0072006
:104F200082C207209AC00720FEFFFFEF2040024008
:104F300000C00F404D61696E20706F776572206907
:104F400073206F6666000000641E00E03F24B442D8
:104F5000C8D160E0694607F1100023F000F89DF821
:104F6000000041280DD19DF80100412809D19DF88C
:104F70000200412805D19DF8030000E001E041282E
:104F800002D0002CE2D0DFE705F12005A88B8DF8D8
:104F90000000287E8DF80100287B8DF80200444631
:104FA0008DF80380694607F1100023F0D4F8287AC1
:104FB0008DF8000028798DF8010028788DF802001E
:104FC0008DF80340694607F1140023F0C4F8FF4848
:104FD000422401788DF8001040788DF801008DF89A
:104FE00002408DF80340694607F1180023F0B3F83A
:104FF0008DF800408DF801408DF802408DF8034097
:10500000694607F11C0023F0A6F801231A46022185
:10501000EFA021F0D9F900BFBDE8F8832DE9F843EE
:10502000F14DF04900262F154FF46062012802D09F
:1050300000287DD00BE1012008709046104622F038
:1050400011FF401C04463F2800D9002421B24046ED
:1050500022F0FCFF40F60269484622F003FF3F2899
:1050600000D0204601B2484622F0F0FF404622F030
:10507000F9FE07EB401751208DF800008DF8016014
:1050800041248DF802408DF803606946384623F0CC
:1050900062F86946381D009623F05DF805F1200599
:1050A000A88B8DF80000287E8DF80100287B8DF8F4
:1050B00002008DF80360694607F1080023F04BF801
:1050C000287A8DF8000028798DF8010028788DF86D
:1050D00002008DF80360694607F10C0023F03BF8ED
:1050E0008DF800408DF801408DF802408DF80340A6
:1050F000694607F1100023F02EF88DF800408DF876
:1051000001408DF802408DF80340694607F1140014
:1051100023F021F88DF800408DF801408DF8024011
:105120008DF80340694607F1180023F014F800E0F9
:105130000DE08DF800408DF801408DF802408DF8AB
:105140000340694607F11C0023F005F87FE0B046F4
:105150000E70104622F086FE064634464FEA0709D6
:1051600009EB44176946384622F0F9FE9DF8000025
:10517000512822D19DF80100F8B99DF8020041287C
:105180001BD105E0641E00E03F24B442E8D15EE09C
:10519000694607F1100022F0E2FE9DF80000412868
:1051A0000BD19DF80100412807D19DF8020041284C
:1051B00003D19DF80300412802D0002CE4D0E1E7A0
:1051C00005F12005A88B8DF80000287E8DF80100E0
:1051D000287B8DF8020044468DF80380694607F16C
:1051E000100022F0B8FF287A8DF8000028798DF899
:1051F000010028788DF802008DF80340694607F118
:10520000140022F0A8FF7148422401788DF80010A4
:1052100040788DF801008DF802408DF80340694612
:1052200007F1180022F097FF8DF800408DF801403B
:105230008DF802408DF80340694607F11C0022F00A
:105240008AFF01231A46022161A021F0BDF800BFA8
:10525000E2E62DE9F84F05460C004FF054060BD05E
:10526000012C04D0022C04D0032C04D004E05526D9
:1052700002E0752600E04C265C49C5EBC503DFF86B
:1052800068A103EB43034FF0000B4FF460604FF451
:10529000806901EB8301012A02D0002A7DD0A3E1BD
:1052A00034B1012C08D0022C0AD0032C0CD00FE012
:1052B0004A7842F001020AE04A7842F0020206E02F
:1052C0004A7842F0040202E04A7842F008024A704A
:1052D00081F85340804622F0C5FD401C87B23F2F25
:1052E00000D9002739B2404622F0B0FE40F60260F5
:1052F00022F0B8FD80B23F2800D0384601B240F617
:10530000026022F0A3FE404622F0ACFD09EB401003
:1053100087B253208DF800008DF801508DF802609F
:10532000D8468DF803B06946384622F014FF694626
:10533000381DCDF8008022F00EFFBAF83C000AF1CB
:1053400020068DF80000307E8DF80100307B8DF84E
:1053500002008DF80380694607F1080022F0FBFE89
:10536000307A8DF8000030798DF8010030788DF8B2
:1053700002008DF80380694607F10C0022F0EBFE75
:1053800041268DF800608DF801608DF802608DF87F
:105390000360694607F1100000E097E022F0DBFEB1
:1053A0008DF800608DF801608DF802608DF8036063
:1053B000694607F1140022F0CEFE8DF800608DF8EA
:1053C00001608DF802608DF8036011E0FA000010B2
:1053D0004D61696E20706F776572206973206F6E02
:1053E0000000000079C00720004002401CF907209F
:1053F000694607F1180022F0AEFE8DF800608DF8C6
:1054000001608DF802608DF80360694607F11C00A9
:1054100022F0A1FE25B1012D20D0022D3AD0E3E0EB
:1054200034B1012C09D0022C0CD0032C0FD0DBE0BE
:10543000002301220421D5A00DE001231A460421F6
:10544000D8A008E0022301220421DDA003E0032309
:1054500001220421E2A020F0B7FFC5E034B1012C05
:1054600009D0022C0CD0032C0FD0BDE00023022267
:105470000421E3A0EFE7012302220421E6A0EAE7EA
:1054800002231A460421EBA0E5E7032302220421AC
:10549000F0A0E0E734B1012C09D0022C0CD0032C91
:1054A0000FD0A1E0002303220421F2A0D3E70123BF
:1054B00003220421F5A0CEE7022303220421FAA04F
:1054C000C9E703231A460421FFA0C4E734B1012C25
:1054D00008D0022C0AD0032C0CD00FE04A7822F01E
:1054E00001020AE04A7822F0020206E04A7822F03D
:1054F000040202E04A7822F008024A7022F0B2FC6C
:1055000084B2A04609EB441087B26946384622F0BF
:1055100026FD9DF80000532824D19DF80100A842E3
:1055200020D19DF80200B0421CD1694607F110005D
:1055300022F015FD9DF80000412813D106E0641EFD
:10554000A4B200E03F244445DCD14DE09DF80100C9
:10555000412807D19DF80200412803D19DF803009E
:10556000412802D0002CEDD0E9E7BAF83C000AF15E
:1055700020048DF80000207E8DF80100207B8DF83E
:1055800002005D468DF803B0694607F1100022F075
:10559000E2FD207A8DF8000020798DF80100207856
:1055A0008DF802008DF80350694607F1140022F0CF
:1055B000D2FD42248DF800408DF801408DF8024064
:1055C0008DF80340694607F1180022F0C4FD8DF8FC
:1055D00000408DF801408DF802408DF80340694687
:1055E00007F11C0022F0B7FD00BFBDE8F88F2DE9E0
:1055F000FC41064600EB460000EB0611BA4800EB02
:105600008104E08B05287AD3B8484FF4606700889E
:10561000801D00F0070004EB4000008CADF8040092
:10562000384622F01FFC401C85B23F2D00D90025D2
:1056300029B2384622F00AFD40F60268404622F0C0
:1056400011FC80B23F2800D0284601B2404622F02B
:10565000FDFC384622F006FC4FF4806101EB40105F
:1056600085B242208DF800008DF8016057208DF83A
:10567000020000268DF803606946284622F06BFD83
:10568000A07F8DF80000E07F8DF801009DF80400F8
:105690008DF802009DF805008DF803006946281D6D
:1056A00022F059FD04F1340105F1080022F053FD08
:1056B00004F1380105F10C0022F04DFD8C4CA08B5B
:1056C0008DF80000207E8DF80100207B8DF802000F
:1056D0008DF80360694605F1100022F03CFD207A48
:1056E0008DF8000020798DF8010020788DF80200F7
:1056F0008DF80360694605F1140022F02CFD00BF0F
:10570000BDE8FC812DE9F84F06467748DFF8E091C7
:1057100006EB460202EB06124FF0000B4FF0420A76
:10572000A9F120094FF460674FF4806500EB820017
:10573000012902D0002927D0D2E110F83D1F41F005
:1057400001010170384622F08DFB401C84B23F2CD1
:1057500000D9002421B2384622F078FC40F60268D5
:10576000404622F07FFB80B23F2800D0204601B2A5
:10577000404622F06BFC384622F074FB05EB4010EB
:1057800085B28DF800A0B5E02DE100004250532015
:10579000233120416C61726D2C206F7665726865D3
:1057A0006174000042505320233120416C61726DBE
:1057B0002C20766F6C7461676520697320757000AA
:1057C00042505320233120416C61726D2C20766F42
:1057D0006C7461676520697320646F776E000000E8
:1057E00042505320233120416C61726D2C20636F35
:1057F0006E6E656374206973206C6F7374000000B3
:1058000042505320233220416C61726D2C206F7600
:105810006572686561740000425053202332204154
:105820006C61726D2C20766F6C7461676520697392
:105830002075700042505320233220416C61726DFC
:105840002C20766F6C7461676520697320646F77B4
:105850006E00000042505320233220416C61726D73
:105860002C20636F6E6E656374206973206C6F7398
:105870007400000042505320233320416C61726D4C
:105880002C206F7665726865617400004250532069
:10589000233320416C61726D2C20766F6C746167CC
:1058A00065206973207570004250532023332041D6
:1058B0006C61726D2C20766F6C7461676520697302
:1058C00020646F776E000000425053202333204144
:1058D0006C61726D2C20636F6E6E656374206973EA
:1058E000206C6F737400000008F70720F4000010AC
:1058F000204002408DF8016043208DF802005F4691
:105900008DF803B06946284622F025FC6946281D1B
:10591000009722F020FCB9F83C0009F120048DF832
:105920000000207E8DF80100207B8DF802008DF8AC
:105930000370694605F1080022F00DFC207A8DF80D
:10594000000020798DF8010020788DF802008DF894
:105950000370694605F10C0022F0FDFB41248DF82F
:1059600000408DF801408DF802408DF803406946F3
:1059700005F1100022F0EFFB8DF800408DF801409A
:105980008DF802408DF80340694605F1140022F0BD
:10599000E2FB8DF800408DF801408DF802408DF853
:1059A0000340694605F1180022F0D5FB8DF8004050
:1059B0008DF801408DF802408DF80340694605F1ED
:1059C0001C0022F0C8FB16B1012E05D088E001238F
:1059D0001A460521FCA003E0012302220521FFA0B5
:1059E00020F0F2FC7CE010F83D1F21F00101017075
:1059F000384622F037FA87B23C46A84608EB4410F6
:105A000085B26946284622F0AAFA9DF8000042288D
:105A100024D19DF80100B04220D19DF80200432816
:105A20001CD106E0641EA4B200E03F24BC42E5D1D4
:105A300056E0694605F1100022F091FA9DF8000049
:105A400041280BD19DF80100412807D19DF80200A3
:105A5000412803D19DF80300412802D0002CE4D056
:105A6000E0E7B9F83C0009F120048DF80000207E41
:105A70008DF80100207B8DF802005E468DF803B0A2
:105A8000694605F1100022F066FB207A8DF80000CF
:105A900020798DF8010020788DF802008DF80360E0
:105AA000694605F1140022F056FB8DF800A08DF830
:105AB00001A08DF802A054468DF803A0694605F1B7
:105AC000180022F048FB8DF800408DF801408DF859
:105AD00002408DF80340694605F11C0022F03BFBB3
