:020000040000FA
:1000000090670010E1000000E5000000E70000003C
:10001000E9000000EB000000ED000000000000001F
:10002000000000000000000000000000EF000000E1
:10003000F100000000000000F3000000911D00002E
:10004000F7000000AD010000D3010000F700000040
:10005000F7000000F7000000F7000000F7000000C4
:10006000F7000000F7000000F7000000F7000000B4
:10007000F7000000F7000000F7000000F7000000A4
:10008000F7000000F7000000F7000000F700000094
:10009000F7000000F700000013060000F700000062
:1000A000F7000000F7000000F7000000F700000074
:1000B0001F2B0000F7000000F7000000F700000011
:1000C000F7000000F7000000F7000000DFF80CD098
:1000D00000F0B2F800480047B11E00009067001021
:1000E00005480047FEE7FEE7FEE7FEE7FEE7FEE71E
:1000F000FEE7FEE7FEE7FEE7CD000000FEE710B5F5
:1001000003F0F4FFBDE8104004F0AAB803F05CBFB0
:1001100003F024BD09B10020704703F097BA002016
:100120007047000070B50D4A0020A2F11401064688
:1001300001F10A030C5C54B11D5CAC4207D1145CA4
:100140002CB1641E14F0FF04145400D10E540C5C46
:100150001C54401CC0B20A28ECD370BDE416001039
:100160000648B0F90810002907D0491E09B20181DC
:10017000002902D1084600F0AAB970470800001013
:1001800090F900308B4200DA027090F9003093420F
:1001900000DD0170704790F900308B4200DA017089
:1001A00090F90010914200DD027070474FF040213D
:1001B000012008600B480168491C01600A48016879
:1001C00021F0FF01091D0160016841F080710160AB
:1001D000704706490120086002484168491C416097
:1001E000704700007414001000400340008000407D
:1001F000704710B50B4A002320244F2908D041290D
:1002000009D052290BD0532908D15360936004E0E0
:10021000C2E9010301E050609060147010BD90606D
:1002200010BD70477C1400100146002000E0401C07
:100230000A5C002AFBD17047064C074D06E0E068D7
:1002400040F0010394E8070098471034AC42F6D31D
:10025000FFF740FF5C4D00008C4D000070B501EBD6
:10026000020410F8015B15F0070301D110F8013BFF
:100270002A1106D110F8012B03E010F8016B01F8E8
:10028000016B5B1EF9D12B0705D40023521E0FD43E
:1002900001F8013BFAE710F8013B02F10202A1EB81
:1002A000030303E013F8015B01F8015B521EF9D56B
:1002B000A142D6D3002070BD00B5002200F008F89E
:1002C000C04380B2010241EA102080B200BD0000AC
:1002D00005E000BF30F8023B891E5BBA1A440129D1
:1002E000F8DC11B1007802EB002290B200EB124072
:1002F00000EB104080B2704770477047FFFFFFFF70
:1003000000209E4A20211154401CC0B2C828FAD3B4
:1003100070470146994A0020401CC0B2135C8B42D2
:1003200001D0C828F8D3704710B50021944C0A2298
:10033000B0FBF2F302FB13006054491CC9B218462B
:100340000529F5D310BDF0B58E4B0121202719707A
:1003500005218B4A002601E01C7844B1541814F89A
:10036000015C25B9814202D904F8017C05E05418EA
:1003700014F8015D303525701E70491E11F0FF0123
:10038000EAD1F0BD70B50D4616461C46FFF7CCFF0E
:10039000601CC0B2FFF7D7FF05EB850006EB8000BD
:1003A000C1B2774A754B0020A04201D2155C5D5462
:1003B00006D3155C202D03D04CB15E1806F8015C05
:1003C000491E401CC0B2C9B20528EDD370BD5D54B2
:1003D000F6E730B5044608461546FFF79AFFFF28B2
:1003E00009D0664A2178002905D04319641C401CB5
:1003F000D154C0B2F6E730BD70B50D461446FFF7D4
:1004000093FF601CC0B2FFF79EFF2846FFF781FFF5
:100410005B4B5A4A002124B95D5C202D01D0155454
:100420000FE0A14201D25D5CF9E704D14FF02E0547
:1004300015545D5C02E05D5C202D02D0161806F8B4
:10044000015C401E491CC9B2C0B20529E3D370BD8E
:1004500017B501EB810002EB8000C2B29DF80030BD
:10046000494803F00F0100EB1313445C43498C54DB
:10047000521ED2B21B788B549DF80130521E03F0ED
:100480000F04D2B2045D8C54521E00EB1313D2B28F
:100490001B788B549DF80230521E03F00F04D2B229
:1004A000045D8C54521E00EB1313D2B21B788B5494
:1004B0009DF80330521E03F00F04D2B2045D8C5439
:1004C000521E00EB1310D2B2007888541EBD2F4B81
:1004D0001A88521E104400B218802D4A00EB80008A
:1004E00002442C4813680360127902714278114467
:1004F00041707047F0B5254D254FB5F9004004EB2C
:100500008406641C2C80234C3E4425683560257984
:100510003571207061702271A370F0BDF0B5054691
:100520000E461746FFF7ECFE144C0020401C15F851
:10053000011BC0B204F8011B1428F7D35FF00000C0
:10054000401C16F8011BC0B204F8011B1428F7D395
:100550005FF00000401C17F8011BC0B204F8011B3B
:100560001428F7D35FF00000401C13F8011BC0B241
:1005700004F8011B1428F7D3F0BD00008E00001012
:10058000691400106E140010414D00004600001068
:100590009C5E00108400001010B5FF4C606E02F0ED
:1005A0003BFC6FF0DD01606E02F050FD0021606EDB
:1005B00002F04CFD41F2871204F2C621606E02F097
:1005C00014FDF649606E02F041FDF549606E02F0DF
:1005D0003DFDF449606E02F039FD4FF02051606E30
:1005E00002F034FDF049606E02F030FD4FF024510E
:1005F000606E02F02BFD00220121606E02F0BEFB56
:100600000021606E02F022FD606EBDE8104002F035
:1006100048BBE648016821F0E06101607047F0B531
:100620000020E34A01464FF4F4731154401C00B219
:100630009842FADB00214FF0140C7A2301FB03F0FF
:1006400001EB81039B0001EB81041BB20CEB8404E2
:100650001CE0D14DD74F7235ED5C05EB450517F821
:100660001560165407EB4505401C6E781654401C67
:10067000AE781654401CEE781654401C2E79165451
:10068000401C6D791554401C5B1C1BB29C42E0DC85
:10069000491C09B20429D0DBF0BD2DE9FF5FC64833
:1006A00001F028FEBC4C0026A0852079401CC0B279
:1006B0002071142807D32671E078401CC0B2E07086
:1006C000052800D3E670B4484FF0640A68304FF450
:1006D000C06800784FF0806B50B1DFF8E0A24FF4B3
:1006E0007A654FF41669022871D0BC2870D088E36F
:1006F000A94D683595F9010030B195F904100A1A31
:10070000022A03DD801C03E02E7102E0884200DD36
:100710002871ABA3AAA2AAA1A9A0FFF7FFFEE08FB0
:100720000122232180B2FFF767FEB4F840000122C6
:10073000242180B2FFF760FEA74F387A4FF0000205
:100740004FF02501FFF758FE387900225E21FFF7B0
:1007500053FE387800222621FFF74EFE387B002218
:100760003C21FFF749FEB88B00227B21FFF744FEB6
:10077000387E9A49002201EB80003E21FFF729FED6
:10078000854F207C723780B13A20FFF7C2FD4FF0D1
:10079000200907F800903A20FFF7BBFD07F800900A
:1007A0003A20FFF7B6FD07F8009095F90400B0B1C4
:1007B00095F9011099B1884203D1012087F83C00D6
:1007C0000DE0401A012804D0022806D007E087E394
:1007D000FEE3012087F8280001E001203875B4F815
:1007E0004C0000231322194680B2FFF7CBFD0023F3
:1007F000092219462078FFF7C5FD95F9010000236D
:1008000080B201221946FFF7BDFD6B48303801F078
:1008100071FD12220121FFF71BFE6748343801F0F9
:1008200069FD12220221FFF713FE00230922012194
:1008300041F28710FFF7A6FD5F48B83801F05AFD76
:1008400080B200230E220121FFF79CFD5A4F38464B
:1008500001F050FD80B2002309220221FFF792FD32
:100860005548083801F046FD13220321FFF7F0FD3B
:100870005B4D284601F03EFD09220321FFF7E8FD0C
:10088000284601F037FDC0B2012808D1284601F002
:1008900031FD000C4FF42571B0FBF1F06084E08C69
:1008A00008B1401EE084384601F024FD022806D13C
:1008B000E08C20B9A08C48B1A6840A20E0842846A8
:1008C00001F018FDC0B2052804D008E04FF6FF7013
:1008D000A084F2E7284601F00DFD00142085606E2B
:1008E00002F09AFA3F49606E02F0B0FB3E49606E3A
:1008F00002F0ACFB3D49606E02F0A8FB3C49606E23
:1009000002F0A4FB3B49606E02F0A0FB3A49606E26
:1009100002F09CFB3949606E02F098FB4FF47F4176
:10092000606E02F0E6F94FF0FF194946606E02F082
:10093000ABF93349606E02F089FB618C4FF4877527
:10094000CDF80CA00095CDE901610A23B422C8219D
:10095000606E02F0AAF90120CDE900500A23B4220A
:10096000C821606E02F01CFA2549606E491C02F035
:100970006DFB4946606E02F087F9A08C1C22CDE920
:10098000002620A1CDE9020132234FF4C87A642267
:100990005146606E3AE000001C00001001000005A6
:1009A000940000011518100715300008004003409E
:1009B000905A00100D4700002C213000C8C8C80212
:1009C0002020202020202020202020202020202027
:1009D0002020202000000000204002400D4D00009B
:1009E00000903000C8000002070000260000FF044D
:1009F000A000000D0200001FC012A04F00FFFF0466
:100A000001000003796573FF6E6F000002F019F9B1
:100A10005946606E02F01AFB4FF4FE41606E02F020
:100A200068F9F849606E02F011FB3D46384601F066
:100A300061FC032803D1F449606E02F05AF91921D0
:100A40009622CDE90021F1A0CDE9026040F2262BEB
:100A5000C82332225946606E02F05CF96FF07F4184
:100A6000606E02F046F90021606E02F00DF9E54972
:100A7000606E083102F0EAFA2F46284601F03AFC8F
:100A80000B287ED06FF07B41606E02F0DFFAE1A0B0
:100A9000CDE90080608CC822414202EB410002B2E5
:100AA00045461E236421606E02F090F8D549606EC1
:100AB000093102F0CBFA384601F01CFC0C287ED03C
:100AC0006FF07B41606E02F0C1FAD4A0CDE9005016
:100AD000608CFA21424201EB420002B21E236421E3
:100AE000606E02F073F8C749606E0A3102F0AEFA28
:100AF000384601F0FFFB0D287ED06FF07B41606E21
:100B000002F0A4FAC7A0CDE90050608C4FF49678AB
:100B1000424208EB420002B21E236421606E02F0E2
:100B200055F8B849606E0B3102F090FAB946384674
:100B300001F0E0FB0E287ED06FF07B41606E02F08A
:100B400085FABAA0CDE90050608C4FF4AF774042EF
:100B500007EB400002B21E236421606E02F036F8FB
:100B6000A849606E0C3102F071FA484601F0C2FBF0
:100B70000F287DD06FF07B41606E02F067FAADA068
:100B800000E099E1CDE90050608C1E2341420AEB60
:100B9000410002B26421606E02F018F89949606E5B
:100BA0000D3102F053FA484601F0A4FB10287ED024
:100BB0006FF07B41606E02F049FAA0A000E07DE199
:100BC000CDE90050608C4FF4E171404201EB4000F0
:100BD00002B21E236421606E01F0F8FF8949606E45
:100BE0000E3102F033FA484601F084FB11287DD023
:100BF0006FF07B41606E00E062E102F027FA91A0A5
:100C0000CDE90050608C4FF4FA71404201EB400096
:100C100002B21E236421606E01F0D8FF7949606E34
:100C20000F3102F013FA484601F064FB12287ED01F
:100C30006FF07B4100E045E1606E02F007FA83A0AF
:100C4000CDE90050608C1E2341420BEB410002B203
:100C50006421606E01F0BAFF6A49606E103102F0E3
:100C6000F5F9CA46484601F045FB13287ED000E05E
:100C70002AE16FF07B41606E02F0E8F975A0CDE9E2
:100C80000050608C4FF41679414209EB410002B2EA
:100C90001E236421606E01F099FF5A49606E113184
:100CA00002F0D4F9504601F025FB142800E00DE1D4
:100CB0007DD06FF07B41606E02F0C8F967A0CDE98E
:100CC0000050608C1E23414240F28A2000EB41001C
:100CD00002B26421606E01F079FF6249606E02F039
:100CE000B5F96149606E02F0B1F900E0F0E04FF053
:100CF0008041606E02F0AAF95C49606E02F0A6F9CC
:100D00004FF00451606E02F0A1F96FF07F41606E08
:100D100001F0EFFF6FF07B41606E02F097F954A095
:100D2000CDE900501E2396226421606E00E0D1E0E0
:100D300001F04CFF4FF47F41606E01F0DAFF4FF09D
:100D4000FF11606E01F0A0FF4B49606E02F07EF96A
:100D5000412140F6030ACDE900A11F231422962168
:100D6000606E01F050FFC0211F2300E0B4E0CDE928
:100D700000A114224146606E01F045FF2149606EDA
:100D8000891C02F063F9208DBA46CDE900603A462D
:100D900032234F464946606E02F020F805210120BB
:100DA000CDE90001034652463946606E00E095E009
:100DB00001F0F6FF3149606E02F048F930A0CDE94C
:100DC000005042461E231146606E01F0FFFE2EA029
:100DD000CDE900600123C2220821606E01F0F6FE19
:100DE00032A0CDE900600123E0220821606E01F00D
:100DF000EDFE0021606E02F029F9606E01F051FFF6
:100E000075E414E30300000300FFFF0050726573F4
:100E1000730000004974656D310000004974656D10
:100E2000320000004974656D330000004974656D3F
:100E3000340000004974656D350000004974656D2B
:100E4000360000004974656D370000004974656D17
:100E5000380000004974656D390000004974656D03
:100E600031300000C80000040900001FA00A4046FD
:100E70004D61696E0000000000FFFF0400FF0004E8
:100E80004D616D61000000004142432001020304F6
:100E900005060708090A0B0C0D0E0F10111213148A
:100EA00015161718191A1B1C1D1E1F00414243203E
:100EB0007F607B7D00000000FF49E5E5FE4901E61B
:100EC000FD491CE6FC4939E6FB4955E6FA4971E65D
:100ED000F9498FE6F849ADE6F749CCE6F649EAE686
:100EE000677C012007B100200290606E01F094FF42
:100EF0005146606E02F0AAF8F049606E02F0A6F862
:100F0000EF49606E02F0A2F8EE49606E02F09EF8C2
:100F10005946606E02F09AF84FF49871902061F390
:100F2000DF3040F08041606E02F090F84FF4207A9C
:100F3000504665F3DF3040F08041606E02F086F885
:100F40006FF07B41606E02F081F84FF4A071A02039
:100F500061F3DF3040F08041606E02F077F8504678
:100F600065F3DF3040F08041606E02F06FF8594663
:100F7000606E02F06BF841F23001902061F3DF30D7
:100F800040F08041606E02F061F843F26015504617
:100F900065F3DF3040F08041606E02F057F86FF08B
:100FA0007B41606E02F052F84FF48251A02061F351
:100FB000DF3040F08041606E02F048F8504665F343
:100FC000DF3040F08041606E02F040F8BC4900E044
:100FD000B0E1606E02F03AF8BA49606E02F036F89D
:100FE000B949606E02F032F85946606E02F02EF890
:100FF0004FF48C614FF4A06061F3DF3040F080412A
:10100000606E02F023F84FF43F614FF4176061F314
:10101000DF3040F08041606E02F018F8DFF8ACA2DB
:10102000606E514602F012F84FF48C614FF4A060EC
:1010300061F3DF3040F08041606E02F007F84FF45A
:101040003E65484665F3DF3040F08041606E01F058
:10105000FDFFBFB39E49606E01F0F8FF4FF49A6147
:101060004FF4AE6061F3DF3040F08041606E01F01C
:10107000EDFF4FF437614FF40F6061F3DF3040F064
:101080008041606E01F0E2FF5146606E01F0DEFFCC
:101090004FF4A4614FF4B86061F3DF3040F0804159
:1010A000606E01F0D3FF4FF432614FF40A6061F3D8
:1010B000DF3040F08041606E01F0C8FFA08D012854
:1010C00003D01AE0FFE78349C5E76FF07B41606E0C
:1010D00001F0BCFF4FF48C614FF4A06061F3DF308E
:1010E00040F08041606E01F0B1FF484665F3DF30AB
:1010F00040F08041606E01F0A9FF7749606E01F019
:10110000A5FF76A1CDE900811D2373228221606EA7
:1011100001F05CFD6A49606E01F098FF6949606EFC
:1011200001F094FF6849606E491C01F08FFF4FF099
:101130008061606E01F08AFF4FF4486B4FF48C6A57
:1011400058466AF3DF3040F08041606E01F07EFF68
:101150004FF43F6141F2F00061F3DF3040F0804135
:10116000606E01F073FF5949606E01F06FFF5146E8
:10117000584661F3DF3040F08041606E01F066FF59
:101180004FF48757384665F3DF3040F08041606E9A
:1011900001F05CFF0298B8B34D49606E01F056FF54
:1011A0004FF49A614FF44F6061F3DF3040F08041BB
:1011B000606E01F04BFF4FF4376041F2700160F355
:1011C000DF3141F08041606E01F040FF3F49606EC9
:1011D00001F03CFF4FF4A4604FF4546160F3DF3141
:1011E00041F08041606E01F031FF4FF432604FF406
:1011F000815160F3DF3141F08041606E01F026FFE4
:10120000A08D022803D016E0FFE73249C5E76FF052
:101210007B41606E01F01AFF58466AF3DF3040F000
:101220008041606E01F012FF65F3DF3747F08041C7
:10123000606E01F00BFF2849606E01F007FF27A1E7
:10124000CDE90081EB2282211D23606E01F0BEFCFE
:101250001B49606E01F0FAFE1A49606E01F0F6FE5D
:101260001949606E891C01F0F1FE4FF08061606EDB
:1012700001F0ECFE4FF4A0654FF4AA57284667F33F
:10128000DF3040F08041606E01F0E0FE41F6D04179
:101290004FF4176061F3DF3040F08041606E01F081
:1012A000D5FE1049606E01F0D1FE67F3DF3545F0E1
:1012B0008041606E18E0000000FFFF040700002678
:1012C0000900001F1000000E01000003B4B4B404B4
:1012D0000000FF0400DC000464000004496E707527
:1012E000743100009696960401F0B0FE4FF4E6517A
:1012F000484661F3DF3040F08041606E01F0A6FEA9
:101300004FF4F5504FF4206160F3DF3141F080413C
:10131000606E01F09BFE0021606E01F097FE606E32
:1013200001F0BFFCB4F92C00012801D002287ED1C5
:10133000BC21FFE2606E01F06FFD5146606E01F06E
:1013400085FEFF49606E01F081FEFE49606E01F08E
:101350007DFEFDA1CDE900811D233222C821606EF2
:1013600001F034FCFAA14FF4C060CDE900011D2367
:1013700032224FF4AF71606E01F028FCF649606EC6
:1013800001F064FEF549606E01F060FE5946606E42
:1013900001F05CFE4FF4156A4FF4C6616AF3DF3169
:1013A00041F08041606E01F051FE4FF4026840460A
:1013B00065F3DF3040F08041606E01F047FE6FF072
:1013C0007B41606E01F042FE4FF4C86169F3DF318A
:1013D00041F08041606E01F039FE404665F3DF3038
:1013E00040F08041606E01F031FE5946606E01F0C0
:1013F0002DFE41F2B0204FF4C66160F3DF3141F0C1
:101400008041606E01F022FE4FF4C857404667F3FA
:10141000DF3040F08041606E01F018FE6FF07B41DC
:10142000606E01F013FE4FF49650B91000E083E2B5
:1014300060F3DF3141F08041606E01F007FE40460D
:1014400067F3DF3040F08041606E01F0FFFD5946E8
:10145000606E01F0FBFD4FF40B616AF3DF3141F088
:101460008041606E01F0F2FD4FF42A68404665F35A
:10147000DF3040F08041606E01F0E8FD6FF07B41AD
:10148000606E01F0E3FD4FF40C6169F3DF3141F070
:101490008041606E01F0DAFD404665F3DF3040F0D8
:1014A0008041606E01F0D2FD5946606E01F0CEFDC4
:1014B00041F2B0204FF40B6160F3DF3141F0804125
:1014C000606E01F0C3FD404667F3DF3040F08041BD
:1014D000606E01F0BBFD6FF07B41606E01F0B6FD08
:1014E0004FF496504FF40C6160F3DF3141F08041CE
:1014F000606E01F0ABFD404667F3DF3040F08041A5
:10150000606E01F0A3FD5946606E01F09FFD4FF43F
:1015100033616AF3DF3141F08041606E01F096FD86
:101520004FF4526065F3DF3040F08041606E01F0AF
:101530008DFD6FF07B41606E01F088FD4FF43461EA
:1015400069F3DF3141F08041606E01F07FFD4FF4BF
:10155000526065F3DF3040F08041606E01F076FD4F
:101560005946606E01F072FD41F2B0214FF43360D4
:1015700061F3DF3040F08041606E01F067FD4FF4B1
:10158000526167F3DF3141F08041606E01F05EFD32
:101590006FF07B41606E01F059FD4FF496574FF4A8
:1015A000346067F3DF3040F08041606E01F04EFD43
:1015B0004FF4C8584FF4526168F3DF3141F0804175
:1015C000606E01F043FD5946606E01F03FFD5046EC
:1015D0004FF45B6160F3DF3141F08041606E01F0F8
:1015E00035FD284665F3DF3040F08041606E01F044
:1015F0002DFD6FF07B41606E01F028FD4FF45C61C2
:1016000069F3DF3141F08041606E01F01FFD284633
:1016100065F3DF3040F08041606E01F017FD594600
:10162000606E01F013FD41F2B02A4FF45B616AF382
:10163000DF3141F08041606E01F008FD294668F31A
:10164000DF3141F08041606E01F000FD6FF07B41C1
:10165000606E01F0FBFC4FF45C6067F3DF3040F03C
:101660008041606E01F0F2FC294668F3DF3141F001
:101670008041606E01F0EAFC5946606E01F0E6FCC4
:101680004FF4156141F2300061F3DF3040F08041EA
:10169000606E01F0DBFC4FF4915065F3DF3040F0F9
:1016A0008041606E01F0D2FC6FF07B41606E01F012
:1016B000CDFC4FF4825069F3DF3040F08041606E22
:1016C00001F0C4FC4FF4915065F3DF3040F08041ED
:1016D000606E01F0BBFC5946606E01F0B7FC41F250
:1016E00030016AF3DF3141F08041606E01F0AEFC01
:1016F0004FF4915068F3DF3040F08041606E01F0AC
:10170000A5FC6FF07B41606E01F0A0FC4FF48250AD
:1017100067F3DF3040F08041606E01F097FC4FF4DA
:10172000915068F3DF3040F08041606E01F08EFC34
:101730005946606E01F08AFC4FF4156150460FE087
:10174000070000260A0A0A04494E50555431000089
:10175000494E5055543200000900001F1000000E81
:1017600061F3DF3040F08041606E01F06FFC4FF4B8
:10177000A55065F3DF3040F08041606E01F066FCFB
:101780006FF07B41606E01F061FC394669F3DF3137
:1017900041F08041606E01F059FC4FF4A55065F3B3
:1017A000DF3040F08041606E01F050FC5946606EC1
:1017B00001F04CFC51466AF3DF3141F08041606E2C
:1017C00001F044FC4FF4A55168F3DF3141F0804152
:1017D000606E01F03BFC6FF07B41606E01F036FC07
:1017E000384667F3DF3040F08041606E01F02EFC38
:1017F00047464FF4A55067F3DF3040F08041606EFC
:1018000001F024FC4FF08061606E01F01FFC41F29A
:10181000305A4FF41561504661F3DF3040F080419B
:10182000606E01F013FC4FF4B9554FF47A6029460D
:1018300060F3DF3141F08041606E01F007FC6FF032
:101840007B4B5946606E01F001FC4FF4AA584046AC
:1018500069F3DF3040F08041606E01F0F7FB4FF438
:101860007A60294660F3DF3141F08041606E01F01B
:10187000EDFB4FF08061606E01F0E8FB41F2B021BA
:10188000504661F3DF3040F08041606E01F0DEFBD6
:10189000284667F3DF3040F08041606E01F0D6FBF0
:1018A0005946606E01F0D2FB4FF49651404661F309
:1018B000DF3040F08041606E01F0C8FB67F3DF3538
:1018C00045F08041606E01F0C1FBF949606E01F0A6
:1018D000BDFB4FF08061606E01F0B8FBF549606EB2
:1018E00001F007FAF249606E891C01F0AFFBF24883
:1018F00000F000FD032803D1F049606E01F0F9F912
:10190000AFF6F82001213222CDE90021CDE90260B5
:101910006423D20040F28A21606E01F0FBF90021BD
:10192000606E01F093FB606E01F0BBF9A08D03289F
:1019300002D10221E2480170A685BDE8FF9FF0B503
:10194000E048016A41F400110162416B21F4001189
:101950004163016A21F0F8610162DB49CA6CDB4B2B
:1019600002EA0302CA64016C41F480710164416DB2
:1019700021F4807141654FF0000100BF00BF00BF3E
:1019800000BF00BF00BF00BF00BF491CC9B2C829CB
:10199000F3D3016C41F480710164416D41F48071B5
:1019A0004165406BC64F60F0F860810D683F3C4672
:1019B000F965A27D236EE07D247EA1F5407603F0DB
:1019C0007F054FF0010E4FF0000CFF3E01D0994211
:1019D00017D087F819C0042A00D220B1BA7E12B9F4
:1019E00087F81BE07B75A04202D387F81BE07D756A
:1019F00087F81AC01420387687F816C087F817C001
:101A00001AE0521CD2B2BA75042A15D3401CC0B2D7
:101A100087F816C0F875A0420ED37D7587F817C0F9
:101A200087F81BE087F81AE0787E28B160083876DE
:101A3000022801D8022038763966F0BD2DE9FC5F16
:101A40009F4F4FF00008683FF87E00281ED0A7F88F
:101A50004880A7F84A809A4887F80280797D0678FE
:101A60004446F92913D00122E72923D07929EDD062
:101A70007A2925D0024692F901301A465B1C5DB2E4
:101A8000531E5BB2752E22D0002E64D07CE1752EE1
:101A90000BD0B86EC7F86D0097F86C00002387F87C
:101AA000710004211A4675206CE100210846FEF7FA
:101AB0000EFD69E153210020BA65FEF79AFB63E150
:101AC000387F10B13C777C765EE13A77FBE7EF290F
:101AD0000ED0F7290ED00546012A13D0052AD5D0FD
:101AE000774AFD2992F904202BD0FB292BD04BE11A
:101AF000457000E0437004710B220021401CFEF78A
:101B00003FFB41E1FD2907D1A8781E22401EA870A5
:101B10000021A81CFEF73FFB787DFB2807D1A878A1
:101B20001E22401CA8700021A81CFEF734FB787D03
:101B3000FE28ABD17C852C706C70AC70EC702C7175
:101B400022E1521E00E0521C027104220021281DD5
:101B5000FEF721FB18E15A4A4FF4C064683AFE29A7
:101B6000566E12D0DFF868B1DFF868916FF07B4AEB
:101B7000FB2915D0FD293CD0EF2975D0F72970D06D
:101B80006B296FD073296ED0FEE0AFF60C50CDE913
:101B9000004064221B231146304601F017F8F3E0A1
:101BA00045704D494FF4401000F02AFC59464B480F
:101BB00000F026FC49485146001D00F021FC474832
:101BC0004749083000F01CFC444849460C3000F0FE
:101BD00017FC42484349103000F012FC3F480021F6
:101BE000143000F00DFC34480221D83800F0B9FB65
:101BF000CAE04370304601F00FF93B49786E01F0BE
:101C000025FA5946786E01F021FA3849786E01F0CC
:101C10001DFA3349786E503101F018FA4946786E52
:101C200001F014FA3249786E01F010FA3149786EF9
:101C300001F00CFA4FF47F41786E01F05AF84FF43E
:101C40007F01786E01F020F82A2140F60300CDE9EB
:101C500000011F2314229621786E00F0D4FF80E04B
:101C600002E057E085E089E0304601F0D5F81E49F2
:101C7000786E373101F0EAF95946786E01F0E6F9ED
:101C80001D49786E01F0E2F94FF47F01786E01F0A2
:101C900030F8FF21786E00F0F7FF18A0CDE9004082
:101CA00064221F231146786E00F090FF59E0000077
:101CB00001000003646464002C21300000FFFF0079
:101CC0008400001000C0092000C00240FF0FC0FFC8
:101CD000070000260200001F00C8000204003000B8
:101CE0005000000D000F804CC80000020000FF04EF
:101CF000C012A04F00FFFF0400FF0004506C65619C
:101D0000736520546170206F6E2074686520646F65
:101D1000740000004570304601F07EF8FF49786E8F
:101D200001F094F95946786E01F090F95146786EB9
:101D300001F08CF94FF47F01786E00F0DAFFFF219B
:101D4000786E00F0A1FFAFF24C00CDE900406422B4
:101D50001B231146786E00F039FF0021786E00F0E9
:101D6000FDFF0021786E01F071F9786E00F099FFA7
:101D70000AE000231A4619462C2003E000231A46E5
:101D800019461420FEF7B6FB87F81B80BDE8FC9FC0
:101D90002DE9F041E24C0126E248E671A17C39B11F
:101DA000016A41F080610162416B81F080614163B1
:101DB000218F491C09B22187022977DB002525875D
:101DC000A6714069C0F3C060E074217D884204D0F0
:101DD000B4F84410491CA4F844102075608F401CCE
:101DE00000B26087142801DB65876672E08D401CB5
:101DF00000B2E0850A2859DBE5852672B4F8460072
:101E0000401C00B2A4F84600B0F5FA7F07DB04F1ED
:101E10004204A580608820806580A4F1420442F2DB
:101E20001077208E401C00B220860A2809DB258608
:101E3000A672FEF7DDF9B4F91E00B84201DA401CC3
:101E4000E083608E401C00B26086142806DB658645
:101E5000E672E07B08B1E57300E0E673A08E401CFB
:101E600000B2A086322806DBA5862673207C08B146
:101E7000257400E02674E08E401C00B2E0866428E1
:101E800014DBE5866673B4F92000B84201DA401C21
:101E90002084607C08B1657400E06674A08F401CEB
:101EA00000B2A0873C2801DBA587A673BDE8F081BE
:101EB0001CB500F013FB9A4C9B480126A6740068E1
:101EC0004FF4FA61B0FBF1F14FF0E020491E41619F
:101ED0000721016195490520924D887081F85600CF
:101EE00081F8AA0081F8FE0081F8520181F8A6016C
:101EF00081F8FA01286820F000602860286C40F022
:101F000080002864286C40F48070286400F067FD2D
:101F100000F0ADFD00F093FD854911200872854B5E
:101F200085A28BA11846FEF7F9FA286840F40060F4
:101F30002860A86940F40060A8613A20207000F091
:101F400095F989486066286C40F480702864E86DD3
:101F500040F48070E865854F3846401EFDD1286CFE
:101F600040F480702864A86D40F48070A8653846FD
:101F7000401EFDD100F075FA7F1EFDD1482000F013
:101F80008CFA7B48401EFDD1422000F086FA0420E6
:101F900000F083FA00F065FA682000F07EFA754DD3
:101FA000284600F082F97C28FAD172484FF4846107
:101FB0002C3000F0FBF96F482E21303000F0F6F99C
:101FC0006C480021383000F0F1F96A480A213C30B1
:101FD00000F0ECF9674840F20D21403000F0E6F9DE
:101FE00064481721443000F0E1F9624800214C3088
:101FF00000F0DCF95F480A21503000F0D7F95D4865
:102000000021643000F0ADF95A4800216C3000F036
:10201000A8F958484FF44871343000F0C7F95548D2
:102020004FF4F071483000F0C1F95248FF21903070
:1020300000F097F94F48FF21943000F092F94E4D8F
:102040004FF44010294600F0DBF94C494C4800F0B1
:10205000D7F94B484B49001D00F0D2F948484A498E
:10206000083000F0CDF9464848490C3000F0C8F976
:1020700043484749103000F0C3F941484FF0045736
:102080003946143000F0BCF93D484249183000F0A0
:10209000B7F93B4840491C3000F0B2F9374938489D
:1020A000491C203000F0ACF935483C49243000F0A0
:1020B000A7F933483946283000F0A2F900214FF043
:1020C000301000F09DF92B480221543000F049F9FE
:1020D00028480521703000F044F9FEF75DFA606E83
:1020E00000F09AFE0D49606E00F0B0FF2946606E68
:1020F00000F0ACFF6FF07B41606E00F0A7FF4FF483
:102100007F01606E00F0F5FDFF21606E00F0BCFD08
:10211000AFF218414FF4C0601B2341E0C8C8C802A9
:102120001C00001000C00920701400101050001096
:1021300000400240C00900002020202020204574DB
:102140006865726E65742020202020200000000049
:1021500020202020C8EDE8F6E8E0EBE8E7E0F6E82C
:10216000FF20202000000000905E001080A90300E6
:10217000C0D4010000203000070000260100001F2D
:1021800004003000C6EF869B16FF1604C4EFC6A1FC
:10219000C9EF06B21616FF044001000D0050089862
:1021A000CDE9000164221146606E00F00FFD0021B0
:1021B000606E00F0D3FD0021606E00F047FF606E9E
:1021C00000F06FFD26480025022101702548401EC1
:1021D000FDD1A57401F0EAFB607900B16571E07989
:1021E00000B1E571A07900B1A571207A20B1257206
:1021F000FFF7A5FBFFF722FC607A00B16572A07AB9
:1022000080B102F06FFA6665A572FEF746FAFEF736
:1022100006FA154800F033FCFDF7A2FFFDF782FF38
:10222000FDF79EFFE07A00B1E572207B00B12573D7
:10223000607B78B16573FDF7F4FF2078401CC0B275
:1022400020703C2806D3257000F0C9FB00F00FFC7D
:1022500000F0F5FBA07B0028BBD0A573B9E7000018
:102260008400001080EE3600905A001098480168F3
:1022700041F040410160416821F003014160416843
:1022800041F00C014160416841F0300141609148EA
:102290000121C1602021016070478E498860486833
:1022A0000006FCD58868C0B270478B4A00B503466B
:1022B000106840F480101060D06940F48010D06144
:1022C000C3F30540FFF7E9FFC3F30720FFF7E5FF7E
:1022D000D8B2FFF7E2FF5520FFF7DFFF5520FFF7E9
:1022E000DCFF116841F480111160916941F48011A3
:1022F000916100BD784A10B50346106840F4801023
:102300001060D06940F48010D061C3F30540FFF73E
:10231000C4FFC3F30720FFF7C0FFD8B2FFF7BDFF2C
:102320005520FFF7BAFF5520FFF7B7FF60F307040A
:102330005520FFF7B2FF60F30F245520FFF7ADFFE4
:1023400060F317445520FFF7A8FF60F31F6411687E
:10235000204641F480111160916941F4801191612E
:1023600010BD5D4A10B5034610680C4640F480105D
:102370001060D06940F48010D061C3F3054040F094
:102380008000FFF78AFFC3F30720FFF786FFD8B26C
:10239000FFF783FF2046FFF780FF106840F48010AE
:1023A0001060906940F48010906110BD4A4A10B5E9
:1023B000034610680C4640F480101060D06940F469
:1023C0008010D061C3F3054040F08000FFF765FF47
:1023D000C3F30720FFF761FFD8B2FFF75EFFE0B25B
:1023E000FFF75BFFC4F30720FFF757FF106840F4C7
:1023F00080101060906940F480109061284610BDF4
:1024000010B5354A04460B46106840F48010106041
:10241000D06940F48010D061C4F3054040F08000E2
:10242000FFF73BFFC4F30720FFF737FFE0B2FFF7EA
:1024300034FFD8B2FFF731FFC3F30720FFF72DFFBA
:10244000C3F30740FFF729FF180EFFF726FF1068B8
:1024500040F480101060906940F48010906128462C
:1024600010BD1D4A00B5106840F480101060D0699E
:1024700040F48010D0610020FFF70FFF0020FFF72D
:102480000CFF0020FFF709FF106840F48010106077
:10249000906940F48010906100BD0F4A00B511684A
:1024A00041F480111160D16941F48011D161FFF7CD
:1024B000F4FE0020FFF7F1FE0020FFF7EEFE1068AB
:1024C00040F480101060906940F48010906100BD6D
:1024D00000C002400000024000C0092030B54E4854
:1024E0002021C0F8A01100BFD0F8A0114906FBD5EB
:1024F00000F180000322C0F884204FF40031C0F8BE
:1025000028114FF00001C0F82C114FF00103C0F862
:102510008C30424C446003604FF0AA03C3604FF01C
:102520005504C460A0F18000D0F888506D01FBD53F
:1025300040F8802FC360C460C0F88810384A4264F5
:10254000C0F848118168A0F180006FEA11618A0724
:102550003449D0F80C2102F0030207D092B3012ACB
:1025600046D0022A4AD0032A51D13BE02AB1012A9F
:1025700011D0022A27D0032A49D150F8882FC2F35C
:102580000E02521C53000268C2F30742521CB3FBF6
:10259000F2F2254B0CE050F8882FC2F30E02521CC9
:1025A00053000268C2F30742521CB3FBF2F21F4B06
:1025B0005A43C36FA0F18800DBB203F10103B2FB01
:1025C000F3F223E00EE050F8882FC2F30E02521C03
:1025D00053000268C2F30742521CB3FBF2F24FF4FD
:1025E000FA43E5E7D0F804210F4BD2B2521C0BE0BE
:1025F000D0F804210D4BD2B2521C05E0D0F80421D2
:102600004FF4FA43D2B2521CB3FBF2F20A6043F227
:102610003A01016030BD000000C00F404F000300D0
:102620004AF100417014001000093D0080969800A6
:10263000FE48016A21F07F510162816B41F4001173
:10264000816300BF00BF00BF00BF00BF00BF00BF6D
:1026500000BF00BF00BFC16B41F48021C16300BF58
:1026600000BF00BF00BF00BF00BF00BF00BF00BF72
:1026700000BF816B41F400218163416B8900FCD470
:102680007047EA48016A21F07F510162816B41F491
:102690000011816300BF00BF00BF00BF00BF00BFCB
:1026A00000BF00BF00BF00BFC16B41F48021C16308
:1026B00000BF00BF00BF00BF00BF00BF00BF00BF22
:1026C00000BF00BF816B41F480118163416B8900C1
:1026D000FCD47047D54A00B50346106A40F4301068
:1026E0001062FFF7A5FF00BF00BF00BF00BF00BF23
:1026F00000BF00BF00BF00BF00BFD06B40F4802010
:10270000D06300BF00BF00BF00BF00BF00BF00BF5D
:1027100000BF00BF00BFD06B40F40010D06300BF0B
:1027200000BF00BF00BF00BF00BF00BF00BF00BFB1
:1027300000BF106A40F07F501062906B40EA8350F7
:102740009063D06B6FEA0301C9B240EA8150D06355
:1027500000BF00BF00BF00BF00BF00BF00BF00BF81
:1027600000BF00BFD06B40F40020D06300BF00BFAB
:1027700000BF00BF00BF00BF00BF00BF00BF00BF61
:1027800000BDAA4A00B50346106A40F480201062DA
:10279000106A40F440101062FFF773FF00BF00BFE3
:1027A00000BF00BF00BF00BF00BF00BF00BF00BF31
:1027B000D06B40F48020D06300BF00BF00BF00BFDB
:1027C00000BF00BF00BF00BF00BF00BFD06B40F420
:1027D0000010D06300BF00BF00BF00BF00BF00BF3C
:1027E00000BF00BF00BF00BF106A40F07F50106202
:1027F000906B40EA83509063D06B6FEA0301C9B2DB
:1028000040EA8150D06300BF00BF00BF00BF00BFDF
:1028100000BF00BF00BF00BF00BFD06B40F48010FE
:10282000D06300BF00BF00BF00BF00BF00BF00BF3C
:1028300000BF00BF00BF00BD7C4A00B50346106A60
:1028400040F440201062106A40F400101062FFF75C
:10285000EFFE00BF00BF00BF00BF00BF00BF00BF52
:1028600000BF00BF00BF906B40F48020906300BFAA
:1028700000BF00BF00BF00BF00BF00BF00BF00BF60
:1028800000BFD06B40F40010D06300BF00BF00BF9A
:1028900000BF00BF00BF00BF00BF00BF00BF106A85
:1028A00040F07F501062906B40EA83509063D06B91
:1028B0006FEA0301C9B240EA8150D06300BF00BF94
:1028C00000BF00BF00BF00BF00BF00BF00BF00BF10
:1028D000D06B40F40020D06300BF00BF00BF00BF3A
:1028E00000BF00BF00BF00BF00BF00BF184600BD53
:1028F0004E4A00B50346106A40F480201062106A08
:1029000040F440101062FFF7BCFE00BF00BF00BFE4
:1029100000BF00BF00BF00BF00BF00BF00BF906B83
:1029200040F48020906300BF00BF00BF00BF00BF25
:1029300000BF00BF00BF00BF00BFD06B40F400105D
:10294000D06300BF00BF00BF00BF00BF00BF00BF1B
:1029500000BF00BF00BF106A40F07F501062906B54
:1029600040EA83509063D06B6FEA0301C9B240EA3A
:102970008150D06300BF00BF00BF00BF00BF00BFD9
:1029800000BF00BF00BF00BFD06B40F48010D06319
:1029900000BF00BF00BF00BF00BF00BF00BF00BF3F
:1029A00000BF00BF00BD10B540F0B8042046FFF7DF
:1029B00091FE2046BDE81040E3E610B50446FFF75F
:1029C00089FE2046BDE81040DBE610B540F0C004AB
:1029D0002046FFF77FFE2046BDE81040D1E61348B1
:1029E000016A41F07F510162016A41F47011016294
:1029F000016841F0C04101600021C26942F080429B
:102A0000C261491C6429F8DB09494FF0000200BF8C
:102A1000521C8A42FBDB0022836943F080438361BE
:102A2000521C322AF8DB4FF0000003E000C00920FE
:102A30007088020000BF401C8842F6DB704730B54A
:102A400000242046FFF7AFFF0020FFF7B6FF002568
:102A50000020FFF7F1FE0020FFF74AFF6D1CEDB2EA
:102A60003C2DF5D9641CE4B2032CEAD930BD00B585
:102A7000AF20FFF72FFEAF205DF804EB81E6F0B545
:102A800084460020FFF7A1FF5FF0000606EB46003A
:102A9000C0EB86100CEB400404F13D053046FFF717
:102AA00082FF0020FFF789FF00272078FFF7C4FE90
:102AB0002878FFF71DFF7F1C641C6D1CFFB23D2FA3
:102AC000F3D3761CF6B2032EE0D9F0BD34484FF0B4
:102AD00080510160704733484FF08051016070476A
:102AE000F0B54FF0A045D5F828112F4E0388021DF0
:102AF00056F83140DB1C9B0803D080CA5B1E80C4A3
:102B0000FBD1008806EBC102401E40F04040491C4A
:102B10005060032900D10021C5F82811F0BD70B51F
:102B20004FF0A04534E000BFC5F8E80F00072FD5EF
:102B3000D5F8184128E01C48203850F834004100EE
:102B40001CD5C0F30A06F61E40F2EA518E4215D893
:102B50001649084212D146F0004000F0A5FA68B1CB
:102B6000114A011D403AF61C52F83420B30803D034
:102B700040CA5B1E40C1FBD101F088FA641C042CE2
:102B800000D10024C5F81841D5F81401A042D2D1D3
:102B9000D5F8E00FD5F8E41F0840C5D170BD00009E
:102BA00000E100E080E100E0400008200000901B10
:102BB00070B505460C460846FDF736FB401C82B250
:102BC00021462846BDE8704000F00FBA2DE9F047D5
:102BD0000F46DDE90889054616461C466FF0F301ED
:102BE00000F034FA394666F31F41284600F02EFA09
:102BF000214668F31F41284600F028FA4946284636
:102C0000BDE8F047D4E72DE9F0470F46DDE9088934
:102C1000054616461C466FF0D10100F017FA3946FA
:102C200066F31F41284600F011FA214668F31F4160
:102C3000284600F00BFA49462846BDE8F04700F068
:102C400005BA2DE9F05F0D460AA98046B1E8800E6D
:102C500016461C466FF0ED0100F0F8F966F31F45CB
:102C60002946404600F0F2F967F31F4421464046EA
:102C700000F0ECF949EA0A41404600F0E7F959460C
:102C80004046BDE8F05F93E770B50D4604466FF02F
:102C9000F60100F0DBF929462046BDE8704000F05F
:102CA000D5B96FF0FE0100F0D1B92DE9F05F0D4606
:102CB0000AA98046B1E8800E16461C466FF0EF0167
:102CC00000F0C4F966F31F452946404600F0BEF9FE
:102CD00067F31F442146404600F0B8F949EA0A412B
:102CE000404600F0B3F959464046BDE8F05F00F0B9
:102CF000ADB970B50D464A490446082008806FF00A
:102D0000F501204600F0A2F929462046BDE87040B2
:102D100000F09CB92DE9F05F0F460AA98246B1E8A0
:102D2000200B16461C466FF0F20100F08FF9394671
:102D300066F31F41504600F089F9214665F31F41B3
:102D4000504600F083F9414669F31F41504600F0B8
:102D50007DF959465046BDE8F05F29E770B50D464C
:102D600004466FF0EA0100F071F92946204600F0B0
:102D70006DF92046BDE8704000F016B970B50E46FA
:102D8000144605466FF0D40100F060F9314628463C
:102D900000F05CF921462846BDE8704000F056B9C5
:102DA0002DE9F0470F46DDE90889054616461C4621
:102DB0006FF0D30100F04AF9394666F31F41284607
:102DC00000F044F9214668F31F41284600F03EF91F
:102DD00049462846BDE8F04700F038B92DE9F047EC
:102DE0000F46DDE90889054616461C466FF0D201FC
:102DF00000F02CF9394666F31F41284600F026F909
:102E0000214668F31F41284600F020F9494628462C
:102E1000BDE8F04700F01AB96FF0FF0100F016B9F5
:102E20006800001070B5924B0029064619681446D8
:102E3000C2F30540C2F3072541F480111960D96936
:102E400041F48011D9610CD040F08000FFF725FAE1
:102E50002846FFF722FAE0B2FFF71FFA0220B0710E
:102E600070BDFFF71AFA2846FFF717FAE0B2FFF72E
:102E700014FA5520FFF711FA0120F0E7428802F515
:102E80004212CFE770B5807900250C4602280AD09F
:102E90000020FFF702FA04460020FFF7FEF944EA9B
:102EA0000025284670BDE0B2FFF7F7F9200AFFF7CA
:102EB000F4F9F6E770B50646807900250C4602283D
:102EC0000CD000213046FFF7DDFF044600213046DC
:102ED000FFF7D8FF44EA0045284670BDA1B230464E
:102EE000FFF7D0FF210C3046FFF7CCFFF4E7604935
:102EF0000A6842F480120A608A6942F480128A6188
:102F000000218171704710B50A4604460021FFF781
:102F100089FF00212046FFF7B5FF03462046FFF753
:102F2000E6FF5349086840F480100860886940F45F
:102F300080108861184610BD70B514460A460546D3
:102F40000121FFF76FFF21462846FFF79BFF284628
:102F5000BDE87040CBE770B514460A46054601212E
:102F6000FFF760FF21462846FFF7A4FF2846BDE88B
:102F70007040BCE742881144C1F30B02D21C40F6FA
:102F8000FC710A4042803B49D6E710B539490446F6
:102F9000091FFFF7B8FF6188081AC0F30B00A0F6FD
:102FA000FC70404280B210BD2DE9F041314E044624
:102FB000361F371D31462046FFF7A5FF0546394627
:102FC0002046FFF7A0FF8542F4D139462046FFF79F
:102FD0009AFF6080BDE8F08170B505460C46284632
:102FE000FFF7D3FFA042FAD370BD2DE9F041804630
:102FF0000F46164634464046FFF7C7FFA04203D2AD
:103000004046FFF7C2FF0446A1B20D464046FFF717
:10301000E3FF2A4601214046FFF730FF002504E088
:103020003878FFF73AF97F1C6D1C641EF8D24046D1
:10303000FFF75DFFA9B24046FFF79CFF4046FFF750
:10304000B3FF701B0604360CD4D1C3E770B50D4630
:1030500004460421FFF7C0FF61882A4601F54211AA
:103060002046FFF778FF2046BDE87040042181E745
:1030700000C00920FC203000084400EB104080B262
:103080007047010241EA102080B2704702E008C890
:10309000121F08C1002AFAD17047002001E001C1C7
:1030A000121F002AFBD170472DE9F0470027DFF8F7
:1030B000909000280CDA2349D9F8002020F0004035
:1030C0000968024401EB4101B2EB910F18D80127C6
:1030D00005460F3020F003060FB9FFF7FCFC1A4C31
:1030E000D4E90002011B891AB1420CD204460068DF
:1030F0000028F5D127B9FFF7E9FC0020FCF7FEFF17
:103100000020BDE8F08772B11019216801602060CD
:1031100000F10808C0F80460D9F800103144C9F87B
:10312000001027B105E004F108086660F4E7FFF736
:10313000CDFCA8F800500020A8F802004046E0E7C7
:1031400094140010F446000000C007202DE9F04759
:103150000746894690460026284C294D0BE02078EA
:1031600038B10422394604F10A0000F03DFC012880
:1031700035D00E34761C28888642F0DB214938464B
:1031800000F0ECFBD0B91F4804220021001D00F024
:1031900051FC10B10020BDE8F0870026174C0AE072
:1031A000207830B106224946201D00F01DFC012880
:1031B0001AD00E34761C28888642F1DB404600F097
:1031C00027F80028E7D00D49C0EBC00001EB400410
:1031D0000E3C0422394604F10A0000F015FC0622D8
:1031E0004946201D00F010FC07480088E0700748A1
:1031F0000078A070032020700120CCE7A8140010F4
:10320000FA460000505F0010FC460000FE46000039
:10321000F0B50546012116480E46164A03E003782C
:1032200053B10E30491C13889942F8DD1248104BF7
:103230000488002001210DE0067045700846F0BDAD
:103240005F78012F04D1DF78A74201D83C460846B9
:103250000E33491C1788B942F2DD0028EFD0044A2A
:10326000C0EBC00102EB410101F80E6D4D70F0BDE5
:10327000A8140010FA460000FC4600002DE9F047B3
:1032800081460F4600253D4C3D4E0BE0207838B17D
:103290000422494604F10A0000F0A6FB012815D0DB
:1032A0000E346D1C30888542F0DB3649484600F00C
:1032B00055FBDFF8C880334D01284FF0040209D0D8
:1032C0000021281D00F0B6FBE8BB1DE02078032894
:1032D0004ED350E04946281D00F086FB012806D158
:1032E00004220021281D00F0A5FB00B90027384664
:1032F000FFF78EFF06003CD0C6EBC60108EB410489
:103300000E3C042249461DE000271C4C0BE02078AF
:1033100038B10422291D04F10A0000F065FB0128E0
:10332000D4D00E347F1C30888742F0DB0020FFF7BA
:103330006FFF06001DD0C6EBC60108EB41040E3C32
:103340000422291D00E013E004F10A0000F05CFBF8
:1033500006220D49201D00F057FB0C480078A07094
:103360000B480078E070304600F012F9022020701F
:103370000020BDE8F0872046FBE70000A8140010FD
:10338000FA460000505F0010524D0000FE4600005B
:10339000FF4600002DE9F0470026DFF8D480DFF873
:1033A000D490B246344F5DE0B9F80050691C89B240
:1033B000A9F800103A88914201D3A9F800A02F493A
:1033C000C5EBC50001EB40042078C8B3E07820B11C
:1033D000401E10F0FF00E07043D1607801280AD150
:1033E0000422274904F10A0000F0FEFA012806D061
:1033F0006078012818D010F0FF0F02D031E084F877
:1034000001A004221F4904F10A0000F0EDFA01288E
:1034100017D02078032818D0A07800B3401E10F0F1
:10342000FF00A0701BD012E02078032817D0A078EE
:10343000A8B1401E10F0FF00A07010D0022005E0DF
:103440000FE011480088E0700BE00420207098F82D
:103450000000E070681CBDE8F04700F099B884F8FF
:1034600000A0761C388886429EDBBDE8F08700000D
:10347000FF460000A0140010FA460000A814001037
:10348000545F0010584D0000FC4600002DE9F0414B
:1034900006460025134C00F10E08134F0DE020786E
:1034A00048B1012807D0042204F10A01404600F087
:1034B0009BFA012806D00E346D1C38888542EEDB5D
:1034C000BDE8F081062206F10801201D00F09CFAFB
:1034D00006480088E07006480078A070032020703D
:1034E000EEE70000A8140010FA460000FC460000B9
:1034F000FE4600002DE9F04105460E462A20FFF762
:10350000D3FD044605F1080106220F46001D00F018
:103510007BFA06221C4904F10A0000F075FA4FF408
:10352000C16020824FF4807060820820A082062053
:10353000A0750420E075268304F124000622394694
:10354000064600F061FA05F10E0104F12A0004229A
:10355000054600F059FA06220B4904F11A0000F062
:1035600053FA0422094904F1200000F04DFA012227
:1035700031462846FFF7EAFD2046FFF7B1FA20461C
:10358000BDE8F04100F0AEB800000010505F001040
:1035900070B505462A20FFF787FD04460622234919
:1035A000001D00F031FA0622214904F10A0000F062
:1035B0002BFA4FF4C16020824FF4807161820820A1
:1035C000A0820620A0750420E075218306221849F8
:1035D00004F11A0000F018FA0422164904F1200040
:1035E00000F012FA4FF0060265B1002104F1240048
:1035F00000F018FA1049C5EBC50001EB40010422A8
:10360000091F06E0094904F1240000F0FDF9094909
:10361000042204F12A0000F0F7F92046FFF760FACF
:103620002046BDE8704000F05DB80000524D00003B
:1036300000000010505F0010A8140010062202497C
:10364000001D00F0D1B900000000001070B5044664
:1036500000F12205204E04222049284600F0C4F93A
:1036600038BB0422002104F11E0000F0E3F908B188
:10367000002070BD28780E21B1EB101F0ED1012063
:103680002071002060715E20A071687800F07F00DA
:10369000E071A8782072E87860720FE0284600F0A8
:1036A0006FF930B901212846FFF7E8FD0028E0D086
:1036B000061D06223146201D00F0A6F90622084903
:1036C00004F10A0000F0A0F9082020822046FFF74C
:1036D00007FA012070BD0000524D0000584D000057
:1036E0000000001070B500282AD0A0F10806154C83
:1036F0000025FFF7F0F909E02546246820688007D7
:1037000003D0FFF7E3F9022010E064B1B442F3D133
:103710000D4861680B4B0268511A01609C4209D147
:103720000020606008E0FFF7D1F90120BDE870409B
:10373000FCF7E4BC20682860BDE87040FFF7C6B91C
:1037400070BD000000C0072094140010017842787A
:10375000090641EA02418278C07841EA0221084321
:1037600070470000F8B504460F46808AFFF789FCD1
:10377000054621880E30814245D3A07C0421B1EB5F
:10378000101F40D1264907EB870001EB800104F1AF
:1037900022000422064600F027F958BB04222149E2
:1037A000304600F021F928BB6FBB31780E2230463D
:1037B000B2EB111F04D1FCF7B2FC012815D00EE0CA
:1037C00004223146684600F01FF915480099026846
:1037D00080684A40024202D10843401C05D020467E
:1037E000FFF72CFF78B1E07E02E0E07E022801D0F6
:1037F000112808D104F1120000F016F818B9208B36
:1038000030F0C00001D00020F8BDA07C0007800E81
:1038100000F10E016180281A20800120F8BD00000F
:10382000505F0010584D000001780907890EFCF721
:1038300043BD00002DE9F041214C8046214F207806
:10384000C0070AD02049404600F088F840BB042257
:10385000FF21404600F0EEF810BB1B4D20781435D8
:10386000800704D52946404600F078F800BB164E84
:1038700020782836400704D53146404600F06EF8DF
:10388000D0B92078800702D52078000710D420789E
:10389000400702D52078C0060ED42078C00704D097
:1038A000002038700848BDE8F0812078800703D5F3
:1038B000012038702846F6E7022038703046F2E7DB
:1038C000F0460000A2140010505F00102DE9F041F6
:1038D0000446DDF818800F461646012A08D0022E4D
:1038E00006D0062E04D0112E02D00020BDE8F081B3
:1038F000194D45216888401C68802088A1741430C7
:1039000080B2E374FFF7BDFBA0826888FFF7B9FBC4
:10391000E0820020208384F81A80E676A08338466F
:10392000FFF788FF0146042204F11E0000F06CF846
:103930000422394604F1220000F066F804F1120076
:10394000FFF772FFA083208822302080297820464C
:10395000BDE8F041FCF7DEBBA214001018B50C4620
:1039600001460422684600F04FF82068009948405C
:10397000A168084201D0002018BD012018BD000038
:1039800038B5044601460422684600F03DF8064872
:10399000826800980243521C01D0002038BD0249C1
:1039A0002046FFF7DBFF38BD505F00100C480021B8
:1039B0008278012A04D0017080F80110FCF79FBBC7
:1039C000817081880122491C8BB28380C1888B421F
:1039D00004D1044B1B881944C18042700270EDE78A
:1039E00098140010F846000010B508E003780C7831
:1039F000A34201D0002010BD401C491C521E002AC9
:103A0000F4D1012010BD000030B5134606E000BF20
:103A1000054611F8014B401C2C705B1E002BF7D1A2
:103A2000104630BD03E000BF00F8011B521E002A03
:103A3000FAD170473AB103788B4201D00020704729
:103A4000401C521EF6E701207047000070B5018847
:103A50002A2941D3418A4FF4807399423CD1818A0B
:103A6000082939D1817D062936D1C17D042933D178
:103A7000028B00F11204B2F5806F2DD00ADC4FF4F6
:103A8000007500F12A009A4217D0AA4224D10422DC
:103A9000124909E024304FF41065B2F5006F0FD0E1
:103AA000AA4219D106220E49FFF79EFF002813D023
:103AB0002046BDE87040FFF7E9BC0422074901E059
:103AC00006220749FFF790FF002805D02946204627
:103AD000BDE87040FFF70EBD70BD0000505F0010E4
:103AE0000000001070472DE9F84304464188001D8E
:103AF0000E18258830462946FCF7DEFB28B93078B9
:103B000048B3082801D1707810B10020BDE8F883CF
:103B100005F12200FFF7C8FA00F1260700213970ED
:103B20007970018580462A1F311D381DFFF76CFF13
:103B300029463846FCF7C0FB7880A8F8005080235F
:103B4000009340460023012204F11E01FFF7BEFE50
:103B50004046FFF7C7FD0120D8E700002DE9F05FE0
:103B6000428800F1040B02EB0B050646287B6FF040
:103B7000030101EA900014287ED3318881427BD36F
:103B80000244081A1FFA80F8728006F112012846D2
:103B900000F016FB5FEA000A06F11E076DD0002256
:103BA0000421381DFCF794FB024604213846FCF73B
:103BB0008FFB0146F07EFFF75FFA01463088FFF782
:103BC0005BFA024631882846FCF782FBC0430004BA
:103BD000000C51D10AEB4A0101EBCA00F9494FF040
:103BE000100901EB800414F82C0D0B2879D2DFE8C2
:103BF00000F04444C4F9F7F6F5F4F3F20600687BEC
:103C0000410704D5A07840F00800A070CEE18107FC
:103C100013D5C00630D5281DFFF798FDA169401CBB
:103C2000884229D105F10800FFF790FD61698842BB
:103C300022D100BF84F82290B0E1D4E9041291426D
:103C40003FD0C00618D505F108000746FFF77EFDF6
:103C500001466069814215D120610021204600F0B3
:103C6000FDFCA078221D40F00800A070A76A2389FF
:103C700004215046B84701E07DE0CCE0A07820F078
:103C800008001DE0A07840071BD53846FFF75EFD11
:103C900001466069001F814213D12061676A0422D6
:103CA00038883918363107F13A00FFF7ADFE3A216E
:103CB000384600F001FA04203880A07820F0040093
:103CC000A070281DFFF742FDA16988420AD0281D77
:103CD000FFF73CFDA169401C8842ABD1A08BE0837B
:103CE000A8E76AE1A178B8F1000F41F00800A070E0
:103CF0000DD0E08958B17188A66A01EB0B024346EA
:103D000005215046B047A16901EB0800A061687B1E
:103D1000C00717D0D4E90401884213D1221DA56A37
:103D2000238902215046A847A069401CA061606910
:103D3000401C6061112084F82200504600F0C2FB54
:103D400008211BE1A178B8F1000F21F00800A07054
:103D50000FD084F822906078000707D5E0894045AD
:103D600002D9A0EB080000E00020E081504600F0FE
:103D7000A9FBA08BE083BDE8F09F687B410701D5DC
:103D80000221FBE0C10601D4800704D4394628464D
:103D900000F024FCF4E7221DA66A23890021504686
:103DA000B047C0B32946504600F054FB00F0FEF97E
:103DB0002061401C6061281DFFF7C8FC401CA06109
:103DC000122084F82200504600F07CFBA07820F0FE
:103DD0000100A07053E0E6E0BDE0A3E08FE062E008
:103DE00036E0FFE7687B41077AD4C10714D005F1BC
:103DF0000800FFF7ABFC61698842BCD1281DFFF7C2
:103E0000A5FC401CA0616069206184F822905046A6
:103E100000F058FB11E040E0C10616D505F108009E
:103E2000FFF794FC61698842A5D1281DFFF78EFC3D
:103E3000A16988429FD160692061221DA56A2389FA
:103E400001215046A8470A2198E0800793D424E036
:103E5000687B410744D4122636EA000111D080075E
:103E60001BD52946504600F0F5FA281DFFF76EFCD9
:103E7000401CA06184F82260504600F023FB03211F
:103E80007CE005F10800FFF761FC61698842B4D16C
:103E90002946504600F0DEFAB0E739462846BDE82C
:103EA000F05F00F09BBB687B41077FD4C10718D04F
:103EB00005F108000646FFF749FC6169884205D014
:103EC0003046FFF743FC2169884296D1281DFFF751
:103ED0003DFC404400F10100A061606920611AE0EE
:103EE00064E0C0067FF547AF05F10800FFF72EFC40
:103EF00001466069814297D1062120613EE0687BDE
:103F0000410753D4C0073FF436AF281DFFF71EFC0E
:103F10004044401CA06184F82290504600F0D2FA40
:103F200009212BE0687B410740D4C10609D505F182
:103F30000800FFF70BFC014660698142A7D12061B0
:103F4000EEE7C007DFD0281DFFF700FC404400F17A
:103F50000100A0616EE6687B410727D4C10612D537
:103F600005F10800FFF7F2FB0146606981428ED13E
:103F7000206160780221C00700D101212046BDE800
:103F8000F05F00F075BBC007BDD0281DFFF7DEFB5A
:103F90004044401CA061112084F822005046BDE836
:103FA000F05F00F08FBA687B4107CAD5221DA56A71
:103FB000238903215046A847DBE7BDE8F05F0520D1
:103FC000FCF79CB8701500102DE9F84305464188B0
:103FD000001D0C18A088FFF754F8082848D30127C3
:103FE000284EDFF8A48047E03078022842D160886C
:103FF000FFF747F8718888423CD117F0FF0737D0A8
:10400000717905F11E09890724D5E08810B30022D3
:10401000042105F12200FCF75BF902460421484621
:10402000FCF756F90146E87EFFF726F88046A0889F
:10403000FFF727F84146FFF71FF88046A088FFF7F3
:1040400020F8014642462046FCF742F9C0430004EE
:10405000000C0DD12088FFF714F802462888494645
:10406000083883B20093B56804F108033846A847BE
:10407000BDE8F8830C367F1C98F800008742B3DD5A
:10408000F6E700003415001000470000084A30B47D
:10409000D2E90034591C01F01F01A14205D0054CA2
:1040A00044F82300116030BC704730BCFFF71ABBE6
:1040B0008C140010D05E001070B50180A0F10804CF
:1040C0000F31606821F00305A8420CD9FEF703FD0B
:1040D0006068411B04480268511A01606560BDE8D0
:1040E0007040FEF7F3BC70BD9414001070B5FCF77F
:1040F00004F927480078012801D1FFF74BF9254939
:10410000D1E90020824241D0234A52F82040401C8D
:1041100000F01F004860208A082806D0B0F5C16F63
:104120002FD12046FFF792FC2BE000212046FFF71D
:1041300019FB10B304F11E00042200210546FFF70D
:1041400079FC28B9012204F10A012846FEF7FEFF96
:10415000E07E012806D0022808D006280ED01128BB
:104160000FD107E02046FFF7BEFC0AE02046FFF72C
:10417000B9FC06E02046FBF7C9FF02E02046FBF74A
:10418000C7FF2046BDE87040FFF7ACBA70BD000025
:10419000991400108C140010D05E00100A0E0270EA
:1041A0000A0C42700A0A8270C170704703484FF6C9
:1041B000FF71008801EB0040704700009C14001064
:1041C0002DE9F04105460127234C01F10C08234E4F
:1041D00017E02078022812D02888FEF752FF2189A4
:1041E00088420CD16888FEF74CFF6189884206D16D
:1041F00004224146201DFFF7F7FB012809D02C348B
:104200007F1C30788742E4DD687B10F0150F20D1E9
:1042100002E0F8B2BDE8F08180071AD501270E4C04
:1042200014E0207802280FD16888FEF72AFF618900
:10423000884209D104224146201DFFF7E5FB28886A
:10424000FEF71FFF2081E4E72C347F1C3078874283
:10425000E7DD0020DEE700007015001001470000D8
:104260002DE9F0477448754B007898B1754A0021E4
:10427000734814780BE0028C0AB1521E0284012CA0
:1042800003D1C28B0AB1521EC2832C30491C1A784A
:104290009142F0DB00264FF011084FF0020A6A4FFE
:1042A0006A4D9946A8E0297899F80000814201D921
:1042B000012028702878624900EB400202EBC00020
:1042C00001EB800414F82C0D0B2877D2DFE800F006
:1042D0009090905959778677776C0600D4E904203E
:1042E000A178A0EB0200C90700D038B1E18B91B1F1
:1042F00000287DD0208C00287AD120E0A07820F002
:104300000100A07084F822806069401C60612878F8
:1043100000F0D8F811E084F822806069401C6061E8
:10432000287800F0CFF8A078221D40F00800A07097
:10433000A66A238902212878B047052175E094F800
:104340002300A8B104F11C04401EE0714FF01800D6
:10435000A071A1684FF0000328780A88164600F083
:10436000C3F8A06806803888A080208860805FE05D
:104370000021204600F072F9A07840F00800A070FB
:1043800042E0208CD0B994F82300E0B3401E84F8BA
:104390002300287800F096F821783888032901D086
:1043A0002B480088208443E0208C38B9607851463F
:1043B000C00700D10121204600F05AF918E0208CF6
:1043C000B0B994F82300F0B1401E84F8230084F8BB
:1043D0002280287800F076F83888E3E7208C38B916
:1043E00094F8230078B1401E84F823003888208494
:1043F0002878401C2870761C99F800108E42FFF433
:1044000052AFBDE8F087FFE7042084F82200287847
:1044100000F058F8221DA66A238903212878B047A6
:1044200060785146C00700D10121204600F020F9F4
:104430002878401C2870E4E7981400100147000019
:104440007015001099140010044700008814001023
:1044500008470000F0B50A7B6FF0030303EA9204FB
:10446000143C2BD01431002240F2B45324E08D5C74
:10447000002D23D0012D02D0022D18D101E0521CB5
:104480001AE08E187578042D11D100EB40050C4F01
:1044900005EBC005768807EB85052C3D76BA9E4274
:1044A00000D91E46AE81AE7846F00206AE708D1879
:1044B0006D78002D02D02A44A242D8D3F0BD00006E
:1044C0007015001070B505463A20FEF7EDFD044664
:1044D000002301461A46284600F006F82046BDE8AB
:1044E0007040FFF7FFB800002DE9F8430D4617466E
:1044F000984678B137490978491C88420AD800EBB8
:10450000400101EBC000344901EB80042C3CA08940
:10451000B84202D20020BDE8F88305F12606608982
:10452000FEF7AFFD30802089FEF7ABFD708021697A
:10453000301D4144FFF732FE06F10800A169FFF784
:104540002DFE5020307394F822007073E089FEF73E
:1045500098FDF081002030827082A07881070ED50E
:1045600020F00200A07040F20240688705F13A078F
:10457000A089FEF786FD7880602030730427201D17
:10458000FFF758F900220421FBF7A2FE024604219E
:10459000201DFBF79DFE01460620FEF76DFD01463E
:1045A0001437B8B28046FEF767FD024639463046FA
:1045B000FBF78EFEC04380B2FEF763FD3082A5F8A4
:1045C000008080230093E3780622211D2846FFF710
:1045D0007DF9A0E7014700007015001070B51D4E71
:1045E00005461D4B3278407B02EB420404EBC202CD
:1045F00003EB820440072CD40422201DFFF704FAA9
:104600002888FEF73EFD20816888FEF73AFD60812C
:104610000020E070697BC9060BD505F10800FFF7A3
:1046200095F82061042084F82200281DFFF78EF8F9
:1046300007E02061142084F82200281DFFF786F887
:10464000401CA0613078BDE87040401CC0B2FFF74C
:1046500039BF70BD014700007015001070B50446E9
:10466000406A0D4608B1FFF73DF8656270BD000075
:1046700070B504460170164D00200B291BD2DFE8EF
:1046800001F01C1C1C200C151515150612001149F3
:104690000988218484F823000DE00F490F4A098816
:1046A0002184117805E0A08BE0830AE02A880121AB
:1046B000228484F82310E08370BD00212046FFF798
:1046C000CDFF074928882084087884F8230070BD2E
:1046D00004470000064700000A4700000C4700009E
:1046E00002470000014901208870704798140010AB
:1046F000390000000040000064000A009600040237
:104700000507050090011400C800640007000000C0
:10471000000000007F3E1C080000080C0E0C080082
:104720000000000000000000000000000000000089
:104730000000000000000000000000000000000079
:104740000000000000000000000000000000000069
:104750000000000000000000000000000000000059
:104760000000000000000000000000000000000049
:104770000000000000000000000000000000000039
:104780000000000000000000000000000000000029
:104790000000000000000000000000000000000019
:1047A0000000000000000000000000000000000009
:1047B00000000000000000000000000000000000F9
:1047C00000000000000000000000000000000000E9
:1047D0000000000000005F0000000000000000007A
:1047E000143E143E1400242A7F2A12002313086466
:1047F0006200364955225000000000060000003ECD
:10480000410000000000413E000014083E08140072
:1048100008083E080800005030000000080808089A
:1048200008000000606000004020100804003E51B5
:1048300049453E0000427F40000042615149460028
:104840002141454B31001814127F10002745454582
:1048500039003C4A494930000171090503003649D5
:1048600049493600064949291E0000363600000035
:10487000005636000000000814220000141414141E
:1048800014000022140800000201510906003249F8
:1048900079413E007E1111117E007F494949360061
:1048A0003E41414122007F4141221C007F4949494C
:1048B00041007F09090901003E41415172007F0812
:1048C00008087F0000417F4100002040413F010077
:1048D0007F08142241007F40404040007F020C02CC
:1048E0007F007F0408107F003E4141413E007F0968
:1048F000090906003E4151215E007F091929460041
:1049000046494949310001017F0101003F404040D3
:104910003F001F2040201F003F4038403F006314ED
:1049200008146300070870080700615149454300F7
:10493000007F410000000408102040000000417F7B
:10494000000004020102040040404040400000001A
:10495000000000002054545478007F48444438003C
:10496000384444442000304848507E003854545461
:104970001800087E09010200085454543C007F10BE
:104980000808700000447D4000002040443D0000C5
:104990007E102844000000417F4000007C04180481
:1049A00078007C08040478003844444438007C14BF
:1049B00014140800081414147C007C080404080073
:1049C000485454542000043F444020003C404020C0
:1049D0007C001C2040201C003C4030403C0044280F
:1049E000102844000C5050503C004464544C440087
:1049F00000083641000000007F000000004136083A
:104A000000000000000000000000000000000000A6
:104A10000000000000000000000000000000000096
:104A20000000000000000000000000000000000086
:104A3000000004060706040000000000000000005B
:104A40000000000000000000000000000000000066
:104A50000000000000000000000000000000000056
:104A60000000000000000000000000000000000046
:104A70000000000000000000000000000000000036
:104A80000000000000000000000000000000000026
:104A90000000000000000000000000000000000016
:104AA00000000000000000000000081C3E7F000025
:104AB0000000000000007F3E1C080008183818089D
:104AC00000000000000000000000000000000000E6
:104AD00000000000000000000000000000000000D6
:104AE0000000000000001C3E3E3E1C0000000000D4
:104AF00000000000000000000000000000007C55E5
:104B0000544500000000000000000000000000000C
:104B10000000000000000000000000000000000095
:104B2000000000000000000000000000000000067F
:104B30000909060000242E240000000000000000E7
:104B40000000000000000000000000000000000065
:104B500000000000000000000000000000003855C8
:104B6000545518007C10207B0B0000000000000052
:104B70000000000000000000000000000000000035
:104B800000000000000000203038302000007E11BE
:104B900011117E007F49494931007F49494936005A
:104BA0007F0101010300603E21217F007F494949C7
:104BB000410077087F0877004149494936007F2046
:104BC00010087F007F2011087F007F081422410019
:104BD000407E01017F007F020C027F007F080808F1
:104BE0007F003E4141413E007F0101017F007F097E
:104BF000090906003E414141220001017F010100F7
:104C00004728100807001C227F221C006314081488
:104C100063007F404040FF00070808087F007F4096
:104C20007F407F007F407F40FF00017F4848700049
:104C30007F4438007F007F4848483000224149497E
:104C40003E007F083E413E00462919097F0020545E
:104C5000545478003C4A4A4931007C54542800009E
:104C60007C0404040C00603824247C003854545420
:104C700018006C107C106C004444545428007C20B4
:104C800010087C007C2012087C007C102844000066
:104C9000403804047C007C0810087C007C10101054
:104CA0007C003844444438007C0404047C007C14B8
:104CB0001414080038444444000004047C04040034
:104CC0000C5050503C0018247E2418004428102812
:104CD00044007C404040FC00001C10107C007C40E4
:104CE0007C407C007C407C40FC00047C50502000D8
:104CF0007C5020007C007C505050200028445454AC
:104D000038007C1038443800085434147C202020AB
:104D100000FFEDE200F4E5E200ECE0F000E0EFF08F
:104D200000ECE0E900E8FEED00E8FEEB00E0E2E385
:104D300000F1E5ED00EEEAF200EDEEFF00E4E5EA59
:104D40000030313233343536373839414243444507
:104D50004600FFFFFFFFFFFFFFFFFFFF8C4D00003E
:104D600000000010A81400005C02000000600000B9
:104D7000A8140010E85200009A3000000060000003
:104D800000C00720646A00009A3000000519010283
:104D90000304027014000CFF48656C6C6F20576FA1
:104DA000726C640123281509070A180F15110608EB
:104DB000080F0D060D060E101111110428241111F3
:104DC00006060C0E0D0F18131010101310151113EA
:104DD00013131017121312101112131712160F17A4
:104DE0001B0C00271A1712090E090E12080E0F0DC0
:104DF0000F0E0B0F1006090E0717100F0F100B0DDB
:104E00000A100F140D100E0B060B0B320132043278
:104E10001C32242BEC0394091C010A2010B4180A3C
:104E2000111112111113120611B419B81C1411101A
:104E3000BA0D2217121214AE299429875A189423F6
:104E4000484E101078DAED9D5D8C63479580CBFF5E
:104E5000FF6D7B10E08924A4ED24249112141B0D16
:104E6000111289E2D66AC5A25D16F7033C2014DC54
:104E70006857E201841D7818102C363C208432B12A
:104E800047E28904D99348EC039BB86723962060D6
:104E9000EC1E181629516E87B04CE0616E07F19F29
:104EA00081DB76B7FBD7BE67CB3DB7CE394EAE358B
:104EB000D333EDDBEE21359A9E6F6ED72DDFBA55D9
:104EC00075EA9C53A7CADE48281C888613B1703047
:104ED0001A967FA2E1607846FE8C849233C9994885
:104EE000D0EB0F46233351AFDF1F0CF902BE400851
:104EF00093CF37FC198BC8140E47A2BE5044DE680E
:104F0000FD2F1C0F8743FE805FFE0CC90243FE503D
:104F1000D8E70BFBE3E150381C0CF9C3C158281843
:104F20004CF863E1885B0811957FDF2EFFBE4DBC16
:104F300099F69DEA1070B060C74BC924E669B3FCCE
:104F4000ED917B7FCACB99C77BDFA2AD50FE42C7F4
:104F50008E978E519ED16738EF54DD5D8F5E5C5425
:104F60003C0BD0505CDD48601E6D81F2EBFFD14FF1
:104F7000239B806FC26864D614C35C7403391BD949
:104F8000C43CF3B19EE2E6621EF3E701F0197CDA5D
:104F90009F1D6BF7AA7CE7093B7E89DABDBACCF28C
:104FA0003BC8D3965A10FA695BAEB03C07C4934E27
:104FB0001ED9D61D5BBEAD409CC82BF68240F63193
:104FC0000E98C4C10171748738B581EC2AAF250BE6
:104FD00056A78FC23055DEC85BC3F136867F3CEFE3
:104FE0007CBBC7017AB6DC99414E31CEAD12175663
:104FF000889B35E40890ACDBAB7BC9E27599CD8624
:10500000F7DE5DE2FAABE287050FA4FD974574EB8E
:1050100055C9B3BB7BBFC86C4BAE77AC4CC7E10E78
:10502000F574DA4FE05D7DEBEECC36D4BB4A50F63A
:10503000417B5509EBDF417E5BF5937F83BB21BB51
:10504000C7B1812C53BF3CA0AB6B92F3C316146E57
:1050500068480EEF8D9F282424BBA03D85C33D6486
:10506000CA169BDDB2E47CAD59AB5BB229B7D6FC66
:10507000A61AFD8141F3E94D1C2FBAA6047A6CBB38
:10508000F92DF5DACAAF364F590DEC868566AD7845
:10509000F91D46FBB2FCD8AE43E3FDEC251C3905F7
:1050A00000FF009A9BFEFB01536579212D4736A630
:1050B0005BFA8865F82DE375CA7333E6BF4D562D4C
:1050C000ABBA40165918E7EE0536C76DB0E7999BA5
:1050D0005639FF6903D519977E91E47C52CEDE8A5A
:1050E000DD8FD3EBF1C20E1BA594E7B32EBD84E395
:1050F000CEA0723E6D3CEB9C5ED716D16DE2226372
:10510000833808C429C6CD1F21FF041E447E619B3D
:10511000CA840EE312B1C93EB737F20CC8D396B4B5
:1051200052A44F5C606C109F3089AB7F22864F1277
:105130000F02C4EB8C1789279D7C724E59B3E5642E
:105140008E5864F6C3FE0171B04F1CDD45761537ED
:10515000902352A940EECF51FE694B724EDFB4E569
:105160006ED496531DE2CC2A717505390235E4E8F8
:105170006E82F24C5D9F6F888C12E85A573491779B
:10518000DC28E835B887B8D96A217F1172C89FDB5F
:105190008D23976E632CE2EB0EDAB06B76BC447D08
:1051A0005E00FF00CA9FCC61F0D4B53BC0962D973E
:1051B0002207CE539662B26BD404E9DE15B289B8E9
:1051C0007D74303CE114D91DAAA64A0D4993DEA591
:1051D00057A435A654B69519D4BB523D34CB446878
:1051E000B7D960F620E963DA803EA1C044570E6F5C
:1051F00015EE16BA2B4493541BD1FCBD934D497543
:10520000E1EC7A14CCEF5BFCD0D0B87AC9AAD6EF27
:10521000F2DD8FEF587AF85CAEE30765DAE63A9E86
:10522000CB75E0CCF308ED9778EFE5322DDBC7F5D1
:1052300004983FB77D9E4927D65E57C19E67A0BFA1
:10524000407A38EA78C669E3FD56A77141DAC85A50
:105250007E2ED9858DACE58FD8BBAE5B37EB678CE6
:105260007F52CD3D2C470D72B72C7FFE1A9FED1A51
:1052700074DA4391E1C379643D41F38BF21472DE39
:105280001B0363F8DBA543D1690F5EB6B3EA0E9941
:105290002481288EE183F05D08A324B4DA35B27E40
:1052A000CEAD10AEE4E45E7B290E83892C5C947F46
:1052B00058B57DF25425C8663A57E405629D5C8076
:1052C000E2415367722C73153C711B56BEE7CB0E3F
:1052D00029477929A99D4A5ABCE7A07C234F9F0DF5
:1052E0009BE904760F9887B5B5E11BBCDD3FC1DAB9
:1052F000BAFF7A462BD89E7F7DC3B43B2C335E61C8
:10530000C37F0CBBD207E0AB7C6DCECE57699CBB94
:1053100047AD4FB97F9876015B0AD017981158B204
:1053200063575239E35CC785508357EA786E54441B
:10533000F45FBC0B35F7DC88AFF2B5A9F5559E4498
:10534000AD6EA8C293C9753C804B79C2F375340B1E
:105350004400FF00F86BA3EBFF183059399B76E54A
:10536000BF99269852CC291A6796739C995F64C599
:105370004923B6471C650E9608733884BB4C228DB2
:1053800099AD23FF33E6731DB4DEF5FB77F7C53720
:10539000542A2FE7B0999A8B855514E8155C0A2F8B
:1053A0004AC96BDAB00F92A884F84D170EE6A1A493
:1053B000EED9F0ECE64D7D2514E2BD08F6B8CC5AE6
:1053C0006C932CD878EFC0EB185EB5655FCB7C4A48
:1053D000B07AA999037EF0F2F79459097763408077
:1053E0000B4E5070800EDB28931FE21AC9C74C1277
:1053F000708165A346DC5236CB0B1FB8A0E685A1B1
:105400006B1C9D1DEFD307952B3DF341A5E134F9AE
:105410001B557733EB572FBD5F68C4AC5ABA37A31F
:10542000CB8505E217D5BD83E253383A0B837B3A2F
:105430000F5FB0FE93483D69EAEAB554EFEC65D4DE
:10544000ECB7EB5F4B59550BAC13CF2C7B76EAD600
:10545000DBFA1027D0BCF8B253639EE9086ECDC4C6
:10546000768C6CCCA2948A6FA45092454D03AFFB0E
:10547000D8FC1590F3D487D530BA00FF00EF540A5A
:1054800098315F7D4DADC819D928FA8135A93F2CD7
:10549000935E81B3A54FEF7FC470689AD3B3FBE3EB
:1054A000A39EDCCCFF712BEB5FC557999ECF1C05EB
:1054B000CDDA64997F167F06FE6CEEC583A9FBBD2D
:1054C000BCDDD93314D8BCCC1747667A9365FE5936
:1054D000FC19F486FD331F9C2147F8B5C7E813A4D7
:1054E0004D813D3DCC420C5A606629FF03B6E5FC78
:1054F0005DA462C38EDD40B60967912C9F4E5CE1CE
:10550000DEBFBBC4C7DD38BEC8ACBB53535C175A43
:10551000D11CE5643221DE4CB24D17AFCC134F3EA7
:1055200066A78499C116670658813D508BCC7117C8
:105530005B37F4B390A22893E129A68A96B9239AFF
:10554000FAB0DBA4CB016656C626BD16EDD32E08F5
:10555000E6B7A9D0FC525E258F437C0DAB9B9E59CC
:10556000BF46E6E5C8F28BABEC73F1ADF8F40BCEB9
:10557000B57B81DADA4F2259E44CE200FF00FC07E8
:10558000898F4759DF98344F3879B557A88E6C25E5
:105590004C3B4D5AC67759DBC95ECCB48F26197582
:1055A00001D207449E1C1F2E83E6AF285B9AAE777C
:1055B000B96CA4B85CCE934E7ED6C7CAACCFC32913
:1055C000EAF3271271F6A464E28B285B4388015B3F
:1055D0001D2C766D3438CF5F9936075FA13C55F6A8
:1055E000CE03FA2BCEF5F9106B8C14EB6FE5156238
:1055F000A3C4C605CD5331A66F173AEF45E9A535CB
:10560000AA6AFC7A218D1C60AB0E9CE5DC573F4DED
:1056100025551D5B8E93BA6BD79699ED36C24FFC1C
:105620009CDFBB486384DAF1D888864E1EBEEF66E5
:1056300069EC4859D7B593757ECDC1768F6DF3C6A9
:105640006395A4D7EF6131211136976506FF4BE3CF
:10565000973DBF512B7750CE27E224F3135477A305
:1056600052ECB0B156B31B8393366779C8C3088B2D
:10567000548F98E6A3E430C28E26789A10FCA503D6
:10568000A6FDFBE411637C338C41AE292F7BB7A1CF
:10569000BE73CDCEE7F7329339C6E972176B98A582
:1056A0003E6CD4A8AFE6D9520C67E314E6F18088CB
:1056B0006D10B3FD53B5C21A93758BD4EEAF385845
:1056C000F757B86ED3203BA2D865FA498FDE03C9DD
:1056D0006A6374CCB6B1CC1F31F9EF67FD618639CE
:1056E000FD8B4CE1D3A90FF8E0E8E9FCC58E3DBF86
:1056F000774C5C0CBF3EEEDEA35EF771E9836DFB79
:105700002E3096A927A14FD4F9E43DC31423ACE56C
:10571000DB0D135B526751629C791E7EAF2C73E9DF
:105720008835F578FF0C33D4198FCD7F54D277B8F4
:105730000DFE27924B0FC3364D54FF02D45BDF475B
:10574000B1460FC34ED6EEDEEF1C560F1EB56550A8
:10575000C7689D41FD447C9ED99E230A908B969BF1
:1057600044C4A4CA64985AF7A1311B5CEF5AB8F23A
:10577000209F7472DD8EEDE53700FF00FE4FD5F0FF
:105780009CF0A83589E1BF056BF68344F0F9F2B2CD
:10579000E23A868740021E69294E42BAA8F8188864
:1057A000BCDDF52C94547EADD1C472FE3571D3F3BB
:1057B000851587EACEC3D5E33CFE99295B2DB2EF70
:1057C0005CD05A26BB8694B6C86E748B4CA2A04996
:1057D00032DF83C66D8B82CE5D2CAA66681EA97DE2
:1057E0000A5169E0CC38B54F8AEFB51FDDFBFF5693
:1057F0005D55B2DE1668D0D6DB6EAD4DF9CD3463A3
:1058000055C7FAB93B3476EFD8BDFFABEC734BC448
:10581000CE396E4E0E70DEB995D995D58DBBF13D62
:10582000E80D81D1EECC9C153C027024AA66C1D64D
:10583000FC1D29A7BA711766BB95C7949D646BD0F0
:10584000136FF7C193BCDDB1ED96EE440577B4DD7F
:1058500029C05D32C62D0C63A4BBF6D7731DBB7285
:1058600096DE66B4ED3E17064F3957F7EB3AEF6216
:10587000CB96AFE65E9E67CC33DC00FF00B075BF11
:105880000A7660BC57C8E546B11FD5CDBB50FEE8CF
:105890008B0285BB1CBFC7D276E37DA18A0A0D6748
:1058A000991F1D7C72BCA3053F1CEF151AEF8343A3
:1058B00019EFD7B3F761C27BEB1CA8FBD4F2E4D39A
:1058C00068CF9D28331FD737315C5784594CA9FBCB
:1058D00099BE7387780CF58D2DD25BD079546FC744
:1058E0005041AFB7EBD80DEBE7A92E75839C2CDCAC
:1058F000575937ABE8CFA9AFCDECD267F9B1F2F287
:1059000073F5367B861E71CCBCD1FBFCEBE6B83957
:105910001B9E78DDA5529DB35E7A5D5AD44DC503BA
:10592000D94315C35C90B81D4736D68A86E2E7771F
:10593000F4B2E29F02282F6FBDAD6DC5910B1D62C1
:10594000DF1CF130CEF28DEC40BBA3CB5DD69DD8F1
:105950004C10438DF11AF1C53EF179F814725BBB1E
:10596000449C01E2206361302EECD83CCFE4E7F7A1
:105970007E45D8E8D5437DBEC4F4F0183F36CDD778
:105980003847CB918F2B57529F2766D7797E5E0E73
:105990002FFFF0F479F359DB71B7F4162E8B8A4C94
:1059A0009F2FACDAE51919B3ACCCA9D6EB26D2EE11
:1059B000556AF7609DDABD0E64C7E593105293C433
:1059C000C9C163CC75E19B9FAE7667EC261B7F5403
:1059D00056AF533BE67BC4B13EB18FCEFA1B9DEF71
:1059E0008A4E2DC07B5FBC84167691B6350B78F25B
:1059F000AE33E8534D33ED84DBE3E67FE26F1E62A6
:105A0000F5757D546353345FB5A6A25EF887070031
:105A1000FF0033B078837FD61DDB2B1404B29D3991
:105A20008B64B19B24FF15F31F3AC9134E5A8DFCAA
:105A30000C93E28ECD78296CDD69A8B11F01202777
:105A4000EF97064E850E4677042E2A074C81FBE021
:105A50003C90A55541A314667A29ED1CCA7768BB12
:105A600049BC470BCCE11D0DE5A78FC5E5BA800DFC
:105A70008516F34816994F3BE358BBCBBA07B6AC33
:105A8000B893A0393C42EDF2DAB917D2714858CA3E
:105A900019CCE761DEF2326A35A9E958D5ACB675A2
:105AA0006DC58A51C87721D7B5DE5C7C6710DBB144
:105AB000DE5C14B683CA3A0FC2BA07F05CBB55A1CC
:105AC00046B94B4AFFA6EA1C5A49149D39B3521AEB
:105AD000172EF4CBE952EF526D9D5F4FA11F26DACE
