:020000040000FA
:10000000007B0010E1000000E5000000E7000000B8
:10001000E9000000EB000000ED000000000000001F
:10002000000000000000000000000000EF000000E1
:10003000F100000000000000F300000007130000C2
:10004000F7000000AD010000D3010000F700000040
:10005000F7000000F7000000F7000000F7000000C4
:10006000F7000000F7000000F7000000F7000000B4
:10007000F7000000F7000000F7000000F7000000A4
:10008000F7000000F7000000F7000000F700000094
:10009000F7000000F700000047060000F70000002E
:1000A000F7000000F7000000F7000000F700000074
:1000B00027200000F7000000F7000000F700000014
:1000C000F7000000F7000000F7000000DFF80CD098
:1000D00000F0B2F80048004727140000007B001031
:1000E00005480047FEE7FEE7FEE7FEE7FEE7FEE71E
:1000F000FEE7FEE7FEE7FEE7CD000000FEE710B5F5
:1001000003F07CFABDE8104003F032BB03F0E4B921
:1001100002F0ACBF09B10020704702F01FBD002003
:100120007047000070B50D4A0020A2F11401064688
:1001300001F10A030C5C54B11D5CAC4207D1145CA4
:100140002CB1641E14F0FF04145400D10E540C5C46
:100150001C54401CC0B20A28ECD370BDF0710010D2
:100160000648B0F90810002907D0491E09B20181DC
:10017000002902D1084600F0AAB9704700C0072044
:1001800090F900308B4200DA027090F9003093420F
:1001900000DD0170704790F900308B4200DA017089
:1001A00090F90010914200DD027070474FF040213D
:1001B000012008600B480168491C01600A48016879
:1001C00021F0FF01091D0160016841F080710160AB
:1001D000704706490120086002484168491C416097
:1001E000704700001CC00720004003400080004012
:1001F000704710B50B4A002320244F2908D041290D
:1002000009D052290BD0532908D15360936004E0E0
:10021000C2E9010301E050609060147010BD90606D
:1002200010BD7047347100100146002000E0401CF2
:100230000A5C002AFBD17047064C074D06E0E068D7
:1002400040F0010394E8070098471034AC42F6D31D
:10025000FFF740FF6C420000AC42000070B501EBBC
:10026000020410F8015B15F0070301D110F8013BFF
:100270002A1106D110F8012B03E010F8016B01F8E8
:10028000016B5B1EF9D12B0705D40023521E0FD43E
:1002900001F8013BFAE710F8013B02F10202A1EB81
:1002A000030303E013F8015B01F8015B521EF9D56B
:1002B000A142D6D3002070BD00B5002200F008F89E
:1002C000C04380B2010241EA102080B200BD0000AC
:1002D00005E000BF30F8023B891E5BBA1A440129D1
:1002E000F8DC11B1007802EB002290B200EB124072
:1002F00000EB104080B2704770477047FFFFFFFF70
:1003000000209E4A20211154401CC0B2C828FAD3B4
:1003100070470146994A0020401CC0B2135C8B42D2
:1003200001D0C828F8D3704710B50021944C0A2298
:10033000B0FBF2F302FB13006054491CC9B218462B
:100340000529F5D310BDF0B58E4B0121202719707A
:1003500005218B4A002601E01C7844B1541814F89A
:10036000015C25B9814202D904F8017C05E05418EA
:1003700014F8015D303525701E70491E11F0FF0123
:10038000EAD1F0BD70B50D4616461C46FFF7CCFF0E
:10039000601CC0B2FFF7D7FF05EB850006EB8000BD
:1003A000C1B2774A754B0020A04201D2155C5D5462
:1003B00006D3155C202D03D04CB15E1806F8015C05
:1003C000491E401CC0B2C9B20528EDD370BD5D54B2
:1003D000F6E730B5044608461546FFF79AFFFF28B2
:1003E00009D0664A2178002905D04319641C401CB5
:1003F000D154C0B2F6E730BD70B50D461446FFF7D4
:1004000093FF601CC0B2FFF79EFF2846FFF781FFF5
:100410005B4B5A4A002124B95D5C202D01D0155454
:100420000FE0A14201D25D5CF9E704D14FF02E0547
:1004300015545D5C02E05D5C202D02D0161806F8B4
:10044000015C401E491CC9B2C0B20529E3D370BD8E
:1004500017B501EB810002EB8000C2B29DF80030BD
:10046000494803F00F0100EB1313445C43498C54DB
:10047000521ED2B21B788B549DF80130521E03F0ED
:100480000F04D2B2045D8C54521E00EB1313D2B28F
:100490001B788B549DF80230521E03F00F04D2B229
:1004A000045D8C54521E00EB1313D2B21B788B5494
:1004B0009DF80330521E03F00F04D2B2045D8C5439
:1004C000521E00EB1310D2B2007888541EBD2F4B81
:1004D0001A88521E104400B218802D4A00EB80008A
:1004E00002442C4813680360127902714278114467
:1004F00041707047F0B5254D254FB5F9004004EB2C
:100500008406641C2C80234C3E4425683560257984
:100510003571207061702271A370F0BDF0B5054691
:100520000E461746FFF7ECFE144C0020401C15F851
:10053000011BC0B204F8011B1428F7D35FF00000C0
:10054000401C16F8011BC0B204F8011B1428F7D395
:100550005FF00000401C17F8011BC0B204F8011B3B
:100560001428F7D35FF00000401C13F8011BC0B241
:1005700004F8011B1428F7D3F0BD0000760000102A
:1005800014C007202E7100105142000032000010EC
:100590004C7200106C0000107CB59423FF4A44F6A6
:1005A00020652946FE4C206E01F0D6FFFB4A43F23F
:1005B0009453943244F6B461206E01F0CDFF206E66
:1005C00001F0AEFE6FF07D41206E01F0B3FFF54902
:1005D000206E01F0AFFFF449206E01F0ABFFF3494C
:1005E000206E01F0A7FFF249206E01F0A3FFF14950
:1005F000206E01F09FFFF049206E01F09BFF2A461C
:100600000821206E01F03EFEECA04FF4C065CDE95C
:1006100000504FF4C8762323B4223146206E01F0F7
:1006200059FDE8A0CDE90050072350223146206E45
:1006300001F050FD0021206E01F07CFF206EBDE82E
:100640007C4001F0B2BDE248016821F0E061016048
:100650007047F0B50020DF4A01464FF4F47311549F
:10066000401C00B29842FADB00214FF0140C7A23B0
:1006700001FB03F001EB81039B0001EB81041BB242
:100680000CEB84041CE0C64DD34F6E35ED5C05EBDE
:10069000450517F81560165407EB4505401C6E78A4
:1006A0001654401CAE781654401CEE781654401C6C
:1006B0002E791654401C6D791554401C5B1C1BB2DE
:1006C0009C42E0DC491C09B20429D0DBF0BD2DE9D5
:1006D000FF5FB34C00262079401CC0B22071142863
:1006E00007D32671E078401CC0B2E070052800D323
:1006F000E670AB4D643528780A287DD195F9010064
:1007000030B195F904100A1A022A03DD801C03E0B7
:100710002E7102E0884200DD2871B0A3AFA2AFA124
:10072000AEA0FFF7FBFEA08F01222321A0462746A3
:1007300080B2FFF761FEF88F0122242180B2FFF71B
:100740005BFEAC4C207A4FF000024FF02501FFF722
:1007500053FE207900225E21FFF74EFE2078002212
:100760002621FFF749FE207B00223C21FFF744FEB3
:10077000A08B00227B21FFF73FFE207E9E490022B6
:1007800001EB80003E21FFF724FE854C387C6E345F
:1007900060B13A20FFF7BDFD202727543A20FFF72C
:1007A000B8FD27543A20FFF7B4FD275495F904000B
:1007B000012788B195F9011071B1884202D184F8FE
:1007C0003C7009E0401A012802D0022803D003E05F
:1007D00084F8287000E02775B8F84A000023132237
:1007E0001946444680B2FFF7CDFD00230922194681
:1007F0002078FFF7C7FD00E062E395F901000023D0
:1008000080B201221946FFF7BDFD7C4800F0F6FFDB
:1008100080B2002309220121FFF7B4FD7748083890
:1008200000F0ECFF80B200230E220121FFF7AAFDA9
:100830007248001F00F0E2FF80B200231322012162
:10084000FFF7A0FDDFF8B48108F1B008404600F0E2
:10085000D5FF80B2002309220221FFF793FDA8F102
:10086000040000F0CBFF13220221FFF7F1FD6348E3
:10087000A83000F0C3FF13220321FFF7E9FD604D0C
:10088000284600F0BBFF09220321FFF7E1FD2846BF
:1008900000F0B4FFC0B2012808D1284600F0AEFF36
:1008A000000C4FF42571B0FBF1F06084E08C08B1CE
:1008B000401EE084404600F0A1FF022806D1E08CF3
:1008C00020B9A08C48B1A6840A20E084284600F014
:1008D00095FFC0B2052804D008E04FF6FF70A08451
:1008E000F2E7284600F08AFF00142085206E01F010
:1008F00017FD4449206E01F01DFE2A49206E01F0CB
:1009000019FE2949206E01F015FE3F49206E01F0C5
:1009100011FE3E49206E01F00DFE3D49206E01F0B2
:1009200009FE3C49206E01F005FE4FF47F41206E28
:1009300001F063FC4FF0FF194946206E01F028FCDE
:100940003549206E01F0F6FD618C64204FF4877507
:10095000CDE90210CDE900560A23B422C821206E49
:1009600001F027FCCDE90057BB460A23B422C82179
:10097000206E01F099FC2849206E491C01F0DAFD37
:100980004946206E01F004FCA08C1C22CDE9002613
:1009900022A132236422CDE9020143E0063B00108C
:1009A00008000010070000260000FF0408000005F2
:1009B000484E000118060807243000084D616D619B
:1009C0000000000000783100783200783300000029
:1009D00000400340500C08201D3C00002020202037
:1009E0002020202020202020202020202020202007
:1009F00000000000204002401D4200007C2030002A
:100A000000903000C8000002A000000D0200001F8E
:100A1000C012A04F00FFFF0401000003796573FFBF
:100A20006E6F00009100206E01F08FFB4FF080612F
:100A3000206E01F07FFD4FF4FE41206E01F0DDFBE2
:100A4000F849206E01F076FD4546404600F0D6FE9E
:100A5000032803D1F449206E01F0CFFB192296231D
:100A6000F2A1CDE90032CDE9026140F22628B2467A
:100A7000C82332224146206E01F0D0FB6FF07F4147
:100A8000206E01F0BAFB0021206E01F081FBE549E8
:100A9000206E083101F04EFD2E46284600F0AEFED5
:100AA0000B287ED06FF07B41206E01F043FDE1A06A
:100AB0004FF4C065CDE90050608CC821404201EB85
:100AC000400002B21E236421206E01F003FBD549D1
:100AD000206E093101F02EFD304600F08FFE0C280B
:100AE0007ED06FF07B41206E01F024FDD3A0CDE9D4
:100AF0000050608CFA21404201EB400002B21E23FC
:100B00006421206E01F0E6FAC649206E0A3101F038
:100B100011FD304600F072FE0D287ED06FF07B4153
:100B2000206E01F007FDC7A0CDE90050608C4FF4A6
:100B30009677404207EB400002B21E236421206EEC
:100B400001F0C8FAB749206E0B3101F0F3FC3046D2
:100B500000F054FE0E287ED06FF07B41206E01F035
:100B6000E9FCBAA0CDE90050608C4FF4AF79414266
:100B700009EB410002B21E236421206E01F0AAFAA3
:100B8000A849206E0C3101F0D5FC304600F036FE4D
:100B90000F287ED06FF07B41206E01F0CBFCADA022
:100BA00000E037E1CDE90050608C1E2341424FF454
:100BB000C87000EB410002B26421206E01F08AFA95
:100BC0009849206E0D3101F0B5FC304600F016FE5C
:100BD00010287ED06FF07B41206E01F0ABFC00E06E
:100BE0001AE19EA0CDE90050608C4FF4E1714042C3
:100BF00001EB400002B21E236421206E01F06AFA6C
:100C00008849206E0E3101F095FC304600F0F6FD6B
:100C100011287DD06FF07B4100E0FFE0206E01F0F5
:100C200089FC90A0CDE90050608C4FF4FA714042ED
:100C300001EB400002B21E236421206E01F04AFA4B
:100C40007849206E0F3101F075FC304600F0D6FD7A
:100C500012287ED000E0E3E06FF07B41206E01F0CF
:100C600069FC82A0CDE90050608C1E23414208EB54
:100C7000410002B26421206E01F02CFA6949206E15
:100C8000103101F057FCB046304600F0B7FD132894
:100C900000E009E17DD06FF07B41206E01F04AFC5D
:100CA00074A0CDE90050608C4FF41676404206EBFC
:100CB000400002B21E236421206E01F00BFA594954
:100CC000206E113101F036FC404600F097FD1428EB
:100CD00000E0EBE07ED06FF07B41206E01F02AFC5B
:100CE00066A0CDE90050608C40F28A21404201EBC1
:100CF000400002B21E236421206E01F0EBF961492D
:100D0000206E01F017FC6049206E01F013FC00E03A
:100D1000CEE04FF08041206E01F00CFC5B49206E6C
:100D200001F008FC4FF00451206E01F003FC6FF05D
:100D30007F41206E01F061FA6FF07B41206E01F07F
:100D4000F9FB53A0CDE900501E2396226421206EAA
:100D500000E0AFE001F0BEF94FF47F41206E01F0FA
:100D60004CFA4FF0FF11206E01F012FA4A49206E42
:100D700001F0E0FB412140F60308CDE900811F238B
:100D800014229621206E01F0C2F9C0211F231422E3
:100D900000E091E0CDE900813946206E01F0B7F91D
:100DA0002049206E891C01F0C5FB218D3223CDE93D
:100DB00000A14A463146206E01F094FA0521CDE9A2
:100DC00000B101234A463146206E01F06DFA3349E5
:100DD000206E00E072E001F0ADFBAFF22040CDE903
:100DE00000503A461E231146206E01F073F92CA0E4
:100DF000CDE9005008234A463946206E01F06AF9D1
:100E00000021206E01F096FB206E04B0BDE8F05F7B
:100E100001F0CBB9204947E61F4964E61E497FE649
:100E20001D499BE60300000300FFFF00507265733D
:100E3000730000004974656D310000004974656DF0
:100E4000320000004974656D330000004974656D1F
:100E5000340000004974656D350000004974656D0B
:100E6000360000004974656D370000004974656DF7
:100E7000380000004974656D390000004974656DE3
:100E800031300000C80000040900001FA00A4046DD
:100E90004D61696E0000000000FFFF0400FF0004C8
:100EA0004D666D6600000000F84975E6F74993E667
:100EB000F649B1E6F549D1E6F449EEE6F3490CE727
:100EC000BDE8FF9FF0B5F248016A41F400110162EC
:100ED000416B21F400114163016A21F0F861016264
:100EE000EC49CA6CEC4B02EA0302CA64016C41F49F
:100EF00080710164416D21F4807141654FF0000102
:100F000000BF00BF00BF00BF00BF00BF00BF00BFE9
:100F1000491CC9B2C829F3D3016C41F48071016442
:100F2000416D41F480714165406BDC4F60F0F860C9
:100F3000810D3C46B965A27DE36DE07D247EA1F57F
:100F4000407603F07F054FF0010E4FF0000CFF3E9E
:100F500001D0994217D087F819C0042A00D220B1D5
:100F6000BA7E12B987F81BE07B75A04202D387F8DE
:100F70001BE07D7587F81AC01420387687F816C0F4
:100F800087F817C01AE0521CD2B2BA75042A15D3DA
:100F9000401CC0B287F816C0F875A0420ED37D750C
:100FA00087F817C087F81BE087F81AE0787E28B129
:100FB00060083876022801D802203876F965F0BD3D
:100FC0002DE9FC5FB54F4FF00008F87E00281FD0D8
:100FD000A7F84680A7F8488087F8028007F16400E8
:100FE000797D06784446F92913D00122E72923D0D8
:100FF0007929ECD07A2925D0024692F901301A4697
:101000005B1C5DB2531E5BB2752E22D00A2E65D0DA
:1010100075E1752E0BD0786EC7F8690097F86800F7
:10102000002387F86D0004211A46752065E1002130
:101030000846FFF74CFA62E1532100207A65FFF77A
:10104000D8F85CE1387F10B13C777C7657E13A778D
:10105000FBE7EF290FD0F7290FD00546012A14D05E
:10106000052AD5D08D4A6432FD2992F904202BD06F
:10107000FB292BD043E1457000E0437004710B2243
:101080000021401CFFF77CF839E1FD2907D1A87841
:101090001E22401EA8700021A81CFFF77CF8787D56
:1010A000FB2807D1A8781E22401CA8700021A81C8C
:1010B000FFF771F8787DFE28AAD17C852C706C70C2
:1010C000AC70EC702C711AE1521E00E0521C0271DF
:1010D00004220021281DFFF75EF810E16F4A4FF44B
:1010E000C064FE29166E12D0DFF8B4B1DFF8B491F7
:1010F0006FF07B4AFB2915D0FD293BD0EF2974D036
:10110000F7296FD06B296ED073296DD0F7E0AFF25D
:101110005470CDE9004064221B231146304600F094
:10112000D9FFECE0457060494FF4401000F0ECFB53
:1011300059465E4800F0E8FB5C485146001D00F04F
:10114000E3FB5A485A49083000F0DEFB574849464D
:101150000C3000F0D9FB55485649103000F0D4FB54
:1011600052480021143000F0CFFB0221524800F019
:101170007CFBC4E04370304601F0D2F84F49386E32
:1011800001F0D8F95946386E01F0D4F94C49386E5F
:1011900001F0D0F94649386E503101F0CBF949469B
:1011A000386E01F0C7F94749386E01F0C3F9374985
:1011B000386E01F0BFF94FF47F41386E01F01DF831
:1011C0004FF47F01386E00F0E3FF2A2140F6030060
:1011D000CDE900011F2314229621386E00F097FFFD
:1011E0004CE002E024E07FE083E0304601F098F834
:1011F0003249386E373101F09DF95946386E01F0A9
:1012000099F93149386E01F095F94FF47F01386E44
:1012100000F0F3FFFF21386E00F0BAFF2BA0CDE9FC
:10122000004064221F231146386E00F053FF25E072
:101230004570304601F074F82A49386E01F07AF9A9
:101240005946386E01F076F95146386E01F072F960
:101250004FF47F01386E00F0D0FFFF21386E00F0B0
:1012600097FF1AA0CDE9004064221B231146386E77
:1012700000F030FF0021386E00F0F4FF0021386EDE
:1012800001F058F9386E00F090FF38E000FFFF04DD
:1012900000C0092000C00240FF0FC0FF080000107E
:1012A000070000260200001F00C8000204003000F2
:1012B0005000000D000F804C54203000C800000288
:1012C0000000FF04C012A04F00FF0004506C6561D5
:1012D000736520546170206F6E2074686520646FA0
:1012E00074000000C8C8C80200231A4619462C2002
:1012F00003E000231A4619461420FFF7FBF887F88D
:101300001B80BDE8FC9F2DE9F041F94C0126F9480E
:10131000E671A17C39B1016A41F080610162416BE3
:1013200081F080614163E18E491C09B2E1860229A6
:1013300077DB0025E586A6714069C0F3C060E074E4
:10134000217D884204D0B4F84210491CA4F8421010
:101350002075208F401C00B22087142801DB2587D0
:101360006672A08D401C00B2A0850A2859DBA585B5
:101370002672B4F84400401C00B2A4F84400B0F552
:10138000FA7F07DB04F14004A58060882080658037
:10139000A4F1400442F21077E08D401C00B2E085D9
:1013A0000A2809DBE585A672FEF722FFB4F91E00C4
:1013B000B84201DA401CE083208E401C00B2208637
:1013C000142806DB2586E672E07B08B1E57300E0B1
:1013D000E673608E401C00B26086322806DB6586AC
:1013E0002673207C08B1257400E02674A08E401C72
:1013F00000B2A086642814DBA5866673B4F92000C9
:10140000B84201DA401C2084607C08B1657400E0B9
:101410006674608F401C00B260873C2801DB6587E2
:10142000A673BDE8F08100F0DDFAB14CB2480126A8
:10143000A67400684FF4FA61B0FBF1F14FF0E020C0
:10144000491E416107210161AC480521A94D817008
:1014500080F8561080F8AA1080F8FE1080F852111B
:1014600080F8A61180F8FA11286820F00060286042
:10147000286C40F080002864286C40F48070286458
:1014800000F031FD00F077FD00F05DFD9C4911207A
:101490000872AFF6B8239BA2A0A1AFF6C020FFF759
:1014A0003DF8286840F400602860A86940F40060B6
:1014B000A8613A20207000F05DF99E482066286CF3
:1014C00040F480702864E86D40F48070E8659A4FBD
:1014D0003846401EFDD1286C40F480702864A86D09
:1014E00040F48070A8653846401EFDD100F03DFAFA
:1014F0007F1EFDD1482000F054FA9048401EFDD1D7
:10150000422000F04EFA042000F04BFA00F02DFAD1
:10151000682000F046FA8A4D284600F04AF97C28F7
:10152000FAD187484FF484612C3000F0C3F9844825
:101530002E21303000F0BEF981480021383000F013
:10154000B9F97F480A213C3000F0B4F97C4840F2F8
:101550000D21403000F0AEF979481721443000F0F9
:10156000A9F9774800214C3000F0A4F974480A2109
:10157000503000F09FF972480021643000F075F996
:101580006F4800216C3000F070F96D484FF44871DD
:10159000343000F08FF96A484FF4F071483000F0B1
:1015A00089F96748FF21903000F05FF96448FF2116
:1015B000943000F05AF963494FF4401000F0A4F958
:1015C0006149624800F0A0F960486149001D00F0DF
:1015D0009BF95E485F49083000F096F95B485E4928
:1015E0000C3000F091F959485C49103000F08CF94A
:1015F00056484FF004552946143000F085F95348F9
:101600005749183000F080F9504856491C3000F016
:101610007BF94D494D48491C203000F075F94B4885
:101620005149243000F070F948482946283000F02C
:101630006BF900214FF0301000F066F940480221AC
:10164000543000F012F9FEF7A7FF3D480521703035
:1016500000F00BF926490A20643108704348401E07
:10166000FDD10025A57401F029FC607900B16571F8
:10167000E07900B1E571A07900B1A571207A20B1BF
:101680002572FFF71FFCFFF79BFC607A00B16572C3
:10169000A07A80B102F0AEFA2665A572FFF717F8BE
:1016A000FEF7D7FF324800F06EFCFEF759FDFEF75B
:1016B00039FDFEF755FDE07A00B1E572207B00B1FF
:1016C0002573607B78B16573FEF7ABFD2078401C15
:1016D000C0B220703C2806D3257000F004FC00F056
:1016E0004AFC00F030FCA07B0028BBD0A573B9E712
:1016F0000800001000C0092030710010D00108203F
:101700000040024020202020202045746865726E31
:1017100065742020202020200000000020202020B0
:10172000C8EDE8F6E8E0EBE8E7E0F6E8FF20202087
:10173000000000005010082080A90300C0D4010060
:1017400000203000070000260100001F04003000C8
:10175000C6EF869B16FF1604C4EFC6A1C9EF06B2FA
:101760001616FF044001000D0050089880EE360068
:10177000500C08209848016841F0404101604168E0
:1017800021F003014160416841F00C014160416872
:1017900041F03001416091480121C1602021016088
:1017A00070478E49886048680006FCD58868C0B2DA
:1017B00070478B4A00B50346106840F480101060F3
:1017C000D06940F48010D061C3F30540FFF7E9FF12
:1017D000C3F30720FFF7E5FFD8B2FFF7E2FF55207C
:1017E000FFF7DFFF5520FFF7DCFF116841F48011A0
:1017F0001160916941F48011916100BD784A10B582
:101800000346106840F480101060D06940F48010E6
:10181000D061C3F30540FFF7C4FFC3F30720FFF710
:10182000C0FFD8B2FFF7BDFF5520FFF7BAFF552024
:10183000FFF7B7FF60F307045520FFF7B2FF60F32F
:101840000F245520FFF7ADFF60F317445520FFF735
:10185000A8FF60F31F641168204641F480111160F5
:10186000916941F48011916110BD5D4A10B5034644
:1018700010680C4640F480101060D06940F480106D
:10188000D061C3F3054040F08000FFF78AFFC3F347
:101890000720FFF786FFD8B2FFF783FF2046FFF748
:1018A00080FF106840F480101060906940F4801050
:1018B000906110BD4A4A10B5034610680C4640F4CA
:1018C00080101060D06940F48010D061C3F30540EF
:1018D00040F08000FFF765FFC3F30720FFF761FFCB
:1018E000D8B2FFF75EFFE0B2FFF75BFFC4F307205B
:1018F000FFF757FF106840F480101060906940F4C3
:1019000080109061284610BD10B5354A04460B463C
:10191000106840F480101060D06940F48010D061ED
:10192000C4F3054040F08000FFF73BFFC4F30720FD
:10193000FFF737FFE0B2FFF734FFD8B2FFF731FF10
:10194000C3F30720FFF72DFFC3F30740FFF729FF7D
:10195000180EFFF726FF106840F4801010609069A1
:1019600040F480109061284610BD1D4A00B51068F3
:1019700040F480101060D06940F48010D0610020E5
:10198000FFF70FFF0020FFF70CFF0020FFF709FF14
:10199000106840F480101060906940F480109061ED
:1019A00000BD0F4A00B5116841F480111160D16982
:1019B00041F48011D161FFF7F4FE0020FFF7F1FE42
:1019C0000020FFF7EEFE106840F480101060906970
:1019D00040F48010906100BD00C002400000024051
:1019E00000C0092030B54E482021C0F8A01100BF2A
:1019F000D0F8A0114906FBD500F180000322C0F801
:101A000084204FF40031C0F828114FF00001C0F8D5
:101A10002C114FF00103C0F88C30424C446003603D
:101A20004FF0AA03C3604FF05504C460A0F18000DA
:101A3000D0F888506D01FBD540F8802FC360C4609A
:101A4000C0F88810384A4264C0F848118168A0F193
:101A500080006FEA11618A073449D0F80C2102F046
:101A6000030207D092B3012A46D0022A4AD0032AA1
:101A700051D13BE02AB1012A11D0022A27D0032AF2
:101A800049D150F8882FC2F30E02521C530002684D
:101A9000C2F30742521CB3FBF2F2254B0CE050F8A4
:101AA000882FC2F30E02521C53000268C2F3074291
:101AB000521CB3FBF2F21F4B5A43C36FA0F18800D4
:101AC000DBB203F10103B2FBF3F223E00EE050F8C6
:101AD000882FC2F30E02521C53000268C2F3074261
:101AE000521CB3FBF2F24FF4FA43E5E7D0F80421BD
:101AF0000F4BD2B2521C0BE0D0F804210D4BD2B2E6
:101B0000521C05E0D0F804214FF4FA43D2B2521C23
:101B1000B3FBF2F20A6043F23A01016030BD00000B
:101B200000C00F404F0003004AF100413071001027
:101B300000093D0080969800FE48016A21F07F511F
:101B40000162816B41F40011816300BF00BF00BFDF
:101B500000BF00BF00BF00BF00BF00BF00BFC16B20
:101B600041F48021C16300BF00BF00BF00BF00BFC0
:101B700000BF00BF00BF00BF00BF816B41F4002168
:101B80008163416B8900FCD47047EA48016A21F007
:101B90007F510162816B41F40011816300BF00BF7E
:101BA00000BF00BF00BF00BF00BF00BF00BF00BF3D
:101BB000C16B41F48021C16300BF00BF00BF00BF03
:101BC00000BF00BF00BF00BF00BF00BF816B41F47A
:101BD00080118163416B8900FCD47047D54A00B500
:101BE0000346106A40F430101062FFF7A5FF00BFF3
:101BF00000BF00BF00BF00BF00BF00BF00BF00BFED
:101C000000BFD06B40F48020D06300BF00BF00BF96
:101C100000BF00BF00BF00BF00BF00BF00BFD06B50
:101C200040F40010D06300BF00BF00BF00BF00BF82
:101C300000BF00BF00BF00BF00BF106A40F07F5070
:101C40001062906B40EA83509063D06B6FEA03019F
:101C5000C9B240EA8150D06300BF00BF00BF00BFDF
:101C600000BF00BF00BF00BF00BF00BFD06B40F48B
:101C70000020D06300BF00BF00BF00BF00BF00BF97
:101C800000BF00BF00BF00BF00BDAA4A00B50346A9
:101C9000106A40F480201062106A40F44010106214
:101CA000FFF773FF00BF00BF00BF00BF00BF00BF52
:101CB00000BF00BF00BF00BFD06B40F48020D063E6
:101CC00000BF00BF00BF00BF00BF00BF00BF00BF1C
:101CD00000BF00BFD06B40F40010D06300BF00BF56
:101CE00000BF00BF00BF00BF00BF00BF00BF00BFFC
:101CF000106A40F07F501062906B40EA835090630E
:101D0000D06B6FEA0301C9B240EA8150D06300BFD3
:101D100000BF00BF00BF00BF00BF00BF00BF00BFCB
:101D200000BFD06B40F48010D06300BF00BF00BF85
:101D300000BF00BF00BF00BF00BF00BF00BF00BDAD
:101D40007C4A00B50346106A40F440201062106AD5
:101D500040F400101062FFF7EFFE00BF00BF00BFAD
:101D600000BF00BF00BF00BF00BF00BF00BF906B3F
:101D700040F48020906300BF00BF00BF00BF00BFE1
:101D800000BF00BF00BF00BF00BFD06B40F4001019
:101D9000D06300BF00BF00BF00BF00BF00BF00BFD7
:101DA00000BF00BF00BF106A40F07F501062906B10
:101DB00040EA83509063D06B6FEA0301C9B240EAF6
:101DC0008150D06300BF00BF00BF00BF00BF00BF95
:101DD00000BF00BF00BF00BFD06B40F40020D06345
:101DE00000BF00BF00BF00BF00BF00BF00BF00BFFB
:101DF00000BF00BF184600BD4E4A00B50346106A3A
:101E000040F480201062106A40F440101062FFF726
:101E1000BCFE00BF00BF00BF00BF00BF00BF00BFCF
:101E200000BF00BF00BF906B40F48020906300BFF4
:101E300000BF00BF00BF00BF00BF00BF00BF00BFAA
:101E400000BFD06B40F40010D06300BF00BF00BFE4
:101E500000BF00BF00BF00BF00BF00BF00BF106ACF
:101E600040F07F501062906B40EA83509063D06BDB
:101E70006FEA0301C9B240EA8150D06300BF00BFDE
:101E800000BF00BF00BF00BF00BF00BF00BF00BF5A
:101E9000D06B40F48010D06300BF00BF00BF00BF14
:101EA00000BF00BF00BF00BF00BF00BF00BD10B536
:101EB00040F0B8042046FFF791FE2046BDE81040F0
:101EC000E3E610B50446FFF789FE2046BDE8104062
:101ED000DBE610B540F0C0042046FFF77FFE204649
:101EE000BDE81040D1E61348016A41F07F5101621C
:101EF000016A41F470110162016841F0C041016062
:101F00000021C26942F08042C261491C6429F8DBA9
:101F100009494FF0000200BF521C8A42FBDB00223D
:101F2000836943F080438361521C322AF8DB4FF00F
:101F3000000003E000C009207088020000BF401CC0
:101F40008842F6DB704730B500242046FFF7AFFF2C
:101F50000020FFF7B6FF00250020FFF7F1FE00206C
:101F6000FFF74AFF6D1CEDB23C2DF5D9641CE4B2BD
:101F7000032CEAD930BD00B5AF20FFF72FFEAF200C
:101F80005DF804EB81E6F0B584460020FFF7A1FF81
:101F90005FF0000606EB4600C0EB86100CEB400439
:101FA00004F13D053046FFF782FF0020FFF789FF6F
:101FB00000272078FFF7C4FE2878FFF71DFF7F1C5D
:101FC000641C6D1CFFB23D2FF3D3761CF6B2032EBA
:101FD000E0D9F0BD34484FF080510160704733487C
:101FE0004FF0805101607047F0B54FF0A045D5F833
:101FF00028112F4E0388021D56F83140DB1C9B0828
:1020000003D080CA5B1E80C4FBD1008806EBC102EE
:10201000401E40F04040491C5060032900D100217F
:10202000C5F82811F0BD70B54FF0A04534E000BFF1
:10203000C5F8E80F00072FD5D5F8184128E01C484F
:10204000203850F8340041001CD5C0F30A06F61EB3
:1020500040F2EA518E4215D81649084212D146F094
:10206000004000F0A9FA68B1114A011D403AF61C7F
:1020700052F83420B30803D040CA5B1E40C1FBD1E4
:1020800001F08CFA641C042C00D10024C5F818411E
:10209000D5F81401A042D2D1D5F8E00FD5F8E41F4D
:1020A0000840C5D170BD000000E100E080E100E023
:1020B000A01008200000901B70B505460C4608468D
:1020C000FEF7B2F8401C82B221462846BDE87040B7
:1020D00000F00FBA2DE9F0470F46DDE90889054603
:1020E00016461C466FF0F30100F024FA394666F3F9
:1020F0001F41284600F01EFA214668F31F4128467A
:1021000000F018FA49462846BDE8F047D4E72DE923
:10211000F0470F46DDE90889054616461C466FF074
:10212000D10100F007FA394666F31F41284600F056
:1021300001FA214668F31F41284600F0FBF94946A1
:102140002846BDE8F04700F0F5B92DE9F05F0D46EF
:102150000AA98046B1E8800E16461C466FF0ED01D4
:1021600000F0E8F966F31F452946404600F0E2F921
:1021700067F31F442146404600F0DCF949EA0A4172
:10218000404600F0D7F959464046BDE8F05F93E776
:1021900070B50D4604466FF0F60100F0CBF9294604
:1021A0002046BDE8704000F0C5B96FF0FE0100F0B8
:1021B000C1B92DE9F05F0D460AA98046B1E8800E4D
:1021C00016461C466FF0EF0100F0B4F966F31F45A8
:1021D0002946404600F0AEF967F31F4421464046C9
:1021E00000F0A8F949EA0A41404600F0A3F959462F
:1021F0004046BDE8F05F00F09DB970B50D464A4914
:102200000446082008806FF0F501204600F092F99E
:1022100029462046BDE8704000F08CB92DE9F05FFA
:102220000F460AA98246B1E8200B16461C466FF0FD
:10223000F20100F07FF9394666F31F41504600F085
:1022400079F9214665F31F41504600F073F9414684
:1022500069F31F41504600F06DF959465046BDE8FC
:10226000F05F29E770B50D4604466FF0EA0100F013
:1022700061F92946204600F05DF92046BDE870402E
:1022800000F016B970B50E46144605466FF0D4013D
:1022900000F050F93146284600F04CF92146284616
:1022A000BDE8704000F046B92DE9F0470F46DDE982
:1022B0000889054616461C466FF0D30100F03AF92E
:1022C000394666F31F41284600F034F9214668F389
:1022D0001F41284600F02EF949462846BDE8F04740
:1022E00000F028B92DE9F0470F46DDE908890546D9
:1022F00016461C466FF0D20100F01CF9394666F311
:102300001F41284600F016F9214668F31F41284670
:1023100000F010F949462846BDE8F04700F00AB938
:102320006FF0FF0100F006B95200001070B5944B39
:102330000029064619681446C2F30540C2F3072572
:1023400041F480111960D96941F48011D9610CD030
:1023500040F08000FFF725FA2846FFF722FAE0B2A6
:10236000FFF71FFA0220B07170BDFFF71AFA284676
:10237000FFF717FAE0B2FFF714FA5520FFF711FA4A
:102380000120F0E7428802F54212CFE770B580796C
:1023900000250C4602280AD00020FFF702FA044666
:1023A0000020FFF7FEF944EA0025284670BDE0B2A0
:1023B000FFF7F7F9200AFFF7F4F9F6E770B50646DC
:1023C000807900250C4602280CD000213046FFF70A
:1023D000DDFF044600213046FFF7D8FF44EA004500
:1023E000284670BDA1B23046FFF7D0FF210C304621
:1023F000FFF7CCFFF4E762490A6842F480120A60F2
:102400008A6942F480128A6100218171704710B597
:102410000A4604460021FFF789FF00212046FFF706
:10242000B5FF03462046FFF7E6FF5549086840F42C
:1024300080100860886940F480108861184610BDDB
:1024400070B514460A4605460121FFF76FFF214685
:102450002846FFF79BFF2846BDE87040CBE770B5E4
:1024600014460A4605460121FFF760FF214628462B
:10247000FFF7A4FF2846BDE87040BCE7428811443E
:10248000C1F30B02D21C40F6FC710A4042803D4968
:10249000D6E710B53B490446091FFFF7B8FF61882E
:1024A000081AC0F30B00A0F6FC70404280B210BDC9
:1024B0002DE9F041334E0446361F371D3146204684
:1024C000FFF7A5FF054639462046FFF7A0FF8542E6
:1024D000F4D139462046FFF79AFF6080BDE8F081CD
:1024E00070B505460C462846FFF7D3FFA042FAD345
:1024F00070BD2DE9F0410E460746144600251146F1
:10250000FFF7EEFF224601213846FFF73BFF04E0CC
:102510003078FFF746F9761C6D1C641EF8D23846F9
:10252000FFF769FFA9B23846FFF7A8FF3846BDE8B4
:10253000F041BDE770B50D4604460421FFF7D0FF1A
:1025400061882A4601F542112046FFF788FF2046A0
:10255000BDE87040042191E770B514460A4606466E
:102560001D460121FFF7E2FE03E02078FFF719F98D
:10257000641C6D1EF9D23046BDE870403BE7000098
:1025800000C00920FC203000084400EB104080B25D
:102590007047010241EA102080B2704702E008C88B
:1025A000121F08C1002AFAD17047002001E001C1C2
:1025B000121F002AFBD170472DE9F0470027DFF8F2
:1025C000909000280CDA2349D9F8002020F0004030
:1025D0000968024401EB4101B2EB910F18D80127C1
:1025E00005460F3020F003060FB9FFF7F8FC1A4C30
:1025F000D4E90002011B891AB1420CD204460068DA
:102600000028F5D127B9FFF7E5FC0020FDF776FD9E
:102610000020BDE8F08772B11019216801602060C8
:1026200000F10808C0F80460D9F800103144C9F876
:10263000001027B105E004F108086660F4E7FFF731
:10264000C9FCA8F800500020A8F802004046E0E7C6
:1026500048710010043C000034C007202DE9F04709
:102660000746894690460026284C294D0BE02078E5
:1026700038B10422394604F10A0000F03DFC01287B
:1026800035D00E34761C28888642F0DB2149384646
:1026900000F0ECFBD0B91F4804220021001D00F01F
:1026A00051FC10B10020BDE8F0870026174C0AE06D
:1026B000207830B106224946201D00F01DFC01287B
:1026C0001AD00E34761C28888642F1DB404600F092
:1026D00027F80028E7D00D49C0EBC00001EB40040B
:1026E0000E3C0422394604F10A0000F015FC0622D3
:1026F0004946201D00F010FC07480088E07007489C
:102700000078A070032020700120CCE750710010E9
:102710000A3C0000C43A08200C3C00000E3C0000BB
:10272000F0B50546012116480E46164A03E0037827
:1027300053B10E30491C13889942F8DD1248104BF2
:102740000488002001210DE0067045700846F0BDA8
:102750005F78012F04D1DF78A74201D83C460846B4
:102760000E33491C1788B942F2DD0028EFD0044A25
:10277000C0EBC00102EB410101F80E6D4D70F0BDE0
:10278000507100100A3C00000C3C00002DE9F0479D
:1027900081460F4600253D4C3D4E0BE0207838B178
:1027A0000422494604F10A0000F0A6FB012815D0D6
:1027B0000E346D1C30888542F0DB3649484600F007
:1027C00055FBDFF8C880334D01284FF0040209D0D3
:1027D0000021281D00F0B6FBE8BB1DE0207803288F
:1027E0004ED350E04946281D00F086FB012806D153
:1027F00004220021281D00F0A5FB00B9002738465F
:10280000FFF78EFF06003CD0C6EBC60108EB410483
:102810000E3C042249461DE000271C4C0BE02078AA
:1028200038B10422291D04F10A0000F065FB0128DB
:10283000D4D00E347F1C30888742F0DB0020FFF7B5
:102840006FFF06001DD0C6EBC60108EB41040E3C2D
:102850000422291D00E013E004F10A0000F05CFBF3
:1028600006220D49201D00F057FB0C480078A0708F
:102870000B480078E070304600F012F9022020701A
:102880000020BDE8F0872046FBE7000050710010F3
:102890000A3C0000C43A0820624200000E3C0000DE
:1028A0000F3C00002DE9F0470026DFF8D480DFF868
:1028B000D490B246344F5DE0B9F80050691C89B23B
:1028C000A9F800103A88914201D3A9F800A02F4935
:1028D000C5EBC50001EB40042078C8B3E07820B117
:1028E000401E10F0FF00E07043D1607801280AD14B
:1028F0000422274904F10A0000F0FEFA012806D05C
:102900006078012818D010F0FF0F02D031E084F871
:1029100001A004221F4904F10A0000F0EDFA012889
:1029200017D02078032818D0A07800B3401E10F0EC
:10293000FF00A0701BD012E02078032817D0A078E9
:10294000A8B1401E10F0FF00A07010D0022005E0DA
:102950000FE011480088E0700BE00420207098F828
:102960000000E070681CBDE8F04700F099B884F8FA
:1029700000A0761C388886429EDBBDE8F087000008
:102980000F3C00004C7100100A3C00005071001018
:10299000C83A0820684200000C3C00002DE9F041D4
:1029A00006460025134C00F10E08134F0DE0207869
:1029B00048B1012807D0042204F10A01404600F082
:1029C0009BFA012806D00E346D1C38888542EEDB58
:1029D000BDE8F081062206F10801201D00F09CFAF6
:1029E00006480088E07006480078A0700320207038
:1029F000EEE70000507100100A3C00000C3C0000A3
:102A00000E3C00002DE9F04105460E462A20FFF756
:102A1000D3FD044605F1080106220F46001D00F013
:102A20007BFA06221C4904F10A0000F075FA4FF403
:102A3000C16020824FF4807060820820A08206204E
:102A4000A0750420E075268304F12400062239468F
:102A5000064600F061FA05F10E0104F12A00042295
:102A6000054600F059FA06220B4904F11A0000F05D
:102A700053FA0422094904F1200000F04DFA012222
:102A800031462846FFF7EAFD2046FFF7ADFA20461B
:102A9000BDE8F04100F0AEB800000010C43A0820D4
:102AA00070B505462A20FFF787FD04460622234914
:102AB000001D00F031FA0622214904F10A0000F05D
:102AC0002BFA4FF4C16020824FF48071618208209C
:102AD000A0820620A0750420E075218306221849F3
:102AE00004F11A0000F018FA0422164904F120003B
:102AF00000F012FA4FF0060265B1002104F1240043
:102B000000F018FA1049C5EBC50001EB40010422A2
:102B1000091F06E0094904F1240000F0FDF9094904
:102B2000042204F12A0000F0F7F92046FFF75CFACE
:102B30002046BDE8704000F05DB800006242000031
:102B400000000010C43A082050710010062202490B
:102B5000001D00F0D1B900000000001070B504465F
:102B600000F12205204E04222049284600F0C4F935
:102B700038BB0422002104F11E0000F0E3F908B183
:102B8000002070BD28780E21B1EB101F0ED101205E
:102B90002071002060715E20A071687800F07F00D5
:102BA000E071A8782072E87860720FE0284600F0A3
:102BB0006FF930B901212846FFF7E8FD0028E0D081
:102BC000061D06223146201D00F0A6F906220849FE
:102BD00004F10A0000F0A0F9082020822046FFF747
:102BE00003FA012070BD000062420000684200004C
:102BF0000000001070B500282AD0A0F10806154C7E
:102C00000025FFF7ECF909E02546246820688007D5
:102C100003D0FFF7DFF9022010E064B1B442F3D132
:102C20000D4861680B4B0268511A01609C4209D142
:102C30000020606008E0FFF7CDF90120BDE870409A
:102C4000FDF75CBA20682860BDE87040FFF7C2B9A4
:102C500070BD000034C00720487100100178427830
:102C6000090641EA02418278C07841EA022108431C
:102C700070470000F8B504460F46808AFFF789FCCC
:102C8000054621880E30814245D3A07C0421B1EB5A
:102C9000101F40D1264907EB870001EB800104F1AA
:102CA00022000422064600F027F958BB04222149DD
:102CB000304600F021F928BB6FBB31780E22304638
:102CC000B2EB111F04D1FDF72AFA012815D00EE04E
:102CD00004223146684600F01FF915480099026841
:102CE00080684A40024202D10843401C05D0204679
:102CF000FFF72CFF78B1E07E02E0E07E022801D0F1
:102D0000112808D104F1120000F016F818B9208B30
:102D100030F0C00001D00020F8BDA07C0007800E7C
:102D200000F10E016180281A20800120F8BD00000A
:102D3000C43A08206842000001780907890EFDF7AF
:102D4000BBBA00002DE9F041214C8046214F20788C
:102D5000C0070AD02049404600F088F840BB042252
:102D6000FF21404600F0EEF810BB1B4D20781435D3
:102D7000800704D52946404600F078F800BB164E7F
:102D800020782836400704D53146404600F06EF8DA
:102D9000D0B92078800702D52078000710D4207899
:102DA000400702D52078C0060ED42078C00704D092
:102DB000002038700848BDE8F0812078800703D5EE
:102DC000012038702846F6E7022038703046F2E7D6
:102DD000003C000030C00720C43A08202DE9F04133
:102DE0000446DDF818800F461646012A08D0022E48
:102DF00006D0062E04D0112E02D00020BDE8F081AE
:102E0000194D45216888401C68802088A1741430C1
:102E100080B2E374FFF7BDFBA0826888FFF7B9FBBF
:102E2000E0820020208384F81A80E676A08338466A
:102E3000FFF788FF0146042204F11E0000F06CF841
:102E40000422394604F1220000F066F804F1120071
:102E5000FFF772FFA0832088223020802978204647
:102E6000BDE8F041FDF756B930C0072018B50C4653
:102E700001460422684600F04FF820680099484057
:102E8000A168084201D0002018BD012018BD000033
:102E900038B5044601460422684600F03DF806486D
:102EA000826800980243521C01D0002038BD0249BC
:102EB0002046FFF7DBFF38BDC43A08200C4800214C
:102EC0008278012A04D0017080F80110FDF717B94B
:102ED000817081880122491C8BB28380C1888B421A
:102EE00004D1044B1B881944C18042700270EDE785
:102EF00028C00720083C000010B508E003780C78D3
:102F0000A34201D0002010BD401C491C521E002AC3
:102F1000F4D1012010BD000030B5134606E000BF1B
:102F2000054611F8014B401C2C705B1E002BF7D19D
:102F3000104630BD03E000BF00F8011B521E002AFE
:102F4000FAD170473AB103788B4201D00020704724
:102F5000401C521EF6E701207047000070B5018842
:102F60002A2941D3418A4FF4807399423CD1818A06
:102F7000082939D1817D062936D1C17D042933D173
:102F8000028B00F11204B2F5806F2DD00ADC4FF4F1
:102F9000007500F12A009A4217D0AA4224D10422D7
:102FA000124909E024304FF41065B2F5006F0FD0DC
:102FB000AA4219D106220E49FFF79EFF002813D01E
:102FC0002046BDE87040FFF7E9BC0422074901E054
:102FD00006220749FFF790FF002805D02946204622
:102FE000BDE87040FFF70EBD70BD0000C43A082078
:102FF0000000001070472DE9F84304464188001D89
:103000000E18258830462946FDF756F928B930783C
:1030100048B3082801D1707810B10020BDE8F883CA
:1030200005F12200FFF7C8FA00F1260700213970E8
:103030007970018580462A1F311D381DFFF76CFF0E
:1030400029463846FDF738F97880A8F800508023E3
:10305000009340460023012204F11E01FFF7BEFE4B
:103060004046FFF7C7FD0120D8E700002DE9F05FDB
:10307000428800F1040B02EB0B050646287B6FF03B
:10308000030101EA900014287ED3318881427BD36A
:103090000244081A1FFA80F8728006F112012846CD
:1030A00000F016FB5FEA000A06F11E076DD0002251
:1030B0000421381DFDF70CF9024604213846FDF7BE
:1030C00007F90146F07EFFF75FFA01463088FFF707
:1030D0005BFA024631882846FDF7FAF8C04300043F
:1030E000000C51D10AEB4A0101EBCA00F9494FF03B
:1030F000100901EB800414F82C0D0B2879D2DFE8BD
:1031000000F04444C4F9F7F6F5F4F3F20600687BE6
:10311000410704D5A07840F00800A070CEE18107F7
:1031200013D5C00630D5281DFFF798FDA169401CB6
:10313000884229D105F10800FFF790FD61698842B6
:1031400022D100BF84F82290B0E1D4E90412914268
:103150003FD0C00618D505F108000746FFF77EFDF1
:1031600001466069814215D120610021204600F0AE
:10317000FDFCA078221D40F00800A070A76A2389FA
:1031800004215046B84701E07DE0CCE0A07820F073
:1031900008001DE0A07840071BD53846FFF75EFD0C
:1031A00001466069001F814213D12061676A0422D1
:1031B00038883918363107F13A00FFF7ADFE3A2169
:1031C000384600F001FA04203880A07820F004008E
:1031D000A070281DFFF742FDA16988420AD0281D72
:1031E000FFF73CFDA169401C8842ABD1A08BE08376
:1031F000A8E76AE1A178B8F1000F41F00800A070DB
:103200000DD0E08958B17188A66A01EB0B024346E4
:1032100005215046B047A16901EB0800A061687B19
:10322000C00717D0D4E90401884213D1221DA56A32
:10323000238902215046A847A069401CA06160690B
:10324000401C6061112084F82200504600F0C2FB4F
:1032500008211BE1A178B8F1000F21F00800A0704F
:103260000FD084F822906078000707D5E0894045A8
:1032700002D9A0EB080000E00020E081504600F0F9
:10328000A9FBA08BE083BDE8F09F687B410701D5D7
:103290000221FBE0C10601D4800704D43946284648
:1032A00000F024FCF4E7221DA66A23890021504681
:1032B000B047C0B32946504600F054FB00F0FEF979
:1032C0002061401C6061281DFFF7C8FC401CA06104
:1032D000122084F82200504600F07CFBA07820F0F9
:1032E0000100A07053E0E6E0BDE0A3E08FE062E003
:1032F00036E0FFE7687B41077AD4C10714D005F1B7
:103300000800FFF7ABFC61698842BCD1281DFFF7BC
:10331000A5FC401CA0616069206184F822905046A1
:1033200000F058FB11E040E0C10616D505F1080099
:10333000FFF794FC61698842A5D1281DFFF78EFC38
:10334000A16988429FD160692061221DA56A2389F5
:1033500001215046A8470A2198E0800793D424E031
:10336000687B410744D4122636EA000111D0800759
:103370001BD52946504600F0F5FA281DFFF76EFCD4
:10338000401CA06184F82260504600F023FB03211A
:103390007CE005F10800FFF761FC61698842B4D167
:1033A0002946504600F0DEFAB0E739462846BDE827
:1033B000F05F00F09BBB687B41077FD4C10718D04A
:1033C00005F108000646FFF749FC6169884205D00F
:1033D0003046FFF743FC2169884296D1281DFFF74C
:1033E0003DFC404400F10100A061606920611AE0E9
:1033F00064E0C0067FF547AF05F10800FFF72EFC3B
:1034000001466069814297D1062120613EE0687BD8
:10341000410753D4C0073FF436AF281DFFF71EFC09
:103420004044401CA06184F82290504600F0D2FA3B
:1034300009212BE0687B410740D4C10609D505F17D
:103440000800FFF70BFC014660698142A7D12061AB
:10345000EEE7C007DFD0281DFFF700FC404400F175
:103460000100A0616EE6687B410727D4C10612D532
:1034700005F10800FFF7F2FB0146606981428ED139
:10348000206160780221C00700D101212046BDE8FB
:10349000F05F00F075BBC007BDD0281DFFF7DEFB55
:1034A0004044401CA061112084F822005046BDE831
:1034B000F05F00F08FBA687B4107CAD5221DA56A6C
:1034C000238903215046A847DBE7BDE8F05F0520CC
:1034D000FCF714BE700008202DE9F843054641882A
:1034E000001D0C18A088FFF754F8082848D30127BE
:1034F000284EDFF8A48047E03078022842D1608867
:10350000FFF747F8718888423CD117F0FF0737D0A2
:10351000717905F11E09890724D5E08810B30022CE
:10352000042105F12200FCF7D3FE0246042148469F
:10353000FCF7CEFE0146E87EFFF726F88046A0881D
:10354000FFF727F84146FFF71FF88046A088FFF7EE
:1035500020F8014642462046FCF7BAFEC04300046C
:10356000000C0DD12088FFF714F802462888494640
:10357000083883B20093B56804F108033846A847B9
:10358000BDE8F8830C367F1C98F800008742B3DD55
:10359000F6E7000034000820103C0000084A30B470
:1035A000D2E90034591C01F01F01A14205D0054C9D
:1035B00044F82300116030BC704730BCFFF71ABBE1
:1035C000407100108072001070B50180A0F10804F5
:1035D0000F31606821F00305A8420CD9FEF7FFFC0B
:1035E0006068411B04480268511A01606560BDE8CB
:1035F0007040FEF7EFBC70BD4871001070B5FCF76D
:103600007CFE27480078012801D1FFF74BF92549B6
:10361000D1E90020824241D0234A52F82040401C88
:1036200000F01F004860208A082806D0B0F5C16F5E
:103630002FD12046FFF792FC2BE000212046FFF718
:1036400019FB10B304F11E00042200210546FFF708
:1036500079FC28B9012204F10A012846FEF7FEFF91
:10366000E07E012806D0022808D006280ED01128B6
:103670000FD107E02046FFF7BEFC0AE02046FFF727
:10368000B9FC06E02046FCF741FD02E02046FCF7CD
:103690003FFD2046BDE87040FFF7ACBA70BD0000AA
:1036A00029C0072040710010807200100A0E0270BD
:1036B0000A0C42700A0A8270C170704703484FF6C4
:1036C000FF71008801EB0040704700002CC007200C
:1036D0002DE9F04105460127234C01F10C08234E4A
:1036E00017E02078022812D02888FEF752FF21899F
:1036F00088420CD16888FEF74CFF6189884206D168
:1037000004224146201DFFF7F7FB012809D02C3485
:103710007F1C30788742E4DD687B10F0150F20D1E4
:1037200002E0F8B2BDE8F08180071AD501270E4CFF
:1037300014E0207802280FD16888FEF72AFF6189FB
:10374000884209D104224146201DFFF7E5FB288865
:10375000FEF71FFF2081E4E72C347F1C307887427E
:10376000E7DD0020DEE7000070000820113C0000CB
:103770002DE9F0477448754B007898B1754A0021DF
:10378000734814780BE0028C0AB1521E0284012C9B
:1037900003D1C28B0AB1521EC2832C30491C1A7845
:1037A0009142F0DB00264FF011084FF0020A6A4FF9
:1037B0006A4D9946A8E0297899F80000814201D91C
:1037C000012028702878624900EB400202EBC0001B
:1037D00001EB800414F82C0D0B2877D2DFE800F001
:1037E0009090905959778677776C0600D4E9042039
:1037F000A178A0EB0200C90700D038B1E18B91B1EC
:1038000000287DD0208C00287AD120E0A07820F0FC
:103810000100A07084F822806069401C60612878F3
:1038200000F0D8F811E084F822806069401C6061E3
:10383000287800F0CFF8A078221D40F00800A07092
:10384000A66A238902212878B047052175E094F8FB
:103850002300A8B104F11C04401EE0714FF01800D1
:10386000A071A1684FF0000328780A88164600F07E
:10387000C3F8A06806803888A080208860805FE058
:103880000021204600F072F9A07840F00800A070F6
:1038900042E0208CD0B994F82300E0B3401E84F8B5
:1038A0002300287800F096F821783888032901D081
:1038B0002B480088208443E0208C38B9607851463A
:1038C000C00700D10121204600F05AF918E0208CF1
:1038D000B0B994F82300F0B1401E84F8230084F8B6
:1038E0002280287800F076F83888E3E7208C38B911
:1038F00094F8230078B1401E84F82300388820848F
:103900002878401C2870761C99F800108E42FFF42D
:1039100052AFBDE8F087FFE7042084F82200287842
:1039200000F058F8221DA66A238903212878B047A1
:1039300060785146C00700D10121204600F020F9EF
:103940002878401C2870E4E728C00720113C0000BC
:103950007000082029C00720143C000024C0072064
:10396000183C0000F0B50A7B6FF0030303EA9204F1
:10397000143C2BD01431002240F2B45324E08D5C6F
:10398000002D23D0012D02D0022D18D101E0521CB0
:103990001AE08E187578042D11D100EB40050C4FFC
:1039A00005EBC005768807EB85052C3D76BA9E426F
:1039B00000D91E46AE81AE7846F00206AE708D1874
:1039C0006D78002D02D02A44A242D8D3F0BD000069
:1039D0007000082070B505463A20FEF7EDFD04465C
:1039E000002301461A46284600F006F82046BDE8A6
:1039F0007040FFF7FFB800002DE9F8430D46174669
:103A0000984678B137490978491C88420AD800EBB2
:103A1000400101EBC000344901EB80042C3CA0893B
:103A2000B84202D20020BDE8F88305F1260660897D
:103A3000FEF7AFFD30802089FEF7ABFD7080216975
:103A4000301D4144FFF732FE06F10800A169FFF77F
:103A50002DFE5020307394F822007073E089FEF739
:103A600098FDF081002030827082A07881070ED509
:103A700020F00200A07040F20240688705F13A078A
:103A8000A089FEF786FD7880602030730427201D12
:103A9000FFF758F900220421FCF71AFC0246042122
:103AA000201DFCF715FC01460620FEF76DFD0146C2
:103AB0001437B8B28046FEF767FD024639463046F5
:103AC000FCF706FCC04380B2FEF763FD3082A5F828
:103AD000008080230093E3780622211D2846FFF70B
:103AE0007DF9A0E7113C00007000082070B51D4E64
:103AF00005461D4B3278407B02EB420404EBC202C8
:103B000003EB820440072CD40422201DFFF704FAA3
:103B10002888FEF73EFD20816888FEF73AFD608127
:103B20000020E070697BC9060BD505F10800FFF79E
:103B300095F82061042084F82200281DFFF78EF8F4
:103B400007E02061142084F82200281DFFF786F882
:103B5000401CA0613078BDE87040401CC0B2FFF747
:103B600039BF70BD113C00007000082070B50446DC
:103B7000406A0D4608B1FFF73DF8656270BD000070
:103B800070B504460170164D00200B291BD2DFE8EA
:103B900001F01C1C1C200C151515150612001149EE
:103BA0000988218484F823000DE00F490F4A098811
:103BB0002184117805E0A08BE0830AE02A880121A6
:103BC000228484F82310E08370BD00212046FFF793
:103BD000CDFF074928882084087884F8230070BD29
:103BE000143C0000163C00001A3C00001C3C000085
:103BF000123C0000014901208870704728C007204E
:103C0000390000000040000064000A009600040231
:103C10000507050090011400C800640007000000BB
:103C2000000000007F3E1C080000080C0E0C08007D
:103C30000000000000000000000000000000000084
:103C40000000000000000000000000000000000074
:103C50000000000000000000000000000000000064
:103C60000000000000000000000000000000000054
:103C70000000000000000000000000000000000044
:103C80000000000000000000000000000000000034
:103C90000000000000000000000000000000000024
:103CA0000000000000000000000000000000000014
:103CB0000000000000000000000000000000000004
:103CC00000000000000000000000000000000000F4
:103CD00000000000000000000000000000000000E4
:103CE0000000000000005F00000000000000000075
:103CF000143E143E1400242A7F2A12002313086461
:103D00006200364955225000000000060000003EC7
:103D1000410000000000413E000014083E0814006D
:103D200008083E0808000050300000000808080895
:103D300008000000606000004020100804003E51B0
:103D400049453E0000427F40000042615149460023
:103D50002141454B31001814127F1000274545457D
:103D600039003C4A494930000171090503003649D0
:103D700049493600064949291E0000363600000030
:103D80000056360000000008142200001414141419
:103D900014000022140800000201510906003249F3
:103DA00079413E007E1111117E007F49494936005C
:103DB0003E41414122007F4141221C007F49494947
:103DC00041007F09090901003E41415172007F080D
:103DD00008087F0000417F4100002040413F010072
:103DE0007F08142241007F40404040007F020C02C7
:103DF0007F007F0408107F003E4141413E007F0963
:103E0000090906003E4151215E007F09192946003B
:103E100046494949310001017F0101003F404040CE
:103E20003F001F2040201F003F4038403F006314E8
:103E300008146300070870080700615149454300F2
:103E4000007F410000000408102040000000417F76
:103E50000000040201020400404040404000000015
:103E6000000000002054545478007F484444380037
:103E7000384444442000304848507E00385454545C
:103E80001800087E09010200085454543C007F10B9
:103E90000808700000447D4000002040443D0000C0
:103EA0007E102844000000417F4000007C0418047C
:103EB00078007C08040478003844444438007C14BA
:103EC00014140800081414147C007C08040408006E
:103ED000485454542000043F444020003C404020BB
:103EE0007C001C2040201C003C4030403C0044280A
:103EF000102844000C5050503C004464544C440082
:103F000000083641000000007F0000000041360834
:103F100000000000000000000000000000000000A1
:103F20000000000000000000000000000000000091
:103F30000000000000000000000000000000000081
:103F40000000040607060400000000000000000056
:103F50000000000000000000000000000000000061
:103F60000000000000000000000000000000000051
:103F70000000000000000000000000000000000041
:103F80000000000000000000000000000000000031
:103F90000000000000000000000000000000000021
:103FA0000000000000000000000000000000000011
:103FB00000000000000000000000081C3E7F000020
:103FC0000000000000007F3E1C0800081838180898
:103FD00000000000000000000000000000000000E1
:103FE00000000000000000000000000000000000D1
:103FF0000000000000001C3E3E3E1C0000000000CF
:1040000000000000000000000000000000007C55DF
:104010005445000000000000000000000000000007
:104020000000000000000000000000000000000090
:10403000000000000000000000000000000000067A
:104040000909060000242E240000000000000000E2
:104050000000000000000000000000000000000060
:1040600000000000000000000000000000003855C3
:10407000545518007C10207B0B000000000000004D
:104080000000000000000000000000000000000030
:1040900000000000000000203038302000007E11B9
:1040A00011117E007F49494931007F494949360055
:1040B0007F0101010300603E21217F007F494949C2
:1040C000410077087F0877004149494936007F2041
:1040D00010087F007F2011087F007F081422410014
:1040E000407E01017F007F020C027F007F080808EC
:1040F0007F003E4141413E007F0101017F007F0979
:10410000090906003E414141220001017F010100F1
:104110004728100807001C227F221C006314081483
:1041200063007F404040FF00070808087F007F4091
:104130007F407F007F407F40FF00017F4848700044
:104140007F4438007F007F48484830002241494979
:104150003E007F083E413E00462919097F00205459
:10416000545478003C4A4A4931007C545428000099
:104170007C0404040C00603824247C00385454541B
:1041800018006C107C106C004444545428007C20AF
:1041900010087C007C2012087C007C102844000061
:1041A000403804047C007C0810087C007C1010104F
:1041B0007C003844444438007C0404047C007C14B3
:1041C0001414080038444444000004047C0404002F
:1041D0000C5050503C0018247E241800442810280D
:1041E00044007C404040FC00001C10107C007C40DF
:1041F0007C407C007C407C40FC00047C50502000D3
:104200007C5020007C007C505050200028445454A6
:1042100038007C1038443800085434147C202020A6
:1042200000FFEDE200F4E5E200ECE0F000E0EFF08A
:1042300000ECE0E900E8FEED00E8FEEB00E0E2E380
:1042400000F1E5ED00EEEAF200EDEEFF00E4E5EA54
:104250000030313233343536373839414243444502
:104260004600FFFFFFFFFFFFFFFFFFFFAC42000024
:1042700000000010507100005C020000A85A00000D
:1042800000C00720340000009C250000A85A000050
:1042900050710010B0090000AA250000DC5A00008F
:1042A00034C00720CC7A0000AA2500005501020383
:1042B00004026C14000CFF48656C6C6F20576F7221
:1042C0006C640123281509070A180F151106080840
:1042D0000F0D060D060E10111111042824111106E0
:1042E000060C0E0D0F1813101010131015111313C8
:1042F000131017121312101112131712160F171B87
:104300000C00271A1712090E090E12080E0F0D0FB6
:104310000E0B0F1006090E0717100F0F100B0D0ACA
:10432000100F140D100E0B060B0B32013204321C51
:10433000322403B2EC030A391804C19A3804013854
:104340000A19330401780C13018380043C3FFFFCFD
:1043500004092E1C01385A0304230FC0233FF02305
:104360003B38237318326369043273323F1A1F6774
:104370001B07E0301AF80419281B031C044A0C041C
:104380001A630C1A63381A7B1829482A0F28595CBB
:104390000138120F1280141F81802339C34B30C69D
:1043A000041B39CC881A881C196C115A30041A6302
:1043B000BD1AC77113CE703C018C300414030E700B
:1043C0003A06AD191C014329D01A1ED81A1878696B
:1043D00077290419EF1119FB114B0F8004291029BB
:1043E0001832705B607F041A0C1019041A30291AF5
:1043F0003C211A0F480A390797A980E90401703255
:104400000E19DB1119DB11321819DF798C5A70047F
:104410000A15600469206930293C2944294C295433
:10442000295C013029506948A94C69500A1D0604CD
:104430002924A9D4A9D8295C01541B0C60741AE062
:104440008022C02303804B7FFC04290C2914291CE3
:1044500029240164DA03044B7FF004E918290401DC
:10446000949A380432185A1004015C4B3FF004014E
:10447000A49A38040135321032303270326032E0A2
:1044800022C02A010422802A03043132075A06047A
:104490005A0C045A1804297C091143013D1A074596
:1044A000230FF01A1C5D1B381C60197129044B7016
:1044B0000E041A6089E904691C292829341A189DF8
:1044C000294029480A3E039129D959DD2A01E16989
:1044D00010093A04013B1A07D41B0F78E019E81AB7
:1044E00038F43310066904191011320C191C1132FA
:1044F00038192C2301C01B038038591F291B5A1857
:104500001F4B3FFE04094690397C690459842A01F7
:104510008432F85A3C18A9B0190429C01A38181A5C
:104520001C201A0F28033F03E032304A70FC290494
:104530004B01B0041A03181A07041A06045A0C0493
:104540001A18041A3804233FFE1A7F04393C091252
:1045500004013B4B0FFC0429FB6904321C32181A7E
:104560001FEC1A1FF42A1C112919320ECA06041A4C
:1045700038141A181C1A1E241A0F2C1A0334013D61
:104580003260294422C02A01041A805431290429A6
:10459000731A0F1C29681B1E3C98197829801A3041
:1045A0001969041A3804299029B40942904B3FFF35
:1045B00004397D196C11195C390419601132185ACB
:1045C000380432309A70C0E9C46904013F1A07D434
:1045D0001B0FFC8319842A18EC59041A1C9C1A0E10
:1045E0009429202904290C29181B38079B1975695F
:1045F0000429109A182C0B3D03F09019401B0F78DA
:104600008019501A38581A307469042A389C1914C1
:104610001A1E1C29B41A037011323832303270322B
:104620006022E01B01C0041A80202904015B297B61
:104630006904094A2C096E9032185A1004013D226F
:10464000E01B01C00422801A03043207320E5A1CF8
:10465000689A30702914291C2924292C3938190406
:10466000294401604B7FF804091E14015029FC29DC
:10467000F80912FC39F8590429102904291C2924A5
:10468000292C29345A1844013C1A0F601A1EE81AC2
:10469000384D1A705533600C690469611A708029AD
:1046A00088198029842A03A85904813918590401DA
:1046B0003C1401FF801403F7E0120F1AF0E41A38DB
:1046C000831906133C0C14307F0E1470E3861B61B3
:1046D000C1045A81041BC1CE141AFC1C12784B3041
:1046E0003CAB19C311320E140781E02403FFC00252
:1046F0003F7E326019FC198F112A01041AB0041A86
:10470000B8E81A98041A1804197123070C2A060429
:1047100022061B0FFE041AFF8822072B180304121F
:10472000801A38042B30010412C01A7004013C4B6B
:104730007FF80429970916041A7F631A7FAC1B605F
:10474000380419A01A609CB9042914191C292429B9
:104750002C093B90091A6C9A186829B469201A0E22
:10476000045A0604290C29045A3CDC0A3DE0901A3C
:10477000FE041AFC5031094604013C1A018C39042C
:10478000228CAA0304CA0C049A07040A1106041A0C
:104790000C043C7FFFC0041260890401301B7FFEC3
:1047A000041990091AF02920091E247928195001AA
:1047B0003C14706070143060E01A3804141C61C03E
:1047C000140C63801A0E042307671B036E04196020
:1047D0001A01686904291029181A06202928293085
:1047E000293829403C30606050013C2307F0230FFA
:1047F00078331C1C9A0C0429101A388419203301B0
:10480000F85A3C18CA06041A10041A38181A1C2040
:104810001A0F28033E03E0143001805B3003041AB2
:1048200007041A0F041A0D041A1D041A39041A3148
:10483000041A71041AE10413C1802A31041381801F
:104840001A33381A37041A3E045A3C042A384C19D1
:104850000401241A06C41B03180429EC99C4097620
:104860009001184C3001C08C1A060C19B41A30B4DF
:104870001B3030041A600422C0198F111A33041A35
:104880003F041A3C101A38CC1B3070041A38045AF2
:104890001C341A0E041A070429481950013D4AFE17
:1048A000049B01C604CA8604AA030419B8E9041AC1
:1048B00007041A06041A7E041A3804013C1238123E
:1048C0001C5A3C023A3E04127C1236126C12371209
:1048D000EC12334ACC041381CC1431818C1431C1D5
:1048E0008C4C30C30C041AE7045A66041A7E048AFE
:1048F0003C04013C0B203003044B3FFF0409222CF5
:104900002904013C2303F8230FBE231C071A184C6B
:10491000143803804B300104147001C01260091078
:1049200004291869242930293C230E0E2307FC038F
:104930003E01F0092EFC092204093B901AE0041AFA
:10494000F8481A1C0419E4DB3006042914191C2940
:1049500024292C3230091E04013C2303FC230FBE02
:10496000231C071A18DC5A38545A70040A116004C0
:104970002918697C1A3834293C1A0EB81A074C1ABF
:1049800001B8013C3C7FFF80041132C0094604019C
:104990003B141C01C0140C0180140E03801A06EC99
:1049A0001A03EC1B038EE8328C32DC29F0327832A9
:1049B0007032601AE01C197429041933111933116B
:1049C00019331132065A7C2B01398A30041B01FE3F
:1049D0005813FF80140FF7E0141C30F014383070B7
:1049E0001C7030380412189A600429101A301829E3
:1049F00020141E31E03C0FFFC038119AFC50013BDF
:104A00001A70E51A38E11A18E1231C0E1B0C0CEC85
:104A10001A189C1A38FC29A81AF00432E04AC00877
:104A200029102918292029284B0E1C3829402948EB
:104A30002950013C0B483003043C3FFFF004190EA1
:104A40009904012E1A60E40916042A70041A3856D3
:104A50001904233878231FD8330F981918091B0419
:104A6000013B0C4730181C043C3FFFFC04093C9000
:104A70000A4718042D3FFFFF8004219A0104012EEC
:104A80005A7C040A190C041B0FF8041AFE0C1A07AE
:104A9000041303801A0C67B9042914191C2924294A
:104AA0002C013C0B203003042A3F041AE30C1AF3B8
:104AB000041A33041A3B045A1B04290C2914191C28
:104AC0002924292C093B900921041B3FE00419F8F3
:104AD0001B301C041A0E04DA060429144A3C24294B
:104AE0002C013C230FF01A1E485A386C11196039FA
:104AF0000429E859042303FF1A0704A914114A07DB
:104B0000282A708C193C1A3C901A1F4C0A390790BD
:104B100029FC14303F8014307BC01430E0E01431A5
:104B2000C070143180301433803812337A18045A2C
:104B30003F04A9142924292C29043C30C060401BBF
:104B4000307F48023E1F5A01FC1A0FF41A0C041A57
:104B50001C045A1804290C2914291C2924292C1155
:104B60001AC30819041B038304291819049A0E3C5C
:104B70001A380401345A3F040A4D30046958013090
:104B800032C032E05A60045A705032383218321C47
:104B9000320C320E3206320729FB2303802A01042D
:104BA00029416904694969450133323E5A7E6C09DD
:104BB0004A046958013429F01A07EC1A0FE41A1C48
:104BC000E42A38E001D73C7FFF80040114326032D0
:104BD00078321C320E02AF061A0FD7231FC03310D3
:104BE000E032701A30141904231FB01B38F0131967
:104BF000141A601069042910291829202928013C59
:104C0000293FE9041A33881A37601B3E38681A189E
:104C1000041A1C041A0C1CD9042914391C1924293F
:104C20002C2934293C01501B07C0E819582A1CF8CC
:104C300019A129A4190B11DA60042914291C2924AB
:104C4000292C2934293C013D19DCE904230F981B48
:104C50001FD8681A787019F82A70041918DA6004D5
:104C6000291429202904292C2934293C01501B0707
:104C7000805C19EC1A38F41A30FC299069844B7F57
:104C8000F80432602904191F3924292C29340B3DDA
:104C900007C07C19402904320C69041A3F9029048A
:104CA000A914092A0401501B0F98EC1AD8F41A7899
:104CB000FC22382A70042218DA60042914291C29DD
:104CC00024292C29341A073C1119181A20043918E0
:104CD0001A70184AE0F401240A1130041A334023F0
:104CE00037F02A3C5019584B381C041A30FD092261
:104CF00004013C69840A1D10A4092A04098E90E964
:104D00000432E00A2DC090B90419051B3070041953
:104D1000491A3149233180323332365A3F041A3925
:104D200014291C29245B3060341A3804023E1C0903
:104D30003EFC6904198B11323C093D8F0115143377
:104D4000C1E01437F3F0143C763814383C181438AA
:104D5000381C0B28301804094F9022E01B37F0F064
:104D600019F51B381804196329040B24300C0401AD
:104D7000502307C01A1F901B1C7060199029041A39
:104D800070901A606CA90429146920292C293429EF
:104D90003C01502333E01A375C233E381A386C1A32
:104DA00038785A38FCA9042914391C1924292C29CB
:104DB00034293C323009120401381B0F98EC1AD800
:104DC000681A784819682A70041974DA600429147A
:104DD00029202904292C2934293C1119187904196E
:104DE000B011321E023A061A31E42337C0323C19A0
:104DF0006B79040916F8E90401501B0F80EC199433
:104E00001B3870604A2064299029EB291C1A031C66
:104E100011191C69811A3004292C293429200140D8
:104E2000DA18045A7F04E918091A0429AC2A1FB0B9
:104E300001530B24300C041A388529041A18041B5A
:104E40001C3C8C22EC035207CC2A707019641A3077
:104E5000F91A38041B1838041A307419041B0C7022
:104E60000422601A0E041B06E0041AC08419042AE6
:104E700003044A8004015014606060147070602B59
:104E800030F00412E01430D0C01438D8C02B199878
:104E90000412801B198904138D801B0F0D04220F2F
:104EA0001B0F079419042A060402520623703023AC
:104EB00030702338602318E01A1CFC197B112A0774
:104EC000043129041A0F0C1A0D18291C2924292C25
:104ED0002934293C01500B24300C044B381C041A93
:104EE00018041B1C3CA41AECAC32CC191C1119146C
:104EF000111A18071A38181AF01819B801384B3F48
:104F0000F8041119F01119F81132E019501A0104BE
:104F10001B03800431320732068A0E7B8938013840
:104F2000195C1A07045A0FD3091204696C19E7397E
:104F300004290C291409163029A02A0FB4190401D8
:104F4000340A51300401383220323C321E0A150630
:104F50000432072A030419F02A01F8591029180904
:104F60001230320E5A3E5801583238237C404B479B
:104F7000C098013D0A1C090128161009070A180FDC
:104F800015110608080F0D060D060E10111111045B
:104F90003049111106060C0E0D0F181311111211C4
:104FA00011131206111310171313101411101213EA
:104FB0001217121214090E090E12080E0F0D0F0E01
:104FC0000B0F1006090E0717100F0F100B0D0A100C
:104FD0000F140D100E0B060B0B0132033218322486
:104FE00003FF484E01FF01FF01FF01FF01FF01FF29
:104FF00001FF01FF01FF01FF01FF01FF013B2B7FCB
:10500000F8032260091003137FC0137FF013603888
:1050100013601C9B600C03190F2A381B192101997E
:105020000A2A1803916A3803012A0A123303015A23
:10503000DC018380031C3FFFFC03092215012A3A8F
:105040000303130FC0133FF0133B3813731822638D
:1050500049032273223F131F801307E01303F81341
:10506000033813031C2B030C0313631C1363182B4B
:105070007B38361A0F1E3945012A120F17801F81FF
:105080008039C32B30C6031339CC131F88230F1864
:105090003A30031363C013C7E01ECE70018C300397
:1050A0002D030E7006820233C0199C131EF05B188C
:1050B0001859190322381A1C182A8003190C1912BE
:1050C00022703B607F03120C13700C13301C133CD6
:1050D00038130FF00A2A07717960A9030154220ED0
:1050E0003A0CC33A18CC496919C329C6F9034918BF
:1050F00079F919331939193F19450124193C4936F1
:105100007939493C0A150603191B799F79A219457B
:10511000013F130C60130EE01306C01303802B7FB6
:10512000FC031909190F1915191B014B9A03032BBD
:105130007FF003A9121903016F6A380322183A108D
:105140000301452B3FF003017B79D8012819FA228E
:10515000302270226022E012C01A010312801A036A
:10516000032122073A06033A0C033A1803195DC9D2
:1051700032012E1307E0130FF0131C3813381C2BC9
:10518000300C032B700E03BB6006034915191E1962
:10519000272B18183019360A2E036D19A339A61AB1
:1051A00001A9490C092B03092BD812F0130F78130E
:1051B0001C1C13380E2310064903220E220C221C3D
:1051C000223812F01301C01303803A071719143A5A
:1051D00018172B3FFE0309346C295D490339631A04
:1051E000016322F83A3C1279842A069013380C1392
:1051F0001C3C130FF8032F03E022302A70BD29C096
:105200002AB0031303301307301306303A0C03138C
:1052100018302B3830C31A7FC6192DD903012C2B17
:105220000FFC03A9D42218131FE06B1FF8EDBA0E70
:10523000D813380E13180C0B331E1CD822601933E8
:1052400012C01A010312802203190319562B0FE012
:105250004E131E3C2B1C0C605B3006032B38066C77
:10526000198709316C2B3FFF03295E19C0A9DC3A6D
:10527000380322306A7090A9934903012F1307F86D
:10528000130FFC130C0C1A18B13903131C0E2B0E40
:105290001C181903190919121338075B3003031975
:1052A0000C6A18210B2D03F06C12F0130F78131CED
:1052B0001C13380E5B3006031A3875120E2B1E1C99
:1052C00087EB03F8E189DB0144195C4903093721C5
:1052D00009526C22183A1003012E12E01301C01378
:1052E00001801303802207220E3A1C4E6A305419A3
:1052F0000F1915191B1921292A2AC03301482B7FA0
:10530000F80309160F013C19BD19BAD9BD29BA39DC
:105310000349C9A9F319EA1933012D130FE0131E2C
:10532000F813381813701C23600C49034949127094
:105330001A01662A80631A037E3903612912390330
:10534000012D100801FF8003F7E00F2BF01C7138CE
:10535000101C383C0C307F0E70E38661C186618181
:1053600003580BC1CE70E3FC307F78303CFC29F948
:105370001681E003FFC0022F7E226022E012F01AA5
:10538000010312B01301B813039813031813031C7D
:1053900013070C1A06031206130FFE130FFF131C3C
:1053A000071B1803031F80380380300103052DC03D
:1053B0007001C0133FE0133FF813301C13300E6B25
:1053C0003006032A0C1219186B3FFC1812073B30E9
:1053D0000303190919032A1E1B032E3FF01303FCB4
:1053E0005B0FBEB422383A30033A70EFA9031912AA
:1053F000491B2B38032D130E0E1307FC032E01F847
:10540000B9D879BDCD0380300103191279D8192A92
:1054100049F60A2DE06C12FF5B3FFEB4D903191860
:1054200009161B591E0A65FF6C4903012D1303FC65
:105430001307BE130E07221C6A384222704A60030B
:105440002B7F80031F01807001803003150380389B
:1054500003131C07130E0E1307FC032E01F00B178A
:1054600030030329F30A1AFF211903092C6C093CA4
:1054700003012E0A2306033A300313380613180ECD
:10548000131C0C130E3C1307F80B2D03E0D82E0150
:10549000C03003804B120C133018133030133060BF
:1054A0001330C0133180133380133F80133CC0137B
:1054B00038E01330701330383B301C27120E133095
:1054C0000729360B2C01C06C0936032B3FFF030163
:1054D0002D1238131C3C1A3C032A3E03137C36134E
:1054E0006C3713EC332ACC03280C81CC31818C31FE
:1054F000C18C30C30C033DE70C3066035D7E0C307D
:105500003C03092CD83F01803801803C0318113E30
:10551000018037018033018031818031C1803003C7
:10552000381AE180307180303180303980301D8010
:10553000300D80300F80300780300303032D018051
:105540001303F8130FBE131C071318033A383F193F
:1055500003157001C060B9031912491B1924192DD4
:10556000130E0E1307FC032E01F0133FE0133FF858
:1055700013301C13300E9B300603190F2A1C1B1905
:105580002122300916030931D84A0CD839BACD3056
:1055900001C070D529D81119D8100AC03019803827
:1055A0001F801C0F080A470E0F8007FFC001F8403C
:1055B000D86A3CD8190312601330701330389B300E
:1055C000182D022E07130FF0131FF81A383F120C74
:1055D0002230190322381A1C18212307E022F83A36
:1055E0003C10220E2A060313700613380E2B3C1CA7
:1055F000362921012C1C7FFF80031122C0093403AE
:10560000012C0C25300180031E3801801803031182
:10561000131C07130E0E1307FC032E01F04A704BE8
:1056200015038038031948131807131C061A0C03B6
:10563000120E2B0E0C032B061C031307181A030360
:1056400012381303B01A010312F02301E019030901
:105650002B6C1B380C032C303C1C031B6C18032BCD
:105660003866032F18E61818C638031BC330032DFD
:105670001D83300D03380AB00D81F00F81E00F015A
:1056800003092D6D1A70D21207131806131C0E1A77
:105690000CC612181A07BD6A30BA2AC006190C19AE
:1056A000121918191E2B0E1C2A19301936193C0113
:1056B0002D2B300336193C130C0E3A0E6C4A036C3A
:1056C0001969396C091D03012C173FFFC03FFF808A
:1056D00019A222072206220E221C22181A38F421AF
:1056E0002A60721A01DEF9232A1F39198E092466ED
:1056F00039030A393003494201242AC0B329B919B0
:105700000319C2193C19CB19D119B43A0CBD19C3EC
:1057100019C91A03032A80D819DE29347937493484
:105720000126223E3A7E510937034942012719B426
:10573000130780130FC0131CE01A38A801A11C7FA7
:10574000FF8003F122602278221C220E02830613BE
:105750000F80131FC02310E022701230130F30137C
:105760001FB01338F01370705B603003190C1912FE
:105770001918191E012D192FA9031333E01337F03F
:10578000133E3813381813381C13380C9A30031989
:105790000F29152A18211927192D013C1307C013A9
:1057A0000FE01A1CBA2A307B19DD9A600339EC2904
:1057B0001B19211927192D012EBA1803130F98133D
:1057C0001FD81338781330381A700312189A6003F0
:1057D000190F1918190319211927192D093BD81266
:1057E00080131FE01338702B30306C49632B7FF827
:1057F0000349DB19D8191B19211927092ED819308B
:105800001903220C49032B3F8003790F091F030161
:105810003C130F98131FD81338782B3038D83A70B0
:10582000D87903190F1915191B192119272307985E
:1058300012183B2018120921EACA30031333E0136F
:1058400037F01A3C3C12182B381C030B1A300C038F
:10585000012D49630A15107B091F03096A6CA9030E
:1058600022E00A21C06C890312301330701330E03B
:105870001331C0133180223322363A3F032B398053
:1058800015191B3B30602712380B32301CD8092EFB
:10589000032238223C092D6B011008121D33C1E090
:1058A00037F3F03C7638383C1838381C3018030988
:1058B0003B6C12E01337F0133C381338182B381CAC
:1058C000030B1A300C03013C1307C0131FF0131C09
:1058D000702B30180313701C8B600C03190F4918C0
:1058E00019211927192D0940D87A3ED8C9C6190F90
:1058F00029152A18211927192D2230D903012A1315
:105900000F98131FD81338781330381A70031218F1
:105910009A6003190F1918190319211927192D1144
:105920006A1803221C221E022B061A31D812C0222A
:105930003C6A38030910BA0934C60911D812801319
:105940001FE01338702B30204B196C19B019152338
:1059500003E05A70612B3030211927191801309A51
:1059600018033A7F03A91209130319811A1F84012E
:105970003E0B1A300C032B381C0313181C131C3C51
:10598000130FEC033D07CC1A7054121C133018137C
:105990003818131838131830131C30130C70130CEC
:1059A00060130E601306E01306C01307C01A03034A
:1059B0002A8003013C180960606070706030F00359
:1059C000180AE030D0C038D8C0199803100D8019DB
:1059D0008980198D800F0D800F0F130F0713070794
:1059E0001A06030A3C06D8123013307013386013BD
:1059F00018E0131CC0130D801A0703211903130F9D
:105A0000802B0DC015191B19211927192D013C0BCD
:105A10001A300C032B381C0313181C131C3C130FD7
:105A2000EC2307CC220C221C1218131C38130FF085
:105A3000032B07C02B3FF803112270226022E012D3
:105A4000C01301C01303803A03DB22065A0E5C69BF
:105A50002A012A12801307803A0F9ED90349513A2E
:105A600038031909190F09102419781A0F87022809
:105A7000800A3C3003012A2220223C221EFA06031F
:105A800022071A030312801A01BA390C1912D924F9
:105A900019D83A3E4201422238137C402B47C0724B
:105AA0000130031D093D000000000000000000005F
:105AB00000000000000000000000000000000000E6
:105AC00000000000000000000000000001000000D5
:0C5AD000000000000000000000000000CA
