:020000040000FA
:10000000707F0010E1000000E5000000E700000044
:10001000E9000000EB000000ED000000000000001F
:10002000000000000000000000000000EF000000E1
:10003000F100000000000000F3000000ED260200C7
:10004000F7000000B1530200DD530200F70000008A
:10005000F7000000FD810200F7000000F70000003B
:10006000F7000000F7000000F7000000F7000000B4
:10007000F7000000F7000000F7000000F7000000A4
:10008000F7000000F7000000F7000000F700000094
:10009000F7000000F7000000B5640000F700000062
:1000A000F7000000EB7F0200F7000000F7000000FF
:1000B0005DA10200F7000000F7000000F70000005B
:1000C000F7000000F7000000F7000000DFF80CD098
:1000D0002AF0CCF80048004783280200707F001007
:1000E00005480047FEE7FEE7FEE7FEE7FEE7FEE71E
:1000F000FEE7FEE7FEE7FEE7CD000000FEE710B5F5
:100100002AF090FD2AF0ECFD2AF0DEFDAFF300802E
:10011000BDE810402AF0AABD10B52BF06BFB2BF008
:100120001FFFBDE810402BF0BDBB2BF0D1BA2BF068
:1001300099B809B1002070472AF09CBC0020704794
:1001400070B5374A0020A2F11401064601F10A03F6
:100150000C5C54B11D5CAC4207D1145C2CB1641E24
:1001600014F0FF04145400D10E540C5C1C54401CB9
:10017000C0B20A28ECD370BD70B5294D0024143DDF
:10018000641CE4B22E5D1EB1864201D00A2CF7D366
:10019000285523480C3040F82410283040F82420FB
:1001A0003438035570BD1E4A0021143A491CC9B2A7
:1001B000535C834201D00A29F8D3DBB2834210D1C9
:1001C00017480C3050F8213016480360144B343374
:1001D00053F82130436000205054114A50540120FC
:1001E0007047002070470E4A0021143A491CC9B2DA
:1001F000535C834201D00A29F8D3DAB282420CD18F
:1002000007480C3050F8212006480260044A343276
:1002100052F8211041600120704700207047000013
:100220000868001010C007200C4BDA601870597075
:1002300070470A4A116190707047084908817047F9
:100240000648B0F90810002907D0491E09B20181FB
:10025000002902D1084601F06AB8704718C007208B
:1002600090F900308B4200DA027090F9003093422E
:1002700000DD0170704790F900308B4200DA0170A8
:1002800090F90010914200DD02707047B0F9003023
:100290008B4200DA0180B0F90010914200DD02804B
:1002A0007047B0F900308B4200DA0280B0F90030BC
:1002B000934200DD01807047FE21C0B229F0C2BF29
:1002C0008021C0B229F0BEBF1C21C0B229F0BABF44
:1002D0007021C0B229F0B6BF40EA01039B0703D0EA
:1002E00009E008C9121F08C0042AFAD203E011F875
:1002F000013B00F8013B521EF9D27047FFFFFFFFA0
:10030000002801DA404200B270470020FF4A202155
:100310001154401CC0B2C828FAD370470146FB4AAA
:100320000020401CC0B2135C8B4201D0C828F8D317
:10033000704710B50021F64C0A2200BFB0FBF2F363
:1003400002FB13006054491CC9B218460529F5D3B5
:1003500010BDF0B5EF4B0121202719700521EC4AA3
:10036000002601E01C7844B1541814F8015C25B94A
:10037000814202D904F8017C05E0541814F8015DAB
:10038000303525701E70491E11F0FF01EAD1F0BD15
:10039000FEB52B23002802DA404200B22D230025AF
:1003A0000A266C4690FBF6F706FB170060556D1C9D
:1003B0006DB238B20A2DF5DB012600250920202771
:1003C00000E046B114F800C0BCF1000F03D1904228
:1003D00001DD275405E0265C3036265400266D1CCE
:1003E000EDB2401E40B20028EBDA2D2B02D163554E
:1003F0006D1CEDB26AB168B205E0231813F8013C38
:100400002354401E40B29042F7DC2E206D1CA054B5
:10041000EDB20846FFF782FF0021BC4A04E0635CAE
:10042000461A491C935549B2A942F8DBFEBDFEB5F8
:100430002B23002801DA40422D2300250A266C4692
:10044000074690FBF6F006FB107767556D1C6DB202
:100450000A2DF5DB012600250920202700E046B102
:1004600014F800C0BCF1000F03D1904201DD275405
:1004700005E0265C3036265400266D1CEDB2401E89
:1004800040B20028EBDA2D2B02D163556D1CEDB282
:100490006AB168B205E0231813F8013C2354401EEA
:1004A00040B29042F7DC2E206D1CA054EDB20846FD
:1004B000FFF734FF0021954A04E0635C461A491CAB
:1004C000935549B2A942F8DBFEBDFEB52B260028A4
:1004D00001DA40422D2600240A276D46844690FB0F
:1004E000F7F007FB10CC05F804C0641C64B20A2CBA
:1004F000F4DB0127002009244FF0200C00E04FB16D
:1005000015F804E0BEF1000F04D19C4202DD05F8AD
:1005100004C005E02F5D30372F550027401CC0B2C6
:10052000641E64B2002CEADA2D2E02D12E54401C37
:10053000C0B26BB144B205E02E1916F8016C2E550D
:10054000641E64B29C42F7DC2E24401CEC54C0B202
:1005500001EB810102EB8101CAB200216B4B04E087
:100560006C5C561A491C9C5549B28142F8DBFEBDB1
:1005700070B50D4616461C46FFF7DBFE601CC0B288
:10058000FFF7E7FE05EB850006EB8000C1B2604A8D
:100590005E4B0020A04201D2155C5D5406D3155C71
:1005A000202D03D04CB15E1806F8015C491E401C9A
:1005B000C0B2C9B20528EDD370BD5D54F6E730B5C1
:1005C000044608461546FFF7A9FEFF2809D04F4A02
:1005D0002178002905D04319641C401CD154C0B2B5
:1005E000F6E730BD70B50D461446FFF7A2FE601C5D
:1005F000C0B2FFF7AEFE2846FFF790FE444B434AD9
:10060000002124B95D5C202D01D015540FE0A142DA
:1006100001D25D5CF9E704D14FF02E0515545D5C05
:1006200002E05D5C202D02D0161806F8015C401E29
:10063000491CC9B2C0B20529E3D370BD801801D5E9
:10064000084402E0884200DB401AC0B270472DE93E
:10065000FE4F04460D464FF4606025F09FFB62425A
:100660004021FFF7EBFF400100F58060044602A93E
:1006700025F011FC694604F1080025F00CFC01A9E5
:1006800004F10C0025F007FC2846FFF747FE06465C
:100690009DF8080040273025DFF870B020244FF087
:1006A000210C4FF0230A552838D04FF0CF084FF0D7
:1006B000D10950287ED0E22351287CD042287BD01B
:1006C00053287AD0492879D1C0210BF80610761C1E
:1006D000F1B2C2220BF80120491CC9B22E220BF83C
:1006E0000120491CC9B2C8220BF80120491C5846F8
:1006F000C9B2ED224254491CC9B24354491C9DF869
:100700000920C9B2092A7DD2313205E08EC2072004
:10071000ECC30720F1C307204254FDE39DF80A0013
:1007200052280ED1C2210BF80610761CF1B2EA2233
:100730000BF80120491CC9B2EB220BF80120491C1F
:10074000CEB258460BF80640761CF1B20BF80140C9
:100750005BE04554491CC9B23A2200F801C0491C6B
:10076000C9B24254491CC9B24554491CC9B2475484
:10077000491CC9B24254491CC9B24554491CC9B2AA
:100780000BF801A0F2E34454491CC9B24554491C7A
:10079000C9B200F801C0491CC9B24754491CC9B2CA
:1007A0004454491CC9B24454491CC9B24554491C5B
:1007B000C9B204E011E031E067E0B3E30BE00BF80D
:1007C00001A0FEE39DF80110FF48002200EB81002C
:1007D0004021FFF7F4FEBDE8FE8FC0210BF80610A4
:1007E000761CF1B2C2220BF80120491CC9B22E229C
:1007F0000BF80120491CC9B258460BF80180491C6E
:10080000C9B200E0FBE30BF80190491CC9B24454A3
:10081000491CC9B24454491CC9B26AE3C0210BF84F
:100820000610761CF1B2C2220BF80120491CC9B295
:100830002E220BF80120491CC9B255220BF80120C9
:10084000491CC9B258460BF80130491CC9B2FB22F9
:100850004254491CC9B2F5224254491CC9B2DB4E6C
:100860004454491C9DF80020B38FC9B29A428AD1E2
:100870009DF8012096F838309A4284D19DF80220E4
:1008800096F82C309A42F2D163E79DF80A004FF0B7
:10089000E00943287ED1C0210BF80610761CF1B286
:1008A000C2220BF80120491CC9B22E220BF80120EC
:1008B000491CC9B2C1220BF80120491CC9B2F2225D
:1008C0000BF80190491CC9B20BF80120491C9DF896
:1008D0000900C9B2092809D231300BF80100491CBE
:1008E000C8B20BF80040401CC0B214E0A0F10902ED
:1008F0005A2A15D2401C0A23B0FBF3F2904630323C
:100900000BF80120491C03FB1800C9B230300BF86A
:100910000100491CC8B20BF80040401CC1B20BE0FA
:100920000BF80140491CC9B20BF80140491CC9B27F
:100930000BF80140491CC9B2A4489DF80020838FE0
:100940009A4240D19DF8012090F838309A423AD12D
:100950009DF8022090F82C00824234D10BF801500F
:10096000491CC9B23A220BF801C0491CC9B2584609
:100970000BF80120491CC9B20BF80150491CC9B23F
:100980000BF80170491CC9B24254491CC9B2455404
:10099000491C00E054E0C9B200220BF801A0491C38
:1009A000CEB29DF804002121FFF71CFE9DF8050042
:1009B00000224021FFF716FE9DF8060000222321A9
:1009C000FFF710FE3CE00BF80140491CC9B2584645
:1009D0000BF80150491CC9B200220BF801C0491C98
:1009E000C9B20BF80170491CC9B20BF80140491C8F
:1009F000C9B20BF80140491CC9B24554491CC9B2DF
:100A00000BF801A0491CCEB29DF802002121FFF78E
:100A1000E9FD9DF8000000222321FFF7E3FD9DF88A
:100A20000100401E0C2802D301208DF801009DF822
:100A300001106548002200EB81004021FFF7BFFD57
:100A40009DF80A0053287AD1C0220BF80620761CA4
:100A5000F1B2C2230BF80130491CC9B22E230BF8A6
:100A60000130491CC9B2C1230BF80130491CC9B27D
:100A700058460BF80190491CC9B2F2234354491C53
:100A80009DF809304326C9B2092B08D231334354AB
:100A9000491CC9B24254491CC9B246540EE0093B34
:100AA0005A2B04D24254491CC9B2465403E0445460
:100AB000491CC9B24454491CC9B24454434E491C50
:100AC0009DF80020B38FC9B29A4239D19DF8012018
:100AD00096F838309A4233D19DF8022096F82C309F
:100AE0009A422DD14554491CC9B23A2200F801C09E
:100AF000491CC9B24254491CC9B24554491CC9B227
:100B00004754491CC9B24254491CC9B20022455439
:100B1000491CC9B20BF801A0491CCEB29DF80400D3
:100B20002121FFF75FFD9DF8050000224021FFF71E
:100B300059FD9DF8060000222321FFF753FD36E002
:100B40004454491CC9B200224554491CC9B200F89A
:100B500001C0491CC9B24754491CC9B24454491C7C
:100B6000C9B24454491CC9B24554491CC9B20BF816
:100B700001A0491CCEB29DF802002121FFF732FDF1
:100B80009DF8000000222321FFF72CFD9DF80100B5
:100B9000401E0C2802D301208DF801009DF80110A1
:100BA0000948002200EB81004021FFF708FD9DF875
:100BB0000A005A2861D1C2210BF80610761C58464B
:100BC000F1B2C72204E00000D8CC0200004002408D
:100BD0000BF80120491CC9B20BF80140491CC9B2ED
:100BE0000BF80140491CC9B20BF80140491CC9B2BD
:100BF0004454491CC9B24454491C9DF80020C9B250
:100C0000FF4EB38F9A4239D19DF8012096F83830C3
:100C10009A4233D19DF8022096F82C309A422DD179
:100C20004554491CC9B23A2200F801C0491CC9B256
:100C30004254491CC9B24554491CC9B24754491CC5
:100C4000C9B24254491CC9B200224554491CC9B218
:100C50000BF801A0491CCEB29DF804002121FFF73A
:100C6000C1FC9DF8050000224021FFF7BBFC9DF868
:100C7000060000222321FFF7B5FC36E04454491C4E
:100C8000C9B200224554491CC9B200F801C0491C30
:100C9000C9B24754491CC9B24454491CC9B244544E
:100CA000491CC9B24554491CC9B20BF801A0491CE2
:100CB000CEB29DF802002121FFF794FC9DF80000C0
:100CC00000222321FFF78EFC9DF80100401E0C2816
:100CD00002D301208DF801009DF80110C9480022BF
:100CE00000EB81004021FFF76AFC9DF80A005728BD
:100CF0007CD1C1210BF80610761CF1B2F2220BF860
:100D00000190491CC9B258460BF80120491CCEB2CB
:100D10009DF809104FF0F00E092906D231318155A6
:100D2000761CF1B200F801E019E0A1F109025A2A9B
:100D300011D2491C0A23B1FBF3F29046303282559E
:100D4000761C03FB1811F6B230318155761CF1B2D6
:100D500000F801E006E08455761CF1B24454491CC9
:100D6000C9B24454491CC9B2A54E4454491C9DF80B
:100D70000020B38FC9B29A4239D19DF8012096F86C
:100D800038309A4233D19DF8022096F82C309A429E
:100D90002DD14554491CC9B23A2200F801C0491C62
:100DA000C9B24254491CC9B24554491CC9B247543E
:100DB000491CC9B24254491CC9B200224554491CBD
:100DC000C9B20BF801A0491CCEB29DF80400212144
:100DD000FFF708FC9DF8050000224021FFF702FC08
:100DE0009DF8060000222321FFF7FCFB36E0445467
:100DF000491CC9B200224554491CC9B200F801C0BF
:100E0000491CC9B24754491CC9B24454491CC9B20F
:100E10004454491CC9B24554491CC9B20BF801A03D
:100E2000491CCEB29DF802002121FFF7DBFB9DF8A3
:100E3000000000222321FFF7D5FB9DF80100401E92
:100E40000C2802D301208DF801009DF801106D4897
:100E5000002200EB81004021FFF7B1FB9DF80A0062
:100E60004B287FF4B8ACC1210BF80610761CF1B208
:100E7000F2220BF80190491CC9B20BF80120491C61
:100E80009DF80900C9B209280BD231300BF80100D6
:100E9000491CC8B2EA210BF80010401CC0B2E52181
:100EA00015E0A0F109025A2A16D2401C0A23B0FB11
:100EB000F3F2904630320BF80120491C03FB180076
:100EC000C9B230300BF80100491CC8B2EA210BF856
:100ED0000010401CC1B20BE00BF80140491CC9B224
:100EE0000BF80140491CC9B20BF80140491CC9B2BA
:100EF0005846434A4454491C9DF80030968FC9B265
:100F0000B3427FF440AC9DF8013092F83860B342B0
:100F1000F7D19DF8023000E0CFE092F82C20934208
:100F2000EFD116E4C0210BF80610761CF1B2C222F4
:100F30000BF80120491CC9B22E220BF80120491CD4
:100F4000C9B2C1220BF80120491CC9B25B460BF89B
:100F50000180491CC9B20BF80190491C9DF8096039
:100F6000C8B2092E03D231361E5414E04FE0A6F168
:100F700009015A290ED2761C4FF00A08B6FBF8F187
:100F800001F130021A54401C08FB1161C0B230312B
:100F9000195403E01C54401CC0B21C54401CC1B284
:100FA000174A5C541846491C9DF80030968FC9B208
:100FB000B34240D19DF8013092F83860B3423AD143
:100FC00000E050E09DF8023092F82C20934232D19C
:100FD0004554491CC9B23A2200F801C0491CC9B2A3
:100FE0004254491CC9B24554491CC9B24754491C12
:100FF000C9B24254491CC9B24554491C04E049E0F5
:1010000000400240D8CC0200C9B200F801A09DF80F
:10101000040000222121FFF7E5FA9DF805000022D7
:101020004021FFF7DFFA9DF8060000222321FFF799
:10103000D9FABDE8FE8F4454491CC9B24554491C35
:10104000C9B200F801C0491CC9B24754491CC9B211
:101050004454491CC9B24454491CC9B24554491CA2
:10106000C9B200F801A09DF8020000222121FFF77B
:10107000B9FA9DF8000000222321FFF7B3FA9DF88A
:101080000100401E0C28FFF49DAB01208DF80100EB
:10109000FFF798BBA2F109035A2B0DD2521C0A2567
:1010A000B2FBF5F303F130064654491C05FB13224D
:1010B000C9B23032425403E04454491CC9B24454CA
:1010C000491CC9B20BF80140B3E770B504460846A5
:1010D00015461E46FFF722F9FF4B0146FF2804D1B3
:1010E00006E01A54641C401CC0B22278002AF8D1D1
:1010F000FA480078002804D0002E02D029445F204E
:10110000585470BD2DE9FF4F8146DDE90D048A4634
:101110009346FFF703F92022DFF8C083EE490A2344
:101120004FF0640C012C09D198F8005035B10D181E
:10113000A5F10E05AA706A702A7020E099FBF3F6FB
:1011400003FB16970D183037A5F10E05022CAF7072
:1011500096FBF3F703FB176606F130066E7099FBFA
:10116000FCF606F1300605F80E6B08D198F8006021
:101170002EB1A5F10A05AA706A702A7021E09AFBC7
:10118000F3F603FB16A70D183037A5F10A05032C5B
:10119000AF7096FBF3F703FB176606F130066E702F
:1011A0009AFBFCF606F13006674605F80A6B08D193
:1011B00098F800602EB1A5F10605AA706A702A7031
:1011C00022E09BFBF3F603FB16B70D183037A5F1B1
:1011D0000605042CAF7096FBF3F703FB176606F1C8
:1011E00030066E709BFBFCF606F13006674605F88C
:1011F000066B09D198F8004034B1A5F102050A54F4
:101200006A702A70BDE8FF8F039C94FBF3F203FB26
:10121000124430340C5492FBF3F403FB14220844C0
:10122000A0F1020030324270039991FBF7F101F115
:1012300030010170E6E717B501EB810002EB800099
:10124000C2B29DF80030A64803F00F0100EB131363
:10125000445CA1498C54521ED2B21B788B549DF829
:101260000130521E03F00F04D2B2045D8C54521EA2
:1012700000EB1313D2B21B788B549DF80230521E30
:1012800003F00F04D2B2045D8C54521E00EB131312
:10129000D2B21B788B549DF80330521E03F00F041A
:1012A000D2B2045D8C54521E00EB1310D2B20078FF
:1012B00088541EBD30B58B490123874D91F901201B
:1012C00091F9041000EB80048A4202D105F8243021
:1012D00030BD814D4C1C00EB800005EB8000A2422C
:1012E00001D1037530BD8C1CA24202D180F8283098
:1012F00030BDCC1CA24202D180F83C3030BD0C1D68
:10130000A24202D180F8503030BD4C1DA24202D121
:1013100080F8643030BD8C1DA24202D180F8783054
:1013200030BDC91D8A42FBD180F88C3030BD6E4B78
:101330001A88521E104400B218806C4A00EB8000DC
:1013400002446848136803601279027142781144BC
:1013500041707047F0B5644D644FB5F9004004EB3F
:101360008406641C2C805F4C3E44256835602579DA
:101370003571207061702271A370F0BDF0B5054623
:101380000E461746FEF7C1FF534C0020401C15F8CF
:10139000011BC0B204F8011B1428F7D35FF0000052
:1013A000401C16F8011BC0B204F8011B1428F7D327
:1013B0005FF00000401C17F8011BC0B204F8011BCD
:1013C0001428F7D35FF00000401C13F8011BC0B2D3
:1013D00004F8011B1428F7D3F0BD10B5029CFFF7E9
:1013E000CDFF4048C37882784178A020FFF7B2FF54
:1013F000642094FBF0F0BDE81040C0B2FEF71DBFC2
:101400002DE9FE4340010D4600F58060044602A927
:1014100024F041FD694604F1080024F03CFD01A9D7
:1014200004F10C0024F037FD2846FEF777FF2A4C24
:10143000202530262554401CC0B24FF021082654E8
:10144000401CC0B24FF0400C04F80080401CC0B2F9
:10145000232104F800C0401CC0B200222554401CC7
:10146000C0B22554401CC0B22654401CC0B2215406
:10147000401CC7B29DF802002121FFF7B3F89DF888
:10148000000000222321FFF7ADF89DF80100401E67
:101490000C2802D301208DF801009DF801001449A9
:1014A000002201EB80004021FFF789F8E5557F1C01
:1014B000F8B23A212654401CC0B204F80080401C07
:1014C000C0B22154401CC0B22654401CC0B204F823
:1014D00000C0401CC6B20DE08EC207204EC00720DF
:1014E0006ECD020014C2072074C00720646800108B
:1014F000D8CC02009DF8040000222121FFF772F8E9
:101500009DF8050000224021FFF76CF8A555BDE8C5
:10151000FE8300002DE9FF41FB4C00270546A7771D
:10152000A07E0121022805D0F84A525D552A04D038
:1015300065200EE0A177BDE8FF8105EB450202EBD7
:101540000513F34A02EB830696F83D20D30702D039
:101550006620A077EFE796F83F309B0701D567201C
:10156000F7E7920701D56820F3E7EA4AB6F90830B1
:10157000B2F90020934201DD6920EAE7524293422A
:1015800001DA6A20E5E7012804D1E07E00287ED058
:1015900001287DD06420A077A176A4F862104FF4D2
:1015A000F87024F0EFFCE5762946A4F864504FF477
:1015B000FA7024F0E7FCD848B761002130F9150033
:1015C00024F0E0FC2777A4F8667039464FF4FB70EE
:1015D00024F0D8FCD148D24D0088401C00F0070010
:1015E00006EB4000008CADF80000A88B8DF80400DD
:1015F0004FF063024FF0010101A8FEF73CFEC24C20
:101600009DF80400A4342070287E8DF804000C227C
:10161000012101A8FEF72FFE9DF804006070287BD1
:101620008DF804001F22012101A8FEF724FE9DF879
:101630000400A0709DF80000E0704FF4FC70216879
:1016400024F0DBFC287A8DF804001722002101A881
:10165000FEF711FE9DF80400207128798DF8040032
:101660003B22002101A8FEF706FE9DF804006071F0
:1016700028788DF804003B22002101A8FEF7FBFD2D
:101680009DF80400A0719DF80100E07101E006E002
:1016900007E04FF4FE70616824F0AFFC4BE76B206D
:1016A00057E76C2055E72DE9F047974CA07E0128BD
:1016B0007ED120460127C07E217FC0F1010207FABA
:1016C00002F0954E924D02B211B1012933D037E0AC
:1016D0001423CA21C820FEF74FFD14234FF0FF3218
:1016E000CE21CD20FEF748FDE07E00EB400101EB6E
:1016F000001005EB8000B0F90800FEF701FEE17E66
:1017000001EB410202EB011205EB820293691844DE
:1017100048F6A0439061984212DBC01A906136F8F7
:10172000110024F03BFB401C01B2E07E36F91000B2
:1017300024F028FC04E01423CA21C820FEF71CFD75
:10174000E07EA84600EB400101EB001205EB8201B0
:10175000744AB1F902100025B2F900204FF4F8796B
:1017600002EB8202B1EB420F42DAB4F85E10491C80
:1017700009B2A4F85E101E293CDBA17E012921D10B
:10178000217FF9B936F8100024F008FB01B2664851
:10179000E27E30F9120024F0F5FBE07E36F810000E
:1017A00024F0FCFA81B2E07E04F08CFC5F4800E09B
:1017B00041E0E17E30F91100002124F0E3FB32200A
:1017C0006084A084E07E5149C0F10100085C552886
:1017D00007D0A576A4F862500021484624F0D2FB39
:1017E00008E02777A4F8667001214FF4FB70F5E755
:1017F000A4F85E50E17E01EB410000EB0112C1F163
:10180000010101EB410303EB011108EB820208EB3C
:101810008100B2F90220B0F9020082420BDB207F86
:10182000012808D1A576A4F862504846BDE8F047E3
:10183000002124F0A7BBBDE8F08770B5324C054607
:101840000026A07EF8B904F12404022104F80A1C41
:10185000E1874FF4F87024F095FBC5EB051081008B
:10186000E5860D46A1874FF4F97024F08BFB2946DD
:101870004FF4FF7024F086FB00202087608601264D
:10188000304604F0E1FC304670BD10B51E4CA07E21
:10189000022812D104F12404E08E04F0D5FC0020CB
:1018A0006086E086208704F80A0CE0870146BDE8E0
:1018B00010404FF4F87024F065BB10BD70B5184CA3
:1018C000203C94F838001A4D297808440C2803D994
:1018D000A08F401C01B201E0B4F93C10B82024F004
:1018E00051FB94F83810287801440C2994F83810EA
:1018F00000D90C380144B62024F044FB94F82C00A5
:101900001C2817D91C2117E008000010FAC0072076
:1019100028F7072098C007204AC6020000010010DF
:101920002040024092C0072066C6020046C6020060
:1019300057C0072094F82C10B42024F023FB04F1A6
:101940002004217A4FF0AE0024F01CFB2179B02056
:1019500024F018FB2178BDE87040B22024F012BBBF
:1019600010B5FA48FA4C007830B3FA48818FFA4A39
:101970001288914220D190F83810F84A128891428A
:101980001AD190F82C10F64A1288914214D190F88E
:101990002810F44A128891420ED190F82410F24A8D
:1019A0001288914208D190F82000F04909888842B5
:1019B00002D10120607702E0607F00280BD0EC4864
:1019C0000088C0B2FFF739FF002804D000206077FC
:1019D000BDE8104072E710BD70B5DD4CA07E022856
:1019E0003FD1B4F858004FF461610025884212D20B
:1019F000401C80B2A4F8580088420CD3A4F8585078
:101A0000B4F85A0038B1401E24F85A0F6088401CC0
:101A10006080A4F15A04B4F856003C2821D2401C3E
:101A200080B2A4F856003C281BD324F8565F608986
:101A3000401E01B261814FF4F97024F0A3FA60896D
:101A4000A4F1560400280CD1A5760146A4F86250F2
:101A50004FF4F87024F096FABDE87040002004F0CE
:101A6000F3BB70BDC3486FF03B010088C0EB0010B2
:101A700001EB8000B649A1F84A0070472DE9F05FFC
:101A8000DFF8CC92BB480026B9F84A10BA4F491C7F
:101A900009B2A9F84A10B0F90000B84DC0EB001225
:101AA0004FF0010B09F150044FF00A08B1EB820F1F
:101AB00054DBF0B3B2480088D8BBA9F84A6026705E
:101AC000DFF8C0A2667089F814609AF80000552803
:101AD00011D1B5F9020050280DDDB5F90800FEF767
:101AE0000FFCB7F90010884203DB95F83D00C007F2
:101AF00001D084F800B09AF80100552811D1B5F949
:101B00004E0050280DDDB5F95400FEF7F9FBB7F98A
:101B10000010884203DB95F88900C00701D084F8E3
:101B200001B09948007848B999F81510484629B18C
:101B300000E013E0817E31B1022904D02670667086
:101B400089F8146008E0217801291DD06178012905
:101B50001AD0017D012917D0A9F84C604846B9F97F
:101B60004C10DFF8EC91DFF824A209F16E09F1B313
:101B700083460246491E08B2A2F84C00052806DD3D
:101B80000F231E22642107E0A9F84C80E6E7002815
:101B90001BDD0F231E226921E120FEF7EDFABBF8C1
:101BA0004C00052811D1B5F90800FEF7A9FBA9F8EA
:101BB0000000B5F95400FEF7A3FBA9F80200BAF93A
:101BC0000000FEF79DFBABF828006148B0F84C0020
:101BD000002841D1AB46B5F90800FEF791FB5C4DFA
:101BE00072352880BBF95400FEF78AFB00E038E02C
:101BF0006880BAF90000FEF783FBDFF854A1AAF869
:101C00002A00AAF84E60B9F90000B5F9001008449E
:101C1000B7F90010884202DA2078012817D0BBF902
:101C20000200C82804DD00212670084603F026FFC4
:101C3000B9F90200B5F902100844B7F9001088425A
:101C400002DA6078012805D0BBF94E007AE0AAF8E4
:101C50004E80EDE7AAF84E80BDE8F09F6670002147
:101C600008E1B0F94E10E9B380460246491E08B2B9
:101C7000A2F84E00052803DD0F23C822642104E0EA
:101C800000281BDD0F23C8226921E120FEF774FA2A
:101C9000B8F84E00052811D1B5F90800FEF730FB61
:101CA000A9F80000B5F95400FEF72AFBA9F80200D4
:101CB000BAF90000FEF724FBA8F828002448B0F881
:101CC0004E000028C8D1DFF8B480B8F90800FEF74C
:101CD00017FB1F4D72352880B8F95400FEF710FB32
:101CE000688000E05AE0BAF90000FEF709FBDFF86F
:101CF0006080A8F82A0088F81360B9F90000B5F9E7
:101D000000100844B7F90010884202DA2078012850
:101D10003ED01A48B0F90200C82804DD0021267020
:101D2000084603F0ABFEB9F90200B5F90210084409
:101D3000B7F90010884202DA607801282BD00F48EA
:101D4000B0F94E00C82889DC86E7000057C007209C
:101D5000080000100040024008C1072006C107200B
:101D600004C10720FEC0072000C1072002C10720D0
:101D70000AC10720A8C0072098C0072028F707201D
:101D8000D6C00720FAC007205EC0072070C1072018
:101D900088F813B0C7E788F813B05DE78146C07CC8
:101DA0000028D1D00F2300226E21E120FEF7E4F9B4
:101DB000B5F90800FEF7A4FAB7F90010884207DD6C
:101DC0002078012804D100212670084603F056FE31
:101DD000B5F95400FEF794FAB7F90010884206DD11
:101DE0006078012803D16670002103F047FE207857
:101DF00030B9607820B999F8141009B989F81360DE
:101E0000E620FEF7D0F918B1FF480068E7280AD0AD
:101E1000FE48FF49B0F90000B1F9001000EB800066
:101E2000B1EB400F90DA89F813602078F94E012861
:101E30000FD1B7F90000410091FBF8F0B6F900109E
:101E4000884206DA95F83D00C00702D1012103F06F
:101E500015FE60780128A0D1B7F90000410091FB80
:101E6000F8F0B6F90010884297DA95F88900C007B3
:101E700093D10121BDE8F05F012003F0FFBD2DE902
:101E8000F047E54CB4F84800401C00B2A4F8480004
:101E9000B0F5E16F03DB0020A4F84800CBE4B0F517
:101EA000DF6F11D90F2301226421D220FEF764F9DC
:101EB0000F230022D821D720FEF75EF90F2300223E
:101EC000D821DC20FEF758F9B4F94800A0F5E0610C
:101ED0000739E3D1D14FD24CD24D388821880A2618
:101EE000DFF84483DFF84493884210D0B5F9080046
:101EF00090FBF6F000B2FEF703FAB8F90010884242
:101F000005DAB4F90010B9F9000024F03BF878883C
:101F100061888842C2D0B5F9080090FBF6F000B2A3
:101F2000FEF7EEF9B8F900108842B7DAB4F90210FA
:101F3000B9F90200BDE8F04724F024B810B5BC4C54
:101F4000082200212088401C20802046FEF7A9F9A5
:101F5000B448B4F9001000EB410142880A84B0F89B
:101F60004E00A1F86C0010BD70B5B348B14DB0F98A
:101F70000030B248B5F9002090F900109A421BDAFF
:101F8000AF4C0A290EDAAF4BB3F900300F2B0BDD43
:101F9000491C49B201700A2906DB2280012003F0A6
:101FA000ABF801E00A210170B5F90000B4F90010A6
:101FB000884200DA208070BDFDDD0029FBD0491E7B
:101FC00049B201700029F6DCBDE87040002003F042
:101FD00093B82DE9F05F90489B499F4CC08DB1F9B3
:101FE00000109C4F484399498E4D90FBF1F0914968
:101FF0004FF4FA6608809648B4F90020B7F900104B
:10200000B0F908305A434FF42F7392FBF3F2AA80D1
:10201000B0F91820B7F90270574397FBF6F2A5F80C
:102020004E20B0F90270B4F902207A4392FBF3F229
:10203000A5F85020B0F90400414391FBF6F0688008
:10204000DC20FEF7D0F8F0BB754BDFF8D0A1DFF84D
:102050000CB21888BAF8001045F6386E401ABBF971
:10206000001045F6926441437D484FF4967745F25F
:102070001362008845F2116C4FF47A79704501D0F3
:10208000A04202D191FBF7F10DE0A0F5A848B8F508
:10209000FD7803D0904201D0604502D191FBF6F16A
:1020A00001E091FBF9F101EBD1714910494229811D
:1020B0005988BAF80230CB1ABBF90210594370455F
:1020C00003D0A04200E012E002D191FBF7F00CE057
:1020D000A0F5AA43FA3B03D0904201D0604502D15B
:1020E00091FBF6F001E091FBF9F0A5F85400584A95
:1020F00040F6B73B0124B2F90C004FF0000801464E
:10210000A0F221308146584502D285F80C8000E0CB
:102110002C73544892461346B0F9002044F6206CC4
:102120004A4392FBFCF2A2F211126A81B3F90E202B
:10213000A2F221339E465B4502D285F8588001E029
:1021400085F85840B0F90200364B504390FBFCF044
:10215000A0F21110A3F85600434BBAF904005746F9
:10216000B3F90030584390FBF6F0294B1880BAF9C8
:102170000A303E48A3F221355D4502D2C0F8008006
:1021800000E004603A4D40F6B736B5F90050AB4672
:102190005D4395FBFCF3374DA3F211132B80B7F988
:1021A00014301D46A3F22133B34202D2C0F804809A
:1021B00000E04460DFF8B8A02E4EBAF902305D436B
:1021C00095FBFCF5A5F211157580B7F9065040F6A0
:1021D000B7362F46A5F22135B54202D2C0F80880A5
:1021E00000E08460BAF904507D4395FBFCF5A5F24C
:1021F0001115204F2DB2AA46BD8040F6B735AE4529
:102200003AD2C0F8008038E010C0072092C0072002
:1022100072C1072074C1072008000010C0C3072046
:10222000CA22001028F70720A0C0072072C60200AB
:10223000000100107CC1072094C007200601001097
:10224000F2C3072072C00720C8C30720B0AD010049
:10225000B4670010BCC30720D4000010D8000010E1
:10226000FCC00720C4C30720E2000010580F08205C
:10227000CAC307204EC2072004600BFB02F696FB80
:10228000FCF6A6F211163E80A94502D2C0F80480E1
:1022900000E044604B4393FBFCF1A1F2111109B241
:1022A000F84BF94D79808C461A88B5F900104FF437
:1022B0007A67514391FBF7F1F44A89B2F44E1180E9
:1022C000642901D3F349098831805B88B5F902108C
:1022D0004FF00A09594391FBF7F15180EE49EF4B5A
:1022E000EF4FB1F90020B3F90050554341F270723D
:1022F00095FBF2F53D80B1F90260B3F902507543E8
:1023000095FBF2F57D80B1F90450B3F904306B43CD
:1023100093FBF2F3BB80E34BB1F90660E24FB3F9F4
:102320000050754395FBF2F53D80B1F90860B3F9B3
:102330000250754395FBF2F57D80B1F90A50B3F96F
:1023400004104346694391FBF2F1B980D7490CF27E
:102350001112DFF864C30A800AF211124A8042683F
:102360000A7280684872D248D249A0F83E80B1F91A
:102370000020002A06DDBCF90A5095FBF9F19942CC
:1023800000DDC187012A0BDDBCF8661041B9BCF93C
:102390004C3093FBF9F1B0F93E30994200DDC18732
:1023A000022A0BDDBCF8A81041B9BCF98E3093FBB2
:1023B000F9F1B0F93E30994200DDC187BF480021F4
:1023C000DFF8FCE2B0F900301D469B1C34E000BF92
:1023D000C1EBC10000EB40060EEB8600C678192E5B
:1023E0001CD28679C77906EB07264662067A477AB9
:1023F00006EB07260662867AC77A06EB0726C661D1
:10240000067B8662467B80F85260867B80F842605D
:10241000067C477C06EB0726C6640BE0C0F81C80F0
:10242000C0F82480C0F82080C0F8288080F842805E
:10243000C0F84C80491CC9B29942C9DBA1480021AF
:10244000E246A0F80080CB460DE000BF01EB41164C
:102450000AEB4603B3F90A6096FBFBF30688F31A0E
:10246000491C0380C9B29142F0DB974900227346B0
:10247000A1F800800FE000BFC2EBC20606EB4606E3
:1024800003EB8606F778052F03D2766A0F883E4461
:102490000E80521CD2B2AA42EEDB02880988114497
:1024A00009B20180002901DAA0F800808748B0F95C
:1024B0000050F5B30022DFF818C264E0C2EBC2009E
:1024C00000EB400003EB800090F8931619293AD2F4
:1024D00000F296600178467801EB062602EB420195
:1024E0000CEB4111CE618678C77806EB0726CE62E9
:1024F0000679477906EB07268E6186790E62C679E2
:1025000081F84660067A477A06EB07268E62867A5D
:10251000C77A06EB07264E6281F80280067B81F8B7
:102520005960467B81F85A60867B81F85860C67B8B
:1025300000E02AE081F85B60067C81F85C60407C0A
:1025400081F85D001DE002EB42000CEB4010192603
:10255000C0F81C80C0F82C80C0F81880C0F820801B
:1025600080F84680C0F82480C0F82880867080F803
:10257000598080F85A8080F8588080F85B8080F815
:102580005C80521CD2B2AA4298DB5249DFF84891D3
:10259000088801285AD1514E002500BFC5EBC5005F
:1025A00000EB400206EB4201887B4B7B00EB0327EC
:1025B00005EB45130AEB4300C7814F7816F812204C
:1025C00007EB02222AF81320CA788B7802EB032249
:1025D00042800A7982804A79C280CA798B7902EB7B
:1025E000032202814A7A0B7A02EB03224281CA7AE1
:1025F0008B7A02EB032282810A7B4282CA7BC282EF
:102600004A7C0B7C02EB032282828A7C028291F854
:102610002220428391F82320828391F824100183A1
:10262000303032220021FDF731FE6D1C15F0FF0520
:10263000B4D096F82900642801D018B104E089F8D4
:10264000154001E089F81580A9F81600022189F8E3
:102650000D1020494846098801295FD1BAF9083090
:102660005A4693FBF2F30380BAF90A3051461BB184
:1026700093FBF2F3438036E08B899BB3184BB3F99D
:102680000830F5E714010010DC00001054C20720E8
:1026900096C107207CC107209668001002C407205D
:1026A0005AC207201A01001060C20720B20F08208A
:1026B00008000010DEC0072068F80720E0C00720EF
:1026C00048F9072074C10720FAC30720E2C0072099
:1026D000C8030820D6C007202EF90720DC0F0820E9
:1026E00028F70720FFE7B1F90E30642493FBF4F3D9
:1026F00043814B8A03720B8AC371B1F9143093FB87
:10270000FBF2C2818A888280BAF816100174417D7A
:1027100011B9017D002901D089F80D80BDE8F09F35
:10272000F84AF9481178052901D0012905D15178D5
:1027300019B9F6490978552902D0F549098803E005
:102740000178002901D0491E01707047F1484168A5
:1027500021F4402141F480214160416821F440315D
:1027600041F480314160416821F4404141F48041AD
:102770004160416C21F4402141F400214164416CED
:1027800021F4403141F400314164416C21F4404175
:1027900041F400414164E048016821F0E0610160DA
:1027A000016841F400110160016821F48031016089
:1027B000016821F47F4141F4807101608115C1609D
:1027C000D6488903016070472DE9F041D44C6088F8
:1027D0002188401A00B203F029FEA51D2880A08898
:1027E0006188401A00B203F021FE6880A088218829
:1027F000401A00B203F01AFE4FF49672A880A4F1BA
:102800009801904201DAA0880AE0B5F902009042EE
:1028100001DA608804E0B5F90000904201DA20880E
:10282000088691F802C00023BCF1000F22D0BD48F9
:10283000B1F93020046814440460446814444460CE
:10284000846814448460C4682244C2600A8F521CA5
:1028500012B20A87B2F5805F00DB0B87B1F938202E
:1028600094052FD1921250F822402412CC8540F8C2
:10287000223027E0AC4FC8780C7907EB8015B1F90E
:10288000302045F82420A20710D100252A4607EB66
:10289000801600BF56F82270521CD2B23D44102A56
:1028A000F8D32A119F4D203D25F81020401CC0B2BE
:1028B000C870102806D3641CE0B2CB7008711028D1
:1028C00000D30B710CF1010C4B701CF00100924A0B
:1028D000887005D0106820F0FF00001D106034E003
:1028E000C97808070028106820F0FF0002DB00F11B
:1028F000010001E000F1020010608C48036843F021
:1029000080530360036A43F080430362036E43F025
:1029100080630366CB07436908D043F0805343616B
:102920008B07436B05D423F0804304E023F08053EE
:10293000F5E743F0804343634907416F02D421F038
:10294000806101E041F080614167106840F0807073
:102950001060BDE8F081F0B571489838B0F92610E4
:1029600019B1A1F10101C1848BE04FF0000C714B52
:1029700080F812C061466E4AB3F9005011E000BF02
:10298000C1EBC10303EB430302EB83039C78012CEF
:1029900005D1DB78142B02D2837C5B1C8374491C29
:1029A000C9B2A942ECDB867C022E6AD341F288319F
:1029B000C0E91EC15A4918390023C1F800C016E009
:1029C000C3EBC30404EB440402EB8407BC78012C82
:1029D0000BD17C6A876FBC4200DD8467C76FBC4245
:1029E00000DAC4670F683C440C605B1CDBB2AB428E
:1029F000E6DB0B68012493FBF6F74F60C36F03B966
:102A0000C467836F64267343C66F93FBF6F38B60D2
:102A1000A02B00DD4474782B02DA80F811C030E07E
:102A2000407C01282DD100216FF0310327E000BF49
:102A3000C1EBC10000EB400002EB80008478012C68
:102A40001BD1446ABC4205DDB0F85040A4F101043A
:102A5000A0F8504005DAB0F8504004F10104A0F8A5
:102A60005040B0F950409C4202DAA0F8503004E0E7
:102A7000322C02DD3224A0F85040491CC9B2A942D0
:102A8000D6DB00BFF0BD70B5224801682A4A11406C
:102A90000160264C216841F47C712160C16921F4F8
:102AA0004021C161216E41F000712166416821F031
:102AB00040614160206840F00050206020481F4B7A
:102AC000214902781F4893F83C50B1F90010007872
:102AD000154307D030B1052904DDA56945F480759B
:102AE000A56103E0E56945F48075E56193F88830F8
:102AF00013432CD050B3052929DDA06940F04000D4
:102B0000A06128E014C207202EC0072058C007206B
:102B10000CC1072000C002400040034000E100E07B
:102B2000A0000010D4670010B463001000C009209A
:102B300048F90720E0C00720FF00F0FF28F7072032
:102B4000D000001033C0072072C00720FFE7E06903
:102B500040F04000E061D220FDF745FBFF4D60B141
:102B60002868642809D16868012801D028B108E0E4
:102B7000A06940F00050A06103E0E06940F000501F
:102B8000E061D220FDF72FFBF54E10B128686628D2
:102B900024D03068C00718B3A06F40F02000A067B1
:102BA000D220FDF720FB10B1286866281DD03068C0
:102BB000C007E0B1A06940F02000A061D220FDF77D
:102BC00012FB10B12868682816D0E6480078012862
:102BD00017D0A06940F40070A06116E06868DAE7D9
:102BE000E06F40F02000E067DAE76868E1E7E0695D
:102BF00040F02000E061E1E768680028E9D00128A2
:102C000003D1E06940F40070E061D220FDF7EBFAF7
:102C100010B128686F2803D0D348007828B109E0A4
:102C2000686810B1012805D008E0E06940F01000A4
:102C3000E06103E0A06940F01000A061D220FDF740
:102C4000D2FA10B128686B2803D0C848007828B1A0
:102C500009E0686810B1012805D008E0A06940F0DB
:102C60008000A06103E0E06940F08000E061D220D4
:102C7000FDF7B9FA10B12868702803D0BC48007875
:102C800020B908E0686830B1012803D1E06940F05C
:102C90004000E06170BDA06940F04000A06170BDDF
:102CA0002DE9F05FB34C00254FF00108207E0A2883
:102CB00007D2401CC0B220760A2802D3257684F8B9
:102CC0001980A4F85250A4F85450CD20FDF78BFA87
:102CD000DFF8A492DFF8A4A2A0B3A0484FF6FF72D9
:102CE0000168CE2908D0CF2909D0D12909D0D2290D
:102CF0000BD0D0290CD011E0A4F854200EE040688D
:102D00000AE04068A4F8520008E0A4F8522005E068
:102D10004068A4F85200C043A4F85400002631E0F3
:102D200008FA06F0B4F8541083460842C6EBC60011
:102D300000EB400107D009EB810131F8400F401C46
:102D4000088004E023E009EB8100A0F84050C6EBC6
:102D5000C60000EB400109EB8100074640303222FB
:102D60000021FDF793FAB7F94000142801DD87F838
:102D70002C80B4F852101BEA010F01D087F82C50B8
:102D8000761CF6B2BAF900008642C9DD64E0607EC6
:102D9000E8B300221146CC46BAF900000AE000BFB1
:102DA000C1EBC10303EB43030CEB8303491C83F822
:102DB0002C80C9B28142F3DD00211FE0C3B2202B79
:102DC00000D9202394F82060864200DB00260E44C0
:102DD000F6B2B6FBF3F703FB1763C3EBC30303EBD6
:102DE00043030CEB8306B378022B01D0012B03D1F4
:102DF000521C86F82C50D2B2491CC9B2814204DA66
:102E00005F4BB3F900309A42D8DB5E4900E023E023
:102E1000B1F900103C290DDA002109E0C1EBC10233
:102E200002EB42020CEB8202491C82F82C50C9B220
:102E30008142F3DD5449098871B100210AE000BFE5
:102E4000C1EBC10202EB42020CEB8202491C82F888
:102E50002C80C9B28142F3DD002163274846BAF9CC
:102E600000200DE0C1EBC10303EB430300EB830340
:102E7000DE6B1EB183F82C70761EDE63491CC9B26E
:102E80009142EFDB80F8D45080F82851657600211C
:102E900065750B4612E000BFC3EBC30505EB4505A6
:102EA00000EB8505AE78012E06D1667D761C667531
:102EB000ED698D4200DDA9B25B1CDBB29342EBDB16
:102EC000A4F846102AE470B530480A21304D036852
:102ED00000242868B3FBF1F2B0FBF1F62D48B242B2
:102EE0000AD102780F2A01D2521C0270D0B20A28ED
:102EF00003D32948036000E004702B602748284B67
:102F0000B0F90020B3F90000B2FBF1F5B0FBF1F12C
:102F100024488D420AD101780F2901D2491C017041
:102F2000C8B20A2803D32048028000E004701A8047
:102F300070BD2DE9F0410746C0EBC7000E4900EB1C
:102F4000400011F82020032A76D101EB800494F888
:102F50004250A807B4F9460039D527E010C0072031
:102F6000B8000010D5C10720BBC30720BAC3072093
:102F7000D10000100800001048F90720E0C0072029
:102F80000E01001072C007203601001008C407208F
:102F900020010010260100100CC20720240100109F
:102FA0000CC407200EC407209CC107204FF4966173
:102FB00088421ADA401C00B2A4F84600884214DBAA
:102FC000A4F846106078C0070FD1012209E060B173
:102FD000401E00B2A4F8460038B96078C00704D09B
:102FE00000220021384602F0F0FA2807B4F9480020
:102FF0004FF00A064FF000010ED50A2820DA401CD7
:1030000000B2A4F848000A281ADBA4F848606078E7
:10301000800715D4012209E000280EDDA0F101008F
:1030200000B2A4F8480058B94FF000024FF0010177
:10303000384602F0CAFA03E04EE001DAA4F848107C
:10304000E806B4F94A000ED50A2817DA401C00B287
:10305000A4F84A000A2811DBA4F84A606078400707
:103060000CD4012206E048B1401E00B2A4F84A0088
:1030700020B900220221384602F0A7FA6078000742
:1030800001D0042011E0F948007820B1E07814283C
:1030900001D9052009E094F84200800601D50220FC
:1030A00003E0E078142801D20120A070E0780A281B
:1030B00094F82C0002D340F0800001E000F07F0083
:1030C000EB4984F82C00B4F95000B1F922100844FF
:1030D00020634FF47A7060633BE470B5E5490020EB
:1030E000E54DB1F90C200121034600BF01FA00F4BF
:1030F000224201D0295400E02B54401CC0B20C28BD
:10310000F4D3DE4C2878DE4E217881420CD0B6F91B
:103110000010012908DB01287ED0002301220B21A9
:10312000D8A000BF21F0D4F86178687881420BD034
:10313000B6F90010022907DB01286ED00023022215
:103140000B21D5A021F0C4F8A178A87881420BD03A
:10315000B6F90010032907DB01287CD000230322E5
:103160000B21D2A021F0B4F8E178E87881420BD0AD
:10317000B6F90010042907DB012872D000230422CD
:103180000B21CFA021F0A4F82179287981420BD01E
:10319000B6F90010052907DB012867D000230522B6
:1031A0000B21CCA021F094F86179687981420BD091
:1031B000B6F90010062907DB01285CD0002306229F
:1031C0000B21C9A021F084F8A179A87981420BD004
:1031D000B6F90010072907DB012851D00023072288
:1031E0000B21C6A021F074F8E179E87981420BD077
:1031F000B6F90010082907DB012846D00023082271
:103200000B21C3A021F064F8217A287A81420FD0E3
:10321000B6F90010092901E013E017E008DB0128E6
:1032200038D0002309220B21BEA000BF21F050F8A6
:103230000020295C2154401CC0B20C28F9D370BD79
:1032400009E001231A460B21BBA06BE701230222F0
:103250000B21BEA076E7012303220B21C0A081E74A
:10326000FFE7012304220B21C2A08BE701230522E3
:103270000B21C5A096E7012306220B21C7A0A1E7D9
:10328000012307220B21CAA0ACE7012308220B214E
:10329000CCA0B7E7012309220B21CFA0C6E770B568
:1032A000C820FCF7A0FFD1490022A0B3D04C0123D5
:1032B0002068C92803D0CA28104611D02CE000206D
:1032C00000EB400404EB001411F82450322D02D21C
:1032D0006D1C01F82450401CC0B20228F0D325E038
:1032E000D4F8045003FA00F4254200EB400409D05E
:1032F00004EB001611F82640322C07D2641C01F8AA
:10330000264003E004EB001401F82420401CC0B266
:103310000228E7D30AE01FE000EB400404EB0014AE
:10332000401CC0B201F824200228F5D35FF0000051
:1033300000EB400404EB001411F8245001EB84046A
:10334000142D02D984F83C3001E084F83C20401C64
:10335000C0B20228ECD372E700EB400303EB00138A
:10336000401C01F8232001EB8303C0B283F83C200A
:103370000228F1D363E72DE9F8439E4A9E4E0021CF
:10338000B2F90020B6F900309C4C084691464FF047
:10339000010C02270D46984205DB00EB401204EBBE
:1033A0004202958416E0B9F1000F05D000EB4012FF
:1033B00004EB4202A2F824C000EB401204EB4202EC
:1033C000B2F81E80B8F1000F01D0978402E0491CCA
:1033D0009584C9B2401CC0B20328DCD388485FF092
:1033E00000070180B6F90000B84206DD07EB471080
:1033F00004EB40008046808C10B307EB471004EBD1
:10340000400005877F1CFFB2032FEBD3B6F90020E5
:103410000020904205DC00EB401104EB4101898C57
:1034200041B100EB401104EB41014D810D818D80D4
:103430004D820D82401CC0B20328EAD3BDE8F88358
:10344000B8F8120064214843B8F9101000B290FB9C
:10345000F1F0ADF80000642200216846FCF716FF89
:10346000BDF80010A8F83810CCE700005EC00720B7
:103470000800001096680010D00F0820AA680010FD
:10348000EAC007204176746F6D6174202331206992
:1034900073204F46460000004176746F6D617420C2
:1034A0002332206973204F46460000004176746F36
:1034B0006D6174202333206973204F46460000005D
:1034C0004176746F6D6174202334206973204F46F8
:1034D000460000004176746F6D61742023352069C9
:1034E00073204F46460000004176746F6D61742072
:1034F0002336206973204F46460000004176746FE2
:103500006D6174202337206973204F464600000008
:103510004176746F6D6174202338206973204F46A3
:10352000460000004176746F6D6174202339206974
:1035300073204F46460000004176746F6D61742021
:103540002331206973204F4E200000004176746FB4
:103550006D6174202332206973204F4E20000000DB
:103560004176746F6D6174202333206973204F4E50
:10357000200000004176746F6D617420233420694F
:1035800073204F4E200000004176746F6D617420EF
:103590002335206973204F4E200000004176746F60
:1035A0006D6174202336206973204F4E2000000087
:1035B0004176746F6D6174202337206973204F4EFC
:1035C000200000004176746F6D61742023382069FB
:1035D00073204F4E200000004176746F6D6174209F
:1035E0002339206973204F4E2000000028F7072060
:1035F00010C00720EAC30720DEC0072068F80720B4
:10360000020100102DE9F041FA48FB491424B0F9F9
:103610000070FA48B1F90220B1F90050D0E9006316
:10362000F748214617B1012F03D005E0028013B9F6
:1036300002E0058006B10180F24FDFF8CC83B7F9D4
:10364000007017B1012F04D008E0A8F800201BB9C2
:1036500004E0A8F800500EB1A8F80010EB49EC4BBC
:1036600009881980EB490988C1B9EB49EB4DB1F9DB
:103670000020EB49002AB1F9001003DDB5F93860EC
:103680008E420BDB012A03DDB5F97A608E4205DB41
:10369000022A05DDB5F9BC208A4201DA0A21198027
:1036A000E04DB0F90010B3F90020B5F900009142E7
:1036B00001DA401C05E0DC4AB2F90020914201DD4C
:1036C000401E28800A220021D648FCF7DFFDB5F90C
:1036D0000010D64801250026092901DD057002E009
:1036E000012900DA0670D249B8F90000D14FB1F9CA
:1036F0000010884202DD3888401C06E0CE49B1F94E
:103700000010884202DA3888401E38800A220021E0
:10371000C848FCF7BBFDB7F90000C849092801DD1E
:103720000D7002E0012800DA0E70C64A0020C4497C
:10373000B2F900200FE000BFC0EBC00303EB43036E
:1037400001EB8307BB6AA34203DDFF780A2F00D297
:10375000DCB2401CC0B29042EEDBBB48BB4FB0F9BC
:103760000000844202DD3888401C06E0B848B0F909
:103770000000844202DA3888401E38800A22002184
:10378000B248FCF783FDB7F90000B249092801DD12
:103790000D70A1E40128FCDA0E709DE42DE9FC5FB8
:1037A0000546AD4830F9151011B1491E20F8151025
:1037B000A94A121D32F9151011B1491E22F815102F
:1037C00005EB450101EB0513A44901EB8304A44B70
:1037D000B4F90810B3F90030994202DD642320F8EF
:1037E0001530002902DA642122F815109A4930F8C0
:1037F00015308C3900264BB132F8153033B1B1F8A1
:103800006A30B3B140F6B830A1F86800A1F868603A
:1038100094F83E00401CC0B284F83E000A2801D350
:1038200084F83E608F4FDFF840823888322809D014
:1038300017E04FF41673A1F86A3020F8156022F8EB
:103840001560E3E794F83C00F8B9B4F90200502899
:103850001BDA94F83D00C00717D10121284602F079
:103860000DF9B7F90000C8280FDDB4F90800FCF71E
:1038700047FDB8F90010884207DD94F83D00C00705
:1038800003D00021284602F0F9F87748B4F908106F
:10389000B0F900004042814212DD607B0A280CD260
:1038A000401CC0B260730A2875D3A07B002872D078
:1038B000A673284602F057F86DE00A2060736AE0AC
:1038C00069DA607BF0B3401E10F0FF00607362D1D4
:1038D000A07BB8BB0120A0736448654F0088401CE2
:1038E00000F0070004EB4000008CADF80400B88B3A
:1038F0008DF800004FF063024FF001016846FCF7BD
:10390000BAFC04F11C049DF800002076387E8DF886
:1039100000004FF00C024FF001016846FCF7ABFCD1
:103920009DF800006076387B8DF800001F22012191
:103930006846FCF7A0FC9DF80000A0769DF8040006
:10394000E07600E027E0387A8DF8000017220021A9
:103950006846FCF790FC9DF80000207738798DF8D8
:1039600000003B2200216846FCF785FC9DF8000022
:10397000607738788DF800003B2200216846FCF71C
:103980007AFC9DF80000A0779DF80500E07726807E
:103990006680A4F11C0448F6A04894F83E0040BBA1
:1039A000B4F908106069DFF8CCA00844DFF8C890CB
:1039B00045F2555B606140456BDB39F915205A458E
:1039C00003D12E4830F8157001E039F815703AF837
:1039D000150022F0E3F980B2B84251D2616900F1DA
:1039E0000100A1F50041A1F54A6161613AF9152094
:1039F00071E09EE0A4C107204EC20720580F0820A6
:103A00008CC10720A6C107208EC10720A8C10720AE
:103A100012C40720E8C30720DEC0072068F807208B
:103A2000ACC1072010C40720AAC10720BBC30720D0
:103A3000AEC1072028010010B0C10720BAC307207B
:103A400048F90720E0C00720B2C107202A01001072
:103A5000B4C10720D10000109400001028F70720FF
:103A6000A0C0072070C0072098C0072000010010E8
:103A70002040024046C60200F4C10720ECC10720E6
:103A800030D93AF9150039B222F07CFAC4F8148022
:103A900028E0FF49884225DC39F915205A4503D131
:103AA000FC4830F8157001E039F815703AF8150047
:103AB00022F074F980B2B84205D93AF9150039B24A
:103AC00022F060FA384658B16269401E02EB0801E4
:103AD00061613AF9152001B2104622F053FA01E073
:103AE000EB4860613AF8150022F058F9014639F9BF
:103AF0001500584502D1E74830F915004FF47A72A5
:103B0000514308B1B1FBF0F00A21B0FBF1F0208283
:103B1000E1480088012806D1E04905EB451001EB9A
:103B20004000408A208204F1100064220021FCF74A
:103B3000ADFBA07B012813D1A08B4746B8420ED223
:103B4000B4F90800FCF7DCFBA18B084480B2A08329
:103B5000B84205D3A683E08B401CE08300E0A68337
:103B6000CF48B4F90A10B0F90000814201DD207B92
:103B7000E8B3B4F84000401EA4F840004FF41679B2
:103B800004F140004A460021FCF780FBB4F94000F4
:103B900040F24E27B84205DB94F83F1041F0010196
:103BA00084F83F100A2805DC94F83F0020F001005B
:103BB00084F83F00BB48B4F90A10B0F90000814214
:103BC00001DD207B90B3B4F84200401EA4F842000F
:103BD00004F142004A460021FCF758FBB4F94200C8
:103BE000B84207DB94F83F1041F0020100E01EE00C
:103BF00084F83F100A2805DC94F83F0020F002000A
:103C000084F83F00606C404519DA401C6064404510
:103C100016DBA54F666437F8150022F0BFF8401C8C
:103C200001B237F9150022F0ADF909E003E0B4F86C
:103C30004000401CA0E7B4F84200401CC6E76664A0
:103C40009A4F3888002854D09948B0F90000484568
:103C5000B4F9020004DAC11700EB9170801003E0A0
:103C6000052190FBF1F000B2A188C1EB400000B249
:103C7000FCF746FB00EB8000400000B20C2190FBFB
:103C8000F1F000B2E080B7F90010884233DDB4F9FA
:103C90000800FCF735FB8749B1F9001001EB810101
:103CA000884228DA84487321B0F90000484364212F
:103CB00090FBF1F0B4F9021000B288421BDA94F8DC
:103CC0003D00800717D4B4F84800401C00B2A0F5AE
:103CD0003061A4F84800B83903D10121284602F028
:103CE000BDF8B4F9481040F6BD30814201DBA4F8BC
:103CF0004800BDE8FC9FA4F84860FAE770B56F4C37
:103D00000026A0790A2807D2401CC0B2A0710A2858
:103D100002D3A67101202072E079052805D2401C4B
:103D2000C0B2E071052800D1E671BE20FCF75BFA55
:103D3000634D30B163480168BF2948D1406828808D
:103D400045E0207AF0B32672594E30882880A07E54
:103D5000022802D15C48008828801E2201215B488D
:103D6000FCF794FA5A485B4A008838B110885749E2
:103D7000401E00B2494BB1F900100CE03088288099
:103D80000BE000BF00EB401403EB4404401E248909
:103D900000B20C442C800028F4DA11884E4809B98E
:103DA00001882980B0F9002000214548FCF76EFA0F
:103DB0004A480021B0F900204148FCF767FA4FF467
:103DC000077200E003E000213D48FCF75FFAB5F917
:103DD000000062214143642291FBF2F1404B1980C3
:103DE0006621484390FBF2F03E49088070BD2DE902
:103DF000F041324CB4F92C0008B1401EA0853A487D
:103E00003A4D3B4E00882880B6F908000A27002862
:103E100006DAFCF775FA90FBF7F029880844288049
:103E2000B6F95400002806DAFCF76AFA90FBF7F0BE
:103E30002988084428802F49B5F900002E4AB1F995
:103E400000103C2390FBF1F1491CC9B2A175B2F9F5
:103E5000002090FBF2F0401CC2B22848E275B0F995
:103E60000050A94201DD018004E0AA4203DAA18DDD
:103E700009B90280A38522490A8822490AB10A8821
:103E80000280B1F90020BDE8F04101211B483BE070
:103E90006073FFFFECC10720D6C0072068F8072039
:103EA000B2C00720B0C0072062C60200B4C007201D
:103EB000A2C0072098C0072092C007200800001069
:103EC00090C1072010C007209AC00720D8C0072043
:103ED00002010010DEC0072088C007208AC007202A
:103EE000F8C307200C010010FAC3072010010010CE
:103EF00028F707209CC007209EC007200E01001055
:103F0000AEC00720E0C00720FCF7C0B92DE9F05F84
:103F10000A220121FF48FCF7B9F9FF4C0025607A1D
:103F20000A2823D2401CC0B260720A281FD36572CF
:103F30000120F84AA072617BB2F90020914207DAB1
:103F4000491CC9B26173914203DB6573A07300E041
:103F50006573E17B0A2907D2491CC9B2E1730A29BA
:103F600005D3E573207402E0E57300E06572E1209B
:103F7000FCF739F9E94E38B3E9480168642908D0FB
:103F800069290AD06E290CD0E5291ED0E6291ED059
:103F90004AE04068A18C084445E04068A18C081ABA
:103FA00041E0608C401E00B260841E2806DDDD49C1
:103FB000B6F90000B1F90010884235DA0A23002270
:103FC000E721E620FCF7D8F82EE040682BE0D64940
:103FD000B6F90000B1F90010884210DDA0EB010035
:103FE0000A2805DDB4F92200002801DD401F1AE08F
:103FF000B4F92200C0B1A17AB1B1401E13E013DAC6
:10400000081A0A2807DDB4F9220040F2F731884285
:1040100001DA401D07E0B4F92200B0F57F7F03DA32
:10402000A17A09B1401C6084C048AB46C04B0088EF
:10403000A4F84000BF48E572B0F90020BE48B0F9CE
:1040400000100EE000EB401503EB4505B5F93450C8
:10405000954204DBB9480088A4F8400004E0401C05
:10406000E072E07A8842EDDBB4F840C00A25BCFB80
:10407000F5F10520BCFBF0F001EB0C020244ACEBC7
:104080000101081A92B280B2A4F84420A4F84200B8
:104090008246A07A914688B3A949B4F92400A08742
:1040A000B1F90080A749A84AA1F8008093F84070B0
:1040B00017B993F882302BB1B2F90030D12B0ADA5C
:1040C0005B1C05E0237C23B1B2F9003053B15B1EC9
:1040D0001380138833B1B2F9002092FBF5F2A8EBFC
:1040E00002020A803222E277B4F93E3025464B457F
:1040F00005DB0A38A8873320E8775BE064E0B6F98F
:104100000020B5F84670A2F114064FF03A08B74205
:1041100006DA8E4909880844A88785F81F8049E097
:1041200026464BB163451ADB3C21F177B17BC9B31D
:10413000401EB08734203CE0B1F9003084499A42F7
:1041400006DD0988A0EB0100B0874FF0390030E0B0
:1041500030DA09880844B08784F81F802AE0534584
:1041600014DB3D23F377B37BE3B1B1F900108A424E
:1041700005DDA0F10100B0874FF0360019E019DA33
:1041800000F10100B0874FF0370012E0B1F90030C4
:1041900070499A4207DD0988A0EB0100B0874FF013
:1041A000470006E006E005DA09880844B0874FF0CA
:1041B0004800E077584840F2F2320A213C30FCF7E0
:1041C00065F8A88FA8846884644884F80CB084F8E3
:1041D0000BB05D46604B0122B0F900100CE000BF4F
:1041E000C0EBC00606EB460603EB8606F6781E2EED
:1041F00000D22273401CE072E07A8842F0DB207B20
:1042000020B96584A584A5871420E077424840F250
:10421000F2320A212230FCF739F8A572A573257411
:10422000BDE8F09F2DE9F0474D483B4C0088A4F8CD
:1042300040004C48008818B14B480088A4F8400062
:10424000B4F9680010B1401EA4F86800B4F96A001F
:1042500010B1401EA4F86A00607A00254FF00108F2
:104260000A2812D2401CC0B260720A280DD36572AF
:1042700084F80A80617B40461E2906D2491CC9B2D7
:1042800061731E2901D36573A073E120FBF7ABFFB7
:104290002249DFF894C040F2F239D0B320480268D6
:1042A000642A08D0692A0AD06E2A0CD0E52A1ED0CA
:1042B000E62A1ED0FCE04068A18C0844F7E0406884
:1042C000A18C081AF3E0608C401E00B260841E28A6
:1042D00006DDB1F900001349B1F90010884205DA92
:1042E0000A230022E721E620FBF746FFE0E04068D2
:1042F000DDE0B1F90000BCF9001088423FDDA0EB21
:1043000001000A2832DDB4F9220000282EDD401F0A
:10431000CDE049E06EC107200800001072C10720FF
:1043200010C0072092C0072090C1072064C1072059
:1043300068F8072062C10720DEC0072066C1072099
:1043400060C107203401001018C4072068C107208D
:104350006AC107206CC1072048F90720E0C0072088
:10436000A0C00720C0C10720B6C10720B4F92200B1
:10437000002847D0A17A002944D0401E97E041DAB6
:10438000081A0A2807DDB4F9220040F2F731884202
:1043900001DA401D8BE0B4F92200B0F57F7F31DAFD
:1043A000A17A79B3401C82E0A07A58B3FF48008814
:1043B00040BBB4F92400A0870B22E277FC4A1288A4
:1043C00092B1FC4A12887AB12822E277B4F93E20F1
:1043D000B4F840309A4263D0B2EB430F1FDDB4F81B
:1043E0006810D1B1401E5AE02122E277B1F90020D5
:1043F000BCF900108A420ADAA1EB02010A2902DDA7
:104400000A3001E054E0401CA087232003E047DD90
:10441000401EA0872420E07742E0401F3FE005DAFD
:104420009A4203DDA17BD9B3A573DBE79F00052684
:10443000B7FBF6F696420BDA9A4209DAB1F90010A8
:10444000BCF900209142EDDAA17B49B3A57325E0C8
:10445000D94B964216DDBCF90020B3F90030B4F810
:104460004660D31AB34201DD0A3018E0B1F90010FA
:104470009142A17B02DA99B1A573F5E781B1A573E9
:104480000A380CE0B1F90010BCF90020914217DAAB
:10449000B3F90030A2EB0302A2F10502401CA08791
:1044A0004A460A21C548FBF7F1FEA08FA08460842C
:1044B000C4482573E572C24B4246B0F900100DE0C6
:1044C00090DCEDE7C0EBC00606EB460603EB860684
:1044D000F6781E2E00D22273401CE072E07A8842E9
:1044E000F0DB207B20B94FF416706084A084A08795
:1044F000B2484A460A211A38FBF7C8FEA572BDE841
:10450000F0872DE9F05FB24E0020AF49DFF8BC82A2
:104510004FF00A0B8246B6F9003024E0AD4AAE4CAB
:10452000125C34F91220B2F5FA6F0A560DDA0A2A33
:1045300008DA521C52B20A540A2A12DB012208F885
:1045400000200EE001F800B00BE0002A07DD521E4B
:1045500052B20A54002A04DC08F800A001E001F875
:1045600000A0401CC0B29842D8DB0024DFF86C9257
:104570009B4D9C4F71E09C4830F81400002818F8BF
:10458000040001D078B101E001280CD019F9040031
:10459000002818DB401E40B209F80400002814DC93
:1045A00005F804A011E019F904100A2908DA491CD9
:1045B00049B209F804100A2907DB0120285504E054
:1045C00009F804B001E009F804A0395D285D8142D2
:1045D0003FD07A4A3C3A518F491C5187012807D075
:1045E00014B3012C25D0022C28D0032C2BD030E082
:1045F00034B1012C09D0022C0CD0032C0FD028E0B0
:1046000001231A460F2179A021E0012302220F2164
:1046100079A01CE0012303220F217AA017E00123D7
:1046200004220F217AA012E0002301220F217BA097
:104630000DE0002302220F217DA008E000230322C9
:104640000F2180A003E0002304220F2182A01FF08D
:104650003FFE285D3855641CE4B2B6F90000844280
:1046600089DBDDE58149824A0120087010704870BD
:10467000507070472DE9F05F7F48DFF800E2DFF807
:10468000F4C1B0F90070BEF900004C4CC0EB001151
:104690003C3CBCF902506FF01D0A6FF0950B0026F0
:1046A000DFF8C881B4F94A000AEB81020BEB810301
:1046B000BD4204DC724FB7F90070BD4205DA824298
:1046C00003DD834201DA88F800606E4DE146BCF9F3
:1046D00008C0B5F90050664FBCEB450F03DC6D42D6
:1046E000BCEB450F04DA824202DD834200DA3E7001
:1046F0006FF0090202EB81017546814220D1A07E54
:10470000F0B998F8000001281AD13878012817D19B
:104710004FF4D67021F042FB5B49B1F9001088429A
:104720000ED05A48008858B199F83D00C00707D10B
:104730004FF4D67021F026FC55480178491C0170D1
:104740004D49B9F902204846B1F900108A4206DC09
:104750004B49B0F94E20B1F900108A420FDAB5F991
:104760000010B4F94A20C1EB01110AEB8103934216
:1047700005DD0BEB8101914201DA88F801604149C6
:10478000B9F95400B1F90010B0EB410F03DC494214
:10479000B0EB410F09DAB5F90000B4F94A10C0EBEB
:1047A00000100AEB80028A4274E079E0A2C107207F
:1047B000DEC0072002010010D8C00720440000100E
:1047C00048F90720E0C00720FCC10720D1C107201D
:1047D000E6C0072042C60200B4670010F4C30720F9
:1047E000D5C107200701001066C20720534B2023C4
:1047F0003120416C61726D00534B20233220416C9B
:1048000061726D00534B20233320416C61726D0047
:10481000534B20233420416C61726D00534B202395
:104820003120416C61726D206973206F66660000F3
:10483000534B20233220416C61726D206973206FCD
:1048400066660000534B20233320416C61726D205B
:104850006973206F66660000534B20233420416C3F
:1048600061726D206973206F66660000FCC30720CB
:104870001201001028F707200C010010A8C0072023
:10488000F8C3072098C00720F4C10720DCC0072028
:10489000FEC3072004DD0BEB8000884200DA7E7047
:1048A000B5F90000C0EB00116FF0090000EB8100CA
:1048B000B4F94A10884222D1A07E00BB98F80100CA
:1048C00001281CD17878012819D14FF4E5763046BB
:1048D00021F064FA0246FF48B0F902108A420ED075
:1048E000FD48008802280AD199F88900C00706D13E
:1048F000304621F047FBF9480178491C0170B5F9B1
:1049000000006FF00101C0EB001001EB8000B4F972
:104910004A10884202D1BDE8F05FA3E680E42DE9A9
:10492000F003EF48EF4ADFF8C0C300784FF000080B
:104930004FF00109F0B3ED486146B0F90060EC4872
:10494000B1F90010B0F90070EA48BE42B0F9003089
:10495000E948B0F90040E948B0F90050E848B0F93A
:10496000000013DA834203DB844201DB85420DDA67
:10497000E448B0F90000814219DA491C09B2ACF8E8
:104980000010814213D182F8008015E0DE4FB7F9A4
:104990000070BE420BDD834209DD844207DD8542A3
:1049A00005DD21B1491E08B2ACF8000060B11078F5
:1049B000002800E00DE009D1BDE8F0030F2301223B
:1049C0006E21D220FBF7D8BB82F80090BDE8F0033F
:1049D0007047ACF80080F7E7CC4808B502880021A2
:1049E0000AB1018008BDCA4A12884AB14FF4FA6080
:1049F0000090C8A3CDA2D3A1D8A0FCF7EEFC08BDBF
:104A000001220280DB48016008BD2DE9F041DA4C4B
:104A1000DA4D002684F82060B5F90000002802DD98
:104A2000B0F5FA7F02DD2E80BDE8F08194F8210018
:104A3000401CC0B284F821003C2819D34FF494776D
:104A400084F82160384621F0A9F9401C00B2CC4A14
:104A5000A4F86C00B5F90010B2F90020514381426E
:104A600001DCA4F86C60B4F96C10384621F08AFAC5
:104A7000B4F96C00B5F9001090FBF1F084F8200057
:104A8000D2E710B500214FF4947021F07BFABA49B7
:104A9000002081F8210010BD70B5BA48934C002564
:104AA000B0F90060B848B4F90030B84AB0F9001065
:104AB000B34204DCB64EB6F90060B3420CDA15809E
:104AC000B44AB2F90020914217DA491C09B20180B8
:104AD000914212D101200EE079B1B2F900100529FE
:104AE0000BDA491C09B21180052906DB0580AA48AA
:104AF000007810B1002000F04DFCA848B4F9001077
:104B0000B0F9000000EB8000B1EB400F0BDAA448D5
:104B10000068002807D1BDE87040142301227221EB
:104B2000D220FBF729BB70BD2DE9F04F9D48DFF87F
:104B300048829E4903789C4898F90020B1F90010FA
:104B4000B0F9000088B023B1022B34D0012B7ED005
:104B500076E1974E974B347896F801C0B3F90A5036
:104B60001F7BB3F9566093F8583022B1012A0FD158
:104B7000552C14D10FE0552C03D1854268DC002F51
:104B800066D1BCF1550F03D1864261DC002B5FD1A9
:104B900008B0BDE8F08F8D42FADA002FF8D1BCF1F1
:104BA000550F7ED18E42F3DA002B7AD0F0E700BFAA
:104BB00088F80000ECE7804C714B94F803C0B3F91F
:104BC0000030A76AE56F009594F857500195D4F826
:104BD000D050029594F8AB500395D4F82451049525
:104BE00094F8FF500595D4F87851069594F85351F0
:104BF000AE46D4F8CC51079594F8A751D4F8746216
:104C0000AB46D4F82052B146AA4694F8FB5194F82A
:104C10004F42DBB387421BDCBCF11E0F18D2012BC5
:104C200005DD009E864213DC019E1E2E10D2022B53
:104C300005DD029E86420BDC039E1E2E08D2032B4E
:104C400008DD049E864203DC059E1E2E01E0D5E0B1
:104C50003EE03DD2042B05DD069E864238DCBEF1E7
:104C60001E0F35D2052B05DD079E864230DCBBF1D9
:104C70001E0F2DD2062B03DD824529DC1E2D27D2E7
:104C8000072B03DD814523DC1E2C21D2012A8DD187
:104C90003BB18F428ADABCF10A0F87D2022B18DBB4
:104CA00000E0E4E00098884284DA01980A28F4D20F
:104CB000032B0EDB02988842ECDA03980A28ECD228
:104CC000042B06DB04988842E4DA05980A2875E08C
:104CD000B6E08CE0F4C10720DCC00720FEC307204B
:104CE00053C00720D20000102C01001072C1072011
:104CF000CCC007207EC1072080C1072082C10720C9
:104D000094C00720CAC00720CEC00720C0C107201A
:104D1000C6C1072020202020202020202020202065
:104D20002020202020202020000000002020202003
:104D3000E7E0E1EBEEEAE8F0EEE2E0ED2120202012
:104D40000000000020202020202020E7E0F0FFE4E9
:104D500020202020202020200000000020202020D3
:104D600020D3F1EAEEF0E5EDEDFBE9202020202054
:104D70000000000010C2072008000010DAC0072061
:104D8000E0C00720F0C00720CCC107201AC40720CC
:104D9000F2C00720F4C007206EC0072092C0072091
:104DA00000C2072052C00720C6C00720C8C0072085
:104DB000FAC0072028F7072048F90720BFF46DAF95
:104DC000052B14DB06988842BFF6F0AEBEF10A0F41
:104DD000F4D2062B0BDB07988842F5DABBF10A0FF9
:104DE000ECD2072B03DB8A45EEDA0A2DE6D2082B3C
:104DF0003DDB8945E8DA0A2C39D3C9E61E4C1D4B48
:104E0000B4F90050B4F90260AA461C4DB3F9003061
:104E1000B4F90440D5E900C7AD68B94693B18245FD
:104E20000EDCBCF1000F0BD1012B04DD864207DC48
:104E3000B9F1000F04D1022B04DD844200DC0DB176
:104E40000120B5E6012AD8D18BB18A45D5DABCF16B
:104E5000000FD2D1022B04DB8E42CEDAB9F1000F63
:104E6000CBD1032B03DB8C42C7DA002DC5D1002048
:104E70009EE60000E4C007204EC20720580F08201D
:104E800070B5FF48FF4B0178186811B140F0010080
:104E900001E020F0010018600020FB4C5FF00102EF
:104EA00000EB400101EB001104EB810191F83D1092
:104EB000C90707D0451C02FA05F11D688D430D4353
:104EC0001D6005E0411C02FA01F51968A94319604B
:104ED000401CC0B20228E3D3EC4C0020C0EBC00160
:104EE00001EB410104EB8101497831B1C51C02FAA3
:104EF00005F11D688D430D4304E0C11C1D6802FAD5
:104F000001F18D43401CC0B21D600C28E6D3284639
:104F1000DC4D002114356C5C34B101F10F0602FA4E
:104F200006F4A043204304E001F10F0402FA04F464
:104F3000A043491CC9B20629EDD3D54D0021186004
:104F40006C5C012C0FD001F1180402FA04F4A043A8
:104F5000491CC9B20429F3D3CE491860097849B174
:104F600040F0805008E001F1180602FA06F4A04370
:104F70002043EDE720F0805018609A6820EA020193
:104F8000D9605C680C43C4495C600D8815B124F09D
:104F900080745C604C881CB15C6824F000745C60B8
:104FA0008C881CB15C6824F080645C60C98819B18D
:104FB000596821F0006159608243D143B74A1961B1
:104FC000128812B9B64A114319611A695968114019
:104FD000C3E9011070BDF8B54FF46065284620F0B4
:104FE000DDFE401C04463F2800D9002421B228469B
:104FF00020F0C8FF40F60266304620F0CFFE3F2882
:1050000000D0204601B2304620F0BCFF284620F0F8
:10501000C5FE4FF4806101EB4010054655208DF828
:10502000000000268DF8016052208DF802008DF8F6
:1050300003606946284621F02AF86946281D009633
:1050400021F025F8974CA08B8DF80000207E8DF87C
:105050000100207B8DF802008DF80360694605F1A0
:10506000080021F014F8207A8DF8000020798DF8DE
:10507000010020788DF802008B48D0F880018DF86F
:105080000300694605F10C0021F001F841248DF878
:1050900000408DF801408DF802408DF803406946CC
:1050A00005F1100020F0F3FF8DF800408DF801406D
:1050B0008DF802408DF80340694605F1140020F098
:1050C000E6FF8DF800408DF801408DF802408DF824
:1050D0000340694605F1180020F0D9FF8DF8004023
:1050E0008DF801408DF802408DF80340694605F1C6
:1050F0001C0020F0CCFFF8BD2DE9F843694D604A53
:10510000203D00262F154FF46061012802D00028B1
:105110007DD03CE1012010708846084620F03EFE1C
:10512000401C04463F2800D9002421B2404620F00C
:1051300029FF40F60269484620F030FE3F2800D0A3
:10514000204601B2484620F01DFF404620F026FED2
:1051500007EB401750208DF800008DF801604124C6
:105160008DF802408DF803606946384620F08FFFC5
:105170006946381D009620F08AFF05F12005A88BAE
:105180008DF80000287E8DF80100287B8DF8020044
:105190008DF80360694607F1080020F078FF287A4F
:1051A0008DF8000028798DF8010028788DF802002C
:1051B0008DF80360694607F10C0020F068FF8DF858
:1051C00000408DF801408DF802408DF8034069469B
:1051D00007F1100020F05BFF8DF800408DF80140D2
:1051E0008DF802408DF80340694607F1140020F065
:1051F0004EFF8DF800408DF801408DF802408DF88B
:105200000340694607F1180020F041FF00E011E07B
:105210008DF800408DF801408DF802408DF8034074
:10522000694607F11C0020F032FF00230122022111
:105230001EA0AAE013481670B046026822F00102D0
:105240000260164A12881AB1426822F001024260D6
:10525000084620F0A3FD06463446B94609EB44173C
:105260006946384620F017FE9DF80000502844D1CA
:105270009DF80100F0BB9DF8020041283DD125E0DA
:105280005EC00720B400001028F7072048F9072067
:10529000D5C107206EC0072076C2072090C0072026
:1052A000FEFFFFEF2040024000C00F404D61696EDD
:1052B00020706F776572206973206F66660000004A
:1052C000641E00E03F24B442C8D160E0694607F1A3
:1052D000100020F0E0FD9DF8000041280DD19DF860
:1052E0000100412809D19DF80200412805D19DF80F
:1052F000030000E001E0412802D0002CE2D0DFE70B
:1053000005F12005A88B8DF80000287E8DF801009E
:10531000287B8DF8020044468DF80380694607F12A
:10532000100020F0B4FE287A8DF8000028798DF85E
:10533000010028788DF802008DF80340694607F1D6
:10534000140020F0A4FEFF48422401788DF80010DC
:1053500040788DF801008DF802408DF803406946D1
:1053600007F1180020F093FE8DF800408DF8014001
:105370008DF802408DF80340694607F11C0020F0CB
:1053800086FE01231A460221EFA01EF0A1FF00BFF6
:10539000BDE8F8832DE9F843F14DF04900262F15BB
:1053A0004FF46062012802D000287DD00BE101207B
:1053B00008709046104620F0F1FC401C04463F283F
:1053C00000D9002421B2404620F0DCFD40F60269FD
:1053D000484620F0E3FC3F2800D0204601B2484672
:1053E00020F0D0FD404620F0D9FC07EB40175120BB
:1053F0008DF800008DF8016041248DF802408DF891
:1054000003606946384620F042FE6946381D009622
:1054100020F03DFE05F12005A88B8DF80000287EC8
:105420008DF80100287B8DF802008DF80360694635
:1054300007F1080020F02BFE287A8DF8000028796B
:105440008DF8010028788DF802008DF80360694618
:1054500007F10C0020F01BFE8DF800408DF8014094
:105460008DF802408DF80340694607F1100020F0E6
:105470000EFE8DF800408DF801408DF802408DF849
:105480000340694607F1140020F001FE8DF800404A
:105490008DF801408DF802408DF80340694607F110
:1054A000180020F0F4FD00E00DE08DF800408DF8CC
:1054B00001408DF802408DF80340694607F11C0059
:1054C00020F0E5FD7FE0B0460E70104620F066FC4F
:1054D000064634464FEA070909EB44176946384641
:1054E00020F0D9FC9DF80000512822D19DF8010040
:1054F000F8B99DF8020041281BD105E0641E00E0C8
:105500003F24B442E8D15EE0694607F1100020F084
:10551000C2FC9DF8000041280BD19DF801004128F4
:1055200007D19DF80200412803D19DF803004128CE
:1055300002D0002CE4D0E1E705F12005A88B8DF81E
:105540000000287E8DF80100287B8DF8020044467B
:105550008DF80380694607F1100020F098FD287A45
:105560008DF8000028798DF8010028788DF8020068
:105570008DF80340694607F1140020F088FD71485A
:10558000422401788DF8001040788DF801008DF8E4
:1055900002408DF80340694607F1180020F077FDBE
:1055A0008DF800408DF801408DF802408DF80340E1
:1055B000694607F11C0020F06AFD01231A4602210A
:1055C00061A01EF085FE00BFE2E62DE9F84F05461A
:1055D0000C004FF054060BD0012C04D0022C04D048
:1055E000032C04D004E0552602E0752600E04C268A
:1055F0005C49C5EBC503DFF868A103EB43034FF03B
:10560000000B4FF460604FF4806901EB8301012AC5
:1056100002D0002A7DD0A3E134B1012C08D0022CA5
:105620000AD0032C0CD00FE04A7842F001020AE0C5
:105630004A7842F0020206E04A7842F0040202E0B0
:105640004A7842F008024A7081F85340804620F0C0
:10565000A5FB401C87B23F2F00D9002739B2404636
:1056600020F090FC40F6026020F098FB80B23F28CA
:1056700000D0384601B240F6026020F083FC40467C
:1056800020F08CFB09EB401087B253208DF800000E
:105690008DF801508DF80260D8468DF803B0694648
:1056A000384620F0F4FC6946381DCDF8008020F023
:1056B000EEFCBAF83C000AF120068DF80000307EBE
:1056C0008DF80100307B8DF802008DF8038069466B
:1056D00007F1080020F0DBFC307A8DF8000030790B
:1056E0008DF8010030788DF802008DF8038069464E
:1056F00007F10C0020F0CBFC41268DF800608DF8FE
:1057000001608DF802608DF80360694607F11000B2
:1057100000E097E020F0BBFC8DF800608DF80160A0
:105720008DF802608DF80360694607F1140020F0DF
:10573000AEFC8DF800608DF801608DF802608DF888
:10574000036011E0F2C307204D61696E20706F772E
:105750006572206973206F6E000000006EC0072024
:105760000040024048F90720694607F1180020F080
:105770008EFC8DF800608DF801608DF802608DF868
:105780000360694607F11C0020F081FC25B1012D62
:1057900020D0022D3AD0E3E034B1012C09D0022C04
:1057A0000CD0032C0FD0DBE0002301220421D5A074
:1057B0000DE001231A460421D8A008E002230122AB
:1057C0000421DDA003E0032301220421E2A01EF056
:1057D0007FFDC5E034B1012C09D0022C0CD0032C84
:1057E0000FD0BDE0002302220421E3A0EFE7012354
:1057F00002220421E6A0EAE702231A460421EBA0D4
:10580000E5E7032302220421F0A0E0E734B1012CF4
:1058100009D0022C0CD0032C0FD0A1E000230322CE
:105820000421F2A0D3E7012303220421F5A0CEE74F
:10583000022303220421FAA0C9E703231A46042104
:10584000FFA0C4E734B1012C08D0022C0AD0032CED
:105850000CD00FE04A7822F001020AE04A7822F0E8
:10586000020206E04A7822F0040202E04A7822F0BE
:1058700008024A7020F092FA84B2A04609EB441064
:1058800087B26946384620F006FB9DF80000532891
:1058900024D19DF80100A84220D19DF80200B04219
:1058A0001CD1694607F1100020F0F5FA9DF80000C0
:1058B000412813D106E0641EA4B200E03F24444511
:1058C000DCD14DE09DF80100412807D19DF8020090
:1058D000412803D19DF80300412802D0002CEDD0CF
:1058E000E9E7BAF83C000AF120048DF80000207EB8
:1058F0008DF80100207B8DF802005D468DF803B025
:10590000694607F1100020F0C2FB207A8DF80000F4
:1059100020798DF8010020788DF802008DF8035071
:10592000694607F1140020F0B2FB42248DF80040D4
:105930008DF801408DF802408DF80340694607F16B
:10594000180020F0A4FB8DF800408DF801408DF880
:1059500002408DF80340694607F11C0020F097FBD8
:1059600000BFBDE8F88F2DE9FC41064600EB46007C
:1059700000EB0611BA4800EB8104E08B05287AD3CE
:10598000B8484FF460670088801D00F0070004EB02
:105990004000008CADF80400384620F0FFF9401CB0
:1059A00085B23F2D00D9002529B2384620F0EAFA09
:1059B00040F60268404620F0F1F980B23F2800D05E
:1059C000284601B2404620F0DDFA384620F0E6F9DC
:1059D0004FF4806101EB401085B242208DF8000049
:1059E0008DF8016057208DF8020000268DF80360C5
:1059F0006946284620F04BFBA07F8DF80000E07F31
:105A00008DF801009DF804008DF802009DF8050056
:105A10008DF803006946281D20F039FB04F134019C
:105A200005F1080020F033FB04F1380105F10C000A
:105A300020F02DFB8C4CA08B8DF80000207E8DF883
:105A40000100207B8DF802008DF80360694605F1A6
:105A5000100020F01CFB207A8DF8000020798DF8D2
:105A6000010020788DF802008DF80360694605F189
:105A7000140020F00CFB00BFBDE8FC812DE9F84FBD
:105A800006467748DFF8E09106EB460202EB061285
:105A90004FF0000B4FF0420AA9F120094FF4606764
:105AA0004FF4806500EB8200012902D0002927D045
:105AB000D2E110F83D1F41F001010170384620F09D
:105AC0006DF9401C84B23F2C00D9002421B2384625
:105AD00020F058FA40F60268404620F05FF980B2A4
