:020000040000FA
:10000000087F0010E1000000E5000000E7000000AC
:10001000E9000000EB000000ED000000000000001F
:10002000000000000000000000000000EF000000E1
:10003000F100000000000000F3000000E3490200AE
:10004000F7000000DB7F020007800200F7000000DD
:10005000F7000000DFB40200F7000000F700000026
:10006000F7000000F7000000F7000000F7000000B4
:10007000F7000000F7000000F7000000F7000000A4
:10008000F7000000F7000000F7000000F700000094
:10009000F7000000F7000000876B0000F700000089
:1000A000F700000073AF0200F7000000F700000047
:1000B00071D90200F7000000F7000000F70000000F
:1000C000F7000000F7000000F7000000DFF80CD098
:1000D0002DF0EAFC00480047894B0200087F001021
:1000E00005480047FEE7FEE7FEE7FEE7FEE7FEE71E
:1000F000FEE7FEE7FEE7FEE7CD000000FEE710B5F5
:100100002EF0A8F92EF004FA2EF0F6F9AFF30080E5
:10011000BDE810402EF0C2B910B52EF083FF2FF0CD
:1001200037FBBDE810402EF0D5BF2EF0E9BE2EF013
:10013000B1BC09B1002070472EF0B4B80020704760
:1001400070B5374A0020A2F11401064601F10A03F6
:100150000C5C54B11D5CAC4207D1145C2CB1641E24
:1001600014F0FF04145400D10E540C5C1C54401CB9
:10017000C0B20A28ECD370BD70B5294D0024143DDF
:10018000641CE4B22E5D1EB1864201D00A2CF7D366
:10019000285523480C3040F82410283040F82420FB
:1001A0003438035570BD1E4A0021143A491CC9B2A7
:1001B000535C834201D00A29F8D3DBB2834210D1C9
:1001C00017480C3050F8213016480360144B343374
:1001D00053F82130436000205054114A50540120FC
:1001E0007047002070470E4A0021143A491CC9B2DA
:1001F000535C834201D00A29F8D3DAB282420CD18F
:1002000007480C3050F8212006480260044A343276
:1002100052F8211041600120704700207047000013
:100220007C69001010C007201E4BDA6018705970EE
:1002300070471C48C16800290DD0491EC1600AD111
:10024000194902780A7042784A700A710021C17017
:100250000171417181717047124A1161907070474C
:100260001048016900290BD0491E016108D10E4ACE
:100270008178117000215170C170017141718171DB
:1002800070470849088170470648B0F908100029EE
:1002900007D0491E09B20181002902D1084601F0A8
:1002A00030B97047B00000100CC20720FE21C0B268
:1002B0002DF0E6BB8021C0B22DF0E2BB1C21C0B204
:1002C0002DF0DEBB7021C0B22DF0DABB40EA010395
:1002D0009B0703D009E008C9121F08C0042AFAD2FC
:1002E00003E011F8013B00F8013B521EF9D27047C0
:1002F000084400EB104080B270477047FFFFFFFFDB
:10030000002801DA404200B270470020F94A20215B
:100310001154401CC0B2C828FAD370470146F54AB0
:100320000020401CC0B2135C8B4201D0C828F8D317
:10033000704710B50021F04C0A2200BFB0FBF2F369
:1003400002FB13006054491CC9B218460529F5D3B5
:1003500010BDF0B5E94B0121202719700521E64AAF
:10036000002601E01C7844B1541814F8015C25B94A
:10037000814202D904F8017C05E0541814F8015DAB
:10038000303525701E70491E11F0FF01EAD1F0BD15
:1003900070B50D461446002802DAC043401C00B276
:1003A000FFF7C7FF601CC0B2FFF7D3FF2846FFF777
:1003B000B5FFFF2819D0D04ACE4B0021A14201D26F
:1003C000555C13E004D14FF02E051D54555C03E03D
:1003D000555C202D03D04CB11E1806F8015C401E60
:1003E000491CC9B2C0B20529E8D370BD1D54F6E757
:1003F000F0B50D461446002801DA404200B2FFF77E
:1004000098FF601CC0B2FFF7A4FF2846FFF786FFE5
:10041000B94AB84B002164B9555C202D09D0561853
:100420007678202E03D12D261F1807F8016C1D5455
:100430000FE0A14201D2555CF9E704D14FF02E053F
:100440001D54555C02E0555C202D02D01E1806F8A4
:10045000015C401E491CC9B2C0B20529DBD3F0BD06
:10046000FEB52B23002802DA404200B22D230025DE
:100470000A266C4690FBF6F706FB170060556D1CCC
:100480006DB238B20A2DF5DB0126002509202027A0
:1004900000E046B114F800C0BCF1000F03D1904257
:1004A00001DD275405E0265C3036265400266D1CFD
:1004B000EDB2401E40B20028EBDA2D2B02D163557D
:1004C0006D1CEDB26AB168B205E0231813F8013C67
:1004D0002354401E40B29042F7DC2E206D1CA054E5
:1004E000EDB20846FFF71AFF0021824A04E0635C80
:1004F000461A491C935549B2A942F8DBFEBDFEB528
:100500002B23002801DA40422D2300250A266C46C1
:10051000074690FBF6F006FB107767556D1C6DB231
:100520000A2DF5DB012600250920202700E046B131
:1005300014F800C0BCF1000F03D1904201DD275434
:1005400005E0265C3036265400266D1CEDB2401EB8
:1005500040B20028EBDA2D2B02D163556D1CEDB2B1
:100560006AB168B205E0231813F8013C2354401E19
:1005700040B29042F7DC2E206D1CA054EDB208462C
:10058000FFF7CCFE00215B4A04E0635C461A491C7D
:10059000935549B2A942F8DBFEBDFEB52B260028D3
:1005A00001DA40422D2600240A276D46844690FB3E
:1005B000F7F007FB10CC05F804C0641C64B20A2CE9
:1005C000F4DB0127002009244FF0200C00E04FB19C
:1005D00015F804E0BEF1000F04D19C4202DD05F8DD
:1005E00004C005E02F5D30372F550027401CC0B2F6
:1005F000641E64B2002CEADA2D2E02D12E54401C67
:10060000C0B26BB144B205E02E1916F8016C2E553C
:10061000641E64B29C42F7DC2E24401CEC54C0B231
:1006200001EB810102EB8101CAB20021314B04E0F0
:100630006C5C561A491C9C5549B28142F8DBFEBDE0
:1006400070B50D4616461C46FFF773FE601CC0B21F
:10065000FFF77FFE05EB850006EB8000C1B2264A5E
:10066000244B0020A04201D2155C5D5406D3155CDA
:10067000202D03D04CB15E1806F8015C491E401CC9
:10068000C0B2C9B20528EDD370BD5D54F6E730B5F0
:10069000044608461546FFF741FEFF2809D0154AD3
:1006A0002178002905D04319641C401CD154C0B2E4
:1006B000F6E730BD70B50D461446FFF73AFE601CF4
:1006C000C0B2FFF746FE2846FFF728FE0A4B094A4C
:1006D000002124B95D5C202D01D0155416E0A14203
:1006E00001D25D5CF9E70BD14FF02E0515545D5C2E
:1006F00009E0000086C20720E6C30720F6000010CC
:100700005D5C202D02D0161806F8015C401E491CC5
:10071000C9B2C0B20529DCD370BD801801D5084428
:1007200002E0884200DB401AC0B270472DE9FE4F5C
:1007300004460D464FF4606028F04CFA62424021B6
:10074000FFF7EBFF400100F58060044602A928F0A6
:10075000BEFA694604F1080028F0B9FA01A904F1CB
:100760000C0028F0B4FA2846FFF7D8FD06469DF89D
:10077000080040273025DFF81CB520244FF0210C5D
:100780004FF0230A552831D04FF0CF084FF0D10950
:10079000502879D0E223512877D0422876D05328A8
:1007A00075D049287FD1C0210BF80610761CF1B214
:1007B000C2220BF80120491CC9B22E220BF80120DD
:1007C000491CC9B2C8220BF80120491C5846C9B2BD
:1007D000ED224254491CC9B24354491C9DF80920DA
:1007E000C9B2092A7ED231324254FEE39DF80A0092
:1007F00052280ED1C2210BF80610761CF1B2EA2263
:100800000BF80120491CC9B2EB220BF80120491C4E
:10081000CEB258460BF80640761CF1B20BF80140F8
:1008200059E04554491CC9B23A2200F801C0491C9C
:10083000C9B24254491CC9B24554491CC9B24754B3
:10084000491CC9B24254491CC9B24554491CC9B2D9
:100850000BF801A0F3E34454491CC9B24554491CA8
:10086000C9B200F801C0491CC9B24754491CC9B2F9
:100870004454491CC9B24454491CC9B24554491C8A
:10088000C9B20BF801A0FEE30FE02FE065E0B2E390
:1008900009E000BF9DF80110FF48002200EB810035
:1008A0004021FFF7F4FEBDE8FE8FC0210BF80610D3
:1008B000761CF1B2C2220BF80120491CC9B22E22CB
:1008C0000BF80120491CC9B258460BF80180491C9D
:1008D000C9B20BF80190491CC9B24454491CC9B2B1
:1008E000445400E0F8E3491CC9B26BE3C0210BF8A3
:1008F0000610761CF1B2C2220BF80120491CC9B2C5
:100900002E220BF80120491CC9B255220BF80120F8
:10091000491CC9B258460BF80130491CC9B2FB2228
:100920004254491CC9B2F5224254491CC9B2DB4E9B
:100930004454491C9DF80020B38FC9B29A428AD111
:100940009DF8012096F838309A4284D19DF8022013
:1009500096F82C309A42F2D163E79DF80A004FF0E6
:10096000E00943287ED1C0210BF80610761CF1B2B5
:10097000C2220BF80120491CC9B22E220BF801201B
:10098000491CC9B2C1220BF80120491CC9B2F2228C
:100990000BF80190491CC9B20BF80120491C9DF8C5
:1009A0000900C9B2092809D231300BF80100491CED
:1009B000C8B20BF80040401CC0B214E0A0F109021C
:1009C0005A2A15D2401C0A23B0FBF3F2904630326B
:1009D0000BF80120491C03FB1800C9B230300BF89A
:1009E0000100491CC8B20BF80040401CC1B20BE02A
:1009F0000BF80140491CC9B20BF80140491CC9B2AF
:100A00000BF80140491CC9B2A4489DF80020838F0F
:100A10009A4240D19DF8012090F838309A423AD15C
:100A20009DF8022090F82C00824234D10BF801503E
:100A3000491CC9B23A220BF801C0491CC9B2584638
:100A40000BF80120491CC9B20BF80150491CC9B26E
:100A50000BF80170491CC9B24254491CC9B2455433
:100A6000491C00E054E0C9B200220BF801A0491C67
:100A7000CEB29DF804002121FFF71CFE9DF8050071
:100A800000224021FFF716FE9DF8060000222321D8
:100A9000FFF710FE3CE00BF80140491CC9B2584674
:100AA0000BF80150491CC9B200220BF801C0491CC7
:100AB000C9B20BF80170491CC9B20BF80140491CBE
:100AC000C9B20BF80140491CC9B24554491CC9B20E
:100AD0000BF801A0491CCEB29DF802002121FFF7BE
:100AE000E9FD9DF8000000222321FFF7E3FD9DF8BA
:100AF0000100401E0C2802D301208DF801009DF852
:100B000001106548002200EB81004021FFF7BFFD86
:100B10009DF80A0053287AD1C0220BF80620761CD3
:100B2000F1B2C2230BF80130491CC9B22E230BF8D5
:100B30000130491CC9B2C1230BF80130491CC9B2AC
:100B400058460BF80190491CC9B2F2234354491C82
:100B50009DF809304326C9B2092B08D231334354DA
:100B6000491CC9B24254491CC9B246540EE0093B63
:100B70005A2B04D24254491CC9B2465403E044548F
:100B8000491CC9B24454491CC9B24454434E491C7F
:100B90009DF80020B38FC9B29A4239D19DF8012047
:100BA00096F838309A4233D19DF8022096F82C30CE
:100BB0009A422DD14554491CC9B23A2200F801C0CD
:100BC000491CC9B24254491CC9B24554491CC9B256
:100BD0004754491CC9B24254491CC9B20022455469
:100BE000491CC9B20BF801A0491CCEB29DF8040003
:100BF0002121FFF75FFD9DF8050000224021FFF74E
:100C000059FD9DF8060000222321FFF753FD36E031
:100C10004454491CC9B200224554491CC9B200F8C9
:100C200001C0491CC9B24754491CC9B24454491CAB
:100C3000C9B24454491CC9B24554491CC9B20BF845
:100C400001A0491CCEB29DF802002121FFF732FD20
:100C50009DF8000000222321FFF72CFD9DF80100E4
:100C6000401E0C2802D301208DF801009DF80110D0
:100C70000948002200EB81004021FFF708FD9DF8A4
:100C80000A005A2862D1C2210BF80610761C584679
:100C9000F1B205E086C207200C05030000400240C7
:100CA000C7220BF80120491CC9B20BF80140491CAE
:100CB000C9B20BF80140491CC9B20BF80140491CEC
:100CC000C9B24454491CC9B24454491C9DF800207F
:100CD000C9B2FF4EB38F9A4239D19DF8012096F8E0
:100CE00038309A4233D19DF8022096F82C309A423F
:100CF0002DD14554491CC9B23A2200F801C0491C03
:100D0000C9B24254491CC9B24554491CC9B24754DE
:100D1000491CC9B24254491CC9B200224554491C5D
:100D2000C9B20BF801A0491CCEB29DF804002121E4
:100D3000FFF7C0FC9DF8050000224021FFF7BAFC38
:100D40009DF8060000222321FFF7B4FC36E044544E
:100D5000491CC9B200224554491CC9B200F801C05F
:100D6000491CC9B24754491CC9B24454491CC9B2B0
:100D70004454491CC9B24554491CC9B20BF801A0DE
:100D8000491CCEB29DF802002121FFF793FC9DF88B
:100D9000000000222321FFF78DFC9DF80100401E7A
:100DA0000C2802D301208DF801009DF80110C948DC
:100DB000002200EB81004021FFF769FC9DF80A004A
:100DC00057287CD1C1210BF80610761CF1B2F22213
:100DD0000BF80190491CC9B258460BF80120491C78
:100DE000CEB29DF809104FF0F00E092906D231312C
:100DF0008155761CF1B200F801E019E0A1F1090279
:100E00005A2A11D2491C0A23B1FBF3F29046303220
:100E10008255761C03FB1811F6B230318155761CD1
:100E2000F1B200F801E006E08455761CF1B24454BA
:100E3000491CC9B24454491CC9B2A54E4454491C6A
:100E40009DF80020B38FC9B29A4239D19DF8012094
:100E500096F838309A4233D19DF8022096F82C301B
:100E60009A422DD14554491CC9B23A2200F801C01A
:100E7000491CC9B24254491CC9B24554491CC9B2A3
:100E80004754491CC9B24254491CC9B200224554B6
:100E9000491CC9B20BF801A0491CCEB29DF8040050
:100EA0002121FFF707FC9DF8050000224021FFF7F4
:100EB00001FC9DF8060000222321FFF7FBFB36E032
:100EC0004454491CC9B200224554491CC9B200F817
:100ED00001C0491CC9B24754491CC9B24454491CF9
:100EE000C9B24454491CC9B24554491CC9B20BF893
:100EF00001A0491CCEB29DF802002121FFF7DAFBC8
:100F00009DF8000000222321FFF7D4FB9DF801008B
:100F1000401E0C2802D301208DF801009DF801101D
:100F20006C48002200EB81004021FFF7B0FB9DF8E8
:100F30000A004B287FF4B7ACC1210BF80610761CD1
:100F4000F1B2F2220BF80190491CC9B20BF8012052
:100F5000491C9DF80900C9B209280BD231300BF8A1
:100F60000100491CC8B2EA210BF80010401CC0B2B5
:100F7000E52115E0A0F109025A2A16D2401C0A23E5
:100F8000B0FBF3F2904630320BF80120491C03FB12
:100F90001800C9B230300BF80100491CC8B2EA2170
:100FA0000BF80010401CC1B20BE00BF80140491CCB
:100FB000C9B20BF80140491CC9B20BF80140491CE9
:100FC000C9B25846424A4454491C9DF80030968F95
:100FD000C9B2B3427FF43FAC9DF8013092F838605B
:100FE000B342F7D19DF8023000E0CFE092F82C2018
:100FF0009342EFD115E4C0210BF80610761CF1B234
:10100000C2220BF80120491CC9B22E220BF8012084
:10101000491CC9B2C1220BF80120491CC9B25B4668
:101020000BF80180491CC9B20BF80190491C9DF8CE
:101030000960C8B2092E03D231361E5414E04FE0C5
:10104000A6F109015A290ED2761C4FF00A08B6FB08
:10105000F8F101F130021A54401C08FB1161C0B2D2
:101060003031195403E01C54401CC0B21C54401CC5
:10107000C1B2174A5C541846491C9DF80030968F3F
:10108000C9B2B34200E057E03ED19DF8013092F87A
:101090003860B34238D19DF8023092F82C20934248
:1010A00032D14554491CC9B23A2200F801C0491C4A
:1010B000C9B24254491CC9B24554491CC9B247542B
:1010C000491CC9B24254491CC9B24554491C04E0E8
:1010D000004002400C05030045E0C9B200F801A041
:1010E0009DF8040000222121FFF7E4FA9DF8050095
:1010F00000224021FFF7DEFA9DF80600002223219E
:10110000FFF7D8FABDE8FE8F4454491CC9B24554D4
:10111000491CC9B200F801C0491CC9B24754491C56
:10112000C9B24454491CC9B24454491CC9B24554BB
:10113000491CC9B200F801A09DF80200002221213B
:10114000FFF7B8FA9DF8000000222321FFF7B2FA5A
:101150009DF80100401E0C28FFF49CAB01208DF887
:101160000100FFF797BBA2F109035A2B0DD2521CC5
:101170000A25B2FBF5F303F130064654491C05FB82
:101180001322C9B23032425403E04454491CC9B25C
:101190004454491CC9B20BF80140B3E770B504468A
:1011A000084615461E46FFF7B9F80146FF4BFF28D3
:1011B00004D106E01A54641C401CC0B22278002AF4
:1011C000F8D1FB480078002804D0002E02D0294432
:1011D0005F20585470BD2DE9FF4F8146DDE90D04B5
:1011E0008A469346FFF79AF82022DFF8C483EF4936
:1011F0000A234FF0640C012C09D198F8005035B146
:101200000D18A5F10E05AA706A702A7020E099FBEE
:10121000F3F603FB16970D183037A5F10E05022CD7
:10122000AF7096FBF3F703FB176606F130066E709E
:1012300099FBFCF606F1300605F80E6B08D198F81C
:1012400000602EB1A5F10A05AA706A702A7021E02B
:101250009AFBF3F603FB16A70D183037A5F10A0524
:10126000032CAF7096FBF3F703FB176606F130060D
:101270006E709AFBFCF606F13006674605F80A6BBD
:1012800008D198F800602EB1A5F10605AA706A7021
:101290002A7022E09BFBF3F603FB16B70D183037DC
:1012A000A5F10605042CAF7096FBF3F703FB176658
:1012B00006F130066E709BFBFCF606F130066746C1
:1012C00005F8066B09D198F8004034B1A5F1020584
:1012D0000A546A702A70BDE8FF8F039C94FBF3F2F6
:1012E00003FB124430340C5492FBF3F403FB14223E
:1012F0000844A0F1020030324270039991FBF7F1EB
:1013000001F130010170E6E717B501EB810002EB56
:101310008000C2B29DF80030A64803F00F0100EB38
:101320001313445CA1498C54521ED2B21B788B54C7
:101330009DF80130521E03F00F04D2B2045D8C54AC
:10134000521E00EB1313D2B21B788B549DF802305F
:10135000521E03F00F04D2B2045D8C54521E00EBF7
:101360001313D2B21B788B549DF80330521E03F036
:101370000F04D2B2045D8C54521E00EB1310D2B293
:10138000007888541EBD10B504460846FEF7C6FF17
:10139000884904F00F028B5C844A01EB141113544A
:1013A000401EC0B20978115410BD01EB810102EB5F
:1013B0008101804A10B500F00F03C9B2D45C7B4BA9
:1013C00002EB10105C54491EC9B20078585410BD8D
:1013D00001EB810102EB8101CBB2764910B500F03F
:1013E0000F028C5C714AD45404095B1E04F00F0098
:1013F000DBB2085CD0545B1ED8B2230903F00F04A3
:101400000C5D1454401E1B09C0B2C95C115410BDC0
:1014100001EB810102EB8101CBB2664910B500F00E
:1014200001028C5C614AD45444085B1E04F0010044
:10143000DBB2085CD0545B1ED8B2630803F0010431
:101440005B080C5D1454401E03F00104C0B20C5D37
:1014500014545B08401E03F00104C0B20C5D145428
:101460005B08401E03F00104C0B20C5D14545B081D
:10147000401E03F00104C0B20C5D1454401EC4B2FF
:101480005808085C105510BD30B54B490123474D35
:1014900091F9012091F9041000EB80048A4202D1F5
:1014A00005F8243030BD414D4C1C00EB800005EBAD
:1014B0008000A24201D1037530BD8C1CA24202D132
:1014C00080F8283030BDCC1CA24202D180F83C30DC
:1014D00030BD0C1DA24202D180F8503030BD4C1DF1
:1014E000A24202D180F8643030BD8C1DA24202D1EC
:1014F00080F8783030BDC91D8A42FBD180F88C302D
:1015000030BD2E4B1A88521E104400B218802C4A4F
:1015100000EB8000024428481368036012790271CE
:101520004278114441707047F0B5244D244FB5F90D
:10153000004004EB8406641C2C801F4C3E4425684C
:10154000356025793571207061702271A370F0BD0E
:10155000F0B505460E461746FEF7D7FE134C0020A1
:10156000401C15F8011BC0B204F8011B1428F7D366
:101570005FF00000401C16F8011BC0B204F8011B0C
:101580001428F7D35FF00000401C17F8011BC0B20D
:1015900004F8011B1428F7D35FF00000401C13F877
:1015A000011BC0B204F8011B14280BE086C20720FF
:1015B00055C00720A20503000CC207207AC00720EF
:1015C0006E0E0820EAD3F0BD10B5029CFFF7C0FFF5
:1015D0004448C378827841789F20FFF7A5FF6420B4
:1015E00094FBF0F0BDE81040C0B2FEF74ABE2DE912
:1015F000FE4340010D4600F58060044602A927F035
:1016000066FB694604F1080027F061FB01A904F1BB
:101610000C0027F05CFB2846FEF780FE324C2025AC
:1016200030262554401CC0B24FF021082654401CDF
:10163000C0B24FF0400C04F80080401CC0B223211F
:1016400004F800C0401CC0B200222554401CC0B2A7
:101650002554401CC0B22654401CC0B22154401C2A
:10166000C7B29DF802002121FFF724F89DF8000081
:1016700000222321FFF71EF89DF80100401E0C28D0
:1016800002D301208DF801009DF8010017490022C6
:1016900001EB80004021FEF7FAFFE5557F1CF8B210
:1016A0003A212654401CC0B2002204F80080401C9D
:1016B000C0B22154401CC0B221212654401CC0B2EB
:1016C00004F800C0401CC6B29DF80400FEF7F2FF0B
:1016D0009DF8050000224021FEF7ECFFA555BDE86E
:1016E000FE8300000CC2072086C207200C05030001
:1016F0002DE9FF41FB4C00270546A776A07D01217F
:10170000022805D0F84A525D552A04D065200EE023
:10171000A176BDE8FF8105EB450202EB0513F34A14
:1017200002EB830696F83D20D30702D06620A07610
:10173000EFE796F83F309B0701D56720F7E7920760
:1017400001D56820F3E7EA4AB6F90830B2F900207B
:10175000934201DD6920EAE75242934201DA6A20AE
:10176000E5E7012804D1E07D00287ED001287DD066
:101770006420A076A175A4F85A104FF4F87027F0F1
:1017800057FBE5752946A4F85C504FF4FA7027F032
:101790004FFBD848B761002130F9150027F048FB0E
:1017A0002776A4F85E7039464FF4FB7027F040FBB3
:1017B000D148D24D0088401C00F0070006EB4000E5
:1017C000008CADF80000A88B8DF804004FF0630288
:1017D0004FF0010101A803F078FEC24C9DF804000F
:1017E000A4342070287E8DF804000C22012101A869
:1017F00003F06BFE9DF804006070287B8DF80400F8
:101800001F22012101A803F060FE9DF80400A070D2
:101810009DF80000E0704FF4FC70216827F04BFB4E
:10182000287A8DF804001722002101A803F04DFE4C
:101830009DF80400207128798DF804003B220021D6
:1018400001A803F042FE9DF80400607128788DF82D
:1018500004003B22002101A803F037FE9DF804009C
:10186000A0719DF80100E07101E006E007E04FF48F
:10187000FE70616827F01FFB4BE76B2057E76C2079
:1018800055E72DE9F047974CA07D01287ED12046F1
:101890000127C07D217EC0F1010207FA02F0954EBA
:1018A000924D02B211B1012933D037E01423CA217D
:1018B000C820FEF761FC14234FF0FF32CE21CD206B
:1018C000FEF75AFCE07D00EB400101EB001005EB58
:1018D0008000B0F90800FEF713FDE17D01EB410245
:1018E00002EB011205EB82029369184448F6A0430B
:1018F0009061984212DBC01A906136F8110027F00F
:1019000069F9401C01B2E07D36F9100027F090FA29
:1019100004E01423CA21C820FEF72EFCE07DA8466F
:1019200000EB400101EB001205EB8201744AB1F9B2
:1019300002100025B2F900204FF4F87902EB820280
:10194000B1EB420F42DAB4F85610491C09B2A4F8C0
:1019500056101E293CDBA17D012921D1217EF9B938
:1019600036F8100027F036F901B26648E27D30F90A
:10197000120027F05DFAE07D36F8100027F02AF912
:1019800081B2E07D04F0EEFE5F4800E041E0E17DE1
:1019900030F91100002127F04BFA3220E083208437
:1019A000E07D5149C0F10100085C552807D0A575BC
:1019B000A4F85A500021484627F03AFA08E0277662
:1019C000A4F85E7001214FF4FB70F5E7A4F85650BF
:1019D000E17D01EB410000EB0112C1F1010101EBDE
:1019E000410303EB011108EB820208EB8100B2F91D
:1019F0000220B0F9020082420BDB207E012808D1D0
:101A0000A575A4F85A504846BDE8F047002127F0D4
:101A10000FBABDE8F08770B5324C05460026A07DB0
:101A2000F8B904F11C04022104F8061CE1874FF404
:101A3000F87027F0FDF9C5EB05108100E5860D462D
:101A4000A1874FF4F97027F0F3F929464FF4FF709E
:101A500027F0EEF90020208760860126304604F04A
:101A600043FF304670BD10B51E4CA07D022812D138
:101A700004F11604A08F04F037FF00202087A08710
:101A8000E0872070A4F844000146BDE810404FF400
:101A9000F87027F0CDB910BD70B5184C203C94F803
:101AA00038001A4D297808440C2803D9A08F401C0F
:101AB00001B201E0B4F93C10B82027F0B9F994F86C
:101AC0003810287801440C2994F8381000D90C38C3
:101AD0000144B62027F0ACF994F82C001C2817D943
:101AE0001C2117E00400001000C107209CF507200E
:101AF0009EC007207EFE0200E4C307202040024073
:101B000098C007209AFE02007AFE02005EC00720FD
:101B100094F82C10B42027F08BF904F12004217ADA
:101B20004FF0AE0027F084F92179B02027F080F93A
:101B30002178BDE87040B22027F07AB910B5F84896
:101B4000F84C007830B3F848818FF84A12889142F7
:101B500020D190F83810F64A128891421AD190F8A4
:101B60002C10F44A1288914214D190F82810F24AAD
:101B7000128891420ED190F82410F04A12889142B6
:101B800008D190F82000EE490988884202D101204E
:101B9000607602E0607E00280BD0EA480088C0B280
:101BA000FFF739FF002804D000206076BDE8104020
:101BB00072E710BD70B5DB4CA07D02283FD1B4F8B0
:101BC00050004FF461610025884212D2401C80B25F
:101BD000A4F8500088420CD3A4F85050B4F8520036
:101BE00038B1401E24F8520F6088401C6080A4F178
:101BF0005204B4F84E003C2821D2401C80B2A4F814
:101C00004E003C281BD324F84E5F6089401E01B271
:101C100061814FF4F97027F00BF96089A4F14E044B
:101C200000280CD1A5750146A4F85A504FF4F8705D
:101C300027F0FEF8BDE87040002004F055BE70BDEE
:101C4000C1486FF03B010088C0EB001001EB800041
:101C5000B449A1F8420070472DE9F05FDFF8C49263
:101C6000B9480026B9F84210B84F491C09B2A9F882
:101C70004210B0F90000B64DC0EB00124FF0010B5E
:101C800009F148044FF00A08B1EB820F51DBF0B3C1
:101C9000A9F842602670DFF8BCA2667089F810606F
:101CA0009AF80000552811D1B5F9020050280DDD31
:101CB000B5F90800FEF724FBB7F90010884203DBF2
:101CC00095F83D00C00701D084F800B09AF80100F3
:101CD000552811D1B5F94E0050280DDDB5F9540045
:101CE000FEF70EFBB7F90010884203DB95F8890078
:101CF000C00701D084F801B09748007848B999F836
:101D00001110484629B1817D41B1022900E010E05F
:101D100004D02670667089F8106008E021780129E7
:101D20001DD0617801291AD0017C012917D0A9F8AA
:101D300044604846B9F94410DFF8E891DFF81CA286
:101D400009F16609F1B383460246491E08B2A2F8BA
:101D50004400052806DD0F231E22642107E0A9F8B0
:101D60004480E6E700281BDD0F231E226921E120C5
:101D7000FEF702FABBF84400052811D1B5F90800B6
:101D8000FEF7BEFAA9F80000B5F95400FEF7B8FA5C
:101D9000A9F80200BAF90000FEF7B2FAABF8240085
:101DA0006048B0F84400002841D1AB46B5F90800BE
:101DB000FEF7A6FA5B4D6A352880BBF95400FEF7A2
:101DC0009FFA00E038E06880BAF90000FEF798FA60
:101DD000DFF850A1AAF82600AAF84660B9F9000079
:101DE000B5F900100844B7F90010884202DA2078EB
:101DF000012817D0BBF90200C82804DD0021267095
:101E0000084604F08BF9B9F90200B5F9021008444C
:101E1000B7F90010884202DA6078012805D0BBF9D2
:101E20004E007AE0AAF84680EDE7AAF84680BDE8C1
:101E3000F09F6670002105E1B0F94610E9B38046D5
:101E40000246491E08B2A2F84600052803DD0F230A
:101E5000C822642104E000281BDD0F23C822692169
:101E6000E120FEF789F9B8F84600052811D1B5F947
:101E70000800FEF745FAA9F80000B5F95400FEF78E
:101E80003FFAA9F80200BAF90000FEF739FAA8F8FB
:101E900024002448B0F846000028C8D1DFF8B080FC
:101EA000B8F90800FEF72CFA1E4D6A352880B8F9FB
:101EB0005400FEF725FA688000E057E0BAF9000008
:101EC000FEF71EFADFF85C80A8F8260088F80F609D
:101ED000B9F90000B5F900100844B7F900108842BC
:101EE00002DA207801283BD01948B0F90200C8284E
:101EF00004DD00212670084604F010F9B9F902004B
:101F0000B5F902100844B7F90010884202DA607887
:101F1000012828D00E48B0F94E00C82889DC86E791
:101F20005EC0072004000010004002400EC10720E0
:101F30000CC107200AC1072004C1072006C10720E1
:101F400008C1072010C10720AEC007209EC007208F
:101F50009CF5072000C1072065C0072066C1072047
:101F600088F80FB0CAE788F80FB060E78146C07BF9
:101F70000028D4D00F2300226E21E120FEF7FCF8C8
:101F8000B5F90800FEF7BCF9B7F90010884207DD83
:101F90002078012804D100212670084604F0BEF8FC
:101FA000B5F95400FEF7ACF9B7F90010884206DD28
:101FB0006078012803D16670002104F0AFF8207822
:101FC00030B9607820B999F8101009B989F80F6014
:101FD000E620FEF7E8F818B1FD480068E7280AD0C7
:101FE000FC48FD49B0F90000B1F9001000EB800099
:101FF000B1EB400F93DA89F80F602078F74E012893
:102000000FD1B7F90000410091FBF8F0B6F90010CC
:10201000884206DA95F83D00C00702D1012104F09C
:102020007DF860780128A0D1B7F90000410091FB4C
:10203000F8F0B6F90010884297DA95F88900C007E1
:1020400093D10121BDE8F05F012004F067B8E449B5
:1020500040F2F960A1F8400070472DE9F047E04CEC
:10206000B4F84000401C00B2A4F84000B0F5E16FA5
:1020700003DB0020A4F84000CBE4B0F5DF6F11D9FA
:102080000F2301226421D220FEF776F80F230022CD
:10209000D821D720FEF770F80F230022D821DC20AA
:1020A000FEF76AF8B4F94000A0F5E0610739E3D122
:1020B000CC4FCD4CCD4D388821880A26DFF83083AF
:1020C000DFF83093884210D0B5F9080090FBF6F0A5
:1020D00000B2FEF715F9B8F90010884205DAB4F934
:1020E0000010B9F9000026F0A3FE788861888842C4
:1020F000C2D0B5F9080090FBF6F000B2FEF700F987
:10210000B8F900108842B7DAB4F90210B9F9020040
:10211000BDE8F04726F08CBE10B5B74C0822002170
:102120002088401C2080204603F0E5F9AF48B4F930
:10213000001000EB410142880A84B0F84E00A1F87B
:102140006C0010BD70B5AE48AC4DB0F90030AD4874
:10215000B5F9002090F900109A421BDAAA4C0A291E
:102160000EDAAA4BB3F900300F2B0BDD491C49B234
:1021700001700A2906DB2280012003F00DFB01E03B
:102180000A210170B5F90000B4F90010884200DAA4
:10219000208070BDFDDD0029FBD0491E49B20170D1
:1021A0000029F6DCBDE87040002003F0F5BA2DE907
:1021B000F05F97480A21DFF85CC20088DFF83CA294
:1021C000B0FBF1F201FB12028549DFF84C9241F2BB
:1021D00070754E8D3AB9B0F5166F04D0B0F5965FB4
:1021E00001D0A84261D18F498C4A8D4B99F89C73DC
:1021F000B1F90040B2F90020B3F90030DFF828E26D
:102200008A49DFF82CB24846072F25D0564396FB63
:10221000FCF0884AAEF80000B2F90600584390FB83
:10222000F5F00880B2F91400604390FBF5F0ABF8CC
:102230000000BEF90020AAF80020B1F900105046B5
:10224000914200DA0180BBF90010B0F90020914200
:1022500033DAAAF8001030E000F2A230DFF880C1D3
:10226000067847780CF1900C06EB07261FFA86F8E3
:10227000ACF800808678C77808FB02F806EB0726E2
:10228000B7B2ACF80270067998FBF5F299F8A7039B
:1022900007FB03F706EB002080B2ACF80400AEF8B1
:1022A000002097FBF5F20A80BEE76348B0F9000012
:1022B000464396FBFCF0AAF800005E485F4F4FF4DF
:1022C000FA66B0F90020B7F90010484C514391FB71
:1022D000F6F1DFF86CC16180B0F90820BCF900109C
:1022E0004FF42F73514391FBF3F1A180B0F9182003
:1022F000B7F90210514391FBF6F1A4F84E10B0F972
:102300000210BCF90200484390FBF3F0A4F850001F
:10231000DC20FDF768FFE8BB334B3249DFF824E1EE
:102320001888098845F6386B401ABEF900104FF43A
:1023300096774143364845F2FA524FF47A7C00884A
:10234000584504D0A0F5BC48B8F1920802D191FBE1
:10235000F7F10EE0904207D0A0F5AC48B8F11308B1
:1023600002D018F1020802D191FBF6F101E091FBD5
:10237000FCF1218159881B4B5B88CB1ABEF90210F6
:102380005943584503D0A0F5BC43923B03D191FB80
:10239000F7F00DE00EE0904205D0A0F5AC42133A04
:1023A00001D0921C02D191FBF6F001E091FBFCF010
:1023B000A4F854001F4F40F6B73C0122B7F90C10A7
:1023C0000020A1F2213363453ED220733DE000009E
:1023D00010C0072098C0072068C107206AC10720E5
:1023E00004000010CC00001052F507209CF50720D7
:1023F000A6C00720A6FE0200E4C3072074C1072080
:102400009AC00720EEC30720ECC3072078C007203E
:1024100002C10720B0AD0100B0F70720DC000010BA
:10242000C8C30720DE00001076C1072078C107204E
:102430007AC1072028690010D4000010C8000010DD
:10244000B8C30720BCC307202273DFF840B4B846E6
:1024500044F62067BBF900304B4393FBF7F1A1F240
:1024600011116181B8F90E10A1F22133634502D236
:1024700084F8580001E084F85820BBF90230C646C1
:102480004B4393FBF7F1A1F21111B846A4F8561093
:10249000FF49B1F90030FF49022B02D0042B16D0BE
:1024A00053E0B1F92830052B04DACB8B13B98B8AB2
:1024B00063812073B1F95230052B46DAB1F8483008
:1024C000EBBBC98FA4F8561084F858003DE0B1F971
:1024D00028706FF0130B5B46052F04DACF8B17B90A
:1024E000B1F914302073B1F95270052F08DAB1F840
:1024F00048702FB9B1F93E709F4201DD20733B4611
:1025000013F1140700D06381B1F97C705B46052F8D
:1025100006DAB1F872701FB9B1F9683084F8580062
:10252000B1F9A670052F09DAB1F89C7037B9B1F985
:102530009210994202DD84F858000B4600E004E056
:1025400013F1140101D0A4F85630D34FBEF9041092
:10255000B7F90070794391FBF6F1D04E3180BEF9A6
:102560000A60CF49A6F22137674501D2086000E032
:102570000A60F346DFF82CE34746DFF82C83BEF908
:102580000030734393FBF7F3A3F21113A8F8003064
:10259000BBF91430A3F22136664501D2486000E051
:1025A0004A60C04EC646B6F902605E4396FBF7F33A
:1025B000A3F211131BB2A8F802309B46BB4BB3F930
:1025C0000630A3F22136664501D2886000E08A60B9
:1025D000B44A4FF47A6CB94EB2F904205A4392FBD4
:1025E000F7F2A2F211120FFA82F8AEF80480B04F9F
:1025F000DFF8C0E23B88BEF900205A4392FBFCF2B0
:10260000AD4B92B2642A1A8001D3BAF8002032800E
:102610007E88BEF9022008F21118724392FBFCF288
:102620005A80A74ADFF89CC2B2F90060BCF90030BA
:10263000734393FBF5F6A44B1E80B2F90270BCF90C
:1026400002607E4396FBF5F65E80BCF90470B2F939
:102650000460DFF878C2774397FBF5F69E80B2F905
:102660000660BCF90030734393FBF5F6984B1E806F
:10267000B2F90870BCF902607E4396FBF5F65E8005
:10268000B2F90A20BCF90460564396FBF5F29A8031
:10269000904D0BF2111213B22B800FFA88F66E8058
:1026A0004A6812F0FF022A728968C9B269728A4DBB
:1026B00004D0012A0ED012B10DD020E011B10129B1
:1026C00010D01CE0991901EBD1716FF4887202EB04
:1026D000610113E011B1012908D010E0A6F2111632
:1026E0002E800CE0A3F211132B8008E07B490978BF
:1026F000052902D27A49098800E014212980794904
:102700000A78552A06D1B4F90220C82A02DD764A91
:1027100023895387497855290BD1B4F94E10C8291C
:1027200007DDB4F95410B4F90820914201DD6E4A76
:1027300051876E490022B1F900502EE0C2EBC20170
:1027400001EB410309EB8301CB78192B1CD28B7968
:10275000CE7903EB06234B620B7A4E7A03EB06230A
:102760000B628B7ACE7A03EB0623CB610B7B8B62F9
:102770004B7B81F852308B7B81F842300B7C4E7C56
:1027800003EB0623CB6406E0C861486208628862F6
:1027900081F84200C864521CD2B2AA42CEDBB4F91E
:1027A00008200A2192FBF1F2B4F95430DFF844C159
:1027B00093FBF1F1114449424D4A0CB200211480BF
:1027C000ACF800004B4610E0C1EBC10606EB460634
:1027D00003EB8607FE78052E05D27E6ABCF80070F2
:1027E0003E44ACF80060491CC9B2A942ECDBBCF81D
:1027F0000010214409B21180002900DA10803E49FE
:10280000B1F90050002D40D00024DFF8F0C098E06E
:10281000C4EBC40101EB410103EB810191F8932664
:10282000192A74D201F296610A784E7802EB0626D4
:1028300004EB44020CEB4212D6618E78CF7806EBA3
:102840000726D6620E794F7906EB072696618E79B8
:102850001662CE7982F846600E7A4F7A06EB07262A
:1028600096628E7ACF7A06EB0726566290700E7BC0
:1028700082F859604E7B82F85A608E7B82F85860ED
:10288000CE7B82F85B600E7C3BE05DE0D000001008
:10289000F2C0072034F60720C6C3072068C107200E
:1028A000C00D0820C0C3072046C2072028690010B9
:1028B0000C010010D60000104CC207208EC107206A
:1028C000A00E0820FCC3072052C2072012010010EE
:1028D00058C207201A0E082082C1072071C00720A5
:1028E00092C1072000C1072004000010E6C00720A5
:1028F0006AC1072004010010E8C007203002082048
:1029000005E082F85C60497C82F85D1017E004EB1A
:1029100044010CEB41111922C861C8628861086248
:1029200081F84600486288628A7081F8590081F80F
:102930005A0081F8580081F85B0081F85C00641C43
:10294000E4B2AC42FFF664AFBDE8F09FFB4AFC483E
:102950001178052901D0012905D1517819B9F94912
:102960000978552902D0F849098803E0017800293F
:1029700001D0491E01707047F448416821F440219C
:1029800041F480214160416821F4403141F48031BB
:102990004160416821F4404141F480414160416C13
:1029A00021F4402141F400214164416C21F4403183
:1029B00041F400314164416C21F4404141F4004153
:1029C0004164E348016821F0E0610160016841F47D
:1029D00000110160016821F480310160016821F477
:1029E0007F4141F4807101608115C160D94889033C
:1029F000016070472DE9F041D74C60882188401A6A
:102A000000B204F07CF8A51D2880A0886188401AD7
:102A100000B204F074F86880A0882188401A00B2DF
:102A200004F06DF84FF49672A880A4F196019042DC
:102A300001DAA0880AE0B5F90200904201DA608864
:102A400004E0B5F90000904201DA2088888591F809
:102A500002C00023BCF1000F22D0C048B1F92C20E5
:102A60000468144404604468144444608468144452
:102A70008460C4682244C2608A8E521C12B28A8664
:102A8000B2F5805F00DB8B86B1F9342094052FD13D
:102A9000921250F8224024124C8540F8223027E050
:102AA000AF4FC8780C7907EB8015B1F92C2045F8A9
:102AB0002420A20710D100252A4607EB801600BF6C
:102AC00056F82270521CD2B23D44102AF8D32A1173
:102AD000A24D203D25F81020401CC0B2C87010281F
:102AE00006D3641CE0B2CB700871102800D30B71C0
:102AF0000CF1010C4B701CF00100954A887005D058
:102B0000106820F0FF00001D106034E0C97808074D
:102B10000028106820F0FF0002DB00F1010001E056
:102B200000F1020010608F48036843F08053036097
:102B3000036A43F080430362036E43F080630366DD
:102B4000CB07436908D043F0805343618B07436B45
:102B500005D423F0804304E023F08053F5E743F0ED
:102B6000804343634907416F02D421F0806101E053
:102B700041F080614167106840F080701060BDE8EE
:102B8000F0812DE9F041744C60882188401A00B230
:102B900003F0B5FFA51D2880A0886188401A00B207
:102BA00003F0ADFF6880A0882188401A00B203F0CE
:102BB000A6FF4FF49672A880A4F19601904201DA24
:102BC000A0880AE0B5F90200904201DA608804E0CA
:102BD000B5F90000904201DA208888858E780020BF
:102BE000F6B34C795D4A8CB1B1F92C30156805EB20
:102BF000A3051560556805EBA3055560956805EBC1
:102C0000A3059560D56805EBA303D360B1F92C301B
:102C1000642B0EDA0B8E4FF4FA655B1C1BB20B862D
:102C2000AB4208DB0D86106050609060D060488534
:102C300052E0088650E0052B4ED1A4B1CB8D5B1C31
:102C40001BB2CB85B3F5007F00DBC885B1F92E3010
:102C50005D0608D1DB1152F823502D124D8500E09E
:102C60000FE042F82300B1F93220962A01DD04B1C9
:102C700048711F3A272A2FD24A796ABB01224A712A
:102C80002AE0374FCA7891F804C007EB8214B1F9F3
:102C90002C3044F82C305FEA8C730FD1002423468B
:102CA00007EB821555F823705B1CDBB23C44102BFC
:102CB000F8D32311294C203C24F81230521CD2B2F4
:102CC000CA70102A08D30CF1010C0CF0FF02C87076
:102CD0000A71102A00D308714870761C16F00100A2
:102CE0001B4A887005D0106820F0FF00001D10609E
:102CF00049E0C97808070028106820F0FF0001DBD0
:102D0000401C00E0801C10601648036843F08053AC
:102D10000360036A43F080430362036E43F0806301
:102D20000366CB0743691FD043F0805343618B0791
:102D3000436B1CD423F080431BE000000CC207202F
:102D400036C007205FC0072012C1072000C0024024
:102D50000040034000E100E09A00001048690010C4
:102D60002865001000C0092023F08053DEE743F0FF
:102D7000804343634907416F02D421F0806101E041
:102D800041F080614167106840F080701060F6E6A5
:102D9000F0B5F848B0F9221019B1A1F10101418450
:102DA0008BE00022F54C82731346F349B4F90040DE
:102DB00011E000BFC3EBC30505EB450501EB85053D
:102DC000AE78012E05D1ED78142D02D2857B6D1CD5
:102DD00085735B1CDBB2A342ECDB867B022E6CD3DB
:102DE00041F28833C0E91C230023826717E000BF4B
:102DF000C3EBC30505EB450501EB8505AF78012F56
:102E00000BD16D6A076FBD4200DD0567476FBD429C
:102E100000DA4567876F3D4485675B1CDBB2A342E0
:102E2000E6DB836F012593FBF6F6C667436F03B9B4
:102E30004567036F64277B43476FDFF838C393FB15
:102E4000F7F30CF1800CA02BCCF8003000DD4573BB
:102E5000782B01DA427330E0407B01282DD100222B
:102E60006FF0310327E000BFC2EBC20000EB40006F
:102E700001EB80008578012D1BD1456AB54205DD47
:102E8000B0F85050A5F10105A0F8505005DAB0F89F
:102E9000505005F10105A0F85050B0F950509D4236
:102EA00002DAA0F8503004E0322D02DD3225A0F81D
:102EB0005050521CD2B2A242D6DB00BFF0BD2DE969
:102EC000F041AF480168AF4A11400160AE4C216843
:102ED00041F47C712160C16921F44021C161216EFE
:102EE00041F000712166416821F040614160206835
:102EF00040F000502060A648A44BA7490278A5489E
:102F000093F83C50B1F900100078154307D030B168
:102F1000052904DDA56945F48075A56103E0E5692F
:102F200045F48075E56193F88830134307D030B1DC
:102F3000052904DDA06940F04000A06103E0E069DC
:102F400040F04000E061D220FDF74DF9934D60B1B3
:102F50002868642809D16868012801D028B108E0F0
:102F6000A06940F00050A06103E0E06940F000502B
:102F7000E061D220FDF737F9894E10B12868662844
:102F800015D03068C007A0B1E06F40F00070E06776
:102F9000D220FDF728F910B128686C280ED03068CF
:102FA000800710D4E06940F01000E0610FE068682D
:102FB000E9E7A06F40F00070A067E9E768680028C3
:102FC000F0D0012803D1A06940F01000A061D22008
:102FD000FDF709F9734FDFF8D08110B128686D282B
:102FE0000AD0387802280DD0306840070ED4E06946
:102FF00040F40070E0610DE068680028F7D0012817
:1030000004D007E098F800000028F0D0A06940F450
:103010000070A061D220FDF7E6F810B128686A2898
:1030200004D0306810F4FF6F05D009E0686810B173
:10303000012805D008E0E06940F08000E06103E08D
:10304000A06940F08000A061D220FDF7CCF810B15B
:1030500028686B2806D0387801280FD045480078BA
:1030600038B901E06868FBE7A06940F02000A06182
:1030700085E5E06940F02000E06180E598F8000017
:103080000028F6D0F0E72DE9F05F3A4C00264FF02B
:103090000108207D0A2807D2401CC0B220750A28EA
:1030A00002D3267584F81580A4F84A60A4F84C6011
:1030B000CD20FDF798F8304DDFF8C090A0B3374829
:1030C0004FF6FF720168CE2908D0CF2909D0D12947
:1030D00009D0D2290BD0D0290CD011E0A4F84C2073
:1030E0000EE040680AE04068A4F84A0008E0A4F84E
:1030F0004A2005E04068A4F84A00C043A4F84C0008
:10310000002731E008FA07F0B4F84C108246084274
:10311000C7EBC70000EB400007D005EB800131F89A
:10312000400F401C088004E040E005EB8000A0F860
:103130004060C7EBC70000EB400005EB8000834612
:1031400040303222002102F0CBF9BBF940001428B4
:1031500001DD8BF82C80B4F84A101AEA010F01D077
:103160008BF82C607F1CFFB2B9F900008742C9DDE3
:1031700082E0000004000010B0F70720E6C007203E
:1031800000C00240FF00F0FF00C009209CF50720AE
:10319000C50000103BC0072078C0072010C00720E2
:1031A0001CC007205AC00720B6C30720607DE8B3C3
:1031B0004FF0000C6146B9F9000009E0C1EBC10213
:1031C00002EB420205EB8202491C82F82C80C9B254
:1031D0008142F3DD002120E0C2B2202A00D9202262
:1031E000E37E834200DB00230B44DBB2B3FBF2F748
:1031F00002FB1732C2EBC20202EB420205EB820273
:103200009378022B01D0012B05D10CF1010C82F82F
:103210002C600CF0FF0C491CC9B2814204DAF14A5F
:10322000B2F900209445D7DBEF4900E024E0B1F982
:1032300000103C290EDA00210AE000BFC1EBC102F8
:1032400002EB420205EB8202491C82F82C60C9B2F3
:103250008142F3DDE549098871B100210AE000BF30
:10326000C1EBC10202EB420205EB8202491C82F86B
:103270002C80C9B28142F3DD00206323B9F900102C
:103280000EE000BFC0EBC00202EB420205EB82027F
:10329000D76B1FB182F82C307F1ED763401CC0B2A1
:1032A0008842EFDB667500226674104612E000BFAC
:1032B000C0EBC00303EB430305EB83039E78012EB1
:1032C00006D1667C761C6674DB69934200DD9AB297
:1032D000401CC0B28842EBDBE287BDE8F09F70B5CE
:1032E000C3480A21C34D036800242868B3FBF1F2E8
:1032F000B0FBF1F6C048B2420AD102780F2A01D2DF
:10330000521C0270D0B20A2803D3BC48036000E00C
:1033100004702B60BA48BB4BB0F90020B3F9000031
:10332000B2FBF1F5B0FBF1F1B7488D420AD101785B
:103330000F2901D2491C0170C8B20A2803D3B3482F
:10334000028000E004701A8070BD70B50446072248
:103350000121AF4802F0B9F8AE4804EB440100EB9C
:103360004115AD4895F8471095F84620514000D0DA
:1033700041700A4000D0827001EA0203DB071ED0D0
:10338000C178491CC17034B1012C09D0022C0CD079
:10339000032C0FD0E4E001231A460E219FA0DDE0AC
:1033A000012302220E21A4A0D8E0012303220E2132
:1033B000A8A0D3E0012304220E21ADA0CEE08B070C
:1033C00020D593071ED5C178491CC17034B1012C9A
:1033D00009D0022C0CD0032C0FD0C1E00223012213
:1033E0000E21AAA0BAE002231A460E21AEA0B5E033
:1033F000022303220E21B3A0B0E0022304220E21F7
:10340000B7A0ABE04B0720D553071ED5C178491CA8
:10341000C17034B1012C09D0022C0CD0032C0FD078
:103420009EE0032301220E21B4A097E00323022291
:103430000E21B9A092E003231A460E21BDA08DE013
:10344000032304220E21C2A088E00B0720D5130716
:103450001ED5C178491CC17034B1012C09D0022C91
:103460000CD0032C0FD07BE0042301220E21BFA03F
:1034700074E0042302220E21C5A06FE0042303227E
:103480000E21CCA06AE004231A460E21D2A065E0EA
:10349000CB0620D5D3061ED5C178491CC17034B1E6
:1034A000012C09D0022C0CD0032C0FD058E005239E
:1034B00001220E21D1A051E0052302220E21D8A025
:1034C0004CE0052303220E21DEA047E00523042261
:1034D0000E21E5A042E08B0620D593061ED5C178CB
:1034E000491CC17034B1012C09D0022C0CD0032C22
:1034F0000FD035E0062301220E21E4A02EE00623A2
:1035000002220E21EAA029E0062303220E21F1A0C7
:1035100024E0062304220E21F7A01FE001B3FAB92C
:10352000C178491CC17034B1012C09D0022C0CD0D7
:10353000032C0FD014E0002301220E21F7A00DE090
:10354000002302220E21FAA008E0002303220E210C
:10355000FCA003E0002304220E21FFA023F01FFCA7
:1035600015F8460F687070BD204910B5002008801E
:10357000FE4801234FF4FA64B0F90020FC48012A08
:10358000B0F900000BD0022A08D1FA4AB2F91A2089
:1035900048B1012802D1A24200DA0B8010BDF54AE1
:1035A000B2F91620F4E7A242F7DC10BD2DE9F04194
:1035B0000746C0EBC700F04900EB400011F820209F
:1035C000032A0CD101EB800494F84250A807B4F907
:1035D000460005D54FF49661884202DACEE15EE2FC
:1035E000D9E1E6E1F6C3072078C007202A010010E0
:1035F00004C40720180100100AC4072004C20720D1
:1036000008C407201C0100101E01001094C10720EF
:1036100035C007203002082090000010496E766502
:1036200072746F7220233120416C61726D2C206F97
:103630007665726C6F616400496E766572746F7244
:1036400020233220416C61726D2C206F7665726C84
:103650006F616400496E766572746F722023332047
:10366000416C61726D2C206F7665726C6F616400C5
:10367000496E766572746F7220233420416C6172DA
:103680006D2C206F7665726C6F616400496E766593
:1036900072746F7220233120416C61726D2C206F27
:1036A0007665726865617400496E766572746F72D2
:1036B00020233220416C61726D2C206F7665726818
:1036C00065617400496E766572746F7220233320D1
:1036D000416C61726D2C206F766572686561740053
:1036E000496E766572746F7220233420416C61726A
:1036F0006D2C206F7665726865617400496E766521
:1037000072746F7220233120416C61726D2C2069BC
:1037100073207761726D0000496E766572746F7206
:1037200020233220416C61726D2C206973207761F7
:10373000726D0000496E766572746F7220233320BB
:10374000416C61726D2C206973207761726D00008D
:10375000496E766572746F7220233420416C6172F9
:103760006D2C206973207761726D0000496E76655B
:1037700072746F7220233120416C61726D2C20763F
:103780006F6C7461676520697320757000000000BC
:10379000496E766572746F7220233220416C6172BB
:1037A0006D2C20766F6C746167652069732075706D
:1037B00000000000496E766572746F72202333201A
:1037C000416C61726D2C20766F6C74616765206945
:1037D0007320757000000000496E766572746F7218
:1037E00020233420416C61726D2C20766F6C7461E3
:1037F000676520697320757000000000496E76656A
:1038000072746F7220233120416C61726D2C2076AE
:103810006F6C7461676520697320646F776E000058
:10382000496E766572746F7220233220416C61722A
:103830006D2C20766F6C7461676520697320646FEE
:10384000776E0000496E766572746F7220233320A4
:10385000416C61726D2C20766F6C746167652069B4
:103860007320646F776E0000496E766572746F72B4
:1038700020233420416C61726D2C20766F6C746152
:10388000676520697320646F776E0000496E766506
:1038900072746F7220233120416C61726D2C206F25
:1038A0007574707574206973206F666665640000B6
:1038B000496E766572746F7220233220416C61729A
:1038C0006D2C206F7574707574206973206F666637
:1038D00065640000496E766572746F722023332030
:1038E000416C61726D2C206F7574707574206973F2
:1038F000206F666665640000496E766572746F724B
:1039000020233420416C61726D2C206F75747075AA
:1039100074206973206F666665640000496E766581
:1039200072746F72202331206973206E6F726D0084
:10393000496E766572746F72202332206973206E2F
:103940006F726D00496E766572746F72202333203A
:103950006973206E6F726D00496E766572746F7256
:10396000202334206973206E6F726D00C0C1072060
:10397000C2C1072028690010B0F70720401C00B220
:10398000A4F84600884214DBA4F846106078C0070B
:103990000FD1012209E060B1401E00B2A4F8460038
:1039A00038B96078C00704D000220021384602F000
:1039B0005CF92807B4F948004FF00A064FF00001FF
:1039C0000ED50A281FDA401C00B2A4F848000A28C5
:1039D00019DBA4F848606078800714D4012209E05C
:1039E00000280DDDA0F1010000B2A4F8480050B994
:1039F0004FF000024FF00101384602F036F902E0C4
:103A000001DAA4F84810E806B4F94A000ED50A28ED
:103A100017DA401C00B2A4F84A000A2811DBA4F807
:103A20004A60607840070CD4012206E048B1401E8D
:103A300000B2A4F84A0020B900220221384602F060
:103A400014F96078000701D0042011E0FF480078E5
:103A500020B1E078142801D9052009E094F842004B
:103A6000800601D5022003E0E078142801D201206D
:103A7000A070E0780A2894F82C0002D340F080006F
:103A800001E000F07F00F24984F82C00B4F9500006
:103A9000B1F91E10084420634FF47A706063BDE8EA
:103AA000F08170B5EB490020EB4DB1F90C200121FC
:103AB000034600BF01FA00F4224201D0295400E07D
:103AC0002B54401CC0B20C28F4D3E44C2878E44EAC
:103AD000217881420CD0B6F90010012908DB0128B9
:103AE0007ED0002301220B21DEA000BF23F057F976
:103AF0006178687881420BD0B6F90010022907DBA3
:103B000001286ED0002302220B21DBA023F047F90D
:103B1000A178A87881420BD0B6F90010032907DB01
:103B200001287CD0002303220B21D8A023F037F9F1
:103B3000E178E87881420BD0B6F90010042907DB60
:103B4000012872D0002304220B21D5A023F027F9ED
:103B50002179287981420BD0B6F90010052907DBBD
:103B6000012867D0002305220B21D2A023F017F9EA
:103B70006179687981420BD0B6F90010062907DB1C
:103B800001285CD0002306220B21CFA023F007F9E7
:103B9000A179A87981420BD0B6F90010072907DB7B
:103BA000012851D0002307220B21CCA023F0F7F8E5
:103BB000E179E87981420BD0B6F90010082907DBDA
:103BC000012846D0002308220B21C9A023F0E7F8E2
:103BD000217A287A81420FD0B6F90010092901E034
:103BE00013E017E008DB012838D0002309220B215D
:103BF000C4A000BF23F0D3F80020295C2154401C4E
:103C0000C0B20C28F9D370BD09E001231A460B217C
:103C1000C1A06BE7012302220B21C4A076E7012398
:103C200003220B21C6A081E7FFE7012304220B2119
:103C3000C8A08BE7012305220B21CBA096E7012327
:103C400006220B21CDA0A1E7012307220B21D0A042
:103C5000ACE7012308220B21D2A0B7E701230922F8
:103C60000B21D5A0C6E770B5C820FCF7BCFAD74930
:103C70000022A0B3D64C01232068C92803D0CA284B
:103C8000104611D02CE0002000EB400404EB00149F
:103C900011F82450322D02D26D1C01F82450401C22
:103CA000C0B20228F0D325E0D4F8045003FA00F49F
:103CB000254200EB400409D004EB001611F8264021
:103CC000322C07D2641C01F8264003E004EB0014F8
:103CD00001F82420401CC0B20228E7D30AE01FE00C
:103CE00000EB400404EB0014401CC0B201F8242097
:103CF0000228F5D35FF0000000EB400404EB001451
:103D000011F8245001EB8404142D02D984F83C30BE
:103D100001E084F83C20401CC0B20228ECD372E7DA
:103D200000EB400303EB0013401C01F8232001EBE0
:103D30008303C0B283F83C200228F1D363E72DE966
:103D4000F041A44FA448A54CB7F90010B0F90020E9
:103D5000B4F90000914202DD00F1010002E002DA54
:103D6000A0F101002080062200219C4801F0B8FB50
:103D7000B4F900109A480126052900DD06700024D8
:103D8000012900DA04709748B7F90010974DB0F98F
:103D900000209548931E99420BDA90F900201E2AC4
:103DA00016DA521C52B202701E2A11DB2A88521EE9
:103DB0000CE091420BDD90F900201E2A08DA521C1B
:103DC00052B202701E2A03DB2A88521C2A80047019
:103DD0008748B846B0F90000814201DD142203E0B3
:103DE00084480088093002B20021804801F078FB45
:103DF000F020FCF7F8F928B175480168F12901D1E4
:103E000040682880B5F900107B48012901DC067064
:103E100000E0047079487A4FB0F90000A0F1320157
:103E2000282912D8B8F90010764D814202DD288881
:103E3000401C28807448B0F90000814202DA2888CA
:103E4000401E288006220021E0E0E9E065C007204E
:103E500004000010A00E0820380E0820B40E082020
:103E6000F0C007204176746F6D61742023312069A2
:103E700073204F46460000004176746F6D617420D8
:103E80002332206973204F46460000004176746F4C
:103E90006D6174202333206973204F464600000073
:103EA0004176746F6D6174202334206973204F460E
:103EB000460000004176746F6D61742023352069DF
:103EC00073204F46460000004176746F6D61742088
:103ED0002336206973204F46460000004176746FF8
:103EE0006D6174202337206973204F46460000001F
:103EF0004176746F6D6174202338206973204F46BA
:103F0000460000004176746F6D617420233920698A
:103F100073204F46460000004176746F6D61742037
:103F20002331206973204F4E200000004176746FCA
:103F30006D6174202332206973204F4E20000000F1
:103F40004176746F6D6174202333206973204F4E66
:103F5000200000004176746F6D6174202334206965
:103F600073204F4E200000004176746F6D61742005
:103F70002335206973204F4E200000004176746F76
:103F80006D6174202336206973204F4E200000009D
:103F90004176746F6D6174202337206973204F4E12
:103FA000200000004176746F6D6174202338206911
:103FB00073204F4E200000004176746F6D617420B5
:103FC0002339206973204F4E200000009CF5072004
:103FD00010C0072082C10720BEC007200CC40720E4
:103FE000C6000010C0C00720C400001096C1072002
:103FF000C2C0072090C10720B4C30720C8C0072053
:10400000C500001020010010CAC00720FF4801F0C1
:1040100067FAB5F90000052800DD3E70012800DAD6
:104020003C70FB48FB4FB0F90000A0F132011E29A3
:104030001BD8B8F90010F84D814202DD2888401CD9
:104040002880F648B0F90000814202DA2888401E34
:10405000288006220021F04801F042FAB5F900005C
:10406000052800DD3E70012800DA3C7017E52DE9D7
:10407000FC5F0546EA4830F9151011B1491E20F8D9
:104080001510E749091D31F9152012B1521E21F80A
:10409000152005EB450202EB0513E24A02EB83040F
:1040A000E14AB4F90830B2F900606422B34201DD9C
:1040B00020F81520002B01DA21F81520D84A30F815
:1040C0001530843A00264BB131F8153033B1B2F8CF
:1040D0006230B3B140F6B830A2F86000A2F8606078
:1040E00094F83E00401CC0B284F83E000A2801D378
:1040F00084F83E60CD4FDFF838833888322809D005
:1041000017E04FF41673A2F8623020F8156021F81A
:104110001560E3E794F83C00F8B9B4F902005028C0
:104120001BDA94F83D00C00717D10121284601F0A1
:10413000F5FFB7F90000C8280FDDB4F90800FCF757
:10414000DFF8B8F90010884207DD94F83D00C00799
:1041500003D00021284601F0E1FFB8F90000B4F9CE
:1041600008104042814212DD607B0A280CD2401CBC
:10417000C0B260730A2875D3A07B002872D0A673E2
:10418000284601F040FF6DE00A2060736AE069DABA
:10419000607BF0B3401E10F0FF00607362D1A07B23
:1041A000B8BB0120A073A348A34F0088401C00F0B7
:1041B000070004EB4000008CADF80400B88B8DF8CC
:1041C00000004FF063024FF00101684601F07DF9F5
:1041D00004F11C049DF800002076387E8DF8000064
:1041E0004FF00C024FF00101684601F06EF99DF8A6
:1041F00000006076387B8DF800001F2201216846A0
:1042000001F063F99DF80000A0769DF80400E076C7
:1042100000E027E0387A8DF8000017220021684678
:1042200001F053F99DF80000207738798DF80000EF
:104230003B220021684601F048F99DF800006077B4
:1042400038788DF800003B220021684601F03DF9E6
:104250009DF80000A0779DF80500E0772680668035
:10426000A4F11C0448F6A04894F83E0088BBB4F9B9
:1042700008006169DFF8C4A10844DFF8C49145F281
:10428000555B6061404525DB39F915205A4503D15E
:104290006C4830F8157001E039F815703AF81500DF
:1042A00024F098FC80B2B8420AD2616900F10100A2
:1042B000A1F50041A1F54A6161613AF915202BE0B1
:1042C00031D93AF9150039B224F0B2FDC4F814809E
:1042D00029E04FE05C49884225DC39F915205A4530
:1042E00003D1584830F8157001E039F815703AF8E4
:1042F000150024F06FFC80B2B84205D93AF91500D8
:1043000039B224F095FD384658B16269401E02EB7F
:10431000080161613AF9152001B2104624F088FDC8
:1043200001E0494860613AF8150024F053FC014669
:1043300039F91500584502D1424830F915004FF4BB
:104340007A72514308B1B1FBF0F00A21B0FBF1F0F1
:1043500020823E480088012806D13D49C5EB451022
:1043600001EB4000408A208204F110006422002109
:1043700001F0B6F8A07B012813D1A08B4746B842C4
:104380000ED2B4F90800FBF7BBFFA18B084480B242
:10439000A083B84205D3A683E08B401CE08300E0F5
:1043A000A6832C49B4F90A00B1F90010884201DD56
:1043B000207B50B3B4F84000B0F10100A4F84000F5
:1043C0004FF4167904F140004A46002101F088F8C4
:1043D000B4F9400040F24E27B84205DB94F83F1094
:1043E00041F0010184F83F100A2805DC94F83F00F1
:1043F00020F0010084F83F001749B4F90A00B1F930
:10440000001088422BDD207B28E05AE020010010BC
:10441000C4C00720B5C307200EC40720C6C00720AC
:10442000880000109CF50720A6C0072076C0072052
:104430009EC00720E4C30720204002407AFE02000D
:10444000ECC10720E4C107206073FFFFDCC0072038
:10445000DCF60720B8C00720B6C00720A8B3B4F820
:104460004200401EA4F8420004F142004A460021E6
:1044700001F036F8B4F94200B84205DB94F83F1079
:1044800041F0020184F83F100A2805DC94F83F004F
:1044900020F0020084F83F00606C40451ADA401CAE
:1044A0006064404517DB6664F94C34F8150024F06D
:1044B00091FB401C01B234F91500BDE8FC5F24F00B
:1044C000B7BCB4F84000401C78E7FFE7B4F84200FE
:1044D000401CC7E76664BDE8FC9F2DE9F84FED4C32
:1044E0000021A0790A2807D2401CC0B2A0710A2876
:1044F00002D3A17101202072E079052805D2401C69
:10450000C0B2E071052800D1E171BE20FBF76BFE5F
:10451000E14928B1E1480268BF2A7BD1406878E0D0
:10452000207A002876D0DE4BDE481A78552A04D04F
:104530005A78552A01D000886BE0DB48DFF86CA37D
:10454000DB4DB0F90000DB4ADFF86C9310B10128B5
:1045500049D05FE0AB464FF0140C6D466FF0130787
:104560001E5C552E0ED025F81070401CC0B20228DB
:10457000F6D3BDF90030BDF90250D048AB4213DD8F
:10458000036013E000EB400606EB00180BEB880617
:1045900096F80C80B8F1000F02D025F810C0E4E7BF
:1045A000768925F81060E0E72B460560002B02DADB
:1045B000B2F9000011E0282B01DD28230360B9F9CE
:1045C0000050B2F900300068EA1A02EB8202520091
:1045D0004243C82092FBF0F01844A27D022A18D171
:1045E000BAF9000015E068880A300880A07D02282A
:1045F00002D1BAF800000880B1F90030B2F9000029
:10460000834200DB0880B1F90020B9F90000824242
:1046100000DB0880B1F9000062214143642291FB74
:10462000F2F1A74B19806621484390FBF2F0A549AF
:104630000880BDE8F88F2DE9F041964CB4F92800C8
:1046400008B1401E2085A048A04D994E00882880C2
:10465000B6F908000A27002806DAFBF751FE90FB9E
:10466000F7F0298808442880B6F95400002806DAB3
:10467000FBF746FE90FBF7F0298808442880944910
:10468000B5F90000934AB1F900103C2390FBF1F119
:10469000491CC9B2A174B2F9002090FBF2F0401C91
:1046A000C2B28D48E274B0F90050A94201DD018028
:1046B00004E0AA4203DA218D09B9028023858749E3
:1046C0000A8887490AB10A880280B1F90020BDE84A
:1046D000F0410121804800F003BF2DE9F05F8148DF
:1046E0006C4CB0F900108048A187008810B17F4859
:1046F0000088A087B4F9600010B1401EA4F86000E3
:10470000B4F9620010B1401EA4F8620068484FF08E
:104710000A0890F83F20920703D190F88B00800799
:1047200002D091FBF8F0A087607A4FF000094FF0BB
:10473000010B0A2808D2401CC0B260720A2803D3B9
:1047400084F8099084F80AB0E120FBF74CFD684F2B
:10475000514BDFF8A0A1D0B350490868642808D0B5
:1047600069280AD06E280CD0E5281ED0E6281ED075
:104770000CE14968208C084407E14868218C081A3C
:1047800003E1E08B401E00B2E0831E2806DD5A499B
:10479000B7F90000B1F90010884205DA0A230022B7
:1047A000E721E620FBF7E8FCF0E04868EDE0B7F928
:1047B0000000B3F90010884212DDA0EB01000A28C6
:1047C00006DDB4F91E00002802DD401FDDE01CE01C
:1047D000B4F91E00002836D0A17AA1B3401ED4E05F
:1047E00031DA081A0A2807DDB4F91E0040F2F73161
:1047F000884201DA401DC8E0B4F91E00B0F57F7FA1
:1048000021DAA17AF9B1401CBFE0A07AD8B13B48C7
:10481000008818B19AF8A302282814D9B4F9200006
:104820002087B4F93A10A28F91FBF8F5B5EB420F4F
:1048300074DC0DDAC2EB02168E4209DAB4F86010AD
:1048400021B1401E98E0A1E00A3895E0C01E93E037
:10485000C2EB02168E4201DD9542F2DCB7F9005040
:10486000B3F90030134F144E9D426ADAB7F9007065
:10487000B6F90060A7EB0606A3EB0607AF424EDDD4
:10488000002953DAB4F8601009B90A3074E043E043
:1048900096FE02000400001088C1072010C0072007
:1048A00000C10720A8C00720DCC00720A0C0072047
:1048B0009CF507208EC0072090C007200001001043
:1048C000FE000010F4C3072004010010F8C3072005
:1048D000A2C00720A4C00720F6C30720B4C0072049
:1048E000E6C00720A6C00720B8C10720AEC1072038
:1048F00068C10720B0F7072098C007209AC1072099
:10490000B4F8601041B916E0C2EB421303EB821217
:10491000B2FBF8F28A4230DD401C2DE01AE0F717B6
:1049200006EB9776A3EBA606AE4206DD02EB82030A
:104930008B42E9DDE4E7801C1EE05B1E9D42E3DB69
:104940001BE01ADDB7F90010B6F90020891ACA1861
:10495000AA4205DAB4F8601000293FF475AF70E799
:10496000CA1701EB927103EBA101A94219DAB4F85D
:1049700060100029F3D1801E208740F2F2320A2114
:10498000FF4800F0ADFD208F2084E083FD4884F8CF
:104990000C9084F80B904D4652465B46B0F90010DF
:1049A00010E05B1C9D42DADCE7E700BFC0EBC0060D
:1049B00006EB460602EB8606F6781E2E00D223731F
:1049C000401CE072E07A8842F0DB207B20B94FF493
:1049D0001670E08320842087E94840F2F2320A21F1
:1049E0001A3800F07DFDA572BDE8F09F2DE9F05F5B
:1049F000E74E0020E449DFF894834FF00A0B82462B
:104A0000B6F9003024E0E34AE34C125C34F912209A
:104A1000B2F5FA6F0A560DDA0A2A08DA521C52B2B7
:104A20000A540A2A12DB012208F800200EE001F8DD
:104A300000B00BE0002A07DD521E52B20A54002AD1
:104A400004DC08F800A001E001F800A0401CC0B29E
:104A50009842D8DB0024DFF84493D14DD14F71E068
:104A6000D14830F81400002818F8040001D078B1BB
:104A700001E001280CD019F90400002818DB401EC1
:104A800040B209F80400002814DC05F804A011E085
:104A900019F904100A2908DA491C49B209F8041066
:104AA0000A2907DB0120285504E009F804B001E0D9
:104AB00009F804A0395D285D81423FD0B04A383AF8
:104AC000D18E491CD186012807D014B3012C25D0E2
:104AD000022C28D0032C2BD030E034B1012C09D08B
:104AE000022C0CD0032C0FD028E001231A460F21F2
:104AF000AEA021E0012302220F21AFA01CE0012380
:104B000003220F21AFA017E0012304220F21B0A040
:104B100012E0002301220F21B0A00DE000230222A9
:104B20000F21B3A008E0002303220F21B5A003E06A
:104B3000002304220F21B8A022F031F9285D385556
:104B4000641CE4B2B6F90000844289DB4CE7B74943
:104B5000B74A0120087010704870507070472DE9F6
:104B6000F05FB548DFF8D4E2DFF8C8C2B0F90070F2
:104B7000BEF90000824CC0EB0011383CBCF9025079
:104B80006FF01D0A6FF0950B0026DFF8A082B4F9D4
:104B900042000AEB81020BEB8103BD4204DCA84F0B
:104BA000B7F90070BD4205DA824203DD834201DAC3
:104BB00088F80060A34DE146BCF908C0B5F9005083
:104BC0009B4FBCEB450F03DC6D42BCEB450F04DA99
:104BD000824202DD834200DA3E706FF0090202EB8E
:104BE00081017546814220D1A07DF0B998F800007E
:104BF00001281AD13878012817D14FF4D67023F044
:104C0000E9FF9149B1F9001088420ED08F48008821
:104C100058B199F83D00C00707D14FF4D67024F081
:104C200007F98B480178491C01708349B9F90220C2
:104C30004846B1F900108A4206DC8149B0F94E209D
:104C4000B1F900108A420FDAB5F90010B4F9422028
:104C5000C1EB01110AEB8103934205DD0BEB8101EE
:104C6000914201DA88F801607649B9F95400B1F946
:104C70000010B0EB410F03DC4942B0EB410F0EDAFC
:104C8000B5F90000B4F94210C0EB00100AEB800245
:104C90008A4204DD0BEB8000884200DA7E70B5F9B1
:104CA0000000C0EB00116FF0090000EB8100B4F9C7
:104CB0004210884222D1A07D00BB98F80100012853
:104CC0001CD17878012819D14FF4E576304623F0CD
:104CD00081FF02465C48B0F902108A420ED05B4860
:104CE000008802280AD199F88900C00706D1304609
:104CF00024F09EF856480178491C0170B5F900006F
:104D00006FF00101C0EB001001EB8000B4F942101C
:104D1000884202D1BDE8F05F19E765E62DE9F003AE
:104D20004C484D4ADFF834C100784FF000084FF08E
:104D3000010910B34A486146B0F900604948B1F929
:104D40000010B0F900704848BE42B0F90030474842
:104D5000B0F900404648B0F900504648B0F90000AC
:104D60000CDA834203DB844201DB854206DA4248E7
:104D7000B0F90000814202DA80E0A9E087E097E024
:104D80003C000010E6C00720F4C10720C9C107207D
:104D9000ECC0072072FE020028690010FA00001023
:104DA000CDC10720EFC307205EC20720534B20234D
:104DB0003120416C61726D00534B20233220416CD5
:104DC00061726D00534B20233320416C61726D0082
:104DD000534B20233420416C61726D00534B2023D0
:104DE0003120416C61726D206973206F666600002E
:104DF000534B20233220416C61726D206973206F08
:104E000066660000534B20233320416C61726D2095
:104E10006973206F66660000534B20233420416C79
:104E200061726D206973206F6666000006010010D4
:104E3000FAC307209CF50720F4C30720AEC0072063
:104E4000FE0000109EC00720ECC10720E2C0072032
:104E5000080100105AC00720B6C307202201001025
:104E600068C10720D2C0072076C1072078C107207B
:104E70007AC107209AC00720D0C00720491C09B278
:104E8000ACF80010814213D182F8008013E0FF4F8C
:104E9000B7F90070BE420BDD834209DD844207DDB5
:104EA000854205DD21B1491E08B2ACF8000050B1C1
:104EB0001078002809D1BDE8F0030F2301226E21EC
:104EC000D220FBF759B982F80090BDE8F003704793
:104ED000ACF80080F7E7F8B5ED4FEE4D00243888C8
:104EE00090B1ED48ED4A0168491C0160B2F900201B
:104EF000C2EB4213C3EB0222B1EB021F00DB3C808A
:104F0000298809B13C800460E5480126008800B387
:104F10003888F0B9E348E449B0F90000B1F900106D
:104F2000884216DA081AE149B1F90010884210DD0A
:104F3000DF480A21B0F9000090FBF1F0DD49098853
:104F4000401A00B2FBF7DCF9052802DA288800B91C
:104F50003E80D948D94FB0F90000012803D002287B
:104F600001D02C8036E0D649D64A2C804FF4FA6323
:104F7000012802D002281ED02CE0B2F9000010B1A6
:104F8000012803D026E0B1F916001CE0B1F91600A3
:104F90001EE02E803878401CC0B238701E2809D31D
:104FA0003C7041F288300090C7A3CDA2D2A1D8A016
:104FB000FCF70AFBF8BDB2F9000010B1012805D0DA
:104FC00008E0B1F91A009842E3DC03E0B1F91A00F5
:104FD0009842DEDB3C70F8BDAD4808B50288002180
:104FE0000AB1018008BDAB4A12884AB14FF4FA6099
:104FF0000090B5A3CCA2D2A1D7A0FCF7E5FA08BDDA
:1050000001220280A448016008BD2DE9F041D84C7E
:10501000D84D0026E676B5F90000002802DDB0F58F
:10502000FA7F02DD2E80BDE8F081207F401CC0B2F7
:1050300020773C2818D34FF494772677384623F00E
:10504000C9FD401C00B2CC4AA4F86400B5F90010B8
:10505000B2F900205143814201DCA4F86460B4F944
:105060006410384623F0E4FEB4F96400B5F900108A
:1050700090FBF1F0E076D6E710B500214FF4947084
:1050800023F0D6FEBA490020087710BD70B5BB48A2
:10509000844C0025B0F90060B948B4F90030B94A31
:1050A000B0F90010B34204DCB74EB6F90060B34269
:1050B0000CDA1580B54AB2F90020914217DA491C82
:1050C00009B20180914212D101200EE079B1B2F90A
:1050D000001005290BDA491C09B21180052906DBED
:1050E0000580AB48007810B1002000F0A3FCA9486F
:1050F000B4F90010B0F9000000EB8000B1EB400FF4
:105100000BDAA5480068002807D1BDE870401423D9
:1051100001227221D220FBF72FB870BD2DE9F04F8C
:105120009E48DFF84C829F4903789D4898F90020FB
:10513000B1F90010B0F9000088B023B1022B34D0CF
:10514000012B7ED096E1984E984B347896F801C0AA
:10515000B3F90A501F7BB3F9566093F8583022B167
:10516000012A0FD1552C14D10FE0552C03D18542C3
:1051700068DC002F66D1BCF1550F03D1864261DC9B
:10518000002B5FD108B0BDE8F08F8D42FADA002F16
:10519000F8D1BCF1550F76D18E42F3DA002B72D0E4
:1051A000F0E700BF88F80000ECE7814C724B94F800
:1051B00003C0B3F90030A76AE56F009594F8575023
:1051C0000195D4F8D050029594F8AB500395D4F8DB
:1051D0002451049594F8FF500595D4F8785106951C
:1051E00094F85351AE46D4F8CC51079594F8A75192
:1051F000D4F87462AB46D4F82052B146AA4694F86B
:10520000FB5194F84F42DBB387421BDCBCF11E0F0D
:1052100018D2012B05DD009E864213DC019E1E2E56
:1052200010D2022B05DD029E86420BDC039E1E2E51
:1052300008D2032B08DD049E864203DC059E1E2E49
:1052400001E0F5E020E01FD2042B05DD069E86423A
:105250001ADCBEF11E0F17D2052B05DD079E864214
:1052600012DCBBF11E0F0FD2062B03DD82450BDCD7
:105270001E2D09D2072B03DD814505DC1E2C03D230
:10528000012A8DD196E0D2E0F4E00000D4C00720DE
:10529000B8C10720BEC1072008C20720B2C107203D
:1052A000B4C1072068C1072088C10720B6C1072004
:1052B00066C10720A6C00720BAC1072014C4072072
:1052C00028690010BCC10720202020202020202099
:1052D000202020202020202020202020000000004E
:1052E0002020202020C7C0CFD0C5D9C5CD21212165
:1052F000202020200000000020202020202020C787
:10530000C0D0DFC42020202020202020000000006A
:105310002020202020D3D1CACED0C5CDCDDBC920BE
:10532000202020200000000020202020E7E0E1EBEA
:10533000EEEAE8F0EEE2E0ED21202020000000009F
:1053400020202020202020E7E0F0FFE42020202063
:1053500020202020000000002020202020D3F1EA7F
:10536000EEF0E5EDEDFBE92020202020000000001C
:1053700004000010E0C00720E6C00720F6C00720A8
:10538000C4C1072016C40720F8C00720FAC00720B0
:1053900075C0072098C00720F8C1072059C0072012
:1053A000CCC00720CEC0072000C107209CF50720F5
:1053B000B0F70720DBB38F42BFF6F2AEBCF10A0FA5
:1053C000BFF4EEAE022B2BDB00988842F4DA019892
:1053D0000A28F5D2032B23DB02988842ECDA0398E3
:1053E0000A28EDD2042B1BDB04988842E4DA0598E6
:1053F0000A28E5D2052B13DB06988842DCDABEF1D9
:105400000A0FDDD2062B0BDB07988842D4DABBF1FA
:105410000A0FD5D2072B03DB8A45CDDA0A2DCFD26E
:10542000082B3EDB8945C7DA0A2C3AD3AAE638E0D6
:105430001E4C1D4BB4F90050B4F90260AA461C4D35
:10544000B3F90030B4F90440D5E900C7AD68B946F6
:1054500093B182450EDCBCF1000F0BD1012B04DDB2
:10546000864207DCB9F1000F04D1022B04DD84422F
:1054700000DC0DB1012095E6012AD7D18BB18A4518
:10548000D4DABCF1000FD1D1022B04DB8E42CDDA8D
:10549000B9F1000FCAD1032B03DB8C42C6DA002D11
:1054A000C4D100207EE60000EAC0072046C20720E3
:1054B000C00D082090F900308B4200DA027090F99C
:1054C0000030934200DD0170704790F900308B424C
:1054D00000DA017090F90010914200DD027070470F
:1054E000B0F900308B4200DA0180B0F9001091422F
:1054F00000DD02807047B0F900308B4200DA028094
:10550000B0F90030934200DD0180704703688B42A0
:1055100000DA02600368934200DD0160704700001A
:1055200070B5FF48FF4B0178186811B140F00100D9
:1055300001E020F0010018600020FB4C5FF0010248
:1055400000EB400101EB001104EB810191F83D10EB
:10555000C90707D0451C02FA05F11D688D430D43AC
:105560001D6005E0411C02FA01F51968A9431960A4
:10557000401CC0B20228E3D3EC4C0020C0EBC001B9
:1055800001EB410104EB8101497831B1C51C02FAFC
:1055900005F11D688D430D4304E0C11C1D6802FA2E
:1055A00001F18D43401CC0B21D600C28E6D3284693
:1055B000DC4D002114356C5C34B101F10F0602FAA8
:1055C00006F4A043204304E001F10F0402FA04F4BE
:1055D000A043491CC9B20629EDD3D54D002118605E
:1055E0006C5C012C0FD001F1180402FA04F4A04302
:1055F000491CC9B20429F3D3CE491860097849B1CE
:1056000040F0805008E001F1180602FA06F4A043C9
:105610002043EDE720F0805018609A6820EA0201EC
:10562000D9605C680C43C4495C600D8815B124F0F6
:1056300080745C604C881CB15C6824F000745C6011
:105640008C881CB15C6824F080645C60C98819B1E6
:10565000596821F0006159608243D143B74A19610A
:10566000128812B9B64A114319611A695968114072
:10567000C3E9011070BDF8B54FF46065284623F00A
:10568000A9FA401C04463F2800D9002421B228462C
:1056900023F0CEFB40F60266304623F09BFA3F280B
:1056A00000D0204601B2304623F0C2FB284623F04A
:1056B00091FA4FF4806101EB4010054655208DF8BA
:1056C000000000268DF8016052208DF802008DF850
:1056D00003606946284623F030FC6946281D009681
:1056E00023F02BFC974CA08B8DF80000207E8DF8CA
:1056F0000100207B8DF802008DF80360694605F1FA
:10570000080023F01AFC207A8DF8000020798DF82B
:10571000010020788DF802008B48D0F880018DF8C8
:105720000300694605F10C0023F007FC41248DF8C5
:1057300000408DF801408DF802408DF80340694625
:1057400005F1100023F0F9FB8DF800408DF80140C1
:105750008DF802408DF80340694605F1140023F0EE
:10576000ECFB8DF800408DF801408DF802408DF87B
:105770000340694605F1180023F0DFFB8DF8004077
:105780008DF801408DF802408DF80340694605F11F
:105790001C0023F0D2FBF8BD2DE9F843694D604AA7
:1057A000203D00262F154FF46061012802D000280B
:1057B0007DD03CE1012010708846084623F00AFAAB
:1057C000401C04463F2800D9002421B2404623F063
:1057D0002FFB40F60269484623F0FCF93F2800D031
:1057E000204601B2484623F023FB404623F0F2F95D
:1057F00007EB401750208DF800008DF80160412420
:105800008DF802408DF803606946384623F095FB19
:105810006946381D009623F090FB05F12005A88B02
:105820008DF80000287E8DF80100287B8DF802009D
:105830008DF80360694607F1080023F07EFB287AA3
:105840008DF8000028798DF8010028788DF8020085
:105850008DF80360694607F10C0023F06EFB8DF8AC
:1058600000408DF801408DF802408DF803406946F4
:1058700007F1100023F061FB8DF800408DF8014026
:105880008DF802408DF80340694607F1140023F0BB
:1058900054FB8DF800408DF801408DF802408DF8E2
:1058A0000340694607F1180023F047FB00E011E0D0
:1058B0008DF800408DF801408DF802408DF80340CE
:1058C000694607F11C0023F038FB00230122022166
:1058D0001EA0AAE013481670B046026822F001022A
:1058E0000260164A12881AB1426822F00102426030
:1058F000084623F06FF906463446B94609EB4417CB
:105900006946384623F0E3F99DF80000502844D159
:105910009DF80100F0BB9DF8020041283DD125E033
:1059200065C0072018C007209CF50720B0F70720A6
:10593000CDC1072075C007206EC2072096C0072082
:10594000FEFFFFEF2040024000C00F404D61696E36
:1059500020706F776572206973206F6666000000A3
:10596000641E00E03F24B442C8D160E0694607F1FC
:10597000100023F0ACF99DF8000041280DD19DF8EE
:105980000100412809D19DF80200412805D19DF868
:10599000030000E001E0412802D0002CE2D0DFE764
:1059A00005F12005A88B8DF80000287E8DF80100F8
:1059B000287B8DF8020044468DF80380694607F184
:1059C000100023F0BAFA287A8DF8000028798DF8B3
:1059D000010028788DF802008DF80340694607F130
:1059E000140023F0AAFAFF48422401788DF8001031
:1059F00040788DF801008DF802408DF8034069462B
:105A000007F1180023F099FA8DF800408DF8014055
:105A10008DF802408DF80340694607F11C0023F021
:105A20008CFA01231A460221EFA021F0B8F900BF39
:105A3000BDE8F8832DE9F843F14DF04900262F1514
:105A40004FF46062012802D000287DD00BE10120D4
:105A500008709046104623F0BDF8401C04463F28CD
:105A600000D9002421B2404623F0E2F940F6026951
:105A7000484623F0AFF83F2800D0204601B2484600
:105A800023F0D6F9404623F0A5F807EB4017512044
:105A90008DF800008DF8016041248DF802408DF8EA
:105AA00003606946384623F048FA6946381D009677
:105AB00023F043FA05F12005A88B8DF80000287E1D
:105AC0008DF80100287B8DF802008DF8036069468F
:105AD00007F1080023F031FA287A8DF800002879C0
