:020000040800F2
:10000000001000207D400008C9400008C9400008D9
:1000100000000000000000000000000000000000E0
:10002000000000000000000000000000C9400008BF
:100030000000000000000000C9400008113E000858
:10004000C9400008C9400008C9400008C94000086C
:10005000C9400008ED3D0008C9400008C94000083B
:10006000C9400008C9400008C9400008C94000084C
:10007000C9400008C9400008C9400008C94000083C
:10008000C9400008C940000800000000C94000083D
:10009000C9400008C9400008C9400008853F000861
:1000A000C9400008C9400008C9400008C94000080C
:1000B000C940000800000000C9400008000000001E
:1000C0005FF808F180B582B000AF0200FB1D1A7026
:1000D000FB1D1B78002B06D0084B084A1268012133
:1000E0000A431A6005E0054B044A126801218A435D
:1000F0001A60C046BD4602B080BDC0460010024036
:1001000080B582B000AF78600A00FB1C1A70FB1C3F
:100110001B78002B06D0094B084A51697A680A43BC
:100120005A6106E0054B054A52697968C9430A409D
:100130005A61C046BD4602B080BDC04600100240B4
:1001400080B582B000AF78600A00FB1C1A70FB1CFF
:100150001B78002B06D0094B084A91697A680A433C
:100160009A6106E0054B054A92697968C9430A40DD
:100170009A61C046BD4602B080BDC0460010024034
:1001800080B582B000AF78600A00FB1C1A70FB1CBF
:100190001B78002B06D0094B084AD1687A680A43BD
:1001A000DA6006E0054B054AD2687968C9430A401F
:1001B000DA60C046BD4602B080BDC04600100240B5
:1001C00080B582B000AF78600A00FB1C1A70FB1C7F
:1001D0001B78002B06D0094B084A11697A680A433C
:1001E0001A6106E0054B054A12697968C9430A405D
:1001F0001A61C046BD4602B080BDC0460010024034
:1002000080B582B000AF786039603A687B681100D1
:10021000180004F039FB044B1B681A1D024B1A60CE
:10022000C046BD4602B080BD6800002080B582B0E7
:1002300000AF7860034B00221A60C046BD4602B092
:1002400080BDC0466800002080B588B000AF802324
:100250009B0201211800FFF753FF80235B0101215E
:100260001800FFF76DFF3B1D20221A603B1D022284
:100270001A713B1D03225A713B1D00229A713B1DCE
:100280000122DA713A1D9023DB051100180004F0F9
:10029000E9FD3B1D40221A603A1D9023DB05110049
:1002A000180004F0DFFD3B1D80221A603A1D9023E8
:1002B000DB051100180004F0D5FD3B1D414A1A6012
:1002C0003B1D01221A713B1D00229A713B1D012228
:1002D000DA713B1D01225A713A1D9023DB05110092
:1002E000180004F0BFFD9023DB0500220521180053
:1002F00004F0ACFE9023DB0500220621180004F078
:10030000A5FE9023DB0500220721180004F09EFEC5
:100310002D4B180004F0D6FB0C23FB1800221A808A
:100320000C23FB18822252005A800C23FB18E02277
:10033000D2009A800C23FB180022DA800C23FB18D1
:1003400000221A810C23FB18802292005A810C2370
:10035000FB1800229A810C23FB180022DA810C235F
:10036000FB1807221A820C23FB18174A19001000E9
:1003700004F0D6FB80235B01134A1900100004F03F
:1003800073FC9023DB0501220121180004F040FEDC
:10039000802359009023DB050122180004F038FE69
:1003A000802319029023DB050122180004F030FE9F
:1003B000054B0121180004F037FCC046BD4608B0CB
:1003C00080BDC046018100000030014080B582B090
:1003D00000AF786000F0C6F9002000F089F9D8205D
:1003E00000F098F97B681B0CDBB2180000F092F962
:1003F0007B681B0ADBB2180000F08CF97B68DBB26B
:10040000180000F087F9012000F072F900F0B8F947
:10041000C046BD4602B080BD80B584B000AFF86074
:10042000B960BB1D1A8000F09DF9002000F060F952
:10043000022000F06FF9BB681B0CDBB2180000F063
:1004400069F9BB681B0ADBB2180000F063F9BB68EE
:10045000DBB2180000F05EF907E0FB681B781800BB
:1004600000F058F9FB680133FB60BB1D1B88BA1D07
:10047000591E1180002BF0D1012000F039F900F055
:100480007FF9C046BD4604B080BDC04680B586B089
:1004900000AFF860B960BB1D1A801723FB1800225B
:1004A0001A701623FB1800221A701523FB1800225D
:1004B0001A701423FB1800221A701323FB18002251
:1004C0001A701523FB18BA681A701423FB1815222A
:1004D000BA18127852421A70BB1D1B881B0A9AB2B6
:1004E0001723FB181A701623FB18BA1D12881A70EE
:1004F0001523FB181B78002B2ED11723FB181B7814
:10050000002B16D1BB1D1A88B968FB681800FFF7CD
:1005100083FFB0E080235A00B968FB681800FFF73A
:100520007BFFBB680133FF33BB60FB680133FF33E4
:10053000FB601723FB181B781722BA18591E11707D
:10054000002BE7D11623FB181B789AB2B968FB6819
:100550001800FFF761FF8EE01723FB181B78002BB4
:1005600038D11623FA181423FB1812781B789A42F4
:1005700028D91323FB181622B9181422BA1809789F
:1005800012788A1A1A701423FB181B789AB2B96869
:10059000FB681800FFF740FF1423FB181B78BA68AC
:1005A000D318BB601423FB181B78FA68D318FB60C0
:1005B0001323FB181B789AB2B968FB681800FFF781
:1005C0002BFF58E0BB1D1A88B968FB681800FFF7BD
:1005D00023FF50E01423FB181B789AB2BB1DB91DF2
:1005E00009888A1A1A80BB1D1B881B0A9AB2172316
:1005F000FB181A701623FB18BA1D12881A701423E0
:10060000FB181B789AB2B968FB681800FFF704FF63
:100610001423FB181B78BA68D318BB601423FB188B
:100620001B78FA68D318FB600EE080235A00B96883
:10063000FB681800FFF7F0FEBB680133FF33BB60B7
:10064000FB680133FF33FB601723FB181B7817226D
:10065000BA18591E1170002BE7D11623FB181B780E
:10066000002B08D01623FB181B789AB2B968FB68D8
:100670001800FFF7D1FEC046BD4606B080BDC0469B
:1006800080B584B000AFF860B960BB1D1A8000204F
:1006900000F02EF8032000F03DF8BB681B0CDBB225
:1006A000180000F037F8BB681B0ADBB2180000F036
:1006B00031F8BB68DBB2180000F02CF809E0A52087
:1006C00000F028F803001A00FB681A70FB68013379
:1006D000FB60BB1D1B88BA1D591E1180002BEED17B
:1006E000012000F005F8C046BD4604B080BDC046FC
:1006F00080B582B000AF0200FB1D1A70FB1D1A7896
:100700009023DB050121180004F082FCC046BD46A1
:1007100002B080BD80B582B000AF0200FB1D1A7030
:10072000C0460F4B0221180004F0E4FA031EF8D073
:10073000FB1D1B780A4A1900100004F0B3FAC046EA
:10074000074B0121180004F0D5FA031EF8D0044B22
:10075000180004F0BDFA03001800BD4602B080BDC9
:100760000030014080B500AF0020FFF7C1FF062038
:10077000FFF7D0FF0120FFF7BBFFC046BD4680BD9D
:1007800090B583B000AFFB1D00221A700020FFF768
:10079000AFFF0520FFF7BEFFFC1DA520FFF7BAFF46
:1007A00003002370FB1D1B7801221340F4D10120AC
:1007B000FFF79EFFC046BD4603B090BDB0B582B006
:1007C00000AF02003960FB1D1A70FB1D1B787F2BE8
:1007D00032D92F4CFB1D1B781A000F231340083B06
:1007E00099082B4AFB1D1B7818000F230340083B78
:1007F0009B0806339B00D31804331B68FA1D12783C
:10080000100003220240D200FF2090400200D24399
:100810001A403B689B01FF201840FB1D1B781D0000
:1008200003232B40DB00984003001A438B1D9B00E1
:10083000E31804331A6027E0164CFB1D1B785BB2EB
:100840009B081449FA1D127852B29208C0329200E5
:100850005258F91D0978080003210140C900FF2002
:1008600088400100C94311403A689201FF201040BE
:10087000FA1D1278150003222A40D200904002008F
:100880000A43C0339B001A51C046BD4602B0B0BDFA
:1008900000ED00E000E100E080B582B000AF7860DC
:1008A0007B680E4A934201D9012312E00C4B7A680F
:1008B0001202120A013A5A6001235B420321180016
:1008C000FFF77CFF064B00229A60054B07221A6057
:1008D00000231800BD4602B080BDC046FFFFFF00E8
:1008E00010E000E080B586B000AF8023DB0201217C
:1008F0001800FFF705FC1023FB1802221A601023D2
:10090000FB1800221A711023FB1803225A711023BE
:10091000FB180122DA711023FB181B4A1900100082
:1009200004F0A0FA01210120FFF70AFC01210120B7
:1009300004F090FF0823FB1802221A600823FB181A
:1009400000221A710823FB180C225A710823FB1885
:1009500001229A710823FB18180004F0DDFE3B1DEC
:1009600005221A703B1D00225A703B1D01229A700D
:100970003B1D180004F0B8FF0121012004F06AFFBC
:10098000C046BD4606B080BD0004004880B500AF3B
:100990000120FFF797FB042004F0FCFFFA235B0122
:1009A0001800FFF779FFC046BD4680BD80B500AF97
:1009B0004E4B1B684E4A11001800FFF721FC4B4BB1
:1009C0001B684C4A11001800FFF71AFC474B1B68C4
:1009D000494A11001800FFF713FC444B1B68474AB3
:1009E00011001800FFF70CFC404B1B68444A110033
:1009F0001800FFF705FC3D4B1B68424A1100180028
:100A0000FFF7FEFB394B1B683F4A11001800FFF748
:100A1000F7FB364B1B683D4A11001800FFF7F0FB4F
:100A2000324B1B683A4A11001800FFF7E9FB2F4BC5
:100A30001B68384A11001800FFF7E2FB2B4B1B68BC
:100A4000354A11001800FFF7DBFB284B1B68334ABF
:100A500011001800FFF7D4FB244B1B68304A11002B
:100A60001800FFF7CDFB214B1B682E4A1100180020
:100A7000FFF7C6FB1D4B1B682B4A11001800FFF740
:100A8000BFFB1A4B1B68294A11001800FFF7B8FB7F
:100A9000164B1B68264A11001800FFF7B1FB134BD9
:100AA0001B68244A11001800FFF7AAFB0F4B1B68B4
:100AB000214A11001800FFF7A3FB0C4B1B681F4ACB
:100AC00011001800FFF79CFB084B1B681C4A110023
:100AD0001800FFF795FB054B1A6884239B05190046
:100AE0001000FFF78DFBC046BD4680BDFC02002014
:100AF0000300001FD87F607F80204041D87F2043C3
:100B000080200045D87F804780206049D87F004AF8
:100B10008020E04BD87F804C8020604ED87F404BB7
:100B20008020204D0000EC7F407C40558007EC7F0A
:100B3000C0034055000FEC7F400B40558016EC7F02
:100B4000C0124055F0B587B004AFC54B1B78012BE0
:100B50002ED1C44B1F221A60C34B32221A60C34BE2
:100B600032221A60C24B0F221A60C24B7C221A70CA
:100B7000C14B00221A70C14B00221A70C04B0122D7
:100B80001A70C04B00221A60BF4B1B78DBB2032BDC
:100B900004D0BD4B1B78DBB2062B06D1BB4B1B68C8
:100BA000BB490122180003F005FDAD4B00221A706D
:100BB000B64B1B68B74A1100180003F09FFC0300F6
:100BC0001A00AD4B1A70B14B1B68B34A11001800E4
:100BD00003F0D4FC0300DB0FDAB2A94B1A70A64B6A
:100BE0001A78A44B1A70A44B1B78F92B02D1A24B94
:100BF00000221A70A04B1B78002B02D19D4B7C2247
:100C00001A709F4B1B78012B0FD19C4B1B78002B2C
:100C10000BD09C4B1B685A1C9A4B1A60994B1B6853
:100C2000182B02DD974B00221A60984B1B681800A6
:100C300004F058FD954B1A6880239B04190010009E
:100C4000FFF7DEFA914B1B68944A11001800FFF77A
:100C5000D7FA8E4B1B68924A11001800FFF7D0FAA2
:100C6000884B1B68834A11788E4AD154854B1B6888
:100C700001338C4A0021D154844B1A68A0235B05B0
:100C800019001000FFF7BCFA804B1868864B1B68F0
:100C9000002B00DA01335B101900724B1A68814B8C
:100CA0000193C023DB0000931300282204F068FAAC
:100CB000764B1B687D4A11001800FFF7A1FA7C4BA8
:100CC00082221A60714B1B687A4A1100180004F0E6
:100CD00025FB6E4B1A68FF231B021900100004F05D
:100CE0001FFC6A4B1C68624B1D68714B1E685E4B93
:100CF0001A6813009B009B185B007B605B4B1A68B3
:100D0000584B1B685C49097889B2C020C000014378
:100D100089B2694803900291019300927B68320086
:100D20002900200004F088FC584B1B68634A11001E
:100D3000180004F0F5FB4D4B1A684D4B1B68D21898
:100D40005B4B1B68D2185A4B1A60504B1C68484BBF
:100D50001D68574B1E68444B1A6813009B009B1874
:100D60005B007B60414B1A683E4B1B684249097827
:100D700089B2C020C000014389B25148039002915A
:100D8000019300927B6832002900200004F054FC9B
:100D90003E4B1B684B4A1100180004F0C1FB334B5B
:100DA0001A68334B1B68D218414B1B68D218404B52
:100DB0001A60364B1C682E4B1D683D4B1E682A4B33
:100DC0001A6813009B009B185B007B60274B1A6816
:100DD000244B1B682849097889B2C020C000014310
:100DE00089B2394803900291019300927B683200E6
:100DF0002900200004F020FC1C4B1A681C4B1B68C7
:100E0000D2182B4B1B68D218294B1A601F4B1B683A
:100E10002E4A11001800FFF7F3F9174B1B78202B0F
:100E200058D11A4B1868124B1C68214B1D680E4B89
:100E30001A6813009B009B185B001E000B4B1A687E
:100E4000084B1B6822490391E021C90002910193DC
:100E5000009233002A00210004F080FA57E0C046D7
:100E6000F802002070000020B00000207400002074
:100E700038030020E00200209C0000209D0000209C
:100E8000B40000208000002085000020FC0200202B
:100E9000082130002C2130008C2130000700002672
:100EA000FFFFFF04B8000020000000200100001434
:100EB0000003002080404000585E0008FFFF000053
:100EC000645E000800FFFF00705E00082000000361
:100ED000785E0008BA4B1868BA4B1C68BA4B1D689C
:100EE000BA4B1A6813009B009B185B001E00B84B9E
:100EF0001A68B84B1B68B8490391C021C900029118
:100F00000193009233002A00210004F027FAAE4B2F
:100F100082221A60AA4B1C68AC4B1A6813009B0013
:100F20009B185B009D18A84B1E68A84B1A681300FD
:100F30005B009C469444A64B1A68A64B1B68A749C5
:100F4000097889B2A6480390029101930092634602
:100F500032002900200004F06FFB9D4B1A68994B6A
:100F60001B68D218984B1B68D218974B1A60944B89
:100F70001C68964B1A6813009B009B185B009D1819
:100F8000914B1E68914B1A6813005B009C46944479
:100F90008F4B1A688F4B1B689049097889B291482A
:100FA00003900291019300926346320029002000D1
:100FB00004F042FB864B1A68824B1B68D218824BA6
:100FC0001B68D218804B1A607D4B1C687F4B1A68D7
:100FD00013009B009B185B009D187B4B1E687B4B8E
:100FE0001A6813005B009C469444794B1A68794B4D
:100FF0001B687A49097889B27B4803900291019372
:101000000092634632002900200004F015FB704B6B
:101010001A686C4B1B68D2186B4B1B68D2186A4B52
:101020001A60674B1B68714A11001800FFF7E8F857
:10103000634B1C68654B1A6813009B009B185B0090
:101040009D18614B1E68614B1A6813005B009C463B
:1010500094445F4B1A685F4B1B686049097889B2FA
:101060006348039002910193009263463200290085
:10107000200004F0E1FA524B1B685E4A1100180090
:10108000FFF7BEF85C4B00221A705B4B180004F0AF
:101090004FFE03001A00584BD218584B100019008D
:1010A0000E231A0004F006FE554B1B68642118003D
:1010B00004F08AFC030001331A004F4B11001800A2
:1010C00003F038FC4C4B180004F032FE03001A0009
:1010D000494BD2184B4B1000190002231A0004F0A0
:1010E000E9FD374B1868484B1968484B1B680C3BA7
:1010F0001A00414B019380231B010093142304F039
:101100003FF8434B1B78DBB2022B0ED0404B1B78D1
:10111000DBB2032B09D03E4B1B78DBB2052B04D08E
:101120003B4B1B78DBB2062B2DD1254B1B68394A74
:1011300011001800FFF764F8214B1B68364A1100B4
:101140001800FFF75DF81E4B18682F4B1B68413BDA
:1011500019002E4B1B682A3B1A00304B03930023C7
:101160000293142301931E2300933C2304F0F6F80A
:10117000134B1B682A4A1100180003F0BFF9030043
:101180001A00284B1A700E4B1B6800211800FFF73D
:1011900037F80B4B1B68180004F08CF8084B1B68E1
:1011A0001800FFF743F8064B1B68180003F044FBD8
:1011B0000A4B1A781C4B1A70C046BD4603B0F0BDEE
:1011C000FC0200203803002000030020B0000020B3
:1011D0007400002070000020785E00089C00002051
:1011E0007C5E0008805E0008845E0008FF0000103E
:1011F000885E00080000FF04680300208C5E000881
:10120000E80200209C5E000800000020040000208E
:1012100085000020FFFFFF04F9000003A05E000826
:101220002C2130004C0000209D00002090B587B09C
:1012300004AF7A4B1B78012B53D1794B1A68DE230C
:101240005B421900100003F01FFB754B1B68002167
:10125000180003F019FB724B1868F3231A01714B45
:10126000190003F06FFA704B704A1A60C0466C4B5D
:101270001B686F4A1100180003F060F903001C009E
:10128000674B1B686B4A1100180003F057F9030005
:101290009C42ECD1624B1B68BC1D654A11001800D2
:1012A00003F04CF903002380634B00221A605C4B6F
:1012B0001B680021180004F09FF9594B1A68BB1DE8
:1012C0001B885E498C4663441900100003F056F9F0
:1012D0000200594B1A605A4B00221A604F4B0022F1
:1012E0001A704F4B1B68180004F0FCF94C4B1B683C
:1012F000180003F0F9FF4A4B1B68524A110018000E
:10130000FEF77EFF464B1B684F4A11001800FEF7A0
:1013100077FF434B1B684D4A11001800FEF770FF22
:101320003F4B1B684A4A11001800FEF769FF3C4B0F
:101330001A6880235B0419001000FEF761FF384B28
:101340001868394B1B681B78DA04F8231B041A4011
:10135000354B1B68DB685B023E490B401A43324B3E
:101360001B689B68DB05DB0D1343E022D2041343AB
:101370001900FEF745FF384B96221A60374BB4220E
:101380001A60374BFA221A602D4B1A6813005B0063
:101390009B189B001A00324B1B689A420CDD204BB5
:1013A00018682F4B1B68DB03DB0BA8225205134385
:1013B0001900FEF725FF10E0194B1868204B1A683A
:1013C00013005B009B189B001A00264B1340A822B9
:1013D000520513431900FEF713FF114B1868204BF9
:1013E0001B68DB03DB0BC822520513431900FEF711
:1013F00007FF0B4B1A6880231B0519001000FEF72E
:10140000FFFE0F4B1B68DB00FF2B2FDD044B1B681F
:10141000154A11001800FEF7F3FE35E0F80200202F
:10142000FC0200201C610008BC02002024000020F7
:10143000FC203000F8203000D8020020048030006A
:101440007C000020FFFFFF0207000026FFFFFF04D3
:101450000100001F00FE0700F0020020B80200207B
:1014600040030020FCFF0100FF000010714B1868D2
:10147000714B1B68DB001A00FF23134080225205CA
:1014800013431900FEF7BCFE6A4B18686B4B1B68D0
:101490005B056B4A1A406B4B1B681B036A490B4088
:1014A00013438022120613431900FEF7A9FE614B75
:1014B0001A6884239B0519001000FEF7A1FE5D4BFE
:1014C0001B68624A11001800FEF79AFE594B1B6810
:1014D0005F4A11001800FEF793FE564B1B685D4AE9
:1014E00011001800FEF78CFE524B1B685A4A11007F
:1014F0001800FEF785FE594B00221A70574B180052
:1015000004F016FC03001A00544BD218544B100080
:1015100019000E231A0004F0CDFB524B1B68642106
:10152000180004F051FA030001331A004B4B11006C
:10153000180003F0FFF9494B180004F0F9FB030011
:101540001A00464BD218484B1000190002231A000B
:1015500004F0B0FB374B1868444B1968444B1B68C8
:101560000C3B1A003D4B019380231B010093142375
:1015700003F006FE3F4B1B78DBB2022B0ED03D4B37
:101580001B78DBB2032B09D03A4B1B78DBB2052B5F
:1015900004D0384B1B78DBB2062B2DD1254B1B68B2
:1015A000354A11001800FEF72BFE224B1B68334A08
:1015B00011001800FEF724FE1E4B18682B4B1B6809
:1015C000413B19002A4B1B682A3B1A002C4B039302
:1015D00000230293142301931E2300933C2303F062
:1015E000BDFE144B1B68274A1100180002F086FF4D
:1015F00003001A00244B1A700E4B1B6800211800C0
:10160000FEF7FEFD0B4B1B68180003F053FE094B61
:101610001B681800FEF70AFE064B1B68180003F053
:101620000BF9054B1B685A1C034B1A60C046BD469C
:1016300003B090BDFC0200207C000020F0020020DE
:101640000000E03FB802002000F01F00000100157C
:1016500000010019FF0000100000FF0468030020D3
:101660008C5E0008E80200209C5E0008000000205C
:101670000400002085000020FFFFFF04F9000003A4
:10168000A05E00082C2130004C000020F0B589B08D
:1016900004AF2823FB601023BB60F84B1A68BB68BB
:1016A0005B00D21AF64B1968FB68C91ABB68CB1AE3
:1016B00053437B60F34B1B78012B0AD1F24B186824
:1016C000F24B1B687A68190003F06EFFED4B0022A5
:1016D0001A70EF4B1B78DBB2022B04D0EC4B1B785B
:1016E000DBB2052B22D1E84B1868E44B1B689AB299
:1016F000BB689BB2DB189BB2D31A9EB2E04B1B684F
:101700009AB2FB689BB2D31A9AB2BB689BB2D31A47
:101710009AB2DE4B1B68FD68BC68032102910193FD
:10172000009233002A00210003F06EFED84B1B7894
:10173000DBB2032B04D0D64B1B78DBB2062B24D1B3
:10174000D14B1868CD4B1B689AB2BB689BB2DB18B3
:101750009BB2D31A9EB2CA4B1B689AB2FB689BB26B
:10176000D31A9AB2BB689BB2D31A9AB2C74B1B6802
:10177000FD68BC68C749039103210291019300925F
:1017800033002A00210003F083FEBF4B1B681800C2
:1017900003F0A8FFBC4B1B68BF4A11001800FEF7FE
:1017A0002FFDB94B1B68BD4A11001800FEF728FD3C
:1017B000B54B1B68BA4A11001800FEF721FDB24B69
:1017C0001868AE4B1B681B03B64A1A40AC4B19682D
:1017D000FB68CB1A1B051B0D1343E0225205134374
:1017E0001900FEF70DFDA84B1868FB685B055B0D43
:1017F000D822520513431900FEF702FDA24B1B68C5
:10180000A94A11001800FEF7FBFC9F4B1B68A34A76
:1018100011001800FEF7F4FC9B4B1B68A04A110056
:101820001800FEF7EDFC984B1868944B1A68BB68DB
:101830005B00D31A1B039B4A1A40914B1968FB6843
:10184000C91ABB68CB1A1B051B0D1343E0225205B6
:1018500013431900FEF7D4FC8B4B1868BB68DB02FE
:10186000924A1A40FB685B055B0D1343D822520570
:1018700013431900FEF7C4FC834B1B688C4A11000C
:101880001800FEF7BDFC804B1B68844A110018004D
:10189000FEF7B6FC7C4B1B68864A11001800FEF769
:1018A000AFFC794B1A68D8235B0519001000FEF7CE
:1018B000A7FC754B1A688023DB0419001000FEF7A3
:1018C0009FFC714B1B687C4A11001800FEF798FCC6
:1018D0006D4B18686D4B1B689B029B0A802252045B
:1018E00013431900FEF78CFC674B1868634B1A68AA
:1018F000BB685B00D31A5B02704A1A40604B1968E0
:10190000FB68C91ABB68CB1ADB05DB0D1343E32266
:10191000D20413431900FEF773FC5B4B1868574B56
:101920001A68FB685B00D31A9B129B000C221A40BA
:10193000534B1968FB685B00CB1A5B121900032339
:101940000B401343A022920513431900FEF758FCE5
:101950004D4B1868494B1A68BB685B00D31A5B0291
:10196000574A1A40464B1968FB68C91ABB68CB1A1C
:10197000DB05DB0D13438122120513431900FEF72B
:101980003FFC414B18683D4B1A68FB685B00D31A5B
:101990005B129B000C221A40394B1968FB685B00F4
:1019A000CB1A5B12190003230B401343A4229205A8
:1019B00013431900FEF724FC334B1868BB681B0166
:1019C000DB03404A1A40FB681B0119003E4B0B40E9
:1019D00013438022D20513431900FEF711FC2A4B52
:1019E0001A6884239B0519001000FEF709FC264B9A
:1019F0001B682B4A11001800FEF702FC224B1868E6
:101A00001E4B1B68002B00DA01335B1019002F4BB3
:101A10000193C023DB0000931B23142203F0B0FBCF
:101A2000194B1B682A4A11001800FEF7E9FB294BE5
:101A300000221A70274B180004F07AF903001A00EC
:101A4000244BD218244B100019000E231A0004F066
:101A500031F9224B1B686421180003F0B5FF030025
:101A600001331A001B4B1100180002F063FF194BE1
:101A7000180004F05DF903001A0031E000000020B6
:101A800004000020F8020020FC020020D802002000
:101A900085000020DC050000FF0000020700002692
:101AA000FFFFFF0400F0FF00E0E0E00200F83F006D
:101AB000FFFFFF020008801C0100001F00FE07005E
:101AC00000FE03000000F83FF07F0000A85E000861
:101AD0000000FF04680300208C5E0008E80200207C
:101AE000594BD218594B1000190002231A0004F068
:101AF000E1F8574B1868574B1968574B1B680C3B5C
:101B00001A00514B019380231B010093142303F00F
:101B100037FB524B1B78DBB2022B0ED04F4B1B789E
:101B2000DBB2032B09D04D4B1B78DBB2052B04D065
:101B30004A4B1B78DBB2062B60D1454B1B68484AE9
:101B400011001800FEF75CFB414B1B68454A110071
:101B50001800FEF755FB3E4B18683E4B1B68413B97
:101B600019003D4B1B682A3B1A003F4B039300238F
:101B70000293142301931E2300933C2303F0EEFBF6
:101B8000334B1B68394A1100180002F0B7FC030000
:101B90001A00374B1A702E4B1B68364A110018007A
:101BA000FEF72EFB2A4B18682A4B1B68413B190095
:101BB000314B039300230293142301931E230093BC
:101BC0003C230C2203F0CAFB214B1B68274A11005F
:101BD000180002F093FC03001A00284B1A70274BE0
:101BE0001B78FA2B0AD11A4B1868254B1B687A68A8
:101BF000190003F0D9FC214B00221A70144B1B680A
:101C000000211800FEF7FCFA114B1B68180003F0C6
:101C100051FB0F4B1B681800FEF708FB0C4B1B68B1
:101C2000180002F009FE0A4B1A68E9235B4219000A
:101C3000100002F029FE064B1B68180002F0FCFDA4
:101C4000C046BD4605B0F0BD680300209C5E00089C
:101C5000FC0200200000002004000020850000207D
:101C6000FFFFFF04F9000003A05E00082C213000F4
:101C70004C000020FA000003B45E00084D00002074
:101C8000D802002080B500AF044B00221A60034B3D
:101C900000225A71C046BD4680BDC04644000020A7
:101CA00090B587B000AF78603960314B1B68314A1E
:101CB0001100180002F062FC03007B612C4B1B68D2
:101CC0002D4A1100180002F059FC03003B61284B1B
:101CD0001B682A4A1100180002F050FC0300FB6048
:101CE000234B1B68264A1100180002F047FC030032
:101CF000BB607B691B0C1A007B681A607A693B68C1
:101D00001A607B6804333A69120C1A603B6804332A
:101D10003A691A607B680833FA68120C1A603B68EB
:101D20000833FA681A607B680C33BA68120C1A60C0
:101D30003B680C33BA681A607B6810331C000C4B8C
:101D40001B68104A1100180002F0F8FB0300236022
:101D50003B6810331C00064B1B680B4A110018002F
:101D600002F0ECFB03002360C046BD4607B090BD07
:101D7000FC020020242130001C2130008C21300086
:101D8000902130006C2130002021300080B586B0D9
:101D900000AF786039601423FB1800221A807A683B
:101DA00080231B029A4202D17B6801337B603A6830
:101DB00080231B029A4202D13B6801333B603B689F
:101DC0005A1E1343DB0FDAB27B68D917CB1ADB0F2D
:101DD000DBB25340DBB2002B0ED03B683B617B682B
:101DE0003B603B697B601423FB181422BA181288ED
:101DF0008021C9014A401A803B68002B03DC3B6804
:101E00005B423B6007E01423FB181422BA181288C7
:101E10002D494A401A807B68DA179B1853407B6033
:101E20003A687B689A4214DD3B68FB607B683B60E4
:101E3000FB687B601423FB181422BA18128823490C
:101E40004A401A8005E03B685B103B607B685B1092
:101E50007B603A687B6813431D4A1340F3D17B686B
:101E6000002B04D11623FB1800221A801AE03A68CE
:101E70007B689A4205D11623FB18802292011A80B2
:101E800010E03B681B027968180003F027FE03008E
:101E9000BB60BA680F4BD3181B789AB21623FB1895
:101EA00052011A801623FB181622B9181422BA18E8
:101EB000098812884A401A801623FB181B881800CC
:101EC000BD4606B080BDC0460080FFFFFF3F00005A
:101ED00080FF0000BC5E000880B500AF094B002207
:101EE0001A70094BF02252011A60084B00221A6046
:101EF000074B882252011A60064B00221A60C04626
:101F0000BD4680BD3D030020EC020020F40200200D
:101F1000DC0200204403002080B500AF1F4B0022EC
:101F20001A701FE01E4B18681C4B1B781A001D4BC3
:101F30009200D358DB031C4A1A40184B1B78190037
:101F40001A4B8900CB585B045B0C13438022D205EB
:101F500013431900FEF754F9104B1B780133DAB222
:101F60000E4B1A700D4B1A78114B1B789A42D9D32D
:101F70000B4B18680B4B1B68DB030B4A1A400B4BCF
:101F80001B685B045B0C13438022D20513431900CA
:101F9000FEF736F9C046BD4680BDC046840000202D
:101FA000FC020020180300200080FF3F48030020AF
:101FB0003D03002080B500AFFFF78EFF0C4B1A6881
:101FC00080239B0519001000FEF71AF9084B1B68C7
:101FD000084A11001800FEF713F9054B1B68064A62
:101FE00011001800FEF70CF9C046BD4680BDC04682
:101FF000FC0200200D00000CFFFF070A80B582B034
:1020000000AF786039607B681A111F4B1B689A42D9
:1020100003DA7B681A111C4B1A607B681A111B4B80
:102020001B689A4203DD7B681A11184B1A603B68E3
:102030001A11174B1B689A4203DA3B681A11144BAA
:102040001A603B681A11134B1B689A4203DD3B6808
:102050001A11104B1A60104B1B781A000F4B92008C
:102060007968D1500C4B1B781A000D4B92003968DF
:10207000D150094B1B780133DAB2074B1A70C046B6
:10208000BD4602B080BDC046EC020020F402002034
:10209000DC020020440300203D0300201803002040
:1020A0004803002080B500AF054B1B68054A1100AE
:1020B0001800FEF7A5F8FFF72FFFC046BD4680BD0C
:1020C000FC0200200400001F90B59DB004AF302337
:1020D000FB1802221A702F23FB1802221A70FEF737
:1020E00001FCFEF753FC01F0F1FF02F053F8EB4B5B
:1020F000EB4A1A60012002F0E5FB002002F0ACFA86
:10210000642002F091FC482002F0A6FA0A2002F0B6
:102110008BFC9023DB0500221021180002F078FFD1
:10212000422002F091FC002002F08EFC002002F020
:102130008BFC9023DB0501221021180002F068FFC0
:102140000A2002F071FC9023DB0500221021180008
:1021500002F05EFF612002F077FC002002F074FCC8
:10216000002002F071FC9023DB05012210211800F1
:1021700002F04EFF142002F057FC002002F06CFA2F
:10218000642002F051FC5F23FB1800221A70C34B3D
:102190001B685F22BC18C34A1100180002F0AEF998
:1021A000030023700AE0BD4B1B685F22BC18BD4AC8
:1021B0001100180002F0A2F9030023705F23FB183E
:1021C0001B787C2BEFD1C8239B00BB65F0235B0001
:1021D0007B658423DB003B652E23FB640023BB640B
:1021E0000A237B64B04B3B641723FB630023BB6370
:1021F0000A237B633323FB1802221A703223FB1855
:1022000000221A703123FB1800221A70A34B1B689E
:102210003A6D92B2A549180002F0E8F99F4B1B688D
:10222000FA6C92B2A249180002F0E0F99B4B1B68CD
:10223000BA6C92B29F49180002F0D8F9974B1B680C
:102240007A6C92B29C49180002F0D0F9934B1B684B
:102250003A6C92B29949180002F0C8F98F4B1B688A
:10226000FA6B92B29649180002F0C0F98B4B1B68CA
:10227000BA6B92B29349180002F0B8F9874B1B6809
:102280007A6B92B29049180002F0B0F9834B18684B
:102290003223FB181B788D491A0002F08BF97F4B13
:1022A0001B688B490022180002F084F97B4B1868E8
:1022B0003123FB181B7887491A0002F07BF9774B12
:1022C00018683323FB181B7883491A0002F072F94F
:1022D000724B1B68BA6D92B28049180002F086F901
:1022E0006E4B1B687A6D92B27D49180002F07EF940
:1022F0006A4B1C68694B1B687A4A1100180002F08F
:10230000FDF803001A007D235B421343DBB27549DD
:102310001A00200002F04EF9604B1C685F4B1B68EE
:10232000714A1100180002F0E9F803001A007D2339
:102330005B421343DBB26C491A00200002F03AF909
:10234000564B18689623DB0068491A0002F04EF9D4
:102350008023DB0201211800FDF7D2FE3B0004229E
:102360001A603B0001221A713B0000229A713B0067
:1023700003225A713B000022DA713B005C4A1900CB
:10238000100002F06FFDFDF75FFF5A4B5A4A1A60CA
:10239000584B1B68012200211800FEF771F9564BBB
:1023A0001B78013BDAB2554B1A70554B01221A705B
:1023B000544B00221A70544B01221A70374B1B6881
:1023C000524A5349180002F02DF9344B1B68504A09
:1023D0001100180002F0D2F80300BB62484B1B78D2
:1023E000DBB2002B00D177E2454B00221A70FFF7D9
:1023F00049FC444B00221A70404B1B78DBB201337E
:10240000DBB23E4A191C1170072B02D13B4B012253
:102410001A703A4B1B78DAB2374B1A700020FDF76E
:10242000D5FF344B1B68012200211800FEF72EF85F
:10243000384B01225A71314B1B78DBB2062B00D985
:1024400033E19A00344BD3181B689F46334B344A10
:102450001A60C8239B00BB65F0235B007B65842367
:10246000DB003B652E23FB640023BB640A237B64F3
:102470000D4B3B641723FB630023BB630A237B6381
:102480003323FB1802221A703223FB1800221A7021
:102490003123FB1800221A7008E1C046FC0200201C
:1024A00088000020002030000D0200002C203000A9
:1024B00030203000382030003C20300040203000F8
:1024C000442030004C203000502030006420300088
:1024D000682030006C203000702030003420300044
:1024E0004820300090203000942030001821300027
:1024F00000040048E4020020C00200208500002003
:10250000F90200204C000020860000200051250226
:102510000C20300044000020C0600008A000002013
:10252000985D0008F14BF24A1A60C8239B00BB6516
:10253000F0235B007B658423DB003B652E23FB647B
:102540000023BB640A237B64EA4B3B641723FB63D1
:102550000023BB630A237B633323FB1802221A7018
:102560003223FB1800221A703123FB1800221A7044
:102570009CE0DE4BE04A1A60C8239B00BB65F02359
:102580005B007B658423DB003B652E23FB6400231B
:10259000BB640A237B64D74B3B641723FB63002394
:1025A000BB630A237B633323FB1802221A70322396
:1025B000FB1800221A703123FB1800221A7075E0F4
:1025C000CA4BCE4A1A60C8239B00BB65F0235B0050
:1025D0007B658423DB003B652E23FB640023BB6407
:1025E0000A237B64C34B3B641723FB630023BB6359
:1025F0000A237B633323FB1802221A703223FB1851
:1026000000221A703123FB1800221A704EE0B74BDB
:10261000BB4A1A60C8239B00BB65F0235B007B6547
:102620008423DB003B652E23FB640023BB640A2369
:102630007B64B04B3B641723FB630023BB630A231B
:102640007B633323FB1802221A703223FB1800220B
:102650001A703123FB1800221A7027E0A34BA94AF5
:102660001A60C8239B00BB65F0235B007B65842355
:10267000DB003B652E23FB640023BB640A237B64E1
:102680009C4B3B641723FB630023BB630A237B63E0
:102690003323FB1802221A703223FB1800221A700F
:1026A0003123FB1800221A7000E0C046964B1B68CD
:1026B0003A6D92B29549180001F098FF924B1B6851
:1026C000FA6C92B29249180001F090FF8E4B1B6891
:1026D000BA6C92B28F49180001F088FF8A4B1B68D0
:1026E0007A6C92B28C49180001F080FF864B1B680F
:1026F0003A6C92B28949180001F078FF824B1B684E
:10270000FA6B92B28649180001F070FF7E4B1B688D
:10271000BA6B92B28349180001F068FF7A4B1B68CC
:102720007A6B92B28049180001F060FF764B18680E
:102730003223FB181B787D491A0001F03BFF724BD6
:1027400018683123FB181B7879491A0001F032FF11
:102750006D4B1B6877490022180001F02BFF6A4B74
:1027600018683323FB181B7873491A0001F022FF05
:10277000654B1B68BA6D92B27049180001F036FFC4
:10278000614B1B687A6D92B26D49180001F02EFF03
:102790005D4B1C685C4B1B686A4A1100180001F015
:1027A000ADFE03001A007D235B421343DBB2654993
:1027B0001A00200001F0FEFE534B1C68524B1B68B0
:1027C000614A1100180001F099FE03001A007D23F0
:1027D0005B421343DBB25C491A00200001F0EAFEC1
:1027E000494B18689623DB0058491A0001F0FEFE99
:1027F000454B1B6856490022180001F0DBFE554B83
:102800001B78DBB2032B2AD13F4B1B68524A53493A
:10281000180001F007FF3C4B1B68514900221800CB
:1028200001F000FF384B1B684E490022180001F0F0
:10283000F9FE354B1B684C490022180001F0F2FEEE
:10284000314B1868F023DB0148491A0001F0EAFE19
:102850002D4B1B6846490022180001F0E3FE3D4B5A
:102860001B78DBB2062B2BD1274B186880235B0229
:102870003A491A0001F0D6FE234B1B683849002262
:10288000180001F0CFFE204B1B68364900221800CB
:1028900001F0C8FE1C4B1B6833490022180001F0F0
:1028A000C1FE194B186880235B0230491A0001F001
:1028B000B9FE154B1B682E490022180001F0B2FE2C
:1028C0002C4B00221A70094B1A682A4B1B789B006C
:1028D000D3181A68284B1A60264B1B78082B00D98E
:1028E0007CE59A00254BD3181B689F46A00000206A
:1028F000B85D00080D020000D85D0008F85D000812
:10290000185E0008385E0008FC0200202C20300011
:1029100030203000382030003C2030004020300093
:10292000442030004C203000502030006420300023
:102930006C203000682030007020300034203000DF
:1029400048203000902030009420300018213000C2
:102950005820300085000020DA720000502130003D
:1029600054213000582130005C21300060213000BB
:102970006421300078000020E8020020DC600008BC
:10298000BD4B1B68180002F0ADFEBB4B1B68BB4A79
:1029900011001800FDF734FCB74B1B68B84A110052
:1029A0001800FDF72DFCB44B1A689023DB041900C6
:1029B0001000FDF725FCB34B1B78DBB2062B00D9CA
:1029C0008EE09A00B04BD3181B689F46AA4B18683C
:1029D000BB6D002B00DA01335B1019007B6D002BFF
:1029E00000DA01335B101A00A84B019380239B008F
:1029F00000931C2302F0C4FB72E09F4B1868BB6D70
:102A0000002B00DA01335B1019007B6D002B00DA1C
:102A100001335B101A009E4B019380239B000093AF
:102A20001C2302F0ADFB5BE0934B1868BB6D002BE1
:102A300000DA01335B1019007B6D002B00DA0133E3
:102A40005B101A00934B019380239B0000931C237F
:102A500002F096FB44E0884B1868BB6D002B00DA4F
:102A600001335B1019007B6D002B00DA01335B1022
:102A70001A00894B019380239B0000931C2302F0D2
:102A80007FFB2DE07C4B1868BB6D002B00DA013317
:102A90005B1019007B6D002B00DA01335B101A000C
:102AA0007E4B019380239B0000931C2302F068FB64
:102AB00016E0714B1868BB6D002B00DA01335B1018
:102AC00019007B6D002B00DA01335B101A00744B88
:102AD000019380239B0000931C2302F051FBC0460E
:102AE000654B1B686F4A11001800FDF789FB6E4BA0
:102AF00000221A706C4B180003F01AF903001A0038
:102B0000694BD218694B100019000E231A0003F00C
:102B1000D1F8674B1B686421180002F055FF0300D1
:102B200001331A00604B1100180001F003FF5E4BE7
:102B3000180003F0FDF803001A005B4BD2185D4B40
:102B40001000190002231A0003F0B4F84A4B186869
:102B50007B6D0C3B1A00B96D534B019380231B0115
:102B60000093142302F00CFB464B1B78DBB2032BC3
:102B700004D0444B1B78DBB2062B2BD13E4B1B6899
:102B80004D4A11001800FDF73BFB3B4B1B684B4ABD
:102B900011001800FDF734FB374B1868BB6D413B43
:102BA00019007B6D2A3B1A00454B039300230293C7
:102BB000142301931E2300933C2302F0CFFB2E4BE2
:102BC0001B68404A1100180001F098FC03001A002D
:102BD0003D4B1A702B4B1B78DBB2022B04D0294BD8
:102BE0001B78DBB2052B2FD1384B1B78002B2BD158
:102BF000214B1B68304A11001800FDF701FB1E4BEA
:102C00001B682E4A11001800FDF7FAFA1A4B1868D3
:102C1000BB6D413B19007B6D2A3B1A00284B039387
:102C200000230293142301931E2300933C2302F0FC
:102C300095FB114B1B68234A1100180001F05EFC44
:102C400003001A00204B1A700B4B1B680021180060
:102C5000FDF7D6FA084B1B68180002F02BFB064B59
:102C60001B681800FDF7E2FA034B1B68180001F01F
:102C7000E3FD01F07FF8C046FC020020FFFFFF02E9
:102C8000070000268500002000610008BC5F0008E6
:102C9000D85F0008F05F00080860000824600008A2
:102CA0003C6000080000FF04680300208C5E000800
:102CB000E80200209C5E0008FFFFFF04F90000030B
:102CC000A05E00082C2130004C000020860000206F
:102CD000CB4B1B78012B00D093E0CA4B1B78012B08
:102CE00000D08EE0C84B1B78DBB2022B05D0C64B60
:102CF0001B78DBB2052B00D083E0C44B00225A7155
:102D0000C34B1B68180002F0EDFCC14B1A6880230E
:102D10009B0419001000FDF773FABD4B1B68BD4AF8
:102D200011001800FDF76CFAB94B1B68BA4A110084
:102D30001800FDF765FAB64B1868BB6D002B00DA7A
:102D400001335B1019007B6D002B00DA01335B103F
:102D50001A00B24B0193C023DB0000931B2302F047
:102D60000FFAAB4B1B680021180002F0F9FBA84BCF
:102D70001B6800211800FDF743FAA54B1B681800DB
:102D800002F098FAA24B1B681800FDF74FFAA04B0F
:102D90001B68180001F050FD9A4B00221A709B4BE3
:102DA00001225A719A4B1B68180002F09BFC984B49
:102DB0001B689B4A11001800FDF722FA944B1B6810
:102DC000944A11001800FDF71BFA914B1B68924AB8
:102DD00011001800FDF714FA8D4B1B680021180034
:102DE000FDF70EFA8A4B1B68180002F063FA884B55
:102DF0001B681800FDF71AFA854B1B68180001F0D4
:102E00001BFDFEF713FA00F0B5FF814B1B688549E7
:102E10000122180001F0CEFB7B4B1B78DBB2022BAA
:102E200010D0794B1B78DBB2032B0BD0764B1B7881
:102E3000DBB2052B06D0744B1B78DBB2062B01D01E
:102E400000F097FF724B1B68774A1100180001F0E1
:102E500095FB03007B626E4B1B68744A11001800DF
:102E600001F08CFB03003B62694B1B68704A110048
:102E7000180001F083FB0300FB61654B1B686D4A82
:102E80001100180001F07AFB0300BB61604B1B6866
:102E9000694A1100180001F071FB03007B615C4B73
:102EA0001B68664A1100180001F068FB03003B61D3
:102EB000FEF7ECFB00F05DFF554B1B685949002203
:102EC000180001F077FB524B1B685D4A1100180097
:102ED000FDF796F94E4B1B685A4A11001800FDF792
:102EE0008FF94B4B1B684B4A11001800FDF788F90E
:102EF000474B1A6888239B0519001000FDF780F9DD
:102F0000434B1B68444A11001800FDF779F9404B08
:102F10001868BB6D002B00DA01335B1019007B6D64
:102F2000002B00DA01335B101A00474B0193C023DA
:102F3000DB0000931B2302F023F9354B1B68434A47
:102F400011001800FDF75CF9414B00221A70404B4C
:102F5000180002F0EDFE03001A003D4BD2183D4B65
:102F6000100019000E231A0002F0A4FE3A4B1B6851
:102F70006421180002F028FD030001331A00344BCD
:102F80001100180001F0D6FC314B180002F0D0FE01
:102F900003001A002E4BD218304B100019000223E8
:102FA0001A0002F087FE1A4B18687B6D0C3B1A0062
:102FB000B96D274B019380231B010093142302F06A
:102FC000DFF8134B1B68264A11001800FDF718F9AB
:102FD0000F4B1B68180001F02FFC224A224B1100F6
:102FE0001800FEF75DFE214B00221A60204B0022E4
:102FF0001A60204B00221A701F4B00221A6065E0F5
:10300000F8020020860000208500002044000020F7
:10301000FC02002007000026FFFFFF0454600008A8
:10302000FFFFFF0208213000502130005421300002
:10303000582130005C2130006021300064213000D4
:1030400000FFFFFF500000026C6000080000FF045A
:10305000680300208C5E0008E80200209C5E0008E7
:103060004040400404030020C40200205C00002013
:10307000600000206400002050000020AA4B1A6865
:10308000AA4B9200D25880231B029A4219D0A64B19
:103090001A68A64B9200D258A54B1B68D218A44BB5
:1030A0001A60A14B1A68A34B9200D258A24B1B681E
:1030B000D218A14B1A60A14B1B780133DAB29F4B97
:1030C0001A70994B1B685A1C974B1A60964B1B68D9
:1030D000042BD3DD994B1B78002B17D0944B1A6827
:1030E000964B1B781900100002F0F8FC03001A0040
:1030F0008F4B1A60904B1A68904B1B781900100088
:1031000002F0ECFC03001A008B4B1A608B4B1B780F
:10311000002B27D0844B00221A601FE0824B1C68D2
:10312000814B1A68814B9200D258814B1B68D01A90
:103130007D4B1A687F4B9200D2587F4B1B68D31A85
:103140001900FEF723FE03001B0A9BB2DAB27C4B88
:103150001A55754B1B685A1C734B1A60724B1B68CF
:10316000042BDBDDFEF726FF764B00221A6032E0EF
:103170006D4B00221A6025E06B4B1B68704AD35CD4
:103180001A00704B1B689A4217D1674B1A68674B3D
:103190009200D25880231B029A420ED0624B1A68CA
:1031A000624B9200D35818015F4B1A68614B920032
:1031B000D3581B011900FEF721FF5B4B1B685A1CFB
:1031C000594B1A60584B1B68042BD5DD5D4B1B68AF
:1031D0005A1C5C4B1A605B4B1B68FF2BC8DD5A4BBB
:1031E0001B685A4A11001800FDF70AF8564B1B6875
:1031F000574A11001800FDF703F8534B1B68554A56
:1032000011001800FCF7FCFF4F4B1B68524A1100DD
:103210001800FCF7F5FF4C4B1B68504A11001800D2
:10322000FCF7EEFF484B1A6880231B0619001000BC
:10323000FCF7E6FF444B1B68494A11001800FCF7F5
:10324000DFFF414B1A688C239B0519001000FCF727
:10325000D7FF3D4B1B68434A11001800FCF7D0FF15
:10326000394B1B68404A11001800FCF7C9FFFEF7F4
:1032700019FF3E4B1B78DBB2022B0ED03B4B1B7869
:10328000DBB2032B09D0394B1B78DBB2052B04D002
:10329000364B1B78DBB2062B2BD12B4B1B68344AE9
:1032A00011001800FCF7ACFF274B1B68314A1100D6
:1032B0001800FCF7A5FF244B1868BB6D413B1900B3
:1032C0007B6D2A3B1A002C4B03930023029314239B
:1032D00001931E2300933C2302F040F81A4B1B6815
:1032E000264A1100180001F009F903001A00244BC6
:1032F0001A70154B1B6800211800FCF781FF124B58
:103300001B68180001F0D6FF0F4B1B68180001F076
:1033100081FF0D4B1B681800FCF788FF00F02AFDA9
:10332000FDF710FC00F026FD50000020C402002034
:103330005C000020040300206000002064000020E6
:10334000A400002054000020FC020020FF00001018
:103350000F0000201100000BFFFF050A0900001FED
:10336000000011BCFF8080041800000E85000020C2
:10337000FFFFFF04F9000003A05E00082C213000CD
:103380004C0000207B6D313BFB60BB6D002B00DAF5
:1033900001335B10BB60D74B1B68180002F0A2F929
:1033A000D44B1B68D44A11001800FCF729FFD14BFD
:1033B0001B68D24A11001800FCF722FFCD4B1A6897
:1033C0009023DB0419001000FCF71AFFC94B1C689E
:1033D000BB6D0521180002F081FB03001B011A00E0
:1033E000C74B1340D0221205134319002000FCF7ED
:1033F00007FFC04B1B68C34A11001800FCF700FF11
:10340000BC4B1C68BB6D0521180002F067FB030074
:103410001B01DB03BC4A1A407B6D002B00DA013331
:103420005B101B011900B94B0B4013438022D205DE
:10343000134319002000FCF7E3FEAE4B1B68B44AAF
:1034400011001800FCF7DCFEAA4B1C68BB6D0621BE
:10345000180002F043FB03001B011A00A84B1340A5
:10346000D0221205134319002000FCF7C9FEA14B1E
:103470001C68BB6D5B000521180002F02FFB0300E8
:103480001B01DB03A04A1A407B6D002B00DA0133DD
:103490005B101B0119009D4B0B4013438022D2058A
:1034A000134319002000FCF7ABFE924B1B68994AAE
:1034B00011001800FCF7A4FE8E4B1C68BB6D0721A1
:1034C000180002F00BFB03001B011A008C4B134089
:1034D000D0221205134319002000FCF791FE854B02
:1034E0001C68BA6D13005B009B180521180002F0E0
:1034F000F5FA03001B01DB03834A1A407B6D002BA6
:1035000000DA01335B101B011900804B0B401343A1
:103510008022D205134319002000FCF771FE754B81
:103520001B687D4A11001800FCF76AFE714B186891
:10353000BB6D002B00DA0733DB101B011A00704B48
:103540001340D022120513431900FCF759FE694BB2
:103550001C68BB6D9B000521180002F0BFFA030038
:103560001B01DB03684A1A407B6D002B00DA013334
:103570005B101B011900654B0B4013438022D205E1
:10358000134319002000FCF73BFE5A4B1B68634AAB
:1035900011001800FCF734FE564B1A6884239B0573
:1035A00019001000FCF72CFE524B1868FA68B96835
:1035B0005B4B019380239B0000931F2301F0E0FDF0
:1035C0004C4B1B68574A11001800FCF719FE564B6C
:1035D00000221A70544B180002F0AAFB03001A00D4
:1035E000514BD218514B100019000E231A0002F053
:1035F00061FB4F4B1B686421180002F0E5F90300E2
:1036000001331A00484B1100180001F093F9464BA2
:10361000180002F08DFB03001A00434BD218454BF3
:103620001000190002231A0002F044FB314B186805
:103630007B6D0C3B1A00B96D3B4B019380231B0142
:103640000093142301F09CFD3B4B1B78DBB2022B53
:103650000ED0394B1B78DBB2032B09D0364B1B78CD
:10366000DBB2052B04D0344B1B78DBB2062B2BD1FD
:10367000204B1B68314A11001800FCF7C1FD1D4B9F
:103680001B682F4A11001800FCF7BAFD194B186887
:10369000BB6D413B19007B6D2A3B1A00294B0393FC
:1036A00000230293142301931E2300933C2301F073
:1036B00055FE104B1B68244A1100180000F01EFF35
:1036C00003001A00214B1A700A4B1B6800211800D6
:1036D000FCF796FD074B1B68180001F0EBFD054B4E
:1036E0001B681800FCF7A2FD024B1B68180001F0D4
:1036F000A3F83FE3FC020020FFFFFF0207000026C3
:10370000F01F00000200001F0000F83FF07F0000E3
:103710000080000480000004008080048080000499
:103720008C6000080000FF04680300208C5E000825
:10373000E80200209C5E000885000020FFFFFF04D7
:10374000F9000003A05E00082C2130004C0000208E
:10375000CF4B1B68180001F0C5FFCD4B1A688023C2
:103760009B0419001000FCF74BFDC94B1B68C94AAC
:1037700011001800FCF744FDC54B1B68C64A110038
:103780001800FCF73DFDC24B1868BB6D002B00DA3A
:1037900001335B101900C14B0193C023DB00009380
:1037A0001B23142201F0ECFCB94B1868BB6D002BF5
:1037B00000DA01335B101900B94B0193C023DB0021
:1037C00000931B233C2201F0DBFCB14B1B68B54A84
:1037D00011001800FCF714FDB34B00221A70B24B15
:1037E000180002F0A5FA03001A00AF4BD218AF4B35
:1037F000100019000E231A0002F05CFAAC4B1B6893
:103800006421180002F0E0F8030001331A00A64B0F
:103810001100180001F08EF8A34B180002F088FA8E
:1038200003001A00A04BD218A24B1000190002236B
:103830001A0002F03FFA964B18687B6D0C3B1A0099
:10384000B96D994B019380231B010093142301F060
:1038500097FC994B1B78DBB2022B0ED0964B1B7852
:10386000DBB2032B09D0944B1B78DBB2052B04D0C1
:10387000914B1B78DBB2062B33D1854B1B68864AF4
:1038800011001800FCF7BCFC814B1B688B4A11002F
:103890001800FCF7B5FC7E4B1868BB6D413B190066
:1038A0007B6D2A3B1A00864B03930023029314235B
:1038B00001931E2300933C2301F050FD744B1B68C1
:1038C000804A1100180000F019FE03001A007E4B18
:1038D0001A706F4B1A68A0235B0519001000FCF7E3
:1038E0008FFC6B4B1B686C4A11001800FCF788FCBE
:1038F000674B1B68180001F0F7FC744B1A68744B97
:103900001B789B00D3181B689A0813005B009A1859
:10391000674B1B689A4212D25D4B1868BB6D002B37
:1039200000DA01335B1019007B6D002B00DA0133E4
:103930005B101A0000230093002301F085FC634B09
:103940001A68634B1B789B00D3181B689A081300F6
:103950005B009A18564B1B689A421ED35B4B1A6841
:103960005B4B1B789B00D3181B685A08504B1B6895
:103970009A4212D2464B1868BB6D002B00DA013315
:103980005B1019007B6D002B00DA01335B101A000D
:1039900000230093012301F057FC4C4B1A684C4B59
:1039A0001B789B00D3181B685A08414B1B689A422E
:1039B0001ED3464B1A68464B1B789B00D3181B68D6
:1039C0009A083B4B1B689A4212D2314B1868BB6D68
:1039D000002B00DA01335B1019007B6D002B00DA3D
:1039E00001335B101A0000230093022301F02CFC2A
:1039F000364B1A68364B1B789B00D3181B689A0805
:103A00002B4B1B689A4212D3214B1868BB6D002BBD
:103A100000DA01335B1019007B6D002B00DA0133F3
:103A20005B101A0000230093032301F00DFC224BCE
:103A30001B78DBB2022B0ED01F4B1B78DBB2032BA3
:103A400009D01D4B1B78DBB2052B04D01A4B1B7819
:103A5000DBB2062B06D10E4B1B681E4A1100180064
:103A6000FCF7CEFB0A4B1B6800211800FCF7C8FBD3
:103A7000074B1B68180001F01DFC054B1B68180064
:103A8000FCF7D4FB024B1B68180000F0D5FE71E177
:103A9000FC02002007000026FFFFFF0494600008DE
:103AA000B06000080000FF04680300208C5E00087E
:103AB000E80200209C5E000885000020F900000359
:103AC000A05E00082C2130004C000020A000002047
:103AD0007800002001000014A74B1B68180001F0BB
:103AE00001FEA54B1B68A54A11001800FCF788FBD6
:103AF000A14B1B68A24A11001800FCF781FB9E4BEA
:103B00001B68A04A11001800FCF77AFB9A4B1B684F
:103B10009D4A11001800FCF773FBFCF747FF964B1A
:103B20001B689A4A11001800FCF76AFB924B1B684D
:103B3000974A11001800FCF763FBFCF737FF8E4B28
:103B40001A688023DB0419001000FCF759FB8A4B2C
:103B50001B68904A11001800FCF752FB864B1B684B
:103B60008D4A11001800FCF74BFB834B1B688B4AF6
:103B700011001800FCF744FB7F4B1B68884A1100BA
:103B80001800FCF73DFB7C4B1B68864A11001800AF
:103B9000FCF736FB784B1B68834A11001800FCF7D2
:103BA0002FFB754B1B68814A11001800FCF728FB9E
:103BB000714B1A6884239B0519001000FCF720FB49
:103BC0006D4B1B687A4A11001800FCF719FB794B02
:103BD00000221A70774B180002F0AAF803001A00AE
:103BE000744BD218744B100019000E231A0002F007
:103BF00061F8724B1B686421180001F0E5FE0300B8
:103C000001331A006B4B1100180000F093FE694B52
:103C1000180002F08DF803001A00664BD218684BAA
:103C20001000190002231A0002F044F8524B1868E1
:103C30007B6D0C3B1A00B96D5E4B019380231B0119
:103C40000093142301F09CFA5E4B1B78DBB2022B2D
:103C50000ED05C4B1B78DBB2032B09D0594B1B7881
:103C6000DBB2052B04D0574B1B78DBB2062B2BD1D4
:103C7000414B1B68544A11001800FCF7C1FA3E4B37
:103C80001B68524A11001800FCF7BAFA3A4B186840
:103C9000BB6D413B19007B6D2A3B1A004C4B0393D3
:103CA00000230293142301931E2300933C2301F06D
:103CB00055FB314B1B68474A1100180000F01EFCF1
:103CC00003001A00444B1A702B4B1B68002118008C
:103CD000FCF796FA284B1B68180001F0EBFA264B0C
:103CE0001B681800FCF7A2FA234B1B68180000F0B1
:103CF000A3FD3FE0204B1B68180001F0F3FC1E4BB6
:103D00001B68364A11001800FCF77AFA1A4B1B6838
:103D10001B4A11001800FCF773FA174B1B680021AF
:103D20001800FCF76DFA144B1B68180001F0C2FA7A
:103D3000114B1B681800FCF779FA0F4B1B68180031
:103D400000F07AFD264B01221A701E4B1B78DBB265
:103D5000013BDAB21B4B1A70224B00221A70224B25
:103D60001A68204B1B789B00D3181A68134B1A60F3
:103D700000E0C046FEF732FBFC020020E0E8EC0267
:103D800007000026889DAA043F00000EFAFAFA04F4
:103D90003000000E0100001FCDBD059EE1BD859FD6
:103DA000E9BD85A0EEBDE5A0F3BD65A2AEBDC5A38E
:103DB0000000FF04680300208C5E0008E802002079
:103DC0009C5E000885000020FFFFFF04F90000034F
:103DD000A05E00082C2130004C000020FFFFFF02F5
:103DE000F902002078000020A000002080B500AF7C
:103DF000022001F001FD031E05D0044B01221A70C0
:103E0000022001F019FDC046BD4680BDA90000207A
:103E100080B500AF504B5B79012B00D075E04E4B65
:103E20001B685A1C4C4B1A604B4B1B680A2118002C
:103E300001F050FE0B1E68D1484B1B685A1E474BC1
:103E40001A60464B1B68002B25D1454B1B7801336C
:103E5000DAB2434B1A70434B1A68414B1B789B00F4
:103E6000D3181A683D4B1A600EE03D4B1B780133A6
:103E7000DAB23B4B1A703B4B1A68394B1B789B00EC
:103E8000D3181A68354B1A60344B1B68002BECD0E2
:103E9000354B01221A70354B1B78F92B35D1314B3C
:103EA0001A682F4B1B789B00D3181B68323B1A00F3
:103EB0002A4B1B689A4228D92C4B00221A70284B97
:103EC0001B780133DAB2264B1A70264B1A68244B42
:103ED0001B789B00D3181A68204B1A600EE0204B09
:103EE0001B780133DAB21E4B1A701E4B1A681C4B3A
:103EF0001B789B00D3181A68184B1A60174B1B6865
:103F0000002BECD0184B01221A70194B1B78DBB236
:103F1000002B1ED0174B1B78DBB20133DAB2154BE6
:103F20001A70144B1B78DBB2052B12D1114B0022F7
:103F30001A70114B0221180001F046F8031E05D13A
:103F40000E4B01221A700E4B01221A70084B0022F0
:103F50001A70C046BD4680BD44000020E802002023
:103F600078000020A0000020F80200204C00002073
:103F7000A90000204100002000040048F9020020B0
:103F80008600002080B500AF80239B01394A1900CC
:103F9000100000F0D3FE031E0DD080239B01354A94
:103FA0001900100000F00EFF334B1B78DBB2013319
:103FB000DAB2314B1A7080235B012E4A19001000CF
:103FC00000F0BCFE031E06D080235B01294A1900C5
:103FD000100000F0F7FE80239B00264A1900100015
:103FE00000F0ACFE031E06D080239B00214A19007E
:103FF000100000F0E7FE80231B011E4A190010008C
:1040000000F09CFE031E06D080231B01194A1900F4
:10401000100000F0D7FE8023DB00164A19001000C4
:1040200000F08CFE031E06D08023DB00114A19002D
:10403000100000F0C7FE0F4B1021180000F07EFEAC
:10404000031E04D00B4B1021180000F0BBFE802390
:104050005B00084A1900100000F070FE031E06D035
:1040600080235B00034A1900100000F0ABFEC0463D
:10407000BD4680BD005400403C0300200C488546EE
:10408000002103E00B4B5B58435004310A480B4BB3
:1040900042189A42F6D30A4A02E00023136004321F
:1040A000084B9A42F9D300F099FEFEF70DF8FEE7AF
:1040B000001000204C700008000000203800002094
:1040C000380000207C030020FEE7000080B582B0AD
:1040D00000AF3B00180000F05DFF80239B02012130
:1040E0001800FCF70DF83B0010221A603B0001227B
:1040F0001A713B0003225A713B0000229A713B0067
:104100000022DA713A009023DB051100180000F05C
:10411000A9FE3B0004221A603B0001221A713B00F9
:1041200003225A713B0000229A713B000022DA718F
:104130003A009023DB051100180000F093FE3B00CD
:10414000180000F027FF3B0002221A603B0000220B
:104150001A713B0003225A713B000122DA713A00C6
:104160009023DB051100180000F07CFE9023DB0596
:1041700001220421180000F04BFF9023DB050122EF
:104180001021180000F044FF01231800BD4602B0C2
:1041900080BDC04680B588B000AF80239B0201215E
:1041A0001800FBF7ADFF80235B0101211800FBF72E
:1041B000C7FF3B1D20221A603B1D02221A713B1DC6
:1041C00003225A713B1D00229A713B1D0122DA71B4
:1041D0003A1D9023DB051100180000F043FE3B1D43
:1041E00040221A603A1D9023DB051100180000F0F0
:1041F00039FE3B1D80221A603A1D9023DB05110019
:10420000180000F02FFE3B1D10221A603B1D0122FA
:104210001A713B1D00229A713B1D0122DA713B1D70
:1042200001225A713A1D9023DB051100180000F09D
:1042300019FE9023DB0500220521180000F006FF7F
:104240009023DB0500220621180000F0FFFE9023DA
:10425000DB0500220721180000F0F8FE214B1800B2
:1042600000F030FC0C23FB1800221A800C23FB18F2
:10427000822252005A800C23FB18E022D2009A803E
:104280000C23FB180022DA800C23FB1800221A8171
:104290000C23FB18802292005A810C23FB18002269
:1042A0009A810C23FB180022DA810C23FB180722C9
:1042B0001A820C23FB180B4A1900100000F030FC86
:1042C00080235B01074A1900100000F0CDFC054B6C
:1042D0000121180000F0A8FC01231800BD4608B019
:1042E00080BDC0460030014080B584B000AFF860AA
:1042F0007A600B23FB180A1C1A700B23FB181B781F
:10430000002B1ED19023DB0500221021180000F0A5
:104310007FFE7B681B0CDBB2180000F095FB7B680E
:104320001B0ADBB2180000F08FFB7B68DBB21800C1
:1043300000F08AFB002000F087FBFB6801221A7363
:1043400021E09023DB0500221021180000F060FE20
:104350007B681B0CDBB23F221340DBB2802252424F
:104360001343DBB2180000F06FFB7B681B0ADBB263
:10437000180000F069FB7B68DBB2180000F064FBFA
:10438000FB6802221A73C046BD4604B080BDC04619
:1043900080B582B000AF786008001100FB1C021CE1
:1043A0001A703B000A1C1A807B681B89C222920388
:1043B0009A18FB1C19787B681800FFF795FFC04618
:1043C000BD4602B080BDC04680B582B000AF786007
:1043D0000A00FB1C1A70FB1C1B78180000F034FB51
:1043E00003001800BD4602B080BDC04680B584B051
:1043F00000AF78600A00BB1C1A800E23FB18002255
:104400001A807B681B7B022B12D1BB1C1B88DAB283
:104410007B6811001800FFF7D7FFBB1C1B881B0A25
:104420009BB2DAB27B6811001800FFF7CDFF1AE0EB
:104430007B6800211800FFF7C7FF03001A000E2356
:10444000FB181A807B6800211800FFF7BDFF0300EE
:104450001B021AB20E23FB1800215B5E13431AB233
:104460000E23FB181A800E23FB181B881800BD466C
:1044700004B080BD80B584B000AF7860396000239F
:10448000FB607B681B7B022B0FD13B689AB27B6879
:1044900011001800FFF7AAFF3B681B0C9AB27B685B
:1044A00011001800FFF7A2FF10E07B680021180040
:1044B000FFF79CFF0300FB607B6800211800FFF7FB
:1044C00095FF03001B04FA681343FB60FB681800A8
:1044D000BD4604B080BDC04680B582B000AF7860F4
:1044E0009023DB0501221021180000F091FD7B686C
:1044F00000221A73C046BD4602B080BD90B585B09B
:1045000000AF786039603A687B6800211800FFF7D7
:10451000EBFE0F23FC187B6800211800FFF754FF07
:10452000030023707B681800FFF7D6FF0F23FB18EA
:104530001B781800BD4605B090BDC04690B585B04B
:1045400000AF786039603A687B6800211800FFF797
:10455000CBFE0E23FC187B6800211800FFF746FFF6
:10456000030023807B681800FFF7B6FF0E23FB18BB
:104570001B881800BD4605B090BDC04680B584B00C
:1045800000AF786039603A687B6800211800FFF757
:10459000ABFE7B6800211800FFF76CFF0300FB6097
:1045A0007B681800FFF798FFFB681800BD4604B051
:1045B00080BDC04680B584B000AFF860B960FB1D17
:1045C0001A70BA68FB6801211800FFF78DFEFB1D09
:1045D0001A78FB6811001800FFF7F6FEFB68180058
:1045E000FFF77AFFC046BD4604B080BD80B584B0F9
:1045F00000AFF860B960BB1D1A80BA68FB68012182
:104600001800FFF771FEBB1D1A88FB681100180027
:10461000FFF7ECFEFB681800FFF75EFFC046BD46E3
:1046200004B080BD80B584B000AFF860B9607A6036
:10463000BA68FB6801211800FFF756FE7A68FB682C
:1046400011001800FFF716FFFB681800FFF744FF82
:10465000C046BD4604B080BD80B582B000AF020048
:10466000FB1D1A709023DB0500221021180000F0BA
:10467000CFFCFB1D1B78180000F0E6F9002000F0CD
:10468000E3F9002000F0E0F99023DB05012210217E
:10469000180000F0BDFCC046BD4602B080BDC0465B
:1046A00080B582B000AF78600A00BB1C1A807B68BE
:1046B0001A89BB1C1B88D3189BB21B051B0D9AB211
:1046C0007B681A817B681B8903339BB2074A1340BE
:1046D0009AB27B681A817B681A8905497B68180041
:1046E000FFF784FFC046BD4602B080BDFC0F00004E
:1046F000FC20300090B585B000AF78607B681C89E5
:104700000E4A7B6811001800FFF718FF0300E31A38
:104710009AB20E23FB181205120D1A800C23FB18F7
:104720000E22BA18128806498A1A1A800C23FB181E
:104730001B881800BD4605B090BDC046F82030006B
:10474000FC0F000080B586B000AFF860B960BB1DFB
:104750001A8000237B6100233B61BB1D1B887B61AA
:10476000FB681800FFF7C6FF03001A007B699A4236
:1047700005D2FB681800FFF7BDFF03007B617B6972
:104780009AB2FB681100180000F03CF87B699AB2FD
:10479000FB6801211800FFF7FBFD00233B610CE0E3
:1047A000BB681A78FB6811001800FFF70DFEBB68A4
:1047B0000133BB603B6901333B617B695A1E7A61FF
:1047C000002BEDD13B697B61FB681800FFF784FE8D
:1047D0007B699AB2FB6811001800FFF761FFFB6864
:1047E000180000F029F87B699AB2BB1DB91D098831
:1047F0008A1A1A80BB1D1B88002BAED1C046BD464D
:1048000006B080BD90B585B000AF78600A00BB1CD3
:104810001A800E23FC187B681800FFF76BFF03005B
:1048200023800E23FA18BB1C12881B889A42F0D3EF
:10483000C046BD4605B090BD90B583B000AF78606E
:10484000C0460F4A7B6811001800FFF777FE03008F
:104850001C000C4A7B6811001800FFF76FFE030074
:104860009C42EED1074A7B6811001800FFF766FEF4
:1048700003001A007B681A81C046BD4603B090BD94
:10488000F8203000FC20300080B582B000AF7860A6
:1048900039607B6804211800FFF7B4FF7B681B892F
:1048A000C222920399183A687B681800FFF7BAFE93
:1048B0007B6804211800FFF7F3FEC046BD4602B036
:1048C00080BDC04680B582B000AF0200FB1D1A70EB
:1048D000FB1D1B78002B14D09023DB050022042144
:1048E000180000F095FB142000F09EF89023DB05E3
:1048F00001220421180000F08BFB142000F094F832
:1049000013E09023DB0501220421180000F080FB56
:10491000142000F089F89023DB0500220421180000
:1049200000F076FB142000F07FF8C046BD4602B0D0
:1049300080BDC04680B58EB000AF786039603B68FE
:104940003B632B23FB1800221A707B68180001F0D0
:10495000EFF903007B627B6A7A68D3187B633B685C
:10496000002B0BD17B6B5A1C7A6330221A707B6B45
:104970005A1C7A6300221A70002351E03B6B002B13
:104980002CDA7B6B5A1C7A632D221A703B6B5B42CC
:104990003B6323E03B6B3B623B6B0A21180001F059
:1049A0009DF803003B633B6B0A22524253433A6A31
:1049B000D3183B623B6ADAB21F23FB1830321A70FD
:1049C0002B23FB181B782B22BA18591C11701900C5
:1049D0000C23FB181F22BA1812785A543B6B002B79
:1049E000D8DC0023FB620FE07B6B5A1C7A632B221E
:1049F000BA181178FA6A8A1A013A0C2179188A5C75
:104A00001A70FB6A0133FB622B23FB181A78FB6ACE
:104A10009A42E9DC7B6B5A1C7A6300221A700023ED
:104A20001800BD460EB080BD80B582B000AF020058
:104A3000BB1D1A80BB1D1B88180000F02DF8C04656
:104A4000BD4602B080BDC04680B582B000AF020056
:104A5000FB1D1A70C0460F4B0221180000F04AF9E6
:104A6000031EF8D0FB1D1B780A4A1900100000F045
:104A700019F9C046074B0121180000F03BF9031E4D
:104A8000F8D0044B180000F023F903001800BD46CD
:104A900002B080BD0030014080B584B000AF7860C6
:104AA0000023FB607B68C8225343FB6002E0FB6885
:104AB000013BFB60FB68002BF9D1C046BD4604B04A
:104AC00080BDC04680B582B000AF78607B68124A76
:104AD00093420CD180235B0101211800FBF750FBAE
:104AE00080235B0100211800FBF74AFB0FE07B6885
:104AF0000A4A93420BD18023DB0101211800FBF706
:104B00005FFB8023DB0100211800FBF759FBC04647
:104B1000BD4602B080BDC0460030014000380040B4
:104B200080B584B000AF786039600E23FB18002296
:104B30001A800E23FB187A6812881A800E23FB183D
:104B40000E22BA181188C12292010A401A803B68CD
:104B50001A883B68DB8913439AB23B68DB881343AE
:104B60009AB23B681B8913439AB23B685B89134333
:104B70009AB23B689B89134399B20E23FB180E220D
:104B8000BA1812880A431A807B680E22BA18128853
:104B90001A800E23FB187A6892881A800E23FB185D
:104BA0000E22BA1812881E490A401A803B6899885A
:104BB0000E23FB180E22BA1812880A431A807B684B
:104BC0000E22BA1812889A803B681A8A7B681A8269
:104BD0000E23FB187A6812881A800E23FB180E2207
:104BE000BA18128804218A431A803B6859880E2318
:104BF000FB180E22BA1812880A431A807B680E220C
:104C0000BA1812881A807B689B8B9BB2054A1340A6
:104C10009AB27B689A83C046BD4604B080BDC04648
:104C2000FFF0FFFFFFF7FFFF80B582B000AF7860B5
:104C30000A00FB1C1A70FB1C1B78002B08D07B6839
:104C40001B889BB2402213439AB27B681A8007E00C
:104C50007B681B889BB2402293439AB27B681A8080
:104C6000C046BD4602B080BD80B582B000AF78605E
:104C70000A00BB1C1A807B689B889BB2084A1340C1
:104C80009AB27B689A807B689B889AB2BB1C1B880F
:104C900013439AB27B689A80C046BD4602B080BD7D
:104CA000FFEFFFFF80B584B000AF78600A00FB1C07
:104CB0001A700023FB607B68FB60FB680C33FB60B1
:104CC000FB68FA1C12781A70C046BD4604B080BD5D
:104CD00080B584B000AF78600023FB607B68FB6028
:104CE000FB680C33FB60FB681B78DBB21800BD4629
:104CF00004B080BD80B584B000AF78600A00BB1CF2
:104D00001A800F23FB1800221A707B681B899BB244
:104D1000BA1C128813409BB2002B04D00F23FB183F
:104D200001221A7003E00F23FB1800221A700F23D0
:104D3000FB181B781800BD4604B080BD80B586B056
:104D400000AF786039600023FB601723FB18002256
:104D50001A7000233B613A68FC239B01134005D085
:104D60007B681B68802213403B610EE03B68C022D9
:104D7000134005D07B681B68402213403B6104E070
:104D80007B681B683A6813403B617B689B69FB60EA
:104D9000FB683A681340FB60FB68002B07D03B6957
:104DA000002B04D01723FB1801221A7003E01723ED
:104DB000FB1800221A701723FB181B781800BD4639
:104DC00006B080BD80B582B000AF786039607B6886
:104DD0003A68DA61C046BD4602B080BD80B500AF1A
:104DE0001A4B1A4A126801210A431A60174B174AD4
:104DF000526817490A405A60144B144A1268154900
:104E00000A401A60114B114A126813490A401A608D
:104E10000E4B0E4A526811490A405A600B4B0B4A1E
:104E2000D26A0F218A43DA62084B084A126B0C4996
:104E30000A401A63054B054A526B01218A435A63A3
:104E4000024B00229A60C046BD4680BD0010024061
:104E50000CB8FF08FFFFF6FEFFFFFBFFFFFFC0FFE0
:104E6000ACFEFFFF80B586B000AF786039600023EC
:104E70007B6100233B610023FB6000237B6181E0B9
:104E800001227B699A4013003B613B681B683A69C9
:104E90001340FB60FA683B699A4270D13B681B790A
:104EA000012B03D03B681B79022B38D17B689B68B0
:104EB0007A695200032191400A00D2431A407B686C
:104EC0009A607B689A683B685B7919007B695B0034
:104ED00099400B001A437B689A607B689B889BB261
:104EE0007A691204120C012191400A0092B2D24355
:104EF00092B213409AB27B689A807B689B889BB27F
:104F00001AB23B689B7919007B691B041B0C994002
:104F10000B001BB213431BB29AB27B689A807B686A
:104F20001B687A695200032191400A00D2431A405B
:104F30007B681A607B681A683B681B7919007B697B
:104F40005B0099400B001A437B681A607B68DB6842
:104F50007A691204120C5200032191400A00D243D4
:104F60001A407B68DA607B68DA683B68DB79190095
:104F70007B695B0099400B001A437B68DA607B69B0
:104F800001337B617B690F2B00D879E7C046BD46B2
:104F900006B080BD80B582B000AF78607B68094AFA
:104FA0001A607B6800221A717B6801225A717B6843
:104FB00000229A717B680022DA71C046BD4602B0B9
:104FC00080BDC046FFFF000080B584B000AF7860B0
:104FD0000A00BB1C1A800F23FB1800221A707B6882
:104FE0001B8A9BB2BA1C128813409BB2002B04D0C0
:104FF0000F23FB1801221A7003E00F23FB18002275
:105000001A700F23FB181B781800BD4604B080BD32
:1050100080B582B000AF786008001100BB1C021C94
:105020001A807B1C0A1C1A707B1C1B78002B04D076
:10503000BB1C1A887B689A6103E07B68BA1C1288E3
:105040001A85C046BD4602B080BDC04680B584B05A
:1050500000AF786008001100BB1C021C1A807B1C8A
:105060000A1C1A700023FB600023BB607B1C1A78AB
:10507000BB1C1B8807210B409B009A401300FB6060
:10508000BB1C1B88DB089BB21800BB1C1B88DB0801
:105090009BB21A007B6808329200D358BA1C12885F
:1050A00007210A4092000F2191400A00D2431A4082
:1050B00011007B68020008329200D150BB1C1B8893
:1050C000DB089BB21A007B6808329200D258FB685A
:1050D0001343BB60BB1C1B88DB089BB21A007B68B8
:1050E00008329200B968D150C046BD4604B080BDB8
:1050F00080B582B000AF786039603A687B68110093
:105100001800FFF7C1FBC046BD4602B080BDC046D7
:1051100080B584B000AF786039600E23FB180022A0
:105120001A803B68180000F003FE03009AB20E23B9
:10513000FB1801321A800E23FB181A8839687B6825
:105140001800FFF7FFFAC046BD4604B080BDC04658
:1051500080B582B000AF78600A00BB1C1A80C046E0
:10516000BD4602B080BDC04680B582B000AF786059
:105170000A00BB1C1A80C046BD4602B080BDC046B6
:1051800080B584B000AFF860B9607A603B60FB69BD
:10519000180000F0CDFD03009BB20D339AB2FB68FE
:1051A00011001800FFF7D4FFF4235A42FB681100E6
:1051B0001800FFF79DFF7B681A04BB681B041B0CDB
:1051C0001A43FB6811001800FFF792FF1823FB1821
:1051D0001B881A043B681B041B0C1A43FB68110054
:1051E0001800FFF785FFFA69FB6811001800FFF748
:1051F0008FFFFB69180000F09BFD03009BB20D338D
:105200009AB2FB6811001800FFF7AEFFC046BD461A
:1052100004B080BD80B582B000AF78607B680421A7
:105220001800FFF795FFDA235A427B681100180037
:10523000FFF75EFF7B6804211800FFF795FFC0466B
:10524000BD4602B080BDC04680B584B000AFF860F6
:10525000B9607A601A00BB1C1A80FB680C21180028
:10526000FFF776FFEA235A42FB6811001800FFF7A8
:105270003FFF7B681A04BB681B041B0C1A43FB68C6
:1052800011001800FFF734FF1823FB181B881A04BD
:10529000BB1C1B881A43FB6811001800FFF728FF8E
:1052A000FB680C211800FFF75FFFC046BD4604B045
:1052B00080BDC04680B582B000AF78607B680421B5
:1052C0001800FFF745FFFF235A427B6811001800C2
:1052D000FFF70EFF7B6804211800FFF745FFC0466B
:1052E000BD4602B080BDC04680B582B000AF7860D8
:1052F0007B6804211800FFF72BFFE9235A427B68E3
:1053000011001800FFF7F4FE7B6804211800FFF776
:105310002BFFC046BD4602B080BDC04680B582B0FE
:1053200000AF786039607B6808211800FFF710FF34
:10533000F6235A427B6811001800FFF7D9FE3A683D
:105340007B6811001800FFF7D3FE7B680821180066
:10535000FFF70AFFC046BD4602B080BD80B584B0ED
:1053600000AFF860B9607A603B607B6A180000F0BB
:10537000DFFC03009BB211339AB2FB6811001800E6
:10538000FFF7E6FEF3235A42FB6811001800FFF70F
:10539000AFFE7B681A04BB681B041B0C1A43FB6836
:1053A00011001800FFF7A4FEBB691A043B681B0438
:1053B0001B0C1A43FB6811001800FFF799FE20230D
:1053C000FB181B881A04FB691B041B0C1A43FB689F
:1053D00011001800FFF78CFE7A6AFB6811001800B4
:1053E000FFF796FE7B6A180000F0A2FC03009BB258
:1053F00011339AB2FB6811001800FFF7B5FEC046E2
:10540000BD4604B080BDC04680B584B000AFF86032
:10541000B9607A601A00BB1C1A80FB68142118005E
:10542000FFF796FED0235A42FB6811001800FFF7E1
:105430005FFE7B681A04BB681B041B0C1A43FB68E5
:1054400011001800FFF754FE1823FB181B881A04DC
:10545000BB1C1B881A43FB6811001800FFF748FEAD
:10546000FA69FB6811001800FFF742FE2023FB18C1
:105470001A88FB6811001800FFF73AFEFB68142138
:105480001800FFF771FEC046BD4604B080BDC0469F
:1054900080B584B000AFF860B9607A601A00BB1CB8
:1054A0001A80FB6814211800FFF752FECB235A42E2
:1054B000FB6811001800FFF71BFE7B681A04BB682D
:1054C0001B041B0C1A43FB6811001800FFF710FEA9
:1054D0001823FB181B881A04BB1C1B881A43FB6883
:1054E00011001800FFF704FEFA69FB6811001800AC
:1054F000FFF7FEFD2423FB181B881A042023FB184A
:105500001B881A43FB6811001800FFF7F1FDFB68C8
:1055100014211800FFF728FEC046BD4604B080BD28
:1055200080B582B000AF786039607B6808211800D0
:10553000FFF70EFECC235A427B6811001800FFF7DC
:10554000D7FD3A687B6811001800FFF7D1FD7B6832
:1055500008211800FFF708FEC046BD4602B080BD16
:1055600080B582B000AF786039607B680821180090
:10557000FFF7EEFDEB235A427B6811001800FFF79E
:10558000B7FD3A687B6811001800FFF7B1FD7B6832
:1055900008211800FFF7E8FD7B681800FFF74CF9B9
:1055A000C046BD4602B080BD80B584B000AFF86093
:1055B000B9607A60FB680C211800FFF7C9FDE4238D
:1055C0005A42FB6811001800FFF792FDBA68FB68A9
:1055D00011001800FFF78CFD7A68FB6811001800B5
:1055E000FFF786FDFB680C211800FFF7BDFDC046E4
:1055F000BD4604B080BDC04680B582B000AF7860C3
:1056000039607B6808211800FFF7A2FDDD235A42AC
:105610007B6811001800FFF76BFD3A687B6811008A
:105620001800FFF765FD7B6808211800FFF79CFD57
:10563000C046BD4602B080BD80B584B000AFF86002
:10564000B9607A603B607B6A180000F071FB030070
:105650009BB211339AB2FB6811001800FFF778FD76
:10566000F2235A42FB6811001800FFF741FD7B68E6
:105670001A04BB681B041B0C1A43FB6811001800BA
:10568000FFF736FDBB691A043B681B041B0C1A4369
:10569000FB6811001800FFF72BFD2023FB181B8867
:1056A0001A04FB691B041B0C1A43FB681100180049
:1056B000FFF71EFD7A6AFB6811001800FFF728FD4E
:1056C0007B6A180000F034FB03009BB211339AB2DE
:1056D000FB6811001800FFF747FDC046BD4604B047
:1056E00080BDC04680B582B000AF78607B68042181
:1056F0001800FFF72DFD074A7B6811001800FFF71F
:10570000F7FC7B6804211800FFF72EFDC046BD465C
:1057100002B080BD00FFFFFF80B584B000AF7860AD
:105720000023FB60334BFB607B689B79002B4FD0E1
:10573000304A304B19687B681B68DB430B401360B1
:105740002C4A2C4B59687B681B68DB430B40536029
:105750007B681B791A00FB689B18FB60FB68FA6882
:1057600011687A6812680A431A60224A214B9968C4
:105770007B681B68DB430B4093601E4A1D4BD96856
:105780007B681B68DB430B40D3607B685B79102B25
:105790000ED1184A174B99687B681B680B439360BE
:1057A000144A144BD9687B681B680B43D3601DE017
:1057B000104BFB607B685B791A00FB689B18FB60F1
:1057C000FB68FA6811687A6812680A431A600DE08B
:1057D0007B681B791A00FB689B18FB60FB68FA6802
:1057E00011687A681268D2430A401A60C046BD4602
:1057F00004B080BD0004014080B584B000AF786083
:105800000F23FB1800221A700A4B5B697A68134059
:1058100004D00F23FB1801221A7003E00F23FB189A
:1058200000221A700F23FB181B781800BD4604B025
:1058300080BDC0460004014080B582B000AF7860F2
:10584000034B7A685A61C046BD4602B080BDC0466F
:1058500000040140B0B584B000AF0200FB1D1A7017
:10586000BB1D0A1C1A700023FB60BB1D1B780322A2
:1058700013409B000F229A401300FB601949BB1D87
:105880001B789B08DBB21800164ABB1D1B789B08CF
:10589000DBB202339B009B58FA68D2431A40831C48
:1058A0009B005A500F48BB1D1B789B08DBB21D00A4
:1058B0000C4ABB1D1B789B08DBB202339B009A5835
:1058C000FB1D1978BB1D1B78032423409B009940C6
:1058D0000B001A43AB1C9B001A50C046BD4604B0D7
:1058E000B0BDC0460000014080B584B000AF786014
:1058F0000023FB607B689B78002B39D0244A7B68AF
:105900001B789B08DBB2C0339B009B58FB607B6815
:105910001B781A0003231340DB00FF229A40130078
:10592000DA43FB681340FB607B685B789B01FF22D6
:105930001A407B681B78190003230B40DB009A4058
:105940001300FA681343FB6011497B681B789B08BE
:10595000DBB2C0339B00FA685A500D4B7A6812785C
:1059600011001F220A40012191400A001A600AE03A
:1059700007497B681B781A001F23134001229A40B5
:10598000130080228B50C046BD4604B080BDC04687
:1059900000E100E080B582B000AF78607B68042B46
:1059A00006D1084B074A126804210A431A6005E031
:1059B000044B044A126804218A431A60C046BD465B
:1059C00002B080BD10E000E0002243088B4274D397
:1059D00003098B425FD3030A8B4244D3030B8B42F0
:1059E00028D3030C8B420DD3FF22090212BA030CF9
:1059F0008B4202D31212090265D0030B8B4219D3DA
:105A000000E0090AC30B8B4201D3CB03C01A5241F9
:105A1000830B8B4201D38B03C01A5241430B8B4241
:105A200001D34B03C01A5241030B8B4201D30B032A
:105A3000C01A5241C30A8B4201D3CB02C01A524151
:105A4000830A8B4201D38B02C01A5241430A8B4214
:105A500001D34B02C01A5241030A8B4201D30B02FD
:105A6000C01A5241CDD2C3098B4201D3CB01C01A17
:105A7000524183098B4201D38B01C01A5241430921
:105A80008B4201D34B01C01A524103098B4201D30F
:105A90000B01C01A5241C3088B4201D3CB00C01A7C
:105AA000524183088B4201D38B00C01A52414308F4
:105AB0008B4201D34B00C01A5241411A00D2014619
:105AC000524110467047FFE701B5002000F0F0F8A2
:105AD00002BDC0460029F7D076E7704703460B4366
